Component: ARM Compiler 5.06 update 4 (build 422) Tool: armlink [4d35d2]

==============================================================================

Section Cross References

    main.o(i.main) refers to usart.o(i.uart_init) for uart_init
    main.o(i.main) refers to delay.o(i.delay_init) for delay_init
    main.o(i.main) refers to led.o(i.LED_Init) for LED_Init
    main.o(i.main) refers to delay.o(i.delay_ms) for delay_ms
    main.o(i.main) refers to boardmpu.o(i.BoardMpu_Init) for BoardMpu_Init
    main.o(i.main) refers to mpu6050.o(i.Mpu6050_Init) for Mpu6050_Init
    main.o(i.main) refers to motor.o(i.Motor_Init) for Motor_Init
    main.o(i.main) refers to gimbalcontrol.o(i.BiasInit) for BiasInit
    main.o(i.main) refers to gimbalcontrol.o(i.positionInit) for positionInit
    main.o(i.main) refers to gimbalcontrol.o(i.GimbalControl) for GimbalControl
    system_stm32f10x.o(i.SetSysClock) refers to system_stm32f10x.o(i.SetSysClockTo72) for SetSysClockTo72
    system_stm32f10x.o(i.SystemCoreClockUpdate) refers to system_stm32f10x.o(.data) for SystemCoreClock
    system_stm32f10x.o(i.SystemInit) refers to system_stm32f10x.o(i.SetSysClock) for SetSysClock
    pid.o(i.MedianFilter) refers to fleqf.o(x$fpl$fleqf) for __aeabi_cfcmple
    pid.o(i.MedianFilter) refers to frleqf.o(x$fpl$frleqf) for __aeabi_cfrcmple
    pid.o(i.MedianFilter) refers to faddsub_clz.o(x$fpl$fadd) for __aeabi_fadd
    pid.o(i.MedianFilter) refers to fdiv.o(x$fpl$fdiv) for __aeabi_fdiv
    pid.o(i.MedianFilter) refers to pid.o(.bss) for mfData
==============================================================================

Removing Unused input sections from the image.

    Removing main.o(.bss), (4380 bytes).
    Removing main.o(.constdata), (2 bytes).
    Removing main.o(.data), (100 bytes).
    Removing system_stm32f10x.o(i.SystemCoreClockUpdate), (164 bytes).
    Removing gimbalcontrol.o(.bss), (4380 bytes).
    Removing gimbalcontrol.o(.constdata), (2 bytes).
    Removing mpu6050.o(i.Mpu6050_GetTempData), (108 bytes).
    Removing boardmpu.o(i.BoardMpu_GetTempData), (108 bytes).
    Removing motor.o(i.Motor0_Shutdown), (40 bytes).
    Removing motor.o(i.Motor1_Shutdown), (40 bytes).
    Removing motor.o(i.Motor2_Shutdown), (40 bytes).
    Removing tim_message.o(i.TIM5_Init), (96 bytes).
    Removing report.o(i.mpu6050_send_data), (110 bytes).
    Removing report.o(i.usart1_niming_report), (112 bytes).
    Removing report.o(i.usart1_report_imu), (192 bytes).
    Removing sys.o(.emb_text), (6 bytes).
    Removing sys.o(i.INTX_DISABLE), (4 bytes).
    Removing sys.o(i.INTX_ENABLE), (4 bytes).
==============================================================================

Image Symbol Table

    Local Symbols

    Symbol Name                              Value     Ov Type        Size  Object(Section)

    ../clib/angel/boardlib.s                 0x00000000   Number         0  boardinit1.o ABSOLUTE
    ../clib/angel/boardlib.s                 0x00000000   Number         0  boardshut.o ABSOLUTE
    ../clib/angel/boardlib.s                 0x00000000   Number         0  boardinit2.o ABSOLUTE
    ../clib/angel/boardlib.s                 0x00000000   Number         0  boardinit3.o ABSOLUTE
    ../clib/angel/dczerorl2.s                0x00000000   Number         0  __dczerorl2.o ABSOLUTE
    ../clib/angel/handlers.s                 0x00000000   Number         0  __scatter_zi.o ABSOLUTE
    ../clib/angel/kernel.s                   0x00000000   Number         0  rtexit.o ABSOLUTE
    ../clib/angel/kernel.s                   0x00000000   Number         0  __rtentry4.o ABSOLUTE
    ../clib/angel/kernel.s                   0x00000000   Number         0  rtexit2.o ABSOLUTE
    ../clib/angel/kernel.s                   0x00000000   Number         0  __rtentry.o ABSOLUTE
    ../clib/angel/kernel.s                   0x00000000   Number         0  __rtentry2.o ABSOLUTE
    ../clib/angel/rt.s                       0x00000000   Number         0  rt_raise.o ABSOLUTE
    ../clib/angel/rt.s                       0x00000000   Number         0  rt_errno_addr.o ABSOLUTE
    ../clib/angel/rt.s                       0x00000000   Number         0  rt_errno_addr_intlibspace.o ABSOLUTE
    ../clib/angel/scatter.s                  0x00000000   Number         0  __scatter.o ABSOLUTE
    ../clib/angel/startup.s                  0x00000000   Number         0  __main.o ABSOLUTE
    ../clib/angel/sys.s                      0x00000000   Number         0  use_no_semi_2.o ABSOLUTE
    ../clib/angel/sys.s                      0x00000000   Number         0  use_no_semi.o ABSOLUTE
    ../clib/angel/sys.s                      0x00000000   Number         0  indicate_semi.o ABSOLUTE
    ../clib/angel/sys.s                      0x00000000   Number         0  libspace.o ABSOLUTE
    ../clib/angel/sys.s                      0x00000000   Number         0  sys_stackheap_outer.o ABSOLUTE
    ../clib/angel/sysapp.c                   0x00000000   Number         0  sys_wrch.o ABSOLUTE
    ../clib/angel/sysapp.c                   0x00000000   Number         0  sys_command.o ABSOLUTE
    ../clib/armsys.c                         0x00000000   Number         0  argv_veneer.o ABSOLUTE
    ../clib/armsys.c                         0x00000000   Number         0  argv_veneer.o ABSOLUTE
    ../clib/armsys.c                         0x00000000   Number         0  _get_argv_nomalloc.o ABSOLUTE
    ../clib/armsys.c                         0x00000000   Number         0  no_argv.o ABSOLUTE
    ../clib/fenv.c                           0x00000000   Number         0  _rserrno.o ABSOLUTE
    ../clib/heapalloc.c                      0x00000000   Number         0  hrguard.o ABSOLUTE
    ../clib/heapaux.c                        0x00000000   Number         0  heapauxi.o ABSOLUTE
    ../clib/libinit.s                        0x00000000   Number         0  libinit.o ABSOLUTE
    ../clib/libinit.s                        0x00000000   Number         0  libshutdown2.o ABSOLUTE
    ../clib/libinit.s                        0x00000000   Number         0  libshutdown.o ABSOLUTE
    ../clib/libinit.s                        0x00000000   Number         0  libinit2.o ABSOLUTE
    ../clib/signal.c                         0x00000000   Number         0  defsig_pvfn_inner.o ABSOLUTE
    ../clib/signal.c                         0x00000000   Number         0  defsig_stak_inner.o ABSOLUTE
    ../clib/signal.c                         0x00000000   Number         0  defsig_rtred_inner.o ABSOLUTE
    ../clib/signal.c                         0x00000000   Number         0  defsig_fpe_inner.o ABSOLUTE
    ../clib/signal.c                         0x00000000   Number         0  defsig_abrt_inner.o ABSOLUTE
    ../clib/signal.c                         0x00000000   Number         0  defsig_general.o ABSOLUTE
    ../clib/signal.c                         0x00000000   Number         0  __raise.o ABSOLUTE
    ../clib/signal.c                         0x00000000   Number         0  defsig_rtmem_inner.o ABSOLUTE
    ../clib/signal.c                         0x00000000   Number         0  defsig_exit.o ABSOLUTE
    ../clib/signal.c                         0x00000000   Number         0  defsig_rtmem_formal.o ABSOLUTE
    ../clib/signal.c                         0x00000000   Number         0  defsig_rtmem_outer.o ABSOLUTE
    ../clib/signal.c                         0x00000000   Number         0  defsig_other.o ABSOLUTE
    ../clib/signal.c                         0x00000000   Number         0  defsig_segv_inner.o ABSOLUTE
    ../clib/signal.c                         0x00000000   Number         0  defsig_cppl_inner.o ABSOLUTE
    ../clib/signal.s                         0x00000000   Number         0  defsig.o ABSOLUTE
    ../clib/stdlib.c                         0x00000000   Number         0  exit.o ABSOLUTE
    ../fplib/d2f.s                           0x00000000   Number         0  d2f.o ABSOLUTE
    ../fplib/daddsub.s                       0x00000000   Number         0  daddsub_clz.o ABSOLUTE
    ../fplib/dcheck1.s                       0x00000000   Number         0  dcheck1.o ABSOLUTE
    ../fplib/dcmpi.s                         0x00000000   Number         0  dcmpi.o ABSOLUTE
    ../fplib/ddiv.s                          0x00000000   Number         0  ddiv.o ABSOLUTE
    ../fplib/dfix.s                          0x00000000   Number         0  dfix.o ABSOLUTE
    ../fplib/dfixu.s                         0x00000000   Number         0  dfixu.o ABSOLUTE
    ../fplib/dflt.s                          0x00000000   Number         0  dflt_clz.o ABSOLUTE
    ../fplib/dleqf.s                         0x00000000   Number         0  dleqf.o ABSOLUTE
    ../fplib/dmul.s                          0x00000000   Number         0  dmul.o ABSOLUTE
    ../fplib/dnaninf.s                       0x00000000   Number         0  dnaninf.o ABSOLUTE
    ../fplib/dretinf.s                       0x00000000   Number         0  dretinf.o ABSOLUTE
    ../fplib/drleqf.s                        0x00000000   Number         0  drleqf.o ABSOLUTE
    ../fplib/f2d.s                           0x00000000   Number         0  f2d.o ABSOLUTE
    ../fplib/faddsub.s                       0x00000000   Number         0  faddsub_clz.o ABSOLUTE
    ../fplib/fcmpi.s                         0x00000000   Number         0  fcmpi.o ABSOLUTE
    ../fplib/fdiv.s                          0x00000000   Number         0  fdiv.o ABSOLUTE
    ../fplib/feqf.s                          0x00000000   Number         0  feqf.o ABSOLUTE
    ../fplib/ffix.s                          0x00000000   Number         0  ffix.o ABSOLUTE
    ../fplib/ffixu.s                         0x00000000   Number         0  ffixu.o ABSOLUTE
    ../fplib/fflt.s                          0x00000000   Number         0  fflt_clz.o ABSOLUTE
    ../fplib/fleqf.s                         0x00000000   Number         0  fleqf.o ABSOLUTE
    ../fplib/fmul.s                          0x00000000   Number         0  fmul.o ABSOLUTE
    ../fplib/fnaninf.s                       0x00000000   Number         0  fnaninf.o ABSOLUTE
    ../fplib/fpinit.s                        0x00000000   Number         0  fpinit.o ABSOLUTE
    ../fplib/fretinf.s                       0x00000000   Number         0  fretinf.o ABSOLUTE
    ../fplib/frleqf.s                        0x00000000   Number         0  frleqf.o ABSOLUTE
    ../fplib/retnan.s                        0x00000000   Number         0  retnan.o ABSOLUTE
    ../fplib/scalbn.s                        0x00000000   Number         0  scalbn.o ABSOLUTE
    ../fplib/trapv.s                         0x00000000   Number         0  trapv.o ABSOLUTE
    ../fplib/usenofp.s                       0x00000000   Number         0  usenofp.o ABSOLUTE
    ../mathlib/atan.c                        0x00000000   Number         0  atan_x.o ABSOLUTE
    ../mathlib/atan.c                        0x00000000   Number         0  atan.o ABSOLUTE
    ../mathlib/atan2.c                       0x00000000   Number         0  atan2.o ABSOLUTE
    ../mathlib/atan2.c                       0x00000000   Number         0  atan2_x.o ABSOLUTE
    ../mathlib/cos_i.c                       0x00000000   Number         0  cos_i.o ABSOLUTE
    ../mathlib/dunder.c                      0x00000000   Number         0  dunder.o ABSOLUTE
    ../mathlib/fpclassify.c                  0x00000000   Number         0  fpclassify.o ABSOLUTE
    ../mathlib/poly.c                        0x00000000   Number         0  poly.o ABSOLUTE
    ../mathlib/qnan.c                        0x00000000   Number         0  qnan.o ABSOLUTE
    ../mathlib/rred.c                        0x00000000   Number         0  rred.o ABSOLUTE
    ../mathlib/sin.c                         0x00000000   Number         0  sin_x.o ABSOLUTE
    ../mathlib/sin.c                         0x00000000   Number         0  sin.o ABSOLUTE
    ../mathlib/sin_i.c                       0x00000000   Number         0  sin_i.o ABSOLUTE
    ../mathlib/sin_i.c                       0x00000000   Number         0  sin_i_x.o ABSOLUTE
    ..\CORE\core_cm3.c                       0x00000000   Number         0  core_cm3.o ABSOLUTE
    ..\CORE\startup_stm32f10x_hd.s           0x00000000   Number         0  startup_stm32f10x_hd.o ABSOLUTE
    ..\HARDWARE\BOARDMPU\boardmpu.c          0x00000000   Number         0  boardmpu.o ABSOLUTE
    ..\HARDWARE\BOARDMPU\boardmpui2c.c       0x00000000   Number         0  boardmpui2c.o ABSOLUTE
    ..\HARDWARE\LED\led.c                    0x00000000   Number         0  led.o ABSOLUTE
    ..\HARDWARE\MPU6050\mpu6050.c            0x00000000   Number         0  mpu6050.o ABSOLUTE
    ..\HARDWARE\MPU6050\mpui2c.c             0x00000000   Number         0  mpui2c.o ABSOLUTE
    ..\HARDWARE\REPORT\TIM_Message.c         0x00000000   Number         0  tim_message.o ABSOLUTE
    ..\HARDWARE\motor\motor.c                0x00000000   Number         0  motor.o ABSOLUTE
    ..\STM32F10x_FWLib\src\misc.c            0x00000000   Number         0  misc.o ABSOLUTE
    ..\STM32F10x_FWLib\src\stm32f10x_fsmc.c  0x00000000   Number         0  stm32f10x_fsmc.o ABSOLUTE
    ..\STM32F10x_FWLib\src\stm32f10x_gpio.c  0x00000000   Number         0  stm32f10x_gpio.o ABSOLUTE
    ..\STM32F10x_FWLib\src\stm32f10x_rcc.c   0x00000000   Number         0  stm32f10x_rcc.o ABSOLUTE
    ..\STM32F10x_FWLib\src\stm32f10x_tim.c   0x00000000   Number         0  stm32f10x_tim.o ABSOLUTE
    ..\STM32F10x_FWLib\src\stm32f10x_usart.c 0x00000000   Number         0  stm32f10x_usart.o ABSOLUTE
    ..\SYSTEM\delay\delay.c                  0x00000000   Number         0  delay.o ABSOLUTE
    ..\SYSTEM\sys\sys.c                      0x00000000   Number         0  sys.o ABSOLUTE
    ..\SYSTEM\usart\usart.c                  0x00000000   Number         0  usart.o ABSOLUTE
    ..\\CORE\\core_cm3.c                     0x00000000   Number         0  core_cm3.o ABSOLUTE
    ..\\SYSTEM\\sys\\sys.c                   0x00000000   Number         0  sys.o ABSOLUTE
    dc.s                                     0x00000000   Number         0  dc.o ABSOLUTE
    gimbalcontrol.c                          0x00000000   Number         0  gimbalcontrol.o ABSOLUTE
    main.c                                   0x00000000   Number         0  main.o ABSOLUTE
    pid.c                                    0x00000000   Number         0  pid.o ABSOLUTE
    report.c                                 0x00000000   Number         0  report.o ABSOLUTE
    stm32f10x_it.c                           0x00000000   Number         0  stm32f10x_it.o ABSOLUTE
    system_stm32f10x.c                       0x00000000   Number         0  system_stm32f10x.o ABSOLUTE
    RESET                                    0x08000000   Section      304  startup_stm32f10x_hd.o(RESET)
    !!!main                                  0x08000130   Section        8  __main.o(!!!main)
    !!!scatter                               0x08000138   Section       52  __scatter.o(!!!scatter)
    !!dczerorl2                              0x0800016c   Section       90  __dczerorl2.o(!!dczerorl2)
    !!handler_zi                             0x080001c8   Section       28  __scatter_zi.o(!!handler_zi)
    .ARM.Collect$$libinit$$00000000          0x080001e4   Section        2  libinit.o(.ARM.Collect$$libinit$$00000000)
    .ARM.Collect$$libinit$$00000002          0x080001e6   Section        0  libinit2.o(.ARM.Collect$$libinit$$00000002)
    .ARM.Collect$$libinit$$00000004          0x080001e6   Section        0  libinit2.o(.ARM.Collect$$libinit$$00000004)
    .ARM.Collect$$libinit$$0000000A          0x080001e6   Section        0  libinit2.o(.ARM.Collect$$libinit$$0000000A)
    .ARM.Collect$$libinit$$0000000C          0x080001e6   Section        0  libinit2.o(.ARM.Collect$$libinit$$0000000C)
    .ARM.Collect$$libinit$$0000000E          0x080001e6   Section        0  libinit2.o(.ARM.Collect$$libinit$$0000000E)
    .ARM.Collect$$libinit$$00000011          0x080001e6   Section        0  libinit2.o(.ARM.Collect$$libinit$$00000011)
    .ARM.Collect$$libinit$$00000013          0x080001e6   Section        0  libinit2.o(.ARM.Collect$$libinit$$00000013)
    .ARM.Collect$$libinit$$00000015          0x080001e6   Section        0  libinit2.o(.ARM.Collect$$libinit$$00000015)
    .ARM.Collect$$libinit$$00000017          0x080001e6   Section        0  libinit2.o(.ARM.Collect$$libinit$$00000017)
    .ARM.Collect$$libinit$$00000019          0x080001e6   Section        0  libinit2.o(.ARM.Collect$$libinit$$00000019)
    .ARM.Collect$$libinit$$0000001B          0x080001e6   Section        0  libinit2.o(.ARM.Collect$$libinit$$0000001B)
    .ARM.Collect$$libinit$$0000001D          0x080001e6   Section        0  libinit2.o(.ARM.Collect$$libinit$$0000001D)
    .ARM.Collect$$libinit$$0000001F          0x080001e6   Section        0  libinit2.o(.ARM.Collect$$libinit$$0000001F)
    .ARM.Collect$$libinit$$00000021          0x080001e6   Section        0  libinit2.o(.ARM.Collect$$libinit$$00000021)
    .ARM.Collect$$libinit$$00000023          0x080001e6   Section        0  libinit2.o(.ARM.Collect$$libinit$$00000023)
    .ARM.Collect$$libinit$$00000025          0x080001e6   Section        0  libinit2.o(.ARM.Collect$$libinit$$00000025)
    .ARM.Collect$$libinit$$0000002C          0x080001e6   Section        0  libinit2.o(.ARM.Collect$$libinit$$0000002C)
    .ARM.Collect$$libinit$$0000002E          0x080001e6   Section        0  libinit2.o(.ARM.Collect$$libinit$$0000002E)
    .ARM.Collect$$libinit$$00000030          0x080001e6   Section        0  libinit2.o(.ARM.Collect$$libinit$$00000030)
    .ARM.Collect$$libinit$$00000032          0x080001e6   Section        0  libinit2.o(.ARM.Collect$$libinit$$00000032)
    .ARM.Collect$$libinit$$00000033          0x080001e6   Section        2  libinit2.o(.ARM.Collect$$libinit$$00000033)
    .ARM.Collect$$libshutdown$$00000000      0x080001e8   Section        2  libshutdown.o(.ARM.Collect$$libshutdown$$00000000)
    .ARM.Collect$$libshutdown$$00000002      0x080001ea   Section        0  libshutdown2.o(.ARM.Collect$$libshutdown$$00000002)
    .ARM.Collect$$libshutdown$$00000004      0x080001ea   Section        0  libshutdown2.o(.ARM.Collect$$libshutdown$$00000004)
    .ARM.Collect$$libshutdown$$00000007      0x080001ea   Section        0  libshutdown2.o(.ARM.Collect$$libshutdown$$00000007)
    .ARM.Collect$$libshutdown$$0000000A      0x080001ea   Section        0  libshutdown2.o(.ARM.Collect$$libshutdown$$0000000A)
    .ARM.Collect$$libshutdown$$0000000C      0x080001ea   Section        0  libshutdown2.o(.ARM.Collect$$libshutdown$$0000000C)
    .ARM.Collect$$libshutdown$$0000000F      0x080001ea   Section        0  libshutdown2.o(.ARM.Collect$$libshutdown$$0000000F)
    .ARM.Collect$$libshutdown$$00000010      0x080001ea   Section        2  libshutdown2.o(.ARM.Collect$$libshutdown$$00000010)
    .ARM.Collect$$rtentry$$00000000          0x080001ec   Section        0  __rtentry.o(.ARM.Collect$$rtentry$$00000000)
    .ARM.Collect$$rtentry$$00000002          0x080001ec   Section        0  __rtentry2.o(.ARM.Collect$$rtentry$$00000002)
    .ARM.Collect$$rtentry$$00000004          0x080001ec   Section        6  __rtentry4.o(.ARM.Collect$$rtentry$$00000004)
    .ARM.Collect$$rtentry$$00000009          0x080001f2   Section        0  __rtentry2.o(.ARM.Collect$$rtentry$$00000009)
    .ARM.Collect$$rtentry$$0000000A          0x080001f2   Section        4  __rtentry2.o(.ARM.Collect$$rtentry$$0000000A)
    .ARM.Collect$$rtentry$$0000000C          0x080001f6   Section        0  __rtentry2.o(.ARM.Collect$$rtentry$$0000000C)
    .ARM.Collect$$rtentry$$0000000D          0x080001f6   Section        8  __rtentry2.o(.ARM.Collect$$rtentry$$0000000D)
    .ARM.Collect$$rtexit$$00000000           0x080001fe   Section        2  rtexit.o(.ARM.Collect$$rtexit$$00000000)
    .ARM.Collect$$rtexit$$00000002           0x08000200   Section        0  rtexit2.o(.ARM.Collect$$rtexit$$00000002)
    .ARM.Collect$$rtexit$$00000003           0x08000200   Section        4  rtexit2.o(.ARM.Collect$$rtexit$$00000003)
    .ARM.Collect$$rtexit$$00000004           0x08000204   Section        6  rtexit2.o(.ARM.Collect$$rtexit$$00000004)
    .text                                    0x0800020c   Section       64  startup_stm32f10x_hd.o(.text)
    .text                                    0x0800024c   Section        2  use_no_semi_2.o(.text)
    .text                                    0x0800024e   Section        0  heapauxi.o(.text)
    .text                                    0x08000254   Section        2  use_no_semi.o(.text)
    .text                                    0x08000256   Section        0  _rserrno.o(.text)
    .text                                    0x0800026c   Section        8  rt_errno_addr_intlibspace.o(.text)
    .text                                    0x08000274   Section        8  libspace.o(.text)
    .text                                    0x0800027c   Section       74  sys_stackheap_outer.o(.text)
    .text                                    0x080002c6   Section        0  exit.o(.text)
    i.AutoMode                               0x080002d8   Section        0  gimbalcontrol.o(i.AutoMode)
    i.BiasInit                               0x08000360   Section        0  gimbalcontrol.o(i.BiasInit)
    i.BoardMpu_CalPitchRoll                  0x0800043c   Section        0  boardmpu.o(i.BoardMpu_CalPitchRoll)
    i.BoardMpu_GetAccelData                  0x080005d8   Section        0  boardmpu.o(i.BoardMpu_GetAccelData)
    i.BoardMpu_GetDevID                      0x08000698   Section        0  boardmpu.o(i.BoardMpu_GetDevID)
    i.BoardMpu_GetGyroData                   0x080006b4   Section        0  boardmpu.o(i.BoardMpu_GetGyroData)
    i.BoardMpu_Init                          0x08000778   Section        0  boardmpu.o(i.BoardMpu_Init)
    i.BoardMpu_SetDLPF                       0x08000840   Section        0  boardmpu.o(i.BoardMpu_SetDLPF)
    i.BoardMpu_SetSampleRate                 0x0800089a   Section        0  boardmpu.o(i.BoardMpu_SetSampleRate)
    i.BusFault_Handler                       0x080008f8   Section        0  stm32f10x_it.o(i.BusFault_Handler)
    i.ConvertAngle                           0x080008fc   Section        0  gimbalcontrol.o(i.ConvertAngle)
    i.DebugMon_Handler                       0x08000a04   Section        0  stm32f10x_it.o(i.DebugMon_Handler)
    i.GPIO_Init                              0x08000a06   Section        0  stm32f10x_gpio.o(i.GPIO_Init)
    i.GPIO_ReadInputDataBit                  0x08000b1c   Section        0  stm32f10x_gpio.o(i.GPIO_ReadInputDataBit)
    i.GPIO_ResetBits                         0x08000b2e   Section        0  stm32f10x_gpio.o(i.GPIO_ResetBits)
    i.GPIO_SetBits                           0x08000b32   Section        0  stm32f10x_gpio.o(i.GPIO_SetBits)
    i.GPIO_WriteBit                          0x08000b36   Section        0  stm32f10x_gpio.o(i.GPIO_WriteBit)
    i.GimbalControl                          0x08000b40   Section        0  gimbalcontrol.o(i.GimbalControl)
    i.HardFault_Handler                      0x08000da8   Section        0  stm32f10x_it.o(i.HardFault_Handler)
    i.I2C1_Init                              0x08000dac   Section        0  boardmpui2c.o(i.I2C1_Init)
    i.I2C1_ReadData                          0x08000de0   Section        0  boardmpui2c.o(i.I2C1_ReadData)
    i.I2C1_RecvByte                          0x08000e74   Section        0  boardmpui2c.o(i.I2C1_RecvByte)
    i.I2C1_SendACK                           0x08000f08   Section        0  boardmpui2c.o(i.I2C1_SendACK)
    i.I2C1_SendByte                          0x08000f4c   Section        0  boardmpui2c.o(i.I2C1_SendByte)
    i.I2C1_Start                             0x08000fa8   Section        0  boardmpui2c.o(i.I2C1_Start)
    i.I2C1_Stop                              0x08000fe4   Section        0  boardmpui2c.o(i.I2C1_Stop)
    i.I2C1_WaitACK                           0x08001020   Section        0  boardmpui2c.o(i.I2C1_WaitACK)
    i.I2C1_WriteData                         0x080010a4   Section        0  boardmpui2c.o(i.I2C1_WriteData)
    i.I2C2_Init                              0x08001114   Section        0  mpui2c.o(i.I2C2_Init)
    i.I2C2_ReadData                          0x0800114c   Section        0  mpui2c.o(i.I2C2_ReadData)
    i.I2C2_RecvByte                          0x080011e0   Section        0  mpui2c.o(i.I2C2_RecvByte)
    i.I2C2_SendACK                           0x08001280   Section        0  mpui2c.o(i.I2C2_SendACK)
    i.I2C2_SendByte                          0x080012cc   Section        0  mpui2c.o(i.I2C2_SendByte)
    i.I2C2_Start                             0x08001330   Section        0  mpui2c.o(i.I2C2_Start)
    i.I2C2_Stop                              0x08001374   Section        0  mpui2c.o(i.I2C2_Stop)
    i.I2C2_WaitACK                           0x080013b8   Section        0  mpui2c.o(i.I2C2_WaitACK)
    i.I2C2_WriteData                         0x0800144c   Section        0  mpui2c.o(i.I2C2_WriteData)
    i.LED_Init                               0x080014bc   Section        0  led.o(i.LED_Init)
    i.MedianFilter                           0x080014f4   Section        0  pid.o(i.MedianFilter)
    i.MemManage_Handler                      0x08001628   Section        0  stm32f10x_it.o(i.MemManage_Handler)
    i.Motor0_Run                             0x0800162c   Section        0  motor.o(i.Motor0_Run)
    i.Motor0_SetPWM                          0x0800171c   Section        0  motor.o(i.Motor0_SetPWM)
    i.Motor1_Run                             0x0800175c   Section        0  motor.o(i.Motor1_Run)
    i.Motor1_SetPWM                          0x0800184c   Section        0  motor.o(i.Motor1_SetPWM)
    i.Motor2_Run                             0x08001890   Section        0  motor.o(i.Motor2_Run)
    i.Motor2_SetPWM                          0x08001980   Section        0  motor.o(i.Motor2_SetPWM)
    i.MotorPWM_Init                          0x080019c4   Section        0  motor.o(i.MotorPWM_Init)
    i.MotorPos_Init                          0x08001b54   Section        0  motor.o(i.MotorPos_Init)
    i.Motor_Init                             0x08001b64   Section        0  motor.o(i.Motor_Init)
    i.Mpu6050_CalPitchRoll                   0x08001b74   Section        0  mpu6050.o(i.Mpu6050_CalPitchRoll)
    i.Mpu6050_GetAccelData                   0x08001d1c   Section        0  mpu6050.o(i.Mpu6050_GetAccelData)
    i.Mpu6050_GetDevID                       0x08001ddc   Section        0  mpu6050.o(i.Mpu6050_GetDevID)
    i.Mpu6050_GetGyroData                    0x08001df8   Section        0  mpu6050.o(i.Mpu6050_GetGyroData)
    i.Mpu6050_Init                           0x08001ebc   Section        0  mpu6050.o(i.Mpu6050_Init)
    i.Mpu6050_SetDLPF                        0x08001f84   Section        0  mpu6050.o(i.Mpu6050_SetDLPF)
    i.Mpu6050_SetSampleRate                  0x08001fde   Section        0  mpu6050.o(i.Mpu6050_SetSampleRate)
    i.NMI_Handler                            0x0800203c   Section        0  stm32f10x_it.o(i.NMI_Handler)
    i.NVIC_Init                              0x08002040   Section        0  misc.o(i.NVIC_Init)
    i.PID_Motor0                             0x080020b0   Section        0  pid.o(i.PID_Motor0)
    i.PID_Motor1                             0x08002224   Section        0  pid.o(i.PID_Motor1)
    i.PID_Motor2                             0x08002398   Section        0  pid.o(i.PID_Motor2)
    i.PendSV_Handler                         0x08002500   Section        0  stm32f10x_it.o(i.PendSV_Handler)
    i.RCC_APB1PeriphClockCmd                 0x08002504   Section        0  stm32f10x_rcc.o(i.RCC_APB1PeriphClockCmd)
    i.RCC_APB2PeriphClockCmd                 0x08002524   Section        0  stm32f10x_rcc.o(i.RCC_APB2PeriphClockCmd)
    i.RCC_GetClocksFreq                      0x08002544   Section        0  stm32f10x_rcc.o(i.RCC_GetClocksFreq)
    i.SVC_Handler                            0x08002618   Section        0  stm32f10x_it.o(i.SVC_Handler)
    i.Send_Check                             0x0800261c   Section        0  tim_message.o(i.Send_Check)
    i.Send_Remote                            0x080026a0   Section        0  tim_message.o(i.Send_Remote)
    i.SerialMode                             0x08002748   Section        0  gimbalcontrol.o(i.SerialMode)
    i.SerialPara_Init                        0x08002840   Section        0  gimbalcontrol.o(i.SerialPara_Init)
    i.Serial_CalXYZ                          0x080028c0   Section        0  gimbalcontrol.o(i.Serial_CalXYZ)
    i.SetSysClock                            0x0800299c   Section        0  system_stm32f10x.o(i.SetSysClock)
    SetSysClock                              0x0800299d   Thumb Code     8  system_stm32f10x.o(i.SetSysClock)
    i.SetSysClockTo72                        0x080029a4   Section        0  system_stm32f10x.o(i.SetSysClockTo72)
    SetSysClockTo72                          0x080029a5   Thumb Code   214  system_stm32f10x.o(i.SetSysClockTo72)
    i.SineArray_Init                         0x08002a84   Section        0  motor.o(i.SineArray_Init)
    i.SysTick_CLKSourceConfig                0x08002bc8   Section        0  misc.o(i.SysTick_CLKSourceConfig)
    i.SysTick_Handler                        0x08002bf0   Section        0  stm32f10x_it.o(i.SysTick_Handler)
    i.SystemInit                             0x08002bf4   Section        0  system_stm32f10x.o(i.SystemInit)
    i.TIM5_IRQHandler                        0x08002c54   Section        0  tim_message.o(i.TIM5_IRQHandler)
    i.TIM_ARRPreloadConfig                   0x08002cc4   Section        0  stm32f10x_tim.o(i.TIM_ARRPreloadConfig)
    i.TIM_ClearITPendingBit                  0x08002cdc   Section        0  stm32f10x_tim.o(i.TIM_ClearITPendingBit)
    i.TIM_Cmd                                0x08002ce2   Section        0  stm32f10x_tim.o(i.TIM_Cmd)
    i.TIM_GetITStatus                        0x08002cfa   Section        0  stm32f10x_tim.o(i.TIM_GetITStatus)
    i.TIM_OC1Init                            0x08002d1c   Section        0  stm32f10x_tim.o(i.TIM_OC1Init)
    i.TIM_OC1PreloadConfig                   0x08002db4   Section        0  stm32f10x_tim.o(i.TIM_OC1PreloadConfig)
    i.TIM_OC2Init                            0x08002dc8   Section        0  stm32f10x_tim.o(i.TIM_OC2Init)
    i.TIM_OC2PreloadConfig                   0x08002e6c   Section        0  stm32f10x_tim.o(i.TIM_OC2PreloadConfig)
    i.TIM_OC3Init                            0x08002e88   Section        0  stm32f10x_tim.o(i.TIM_OC3Init)
    i.TIM_OC3PreloadConfig                   0x08002f28   Section        0  stm32f10x_tim.o(i.TIM_OC3PreloadConfig)
    i.TIM_OC4Init                            0x08002f3c   Section        0  stm32f10x_tim.o(i.TIM_OC4Init)
    i.TIM_OC4PreloadConfig                   0x08002fb8   Section        0  stm32f10x_tim.o(i.TIM_OC4PreloadConfig)
    i.TIM_SetCompare1                        0x08002fd2   Section        0  stm32f10x_tim.o(i.TIM_SetCompare1)
    i.TIM_SetCompare2                        0x08002fd6   Section        0  stm32f10x_tim.o(i.TIM_SetCompare2)
    i.TIM_SetCompare3                        0x08002fda   Section        0  stm32f10x_tim.o(i.TIM_SetCompare3)
    i.TIM_SetCompare4                        0x08002fde   Section        0  stm32f10x_tim.o(i.TIM_SetCompare4)
    i.TIM_TimeBaseInit                       0x08002fe4   Section        0  stm32f10x_tim.o(i.TIM_TimeBaseInit)
    i.USART1_IRQHandler                      0x08003088   Section        0  usart.o(i.USART1_IRQHandler)
    i.USART_Cmd                              0x0800317c   Section        0  stm32f10x_usart.o(i.USART_Cmd)
    i.USART_GetFlagStatus                    0x08003194   Section        0  stm32f10x_usart.o(i.USART_GetFlagStatus)
    i.USART_GetITStatus                      0x080031ae   Section        0  stm32f10x_usart.o(i.USART_GetITStatus)
    i.USART_ITConfig                         0x08003202   Section        0  stm32f10x_usart.o(i.USART_ITConfig)
    i.USART_Init                             0x0800324c   Section        0  stm32f10x_usart.o(i.USART_Init)
    i.USART_ReceiveData                      0x08003324   Section        0  stm32f10x_usart.o(i.USART_ReceiveData)
    i.USART_SendData                         0x0800332e   Section        0  stm32f10x_usart.o(i.USART_SendData)
    i.UsageFault_Handler                     0x08003336   Section        0  stm32f10x_it.o(i.UsageFault_Handler)
    i.Usart_SendArray                        0x0800333a   Section        0  usart.o(i.Usart_SendArray)
    i.Usart_SendByte                         0x0800336a   Section        0  usart.o(i.Usart_SendByte)
    i.__ARM_fpclassify                       0x08003388   Section        0  fpclassify.o(i.__ARM_fpclassify)
    i.__ieee754_rem_pio2                     0x080033b0   Section        0  rred.o(i.__ieee754_rem_pio2)
    i.__kernel_cos                           0x08003738   Section        0  cos_i.o(i.__kernel_cos)
    i.__kernel_poly                          0x08003834   Section        0  poly.o(i.__kernel_poly)
    i.__kernel_sin                           0x080038e0   Section        0  sin_i.o(i.__kernel_sin)
    i.__mathlib_dbl_infnan                   0x080039cc   Section        0  dunder.o(i.__mathlib_dbl_infnan)
    i.__mathlib_dbl_infnan2                  0x080039d2   Section        0  dunder.o(i.__mathlib_dbl_infnan2)
    i.__mathlib_dbl_invalid                  0x080039d6   Section        0  dunder.o(i.__mathlib_dbl_invalid)
    i.__mathlib_dbl_underflow                0x080039e4   Section        0  dunder.o(i.__mathlib_dbl_underflow)
    i._sys_exit                              0x080039f4   Section        0  usart.o(i._sys_exit)
    i.atan                                   0x080039fc   Section        0  atan.o(i.atan)
    i.atan2                                  0x08003c1c   Section        0  atan2.o(i.atan2)
    i.delay_init                             0x08003d9c   Section        0  delay.o(i.delay_init)
    i.delay_ms                               0x08003de0   Section        0  delay.o(i.delay_ms)
    i.delay_us                               0x08003e2c   Section        0  delay.o(i.delay_us)
    i.main                                   0x08003e78   Section        0  main.o(i.main)
    i.positionInit                           0x08003ec4   Section        0  gimbalcontrol.o(i.positionInit)
    i.sin                                    0x08003f7c   Section        0  sin.o(i.sin)
    i.uart_init                              0x0800401c   Section        0  usart.o(i.uart_init)
    x$fpl$d2f                                0x080040bc   Section       98  d2f.o(x$fpl$d2f)
    x$fpl$dadd                               0x08004120   Section      336  daddsub_clz.o(x$fpl$dadd)
    _dadd1                                   0x08004131   Thumb Code     0  daddsub_clz.o(x$fpl$dadd)
    x$fpl$dcheck1                            0x08004270   Section       16  dcheck1.o(x$fpl$dcheck1)
    x$fpl$dcmpinf                            0x08004280   Section       24  dcmpi.o(x$fpl$dcmpinf)
    x$fpl$ddiv                               0x08004298   Section      688  ddiv.o(x$fpl$ddiv)
    ddiv_entry                               0x0800429f   Thumb Code     0  ddiv.o(x$fpl$ddiv)
    x$fpl$dfix                               0x08004548   Section       94  dfix.o(x$fpl$dfix)
    x$fpl$dfixu                              0x080045a8   Section       90  dfixu.o(x$fpl$dfixu)
    x$fpl$dflt                               0x08004602   Section       46  dflt_clz.o(x$fpl$dflt)
    x$fpl$dfltu                              0x08004630   Section       38  dflt_clz.o(x$fpl$dfltu)
    x$fpl$dleqf                              0x08004658   Section      120  dleqf.o(x$fpl$dleqf)
    x$fpl$dmul                               0x080046d0   Section      340  dmul.o(x$fpl$dmul)
    x$fpl$dnaninf                            0x08004824   Section      156  dnaninf.o(x$fpl$dnaninf)
    x$fpl$dretinf                            0x080048c0   Section       12  dretinf.o(x$fpl$dretinf)
    x$fpl$drleqf                             0x080048cc   Section      108  drleqf.o(x$fpl$drleqf)
    x$fpl$drsb                               0x08004938   Section       22  daddsub_clz.o(x$fpl$drsb)
    x$fpl$dsub                               0x08004950   Section      468  daddsub_clz.o(x$fpl$dsub)
    _dsub1                                   0x08004961   Thumb Code     0  daddsub_clz.o(x$fpl$dsub)
    x$fpl$f2d                                0x08004b24   Section       86  f2d.o(x$fpl$f2d)
    x$fpl$fadd                               0x08004b7c   Section      196  faddsub_clz.o(x$fpl$fadd)
    _fadd1                                   0x08004b8b   Thumb Code     0  faddsub_clz.o(x$fpl$fadd)
    x$fpl$fcmpinf                            0x08004c40   Section       24  fcmpi.o(x$fpl$fcmpinf)
    x$fpl$fdiv                               0x08004c58   Section      388  fdiv.o(x$fpl$fdiv)
    _fdiv1                                   0x08004c59   Thumb Code     0  fdiv.o(x$fpl$fdiv)
    x$fpl$feqf                               0x08004ddc   Section      104  feqf.o(x$fpl$feqf)
    x$fpl$ffix                               0x08004e44   Section       54  ffix.o(x$fpl$ffix)
    x$fpl$ffixu                              0x08004e7c   Section       62  ffixu.o(x$fpl$ffixu)
    x$fpl$ffltu                              0x08004ebc   Section       38  fflt_clz.o(x$fpl$ffltu)
    x$fpl$fleqf                              0x08004ee4   Section      104  fleqf.o(x$fpl$fleqf)
    x$fpl$fmul                               0x08004f4c   Section      258  fmul.o(x$fpl$fmul)
    x$fpl$fnaninf                            0x0800504e   Section      140  fnaninf.o(x$fpl$fnaninf)
    x$fpl$fretinf                            0x080050da   Section       10  fretinf.o(x$fpl$fretinf)
    x$fpl$frleqf                             0x080050e4   Section       98  frleqf.o(x$fpl$frleqf)
    x$fpl$frsb                               0x08005146   Section       20  faddsub_clz.o(x$fpl$frsb)
    x$fpl$fsub                               0x0800515c   Section      234  faddsub_clz.o(x$fpl$fsub)
    _fsub1                                   0x0800516b   Thumb Code     0  faddsub_clz.o(x$fpl$fsub)
    x$fpl$retnan                             0x08005246   Section      100  retnan.o(x$fpl$retnan)
    x$fpl$scalbn                             0x080052aa   Section       92  scalbn.o(x$fpl$scalbn)
    x$fpl$trapveneer                         0x08005306   Section       48  trapv.o(x$fpl$trapveneer)
    .constdata                               0x08005336   Section        2  motor.o(.constdata)
    x$fpl$usenofp                            0x08005336   Section        0  usenofp.o(x$fpl$usenofp)
    mdir_cal_factor                          0x08005336   Data           2  motor.o(.constdata)
    .constdata                               0x08005338   Section      152  atan.o(.constdata)
    atanhi                                   0x08005338   Data          32  atan.o(.constdata)
    atanlo                                   0x08005358   Data          32  atan.o(.constdata)
    aTodd                                    0x08005378   Data          40  atan.o(.constdata)
    aTeven                                   0x080053a0   Data          48  atan.o(.constdata)
    .constdata                               0x080053d0   Section       48  cos_i.o(.constdata)
    C                                        0x080053d0   Data          48  cos_i.o(.constdata)
    .constdata                               0x08005400   Section        8  qnan.o(.constdata)
    .constdata                               0x08005408   Section      200  rred.o(.constdata)
    pio2s                                    0x08005408   Data          48  rred.o(.constdata)
    twooverpi                                0x08005438   Data         152  rred.o(.constdata)
    .constdata                               0x080054d0   Section       40  sin_i.o(.constdata)
    S                                        0x080054d0   Data          40  sin_i.o(.constdata)
    .data                                    0x20000000   Section       20  system_stm32f10x.o(.data)
    .data                                    0x20000014   Section      168  pid.o(.data)
    pitchPPara                               0x20000014   Data           4  pid.o(.data)
    pitchIPara                               0x20000018   Data           4  pid.o(.data)
    pitchDPara                               0x2000001c   Data           4  pid.o(.data)
    rollPPara                                0x20000020   Data           4  pid.o(.data)
    rollIPara                                0x20000024   Data           4  pid.o(.data)
    rollDPara                                0x20000028   Data           4  pid.o(.data)
    yawPPara                                 0x2000002c   Data           4  pid.o(.data)
    yawIPara                                 0x20000030   Data           4  pid.o(.data)
    yawDPara                                 0x20000034   Data           4  pid.o(.data)
    cntICal                                  0x20000038   Data           2  pid.o(.data)
    expAngle_old                             0x2000003c   Data           4  pid.o(.data)
    et                                       0x20000040   Data           4  pid.o(.data)
    et_pre                                   0x20000044   Data           4  pid.o(.data)
    et_sum                                   0x20000048   Data           4  pid.o(.data)
    et_diff                                  0x2000004c   Data           4  pid.o(.data)
    dpid                                     0x20000050   Data           4  pid.o(.data)
    dP                                       0x20000054   Data           4  pid.o(.data)
    dI                                       0x20000058   Data           4  pid.o(.data)
    dD                                       0x2000005c   Data           4  pid.o(.data)
    indexICal                                0x20000060   Data           4  pid.o(.data)
    expAngle_old                             0x20000064   Data           4  pid.o(.data)
    et                                       0x20000068   Data           4  pid.o(.data)
    et_pre                                   0x2000006c   Data           4  pid.o(.data)
    et_sum                                   0x20000070   Data           4  pid.o(.data)
    et_diff                                  0x20000074   Data           4  pid.o(.data)
    dpid                                     0x20000078   Data           4  pid.o(.data)
    dP                                       0x2000007c   Data           4  pid.o(.data)
    dI                                       0x20000080   Data           4  pid.o(.data)
    dD                                       0x20000084   Data           4  pid.o(.data)
    indexICal                                0x20000088   Data           4  pid.o(.data)
    expAngle_old                             0x2000008c   Data           4  pid.o(.data)
    et                                       0x20000090   Data           4  pid.o(.data)
    et_pre                                   0x20000094   Data           4  pid.o(.data)
    et_sum                                   0x20000098   Data           4  pid.o(.data)
    et_diff                                  0x2000009c   Data           4  pid.o(.data)
    dpid                                     0x200000a0   Data           4  pid.o(.data)
    dP                                       0x200000a4   Data           4  pid.o(.data)
    dI                                       0x200000a8   Data           4  pid.o(.data)
    dD                                       0x200000ac   Data           4  pid.o(.data)
    indexICal                                0x200000b0   Data           4  pid.o(.data)
    flagInit                                 0x200000b4   Data           1  pid.o(.data)
    cntMFData                                0x200000b6   Data           2  pid.o(.data)
    rtnValue                                 0x200000b8   Data           4  pid.o(.data)
    .data                                    0x200000bc   Section      180  gimbalcontrol.o(.data)
    AccelData                                0x200000bc   Data           6  gimbalcontrol.o(.data)
    TempData                                 0x200000c2   Data           2  gimbalcontrol.o(.data)
    GyroData                                 0x200000c4   Data           6  gimbalcontrol.o(.data)
    i2c2GPIOInitStruct                       0x200000ca   Data           4  gimbalcontrol.o(.data)
    sineArraySize                            0x200000ce   Data           2  gimbalcontrol.o(.data)
    phaseShift                               0x200000d0   Data           2  gimbalcontrol.o(.data)
    mPitch                                   0x200000d2   Data           6  gimbalcontrol.o(.data)
    mRoll                                    0x200000d8   Data           6  gimbalcontrol.o(.data)
    mYaw                                     0x200000de   Data           6  gimbalcontrol.o(.data)
    pitchPPara                               0x200000e4   Data           4  gimbalcontrol.o(.data)
    pitchIPara                               0x200000e8   Data           4  gimbalcontrol.o(.data)
    pitchDPara                               0x200000ec   Data           4  gimbalcontrol.o(.data)
    rollPPara                                0x200000f0   Data           4  gimbalcontrol.o(.data)
    rollIPara                                0x200000f4   Data           4  gimbalcontrol.o(.data)
    rollDPara                                0x200000f8   Data           4  gimbalcontrol.o(.data)
    yawPPara                                 0x200000fc   Data           4  gimbalcontrol.o(.data)
    yawIPara                                 0x20000100   Data           4  gimbalcontrol.o(.data)
    yawDPara                                 0x20000104   Data           4  gimbalcontrol.o(.data)
    K_X                                      0x20000108   Data           4  gimbalcontrol.o(.data)
    K_Y                                      0x2000010c   Data           4  gimbalcontrol.o(.data)
    K_Z                                      0x20000110   Data           4  gimbalcontrol.o(.data)
    B_X                                      0x20000114   Data           4  gimbalcontrol.o(.data)
    B_Y                                      0x20000118   Data           4  gimbalcontrol.o(.data)
    B_Z                                      0x2000011c   Data           4  gimbalcontrol.o(.data)
    .data                                    0x20000170   Section       60  mpu6050.o(.data)
    AccelData                                0x20000170   Data           6  mpu6050.o(.data)
    TempData                                 0x20000176   Data           2  mpu6050.o(.data)
    GyroData                                 0x20000178   Data           6  mpu6050.o(.data)
    i2c2GPIOInitStruct                       0x2000017e   Data           4  mpu6050.o(.data)
    .data                                    0x200001ac   Section       64  boardmpu.o(.data)
    i2c2GPIOInitStruct                       0x200001ac   Data           4  boardmpu.o(.data)
    AccelData                                0x200001b0   Data           6  boardmpu.o(.data)
    TempData                                 0x200001b6   Data           2  boardmpu.o(.data)
    GyroData                                 0x200001b8   Data           6  boardmpu.o(.data)
    i2c1GPIOInitStruct                       0x200001be   Data           4  boardmpu.o(.data)
    .data                                    0x200001ec   Section        4  boardmpui2c.o(.data)
    i2c1GPIOInitStruct                       0x200001ec   Data           4  boardmpui2c.o(.data)
    .data                                    0x200001f0   Section        4  mpui2c.o(.data)
    i2c2GPIOInitStruct                       0x200001f0   Data           4  mpui2c.o(.data)
    .data                                    0x200001f4   Section       46  motor.o(.data)
    sineArraySize                            0x200001f4   Data           2  motor.o(.data)
    phaseShift                               0x200001f6   Data           2  motor.o(.data)
    mPitch                                   0x200001f8   Data           6  motor.o(.data)
    mRoll                                    0x200001fe   Data           6  motor.o(.data)
    mYaw                                     0x20000204   Data           6  motor.o(.data)
    preSpeed                                 0x2000020a   Data           2  motor.o(.data)
    timeout                                  0x2000020c   Data           2  motor.o(.data)
    cntTime                                  0x2000020e   Data           2  motor.o(.data)
    growthFactor                             0x20000210   Data           2  motor.o(.data)
    preSpeed                                 0x20000212   Data           2  motor.o(.data)
    timeout                                  0x20000214   Data           2  motor.o(.data)
    cntTime                                  0x20000216   Data           2  motor.o(.data)
    growthFactor                             0x20000218   Data           2  motor.o(.data)
    preSpeed                                 0x2000021a   Data           2  motor.o(.data)
    timeout                                  0x2000021c   Data           2  motor.o(.data)
    cntTime                                  0x2000021e   Data           2  motor.o(.data)
    growthFactor                             0x20000220   Data           2  motor.o(.data)
    .data                                    0x20000222   Section       16  tim_message.o(.data)
    AccelData                                0x20000222   Data           6  tim_message.o(.data)
    TempData                                 0x20000228   Data           2  tim_message.o(.data)
    GyroData                                 0x2000022a   Data           6  tim_message.o(.data)
    .data                                    0x20000232   Section        4  delay.o(.data)
    fac_us                                   0x20000232   Data           1  delay.o(.data)
    fac_ms                                   0x20000234   Data           2  delay.o(.data)
    .data                                    0x20000238   Section      116  usart.o(.data)
    AccelData                                0x20000238   Data           6  usart.o(.data)
    TempData                                 0x2000023e   Data           2  usart.o(.data)
    GyroData                                 0x20000240   Data           6  usart.o(.data)
    i2c2GPIOInitStruct                       0x20000246   Data           4  usart.o(.data)
    sineArraySize                            0x2000024a   Data           2  usart.o(.data)
    phaseShift                               0x2000024c   Data           2  usart.o(.data)
    mPitch                                   0x2000024e   Data           6  usart.o(.data)
    mRoll                                    0x20000254   Data           6  usart.o(.data)
    mYaw                                     0x2000025a   Data           6  usart.o(.data)
    pitchPPara                               0x20000260   Data           4  usart.o(.data)
    pitchIPara                               0x20000264   Data           4  usart.o(.data)
    pitchDPara                               0x20000268   Data           4  usart.o(.data)
    rollPPara                                0x2000026c   Data           4  usart.o(.data)
    rollIPara                                0x20000270   Data           4  usart.o(.data)
    rollDPara                                0x20000274   Data           4  usart.o(.data)
    yawPPara                                 0x20000278   Data           4  usart.o(.data)
    yawIPara                                 0x2000027c   Data           4  usart.o(.data)
    yawDPara                                 0x20000280   Data           4  usart.o(.data)
    K_X                                      0x20000284   Data           4  usart.o(.data)
    K_Y                                      0x20000288   Data           4  usart.o(.data)
    K_Z                                      0x2000028c   Data           4  usart.o(.data)
    B_X                                      0x20000290   Data           4  usart.o(.data)
    B_Y                                      0x20000294   Data           4  usart.o(.data)
    B_Z                                      0x20000298   Data           4  usart.o(.data)
    x                                        0x2000029d   Data           1  usart.o(.data)
    .data                                    0x200002ac   Section       20  stm32f10x_rcc.o(.data)
    APBAHBPrescTable                         0x200002ac   Data          16  stm32f10x_rcc.o(.data)
    ADCPrescTable                            0x200002bc   Data           4  stm32f10x_rcc.o(.data)
    .bss                                     0x200002c0   Section      284  pid.o(.bss)
    debugPara                                0x200002c0   Data          36  pid.o(.bss)
    mfData                                   0x200002e4   Data         124  pid.o(.bss)
    mfSort                                   0x20000360   Data         124  pid.o(.bss)
    .bss                                     0x200003dc   Section     4096  motor.o(.bss)
    pwmSin                                   0x200003dc   Data        4096  motor.o(.bss)
    .bss                                     0x200013dc   Section     4391  usart.o(.bss)
    pwmSin                                   0x200013dc   Data        4096  usart.o(.bss)
    debugPara                                0x200023dc   Data          36  usart.o(.bss)
    mfData                                   0x20002400   Data         124  usart.o(.bss)
    mfSort                                   0x2000247c   Data         124  usart.o(.bss)
    .bss                                     0x20002504   Section       96  libspace.o(.bss)
    HEAP                                     0x20002568   Section      512  startup_stm32f10x_hd.o(HEAP)
    Heap_Mem                                 0x20002568   Data         512  startup_stm32f10x_hd.o(HEAP)
    STACK                                    0x20002768   Section     1024  startup_stm32f10x_hd.o(STACK)
    Stack_Mem                                0x20002768   Data        1024  startup_stm32f10x_hd.o(STACK)
    __initial_sp                             0x20002b68   Data           0  startup_stm32f10x_hd.o(STACK)

    Global Symbols

    Symbol Name                              Value     Ov Type        Size  Object(Section)

    BuildAttributes$$THM_ISAv4$P$D$K$B$S$PE$A:L22UL41UL21$X:L11$S22US41US21$IEEE1$IW$USESV6$~STKCKD$USESV7$~SHL$OTIME$ROPI$IEEEX$EBA8$UX$STANDARDLIB$REQ8$PRES8$EABIv2 0x00000000   Number         0  anon$$obj.o ABSOLUTE
    __ARM_use_no_argv                        0x00000000   Number         0  main.o ABSOLUTE
    __ARM_exceptions_init                     - Undefined Weak Reference
    __alloca_initialize                       - Undefined Weak Reference
    __arm_preinit_                            - Undefined Weak Reference
    __cpp_initialize__aeabi_                  - Undefined Weak Reference
    __cxa_finalize                            - Undefined Weak Reference
    __rt_locale                               - Undefined Weak Reference
    __sigvec_lookup                           - Undefined Weak Reference
    _atexit_init                              - Undefined Weak Reference
    _call_atexit_fns                          - Undefined Weak Reference
    _clock_init                               - Undefined Weak Reference
    _fp_trap_init                             - Undefined Weak Reference
    _fp_trap_shutdown                         - Undefined Weak Reference
    _get_lc_collate                           - Undefined Weak Reference
    _get_lc_ctype                             - Undefined Weak Reference
    _get_lc_monetary                          - Undefined Weak Reference
    _get_lc_numeric                           - Undefined Weak Reference
    _get_lc_time                              - Undefined Weak Reference
    _getenv_init                              - Undefined Weak Reference
    _handle_redirection                       - Undefined Weak Reference
    _init_alloc                               - Undefined Weak Reference
    _init_user_alloc                          - Undefined Weak Reference
    _initio                                   - Undefined Weak Reference
    _rand_init                                - Undefined Weak Reference
    _signal_finish                            - Undefined Weak Reference
    _signal_init                              - Undefined Weak Reference
    _terminate_alloc                          - Undefined Weak Reference
    _terminate_user_alloc                     - Undefined Weak Reference
    _terminateio                              - Undefined Weak Reference
    __Vectors_Size                           0x00000130   Number         0  startup_stm32f10x_hd.o ABSOLUTE
    __Vectors                                0x08000000   Data           4  startup_stm32f10x_hd.o(RESET)
    __Vectors_End                            0x08000130   Data           0  startup_stm32f10x_hd.o(RESET)
    __main                                   0x08000131   Thumb Code     8  __main.o(!!!main)
    __scatterload                            0x08000139   Thumb Code     0  __scatter.o(!!!scatter)
    __scatterload_rt2                        0x08000139   Thumb Code    44  __scatter.o(!!!scatter)
    __scatterload_rt2_thumb_only             0x08000139   Thumb Code     0  __scatter.o(!!!scatter)
    __scatterload_null                       0x08000147   Thumb Code     0  __scatter.o(!!!scatter)
    __decompress                             0x0800016d   Thumb Code    90  __dczerorl2.o(!!dczerorl2)
    __decompress1                            0x0800016d   Thumb Code     0  __dczerorl2.o(!!dczerorl2)
    __scatterload_zeroinit                   0x080001c9   Thumb Code    28  __scatter_zi.o(!!handler_zi)
    __rt_lib_init                            0x080001e5   Thumb Code     0  libinit.o(.ARM.Collect$$libinit$$00000000)
    __rt_lib_init_alloca_1                   0x080001e7   Thumb Code     0  libinit2.o(.ARM.Collect$$libinit$$0000002E)
    __rt_lib_init_argv_1                     0x080001e7   Thumb Code     0  libinit2.o(.ARM.Collect$$libinit$$0000002C)
    __rt_lib_init_atexit_1                   0x080001e7   Thumb Code     0  libinit2.o(.ARM.Collect$$libinit$$0000001B)
    __rt_lib_init_clock_1                    0x080001e7   Thumb Code     0  libinit2.o(.ARM.Collect$$libinit$$00000021)
    __rt_lib_init_cpp_1                      0x080001e7   Thumb Code     0  libinit2.o(.ARM.Collect$$libinit$$00000032)
    __rt_lib_init_exceptions_1               0x080001e7   Thumb Code     0  libinit2.o(.ARM.Collect$$libinit$$00000030)
    __rt_lib_init_fp_1                       0x080001e7   Thumb Code     0  libinit2.o(.ARM.Collect$$libinit$$00000002)
    __rt_lib_init_fp_trap_1                  0x080001e7   Thumb Code     0  libinit2.o(.ARM.Collect$$libinit$$0000001F)
    __rt_lib_init_getenv_1                   0x080001e7   Thumb Code     0  libinit2.o(.ARM.Collect$$libinit$$00000023)
    __rt_lib_init_heap_1                     0x080001e7   Thumb Code     0  libinit2.o(.ARM.Collect$$libinit$$0000000A)
    __rt_lib_init_lc_collate_1               0x080001e7   Thumb Code     0  libinit2.o(.ARM.Collect$$libinit$$00000011)
    __rt_lib_init_lc_ctype_1                 0x080001e7   Thumb Code     0  libinit2.o(.ARM.Collect$$libinit$$00000013)
    __rt_lib_init_lc_monetary_1              0x080001e7   Thumb Code     0  libinit2.o(.ARM.Collect$$libinit$$00000015)
    __rt_lib_init_lc_numeric_1               0x080001e7   Thumb Code     0  libinit2.o(.ARM.Collect$$libinit$$00000017)
    __rt_lib_init_lc_time_1                  0x080001e7   Thumb Code     0  libinit2.o(.ARM.Collect$$libinit$$00000019)
    __rt_lib_init_preinit_1                  0x080001e7   Thumb Code     0  libinit2.o(.ARM.Collect$$libinit$$00000004)
    __rt_lib_init_rand_1                     0x080001e7   Thumb Code     0  libinit2.o(.ARM.Collect$$libinit$$0000000E)
    __rt_lib_init_return                     0x080001e7   Thumb Code     0  libinit2.o(.ARM.Collect$$libinit$$00000033)
    __rt_lib_init_signal_1                   0x080001e7   Thumb Code     0  libinit2.o(.ARM.Collect$$libinit$$0000001D)
    __rt_lib_init_stdio_1                    0x080001e7   Thumb Code     0  libinit2.o(.ARM.Collect$$libinit$$00000025)
    __rt_lib_init_user_alloc_1               0x080001e7   Thumb Code     0  libinit2.o(.ARM.Collect$$libinit$$0000000C)
    __rt_lib_shutdown                        0x080001e9   Thumb Code     0  libshutdown.o(.ARM.Collect$$libshutdown$$00000000)
    __rt_lib_shutdown_cpp_1                  0x080001eb   Thumb Code     0  libshutdown2.o(.ARM.Collect$$libshutdown$$00000002)
    __rt_lib_shutdown_fp_trap_1              0x080001eb   Thumb Code     0  libshutdown2.o(.ARM.Collect$$libshutdown$$00000007)
    __rt_lib_shutdown_heap_1                 0x080001eb   Thumb Code     0  libshutdown2.o(.ARM.Collect$$libshutdown$$0000000F)
    __rt_lib_shutdown_return                 0x080001eb   Thumb Code     0  libshutdown2.o(.ARM.Collect$$libshutdown$$00000010)
    __rt_lib_shutdown_signal_1               0x080001eb   Thumb Code     0  libshutdown2.o(.ARM.Collect$$libshutdown$$0000000A)
    __rt_lib_shutdown_stdio_1                0x080001eb   Thumb Code     0  libshutdown2.o(.ARM.Collect$$libshutdown$$00000004)
    __rt_lib_shutdown_user_alloc_1           0x080001eb   Thumb Code     0  libshutdown2.o(.ARM.Collect$$libshutdown$$0000000C)
    __rt_entry                               0x080001ed   Thumb Code     0  __rtentry.o(.ARM.Collect$$rtentry$$00000000)
    __rt_entry_presh_1                       0x080001ed   Thumb Code     0  __rtentry2.o(.ARM.Collect$$rtentry$$00000002)
    __rt_entry_sh                            0x080001ed   Thumb Code     0  __rtentry4.o(.ARM.Collect$$rtentry$$00000004)
    __rt_entry_li                            0x080001f3   Thumb Code     0  __rtentry2.o(.ARM.Collect$$rtentry$$0000000A)
    __rt_entry_postsh_1                      0x080001f3   Thumb Code     0  __rtentry2.o(.ARM.Collect$$rtentry$$00000009)
    __rt_entry_main                          0x080001f7   Thumb Code     0  __rtentry2.o(.ARM.Collect$$rtentry$$0000000D)
    __rt_entry_postli_1                      0x080001f7   Thumb Code     0  __rtentry2.o(.ARM.Collect$$rtentry$$0000000C)
    __rt_exit                                0x080001ff   Thumb Code     0  rtexit.o(.ARM.Collect$$rtexit$$00000000)
    __rt_exit_ls                             0x08000201   Thumb Code     0  rtexit2.o(.ARM.Collect$$rtexit$$00000003)
    __rt_exit_prels_1                        0x08000201   Thumb Code     0  rtexit2.o(.ARM.Collect$$rtexit$$00000002)
    __rt_exit_exit                           0x08000205   Thumb Code     0  rtexit2.o(.ARM.Collect$$rtexit$$00000004)
    Reset_Handler                            0x0800020d   Thumb Code     8  startup_stm32f10x_hd.o(.text)
    ADC1_2_IRQHandler                        0x08000227   Thumb Code     0  startup_stm32f10x_hd.o(.text)
    ADC3_IRQHandler                          0x08000227   Thumb Code     0  startup_stm32f10x_hd.o(.text)
    CAN1_RX1_IRQHandler                      0x08000227   Thumb Code     0  startup_stm32f10x_hd.o(.text)
    CAN1_SCE_IRQHandler                      0x08000227   Thumb Code     0  startup_stm32f10x_hd.o(.text)
    DMA1_Channel1_IRQHandler                 0x08000227   Thumb Code     0  startup_stm32f10x_hd.o(.text)
    DMA1_Channel2_IRQHandler                 0x08000227   Thumb Code     0  startup_stm32f10x_hd.o(.text)
    DMA1_Channel3_IRQHandler                 0x08000227   Thumb Code     0  startup_stm32f10x_hd.o(.text)
    DMA1_Channel4_IRQHandler                 0x08000227   Thumb Code     0  startup_stm32f10x_hd.o(.text)
    DMA1_Channel5_IRQHandler                 0x08000227   Thumb Code     0  startup_stm32f10x_hd.o(.text)
    DMA1_Channel6_IRQHandler                 0x08000227   Thumb Code     0  startup_stm32f10x_hd.o(.text)
    DMA1_Channel7_IRQHandler                 0x08000227   Thumb Code     0  startup_stm32f10x_hd.o(.text)
    DMA2_Channel1_IRQHandler                 0x08000227   Thumb Code     0  startup_stm32f10x_hd.o(.text)
    DMA2_Channel2_IRQHandler                 0x08000227   Thumb Code     0  startup_stm32f10x_hd.o(.text)
    DMA2_Channel3_IRQHandler                 0x08000227   Thumb Code     0  startup_stm32f10x_hd.o(.text)
    DMA2_Channel4_5_IRQHandler               0x08000227   Thumb Code     0  startup_stm32f10x_hd.o(.text)
    EXTI0_IRQHandler                         0x08000227   Thumb Code     0  startup_stm32f10x_hd.o(.text)
    EXTI15_10_IRQHandler                     0x08000227   Thumb Code     0  startup_stm32f10x_hd.o(.text)
    EXTI1_IRQHandler                         0x08000227   Thumb Code     0  startup_stm32f10x_hd.o(.text)
    EXTI2_IRQHandler                         0x08000227   Thumb Code     0  startup_stm32f10x_hd.o(.text)
    EXTI3_IRQHandler                         0x08000227   Thumb Code     0  startup_stm32f10x_hd.o(.text)
    EXTI4_IRQHandler                         0x08000227   Thumb Code     0  startup_stm32f10x_hd.o(.text)
    EXTI9_5_IRQHandler                       0x08000227   Thumb Code     0  startup_stm32f10x_hd.o(.text)
    FLASH_IRQHandler                         0x08000227   Thumb Code     0  startup_stm32f10x_hd.o(.text)
    FSMC_IRQHandler                          0x08000227   Thumb Code     0  startup_stm32f10x_hd.o(.text)
    I2C1_ER_IRQHandler                       0x08000227   Thumb Code     0  startup_stm32f10x_hd.o(.text)
    I2C1_EV_IRQHandler                       0x08000227   Thumb Code     0  startup_stm32f10x_hd.o(.text)
    I2C2_ER_IRQHandler                       0x08000227   Thumb Code     0  startup_stm32f10x_hd.o(.text)
    I2C2_EV_IRQHandler                       0x08000227   Thumb Code     0  startup_stm32f10x_hd.o(.text)
    PVD_IRQHandler                           0x08000227   Thumb Code     0  startup_stm32f10x_hd.o(.text)
    RCC_IRQHandler                           0x08000227   Thumb Code     0  startup_stm32f10x_hd.o(.text)
    RTCAlarm_IRQHandler                      0x08000227   Thumb Code     0  startup_stm32f10x_hd.o(.text)
    RTC_IRQHandler                           0x08000227   Thumb Code     0  startup_stm32f10x_hd.o(.text)
    SDIO_IRQHandler                          0x08000227   Thumb Code     0  startup_stm32f10x_hd.o(.text)
    SPI1_IRQHandler                          0x08000227   Thumb Code     0  startup_stm32f10x_hd.o(.text)
    SPI2_IRQHandler                          0x08000227   Thumb Code     0  startup_stm32f10x_hd.o(.text)
    SPI3_IRQHandler                          0x08000227   Thumb Code     0  startup_stm32f10x_hd.o(.text)
    TAMPER_IRQHandler                        0x08000227   Thumb Code     0  startup_stm32f10x_hd.o(.text)
    TIM1_BRK_IRQHandler                      0x08000227   Thumb Code     0  startup_stm32f10x_hd.o(.text)
    TIM1_CC_IRQHandler                       0x08000227   Thumb Code     0  startup_stm32f10x_hd.o(.text)
    TIM1_TRG_COM_IRQHandler                  0x08000227   Thumb Code     0  startup_stm32f10x_hd.o(.text)
    TIM1_UP_IRQHandler                       0x08000227   Thumb Code     0  startup_stm32f10x_hd.o(.text)
    TIM2_IRQHandler                          0x08000227   Thumb Code     0  startup_stm32f10x_hd.o(.text)
    TIM3_IRQHandler                          0x08000227   Thumb Code     0  startup_stm32f10x_hd.o(.text)
    TIM4_IRQHandler                          0x08000227   Thumb Code     0  startup_stm32f10x_hd.o(.text)
    TIM6_IRQHandler                          0x08000227   Thumb Code     0  startup_stm32f10x_hd.o(.text)
    TIM7_IRQHandler                          0x08000227   Thumb Code     0  startup_stm32f10x_hd.o(.text)
    TIM8_BRK_IRQHandler                      0x08000227   Thumb Code     0  startup_stm32f10x_hd.o(.text)
    TIM8_CC_IRQHandler                       0x08000227   Thumb Code     0  startup_stm32f10x_hd.o(.text)
    TIM8_TRG_COM_IRQHandler                  0x08000227   Thumb Code     0  startup_stm32f10x_hd.o(.text)
    TIM8_UP_IRQHandler                       0x08000227   Thumb Code     0  startup_stm32f10x_hd.o(.text)
    UART4_IRQHandler                         0x08000227   Thumb Code     0  startup_stm32f10x_hd.o(.text)
    UART5_IRQHandler                         0x08000227   Thumb Code     0  startup_stm32f10x_hd.o(.text)
    USART2_IRQHandler                        0x08000227   Thumb Code     0  startup_stm32f10x_hd.o(.text)
    USART3_IRQHandler                        0x08000227   Thumb Code     0  startup_stm32f10x_hd.o(.text)
    USBWakeUp_IRQHandler                     0x08000227   Thumb Code     0  startup_stm32f10x_hd.o(.text)
    USB_HP_CAN1_TX_IRQHandler                0x08000227   Thumb Code     0  startup_stm32f10x_hd.o(.text)
    USB_LP_CAN1_RX0_IRQHandler               0x08000227   Thumb Code     0  startup_stm32f10x_hd.o(.text)
    WWDG_IRQHandler                          0x08000227   Thumb Code     0  startup_stm32f10x_hd.o(.text)
    __user_initial_stackheap                 0x08000229   Thumb Code     0  startup_stm32f10x_hd.o(.text)
    __use_no_semihosting                     0x0800024d   Thumb Code     2  use_no_semi_2.o(.text)
    __use_two_region_memory                  0x0800024f   Thumb Code     2  heapauxi.o(.text)
    __rt_heap_escrow$2region                 0x08000251   Thumb Code     2  heapauxi.o(.text)
    __rt_heap_expand$2region                 0x08000253   Thumb Code     2  heapauxi.o(.text)
    __I$use$semihosting                      0x08000255   Thumb Code     0  use_no_semi.o(.text)
    __use_no_semihosting_swi                 0x08000255   Thumb Code     2  use_no_semi.o(.text)
    __read_errno                             0x08000257   Thumb Code    10  _rserrno.o(.text)
    __set_errno                              0x08000261   Thumb Code    12  _rserrno.o(.text)
    __aeabi_errno_addr                       0x0800026d   Thumb Code     8  rt_errno_addr_intlibspace.o(.text)
    __errno$intlibspace                      0x0800026d   Thumb Code     0  rt_errno_addr_intlibspace.o(.text)
    __rt_errno_addr$intlibspace              0x0800026d   Thumb Code     0  rt_errno_addr_intlibspace.o(.text)
    __user_libspace                          0x08000275   Thumb Code     8  libspace.o(.text)
    __user_perproc_libspace                  0x08000275   Thumb Code     0  libspace.o(.text)
    __user_perthread_libspace                0x08000275   Thumb Code     0  libspace.o(.text)
    __user_setup_stackheap                   0x0800027d   Thumb Code    74  sys_stackheap_outer.o(.text)
    exit                                     0x080002c7   Thumb Code    18  exit.o(.text)
    AutoMode                                 0x080002d9   Thumb Code    96  gimbalcontrol.o(i.AutoMode)
    BiasInit                                 0x08000361   Thumb Code   174  gimbalcontrol.o(i.BiasInit)
    BoardMpu_CalPitchRoll                    0x0800043d   Thumb Code   358  boardmpu.o(i.BoardMpu_CalPitchRoll)
    BoardMpu_GetAccelData                    0x080005d9   Thumb Code   170  boardmpu.o(i.BoardMpu_GetAccelData)
    BoardMpu_GetDevID                        0x08000699   Thumb Code    24  boardmpu.o(i.BoardMpu_GetDevID)
    BoardMpu_GetGyroData                     0x080006b5   Thumb Code   170  boardmpu.o(i.BoardMpu_GetGyroData)
    BoardMpu_Init                            0x08000779   Thumb Code   194  boardmpu.o(i.BoardMpu_Init)
    BoardMpu_SetDLPF                         0x08000841   Thumb Code    90  boardmpu.o(i.BoardMpu_SetDLPF)
    BoardMpu_SetSampleRate                   0x0800089b   Thumb Code    94  boardmpu.o(i.BoardMpu_SetSampleRate)
    BusFault_Handler                         0x080008f9   Thumb Code     4  stm32f10x_it.o(i.BusFault_Handler)
    ConvertAngle                             0x080008fd   Thumb Code   228  gimbalcontrol.o(i.ConvertAngle)
    DebugMon_Handler                         0x08000a05   Thumb Code     2  stm32f10x_it.o(i.DebugMon_Handler)
    GPIO_Init                                0x08000a07   Thumb Code   278  stm32f10x_gpio.o(i.GPIO_Init)
    GPIO_ReadInputDataBit                    0x08000b1d   Thumb Code    18  stm32f10x_gpio.o(i.GPIO_ReadInputDataBit)
    GPIO_ResetBits                           0x08000b2f   Thumb Code     4  stm32f10x_gpio.o(i.GPIO_ResetBits)
    GPIO_SetBits                             0x08000b33   Thumb Code     4  stm32f10x_gpio.o(i.GPIO_SetBits)
    GPIO_WriteBit                            0x08000b37   Thumb Code    10  stm32f10x_gpio.o(i.GPIO_WriteBit)
    GimbalControl                            0x08000b41   Thumb Code   506  gimbalcontrol.o(i.GimbalControl)
    HardFault_Handler                        0x08000da9   Thumb Code     4  stm32f10x_it.o(i.HardFault_Handler)
    I2C1_Init                                0x08000dad   Thumb Code    42  boardmpui2c.o(i.I2C1_Init)
    I2C1_ReadData                            0x08000de1   Thumb Code   148  boardmpui2c.o(i.I2C1_ReadData)
    I2C1_RecvByte                            0x08000e75   Thumb Code   138  boardmpui2c.o(i.I2C1_RecvByte)
    I2C1_SendACK                             0x08000f09   Thumb Code    64  boardmpui2c.o(i.I2C1_SendACK)
    I2C1_SendByte                            0x08000f4d   Thumb Code    86  boardmpui2c.o(i.I2C1_SendByte)
    I2C1_Start                               0x08000fa9   Thumb Code    54  boardmpui2c.o(i.I2C1_Start)
    I2C1_Stop                                0x08000fe5   Thumb Code    54  boardmpui2c.o(i.I2C1_Stop)
    I2C1_WaitACK                             0x08001021   Thumb Code   124  boardmpui2c.o(i.I2C1_WaitACK)
    I2C1_WriteData                           0x080010a5   Thumb Code   110  boardmpui2c.o(i.I2C1_WriteData)
    I2C2_Init                                0x08001115   Thumb Code    46  mpui2c.o(i.I2C2_Init)
    I2C2_ReadData                            0x0800114d   Thumb Code   148  mpui2c.o(i.I2C2_ReadData)
    I2C2_RecvByte                            0x080011e1   Thumb Code   152  mpui2c.o(i.I2C2_RecvByte)
    I2C2_SendACK                             0x08001281   Thumb Code    72  mpui2c.o(i.I2C2_SendACK)
    I2C2_SendByte                            0x080012cd   Thumb Code    94  mpui2c.o(i.I2C2_SendByte)
    I2C2_Start                               0x08001331   Thumb Code    62  mpui2c.o(i.I2C2_Start)
    I2C2_Stop                                0x08001375   Thumb Code    62  mpui2c.o(i.I2C2_Stop)
    I2C2_WaitACK                             0x080013b9   Thumb Code   138  mpui2c.o(i.I2C2_WaitACK)
    I2C2_WriteData                           0x0800144d   Thumb Code   110  mpui2c.o(i.I2C2_WriteData)
    LED_Init                                 0x080014bd   Thumb Code    50  led.o(i.LED_Init)
    MedianFilter                             0x080014f5   Thumb Code   284  pid.o(i.MedianFilter)
    MemManage_Handler                        0x08001629   Thumb Code     4  stm32f10x_it.o(i.MemManage_Handler)
    Motor0_Run                               0x0800162d   Thumb Code   212  motor.o(i.Motor0_Run)
    Motor0_SetPWM                            0x0800171d   Thumb Code    52  motor.o(i.Motor0_SetPWM)
    Motor1_Run                               0x0800175d   Thumb Code   212  motor.o(i.Motor1_Run)
    Motor1_SetPWM                            0x0800184d   Thumb Code    56  motor.o(i.Motor1_SetPWM)
    Motor2_Run                               0x08001891   Thumb Code   212  motor.o(i.Motor2_Run)
    Motor2_SetPWM                            0x08001981   Thumb Code    54  motor.o(i.Motor2_SetPWM)
    MotorPWM_Init                            0x080019c5   Thumb Code   384  motor.o(i.MotorPWM_Init)
    MotorPos_Init                            0x08001b55   Thumb Code    16  motor.o(i.MotorPos_Init)
    Motor_Init                               0x08001b65   Thumb Code    16  motor.o(i.Motor_Init)
    Mpu6050_CalPitchRoll                     0x08001b75   Thumb Code   366  mpu6050.o(i.Mpu6050_CalPitchRoll)
    Mpu6050_GetAccelData                     0x08001d1d   Thumb Code   170  mpu6050.o(i.Mpu6050_GetAccelData)
    Mpu6050_GetDevID                         0x08001ddd   Thumb Code    24  mpu6050.o(i.Mpu6050_GetDevID)
    Mpu6050_GetGyroData                      0x08001df9   Thumb Code   170  mpu6050.o(i.Mpu6050_GetGyroData)
    Mpu6050_Init                             0x08001ebd   Thumb Code   194  mpu6050.o(i.Mpu6050_Init)
    Mpu6050_SetDLPF                          0x08001f85   Thumb Code    90  mpu6050.o(i.Mpu6050_SetDLPF)
    Mpu6050_SetSampleRate                    0x08001fdf   Thumb Code    94  mpu6050.o(i.Mpu6050_SetSampleRate)
    NMI_Handler                              0x0800203d   Thumb Code     2  stm32f10x_it.o(i.NMI_Handler)
    NVIC_Init                                0x08002041   Thumb Code   100  misc.o(i.NVIC_Init)
    PID_Motor0                               0x080020b1   Thumb Code   308  pid.o(i.PID_Motor0)
    PID_Motor1                               0x08002225   Thumb Code   308  pid.o(i.PID_Motor1)
    PID_Motor2                               0x08002399   Thumb Code   296  pid.o(i.PID_Motor2)
    PendSV_Handler                           0x08002501   Thumb Code     2  stm32f10x_it.o(i.PendSV_Handler)
    RCC_APB1PeriphClockCmd                   0x08002505   Thumb Code    26  stm32f10x_rcc.o(i.RCC_APB1PeriphClockCmd)
    RCC_APB2PeriphClockCmd                   0x08002525   Thumb Code    26  stm32f10x_rcc.o(i.RCC_APB2PeriphClockCmd)
    RCC_GetClocksFreq                        0x08002545   Thumb Code   192  stm32f10x_rcc.o(i.RCC_GetClocksFreq)
    SVC_Handler                              0x08002619   Thumb Code     2  stm32f10x_it.o(i.SVC_Handler)
    Send_Check                               0x0800261d   Thumb Code   120  tim_message.o(i.Send_Check)
    Send_Remote                              0x080026a1   Thumb Code   154  tim_message.o(i.Send_Remote)
    SerialMode                               0x08002749   Thumb Code   192  gimbalcontrol.o(i.SerialMode)
    SerialPara_Init                          0x08002841   Thumb Code    88  gimbalcontrol.o(i.SerialPara_Init)
    Serial_CalXYZ                            0x080028c1   Thumb Code   202  gimbalcontrol.o(i.Serial_CalXYZ)
    SineArray_Init                           0x08002a85   Thumb Code   284  motor.o(i.SineArray_Init)
    SysTick_CLKSourceConfig                  0x08002bc9   Thumb Code    40  misc.o(i.SysTick_CLKSourceConfig)
    SysTick_Handler                          0x08002bf1   Thumb Code     2  stm32f10x_it.o(i.SysTick_Handler)
    SystemInit                               0x08002bf5   Thumb Code    78  system_stm32f10x.o(i.SystemInit)
    TIM5_IRQHandler                          0x08002c55   Thumb Code    90  tim_message.o(i.TIM5_IRQHandler)
    TIM_ARRPreloadConfig                     0x08002cc5   Thumb Code    24  stm32f10x_tim.o(i.TIM_ARRPreloadConfig)
    TIM_ClearITPendingBit                    0x08002cdd   Thumb Code     6  stm32f10x_tim.o(i.TIM_ClearITPendingBit)
    TIM_Cmd                                  0x08002ce3   Thumb Code    24  stm32f10x_tim.o(i.TIM_Cmd)
    TIM_GetITStatus                          0x08002cfb   Thumb Code    34  stm32f10x_tim.o(i.TIM_GetITStatus)
    TIM_OC1Init                              0x08002d1d   Thumb Code   132  stm32f10x_tim.o(i.TIM_OC1Init)
    TIM_OC1PreloadConfig                     0x08002db5   Thumb Code    18  stm32f10x_tim.o(i.TIM_OC1PreloadConfig)
    TIM_OC2Init                              0x08002dc9   Thumb Code   154  stm32f10x_tim.o(i.TIM_OC2Init)
    TIM_OC2PreloadConfig                     0x08002e6d   Thumb Code    26  stm32f10x_tim.o(i.TIM_OC2PreloadConfig)
    TIM_OC3Init                              0x08002e89   Thumb Code   150  stm32f10x_tim.o(i.TIM_OC3Init)
    TIM_OC3PreloadConfig                     0x08002f29   Thumb Code    18  stm32f10x_tim.o(i.TIM_OC3PreloadConfig)
    TIM_OC4Init                              0x08002f3d   Thumb Code   114  stm32f10x_tim.o(i.TIM_OC4Init)
    TIM_OC4PreloadConfig                     0x08002fb9   Thumb Code    26  stm32f10x_tim.o(i.TIM_OC4PreloadConfig)
    TIM_SetCompare1                          0x08002fd3   Thumb Code     4  stm32f10x_tim.o(i.TIM_SetCompare1)
    TIM_SetCompare2                          0x08002fd7   Thumb Code     4  stm32f10x_tim.o(i.TIM_SetCompare2)
    TIM_SetCompare3                          0x08002fdb   Thumb Code     4  stm32f10x_tim.o(i.TIM_SetCompare3)
    TIM_SetCompare4                          0x08002fdf   Thumb Code     6  stm32f10x_tim.o(i.TIM_SetCompare4)
    TIM_TimeBaseInit                         0x08002fe5   Thumb Code   122  stm32f10x_tim.o(i.TIM_TimeBaseInit)
    USART1_IRQHandler                        0x08003089   Thumb Code   224  usart.o(i.USART1_IRQHandler)
    USART_Cmd                                0x0800317d   Thumb Code    24  stm32f10x_usart.o(i.USART_Cmd)
    USART_GetFlagStatus                      0x08003195   Thumb Code    26  stm32f10x_usart.o(i.USART_GetFlagStatus)
    USART_GetITStatus                        0x080031af   Thumb Code    84  stm32f10x_usart.o(i.USART_GetITStatus)
    USART_ITConfig                           0x08003203   Thumb Code    74  stm32f10x_usart.o(i.USART_ITConfig)
    USART_Init                               0x0800324d   Thumb Code   210  stm32f10x_usart.o(i.USART_Init)
    USART_ReceiveData                        0x08003325   Thumb Code    10  stm32f10x_usart.o(i.USART_ReceiveData)
    USART_SendData                           0x0800332f   Thumb Code     8  stm32f10x_usart.o(i.USART_SendData)
    UsageFault_Handler                       0x08003337   Thumb Code     4  stm32f10x_it.o(i.UsageFault_Handler)
    Usart_SendArray                          0x0800333b   Thumb Code    48  usart.o(i.Usart_SendArray)
    Usart_SendByte                           0x0800336b   Thumb Code    30  usart.o(i.Usart_SendByte)
    __ARM_fpclassify                         0x08003389   Thumb Code    40  fpclassify.o(i.__ARM_fpclassify)
    __ieee754_rem_pio2                       0x080033b1   Thumb Code   828  rred.o(i.__ieee754_rem_pio2)
    __kernel_cos                             0x08003739   Thumb Code   230  cos_i.o(i.__kernel_cos)
    __kernel_poly                            0x08003835   Thumb Code   170  poly.o(i.__kernel_poly)
    __kernel_sin                             0x080038e1   Thumb Code   224  sin_i.o(i.__kernel_sin)
    __mathlib_dbl_infnan                     0x080039cd   Thumb Code     6  dunder.o(i.__mathlib_dbl_infnan)
    __mathlib_dbl_infnan2                    0x080039d3   Thumb Code     4  dunder.o(i.__mathlib_dbl_infnan2)
    __mathlib_dbl_invalid                    0x080039d7   Thumb Code    12  dunder.o(i.__mathlib_dbl_invalid)
    __mathlib_dbl_underflow                  0x080039e5   Thumb Code    10  dunder.o(i.__mathlib_dbl_underflow)
    _sys_exit                                0x080039f5   Thumb Code     6  usart.o(i._sys_exit)
    atan                                     0x080039fd   Thumb Code   474  atan.o(i.atan)
    atan2                                    0x08003c1d   Thumb Code   346  atan2.o(i.atan2)
    delay_init                               0x08003d9d   Thumb Code    50  delay.o(i.delay_init)
    delay_ms                                 0x08003de1   Thumb Code    72  delay.o(i.delay_ms)
    delay_us                                 0x08003e2d   Thumb Code    72  delay.o(i.delay_us)
    main                                     0x08003e79   Thumb Code    76  main.o(i.main)
    positionInit                             0x08003ec5   Thumb Code   154  gimbalcontrol.o(i.positionInit)
    sin                                      0x08003f7d   Thumb Code   150  sin.o(i.sin)
    uart_init                                0x0800401d   Thumb Code   152  usart.o(i.uart_init)
    __aeabi_d2f                              0x080040bd   Thumb Code     0  d2f.o(x$fpl$d2f)
    _d2f                                     0x080040bd   Thumb Code    98  d2f.o(x$fpl$d2f)
    __aeabi_dadd                             0x08004121   Thumb Code     0  daddsub_clz.o(x$fpl$dadd)
    _dadd                                    0x08004121   Thumb Code   332  daddsub_clz.o(x$fpl$dadd)
    __fpl_dcheck_NaN1                        0x08004271   Thumb Code    10  dcheck1.o(x$fpl$dcheck1)
    __fpl_dcmp_Inf                           0x08004281   Thumb Code    24  dcmpi.o(x$fpl$dcmpinf)
    __aeabi_ddiv                             0x08004299   Thumb Code     0  ddiv.o(x$fpl$ddiv)
    _ddiv                                    0x08004299   Thumb Code   552  ddiv.o(x$fpl$ddiv)
    __aeabi_d2iz                             0x08004549   Thumb Code     0  dfix.o(x$fpl$dfix)
    _dfix                                    0x08004549   Thumb Code    94  dfix.o(x$fpl$dfix)
    __aeabi_d2uiz                            0x080045a9   Thumb Code     0  dfixu.o(x$fpl$dfixu)
    _dfixu                                   0x080045a9   Thumb Code    90  dfixu.o(x$fpl$dfixu)
    __aeabi_i2d                              0x08004603   Thumb Code     0  dflt_clz.o(x$fpl$dflt)
    _dflt                                    0x08004603   Thumb Code    46  dflt_clz.o(x$fpl$dflt)
    __aeabi_ui2d                             0x08004631   Thumb Code     0  dflt_clz.o(x$fpl$dfltu)
    _dfltu                                   0x08004631   Thumb Code    38  dflt_clz.o(x$fpl$dfltu)
    __aeabi_cdcmple                          0x08004659   Thumb Code     0  dleqf.o(x$fpl$dleqf)
    _dcmple                                  0x08004659   Thumb Code   120  dleqf.o(x$fpl$dleqf)
    __fpl_dcmple_InfNaN                      0x080046bb   Thumb Code     0  dleqf.o(x$fpl$dleqf)
    __aeabi_dmul                             0x080046d1   Thumb Code     0  dmul.o(x$fpl$dmul)
    _dmul                                    0x080046d1   Thumb Code   332  dmul.o(x$fpl$dmul)
    __fpl_dnaninf                            0x08004825   Thumb Code   156  dnaninf.o(x$fpl$dnaninf)
    __fpl_dretinf                            0x080048c1   Thumb Code    12  dretinf.o(x$fpl$dretinf)
    __aeabi_cdrcmple                         0x080048cd   Thumb Code     0  drleqf.o(x$fpl$drleqf)
    _drcmple                                 0x080048cd   Thumb Code   108  drleqf.o(x$fpl$drleqf)
    __aeabi_drsub                            0x08004939   Thumb Code     0  daddsub_clz.o(x$fpl$drsb)
    _drsb                                    0x08004939   Thumb Code    22  daddsub_clz.o(x$fpl$drsb)
    __aeabi_dsub                             0x08004951   Thumb Code     0  daddsub_clz.o(x$fpl$dsub)
    _dsub                                    0x08004951   Thumb Code   464  daddsub_clz.o(x$fpl$dsub)
    __aeabi_f2d                              0x08004b25   Thumb Code     0  f2d.o(x$fpl$f2d)
    _f2d                                     0x08004b25   Thumb Code    86  f2d.o(x$fpl$f2d)
    __aeabi_fadd                             0x08004b7d   Thumb Code     0  faddsub_clz.o(x$fpl$fadd)
    _fadd                                    0x08004b7d   Thumb Code   196  faddsub_clz.o(x$fpl$fadd)
    __fpl_fcmp_Inf                           0x08004c41   Thumb Code    24  fcmpi.o(x$fpl$fcmpinf)
    __aeabi_fdiv                             0x08004c59   Thumb Code     0  fdiv.o(x$fpl$fdiv)
    _fdiv                                    0x08004c59   Thumb Code   384  fdiv.o(x$fpl$fdiv)
    __aeabi_cfcmpeq                          0x08004ddd   Thumb Code     0  feqf.o(x$fpl$feqf)
    _fcmpeq                                  0x08004ddd   Thumb Code   104  feqf.o(x$fpl$feqf)
    __aeabi_f2iz                             0x08004e45   Thumb Code     0  ffix.o(x$fpl$ffix)
    _ffix                                    0x08004e45   Thumb Code    54  ffix.o(x$fpl$ffix)
    __aeabi_f2uiz                            0x08004e7d   Thumb Code     0  ffixu.o(x$fpl$ffixu)
    _ffixu                                   0x08004e7d   Thumb Code    62  ffixu.o(x$fpl$ffixu)
    __aeabi_ui2f                             0x08004ebd   Thumb Code     0  fflt_clz.o(x$fpl$ffltu)
    _ffltu                                   0x08004ebd   Thumb Code    38  fflt_clz.o(x$fpl$ffltu)
    __aeabi_cfcmple                          0x08004ee5   Thumb Code     0  fleqf.o(x$fpl$fleqf)
    _fcmple                                  0x08004ee5   Thumb Code   104  fleqf.o(x$fpl$fleqf)
    __fpl_fcmple_InfNaN                      0x08004f37   Thumb Code     0  fleqf.o(x$fpl$fleqf)
    __aeabi_fmul                             0x08004f4d   Thumb Code     0  fmul.o(x$fpl$fmul)
    _fmul                                    0x08004f4d   Thumb Code   258  fmul.o(x$fpl$fmul)
    __fpl_fnaninf                            0x0800504f   Thumb Code   140  fnaninf.o(x$fpl$fnaninf)
    __fpl_fretinf                            0x080050db   Thumb Code    10  fretinf.o(x$fpl$fretinf)
    __aeabi_cfrcmple                         0x080050e5   Thumb Code     0  frleqf.o(x$fpl$frleqf)
    _frcmple                                 0x080050e5   Thumb Code    98  frleqf.o(x$fpl$frleqf)
    __aeabi_frsub                            0x08005147   Thumb Code     0  faddsub_clz.o(x$fpl$frsb)
    _frsb                                    0x08005147   Thumb Code    20  faddsub_clz.o(x$fpl$frsb)
    __aeabi_fsub                             0x0800515d   Thumb Code     0  faddsub_clz.o(x$fpl$fsub)
    _fsub                                    0x0800515d   Thumb Code   234  faddsub_clz.o(x$fpl$fsub)
    __fpl_return_NaN                         0x08005247   Thumb Code   100  retnan.o(x$fpl$retnan)
    __ARM_scalbn                             0x080052ab   Thumb Code    92  scalbn.o(x$fpl$scalbn)
    __fpl_cmpreturn                          0x08005307   Thumb Code    48  trapv.o(x$fpl$trapveneer)
    __I$use$fp                               0x08005336   Number         0  usenofp.o(x$fpl$usenofp)
    __mathlib_zero                           0x08005400   Data           8  qnan.o(.constdata)
    Region$$Table$$Base                      0x080054f8   Number         0  anon$$obj.o(Region$$Table)
    Region$$Table$$Limit                     0x08005518   Number         0  anon$$obj.o(Region$$Table)
    SystemCoreClock                          0x20000000   Data           4  system_stm32f10x.o(.data)
    AHBPrescTable                            0x20000004   Data          16  system_stm32f10x.o(.data)
    Serial_Z                                 0x20000120   Data           2  gimbalcontrol.o(.data)
    Serial_X                                 0x20000122   Data           2  gimbalcontrol.o(.data)
    Serial_Y                                 0x20000124   Data           2  gimbalcontrol.o(.data)
    ADC_Value                                0x20000126   Data           6  gimbalcontrol.o(.data)
    cntGreen                                 0x2000012c   Data           4  gimbalcontrol.o(.data)
    cntRed                                   0x20000130   Data           4  gimbalcontrol.o(.data)
    cntPosInit                               0x20000134   Data           4  gimbalcontrol.o(.data)
    cntCalibrate                             0x20000138   Data           4  gimbalcontrol.o(.data)
    cntCaliDelay                             0x2000013c   Data           4  gimbalcontrol.o(.data)
    ExpPitch                                 0x20000140   Data           4  gimbalcontrol.o(.data)
    ExpYaw                                   0x20000144   Data           4  gimbalcontrol.o(.data)
    ExpRoll                                  0x20000148   Data           4  gimbalcontrol.o(.data)
    pitchSpeed                               0x2000014c   Data           4  gimbalcontrol.o(.data)
    rollSpeed                                0x20000150   Data           4  gimbalcontrol.o(.data)
    yawSpeed                                 0x20000154   Data           4  gimbalcontrol.o(.data)
    gypoZBiasBoard                           0x20000158   Data           4  gimbalcontrol.o(.data)
    gypoZBiasMpu                             0x2000015c   Data           4  gimbalcontrol.o(.data)
    gypoMedianBoard                          0x20000160   Data           4  gimbalcontrol.o(.data)
    yawBoard                                 0x20000164   Data           4  gimbalcontrol.o(.data)
    yawMpu                                   0x20000168   Data           4  gimbalcontrol.o(.data)
    yawDiff                                  0x2000016c   Data           4  gimbalcontrol.o(.data)
    Mpu6050_ID                               0x20000182   Data           1  mpu6050.o(.data)
    Mpu6050_Accel_X                          0x20000184   Data           4  mpu6050.o(.data)
    Mpu6050_Accel_Y                          0x20000188   Data           4  mpu6050.o(.data)
    Mpu6050_Accel_Z                          0x2000018c   Data           4  mpu6050.o(.data)
    Mpu6050_Temp                             0x20000190   Data           4  mpu6050.o(.data)
    Mpu6050_Gyro_X                           0x20000194   Data           4  mpu6050.o(.data)
    Mpu6050_Gyro_Y                           0x20000198   Data           4  mpu6050.o(.data)
    Mpu6050_Gyro_Z                           0x2000019c   Data           4  mpu6050.o(.data)
    Mpu6050_Pitch                            0x200001a0   Data           4  mpu6050.o(.data)
    Mpu6050_Roll                             0x200001a4   Data           4  mpu6050.o(.data)
    Mpu6050_Yaw                              0x200001a8   Data           4  mpu6050.o(.data)
    BoardMpu_ID                              0x200001c2   Data           1  boardmpu.o(.data)
    BoardMpu_Accel_X                         0x200001c4   Data           4  boardmpu.o(.data)
    BoardMpu_Accel_Y                         0x200001c8   Data           4  boardmpu.o(.data)
    BoardMpu_Accel_Z                         0x200001cc   Data           4  boardmpu.o(.data)
    BoardMpu_Temp                            0x200001d0   Data           4  boardmpu.o(.data)
    BoardMpu_Gyro_X                          0x200001d4   Data           4  boardmpu.o(.data)
    BoardMpu_Gyro_Y                          0x200001d8   Data           4  boardmpu.o(.data)
    BoardMpu_Gyro_Z                          0x200001dc   Data           4  boardmpu.o(.data)
    BoardMpu_Pitch                           0x200001e0   Data           4  boardmpu.o(.data)
    BoardMpu_Roll                            0x200001e4   Data           4  boardmpu.o(.data)
    BoardMpu_Yaw                             0x200001e8   Data           4  boardmpu.o(.data)
    fun                                      0x20000230   Data           1  tim_message.o(.data)
    len                                      0x20000231   Data           1  tim_message.o(.data)
    keyValue                                 0x2000029c   Data           1  usart.o(.data)
    USART1_TX                                0x2000029e   Data           8  usart.o(.data)
    __stdout                                 0x200002a8   Data           4  usart.o(.data)
    USART1_RX                                0x200024f8   Data          11  usart.o(.bss)
    __libspace_start                         0x20002504   Data          96  libspace.o(.bss)
    __temporary_stack_top$libspace           0x20002564   Data           0  libspace.o(.bss)



==============================================================================

Memory Map of the image

  Image Entry point : 0x08000131

  Load Region LR_IROM1 (Base: 0x08000000, Size: 0x000057d8, Max: 0x00040000, ABSOLUTE, COMPRESSED[0x0000555c])

    Execution Region ER_IROM1 (Base: 0x08000000, Size: 0x00005518, Max: 0x00040000, ABSOLUTE)

    Base Addr    Size         Type   Attr      Idx    E Section Name        Object

    0x08000000   0x00000130   Data   RO          928    RESET               startup_stm32f10x_hd.o
    0x08000130   0x00000008   Code   RO         2137  * !!!main             c_w.l(__main.o)
    0x08000138   0x00000034   Code   RO         2447    !!!scatter          c_w.l(__scatter.o)
    0x0800016c   0x0000005a   Code   RO         2445    !!dczerorl2         c_w.l(__dczerorl2.o)
    0x080001c6   0x00000002   PAD
    0x080001c8   0x0000001c   Code   RO         2449    !!handler_zi        c_w.l(__scatter_zi.o)
    0x080001e4   0x00000002   Code   RO         2316    .ARM.Collect$$libinit$$00000000  c_w.l(libinit.o)
    0x080001e6   0x00000000   Code   RO         2322    .ARM.Collect$$libinit$$00000002  c_w.l(libinit2.o)
    0x080001e6   0x00000000   Code   RO         2324    .ARM.Collect$$libinit$$00000004  c_w.l(libinit2.o)
    0x080001e6   0x00000000   Code   RO         2327    .ARM.Collect$$libinit$$0000000A  c_w.l(libinit2.o)
    0x080001e6   0x00000000   Code   RO         2329    .ARM.Collect$$libinit$$0000000C  c_w.l(libinit2.o)
    0x080001e6   0x00000000   Code   RO         2331    .ARM.Collect$$libinit$$0000000E  c_w.l(libinit2.o)
    0x080001e6   0x00000000   Code   RO         2334    .ARM.Collect$$libinit$$00000011  c_w.l(libinit2.o)
    0x080001e6   0x00000000   Code   RO         2336    .ARM.Collect$$libinit$$00000013  c_w.l(libinit2.o)
    0x080001e6   0x00000000   Code   RO         2338    .ARM.Collect$$libinit$$00000015  c_w.l(libinit2.o)
    0x080001e6   0x00000000   Code   RO         2340    .ARM.Collect$$libinit$$00000017  c_w.l(libinit2.o)
    0x080001e6   0x00000000   Code   RO         2342    .ARM.Collect$$libinit$$00000019  c_w.l(libinit2.o)
    0x080001e6   0x00000000   Code   RO         2344    .ARM.Collect$$libinit$$0000001B  c_w.l(libinit2.o)
    0x080001e6   0x00000000   Code   RO         2346    .ARM.Collect$$libinit$$0000001D  c_w.l(libinit2.o)
    0x080001e6   0x00000000   Code   RO         2348    .ARM.Collect$$libinit$$0000001F  c_w.l(libinit2.o)
    0x080001e6   0x00000000   Code   RO         2350    .ARM.Collect$$libinit$$00000021  c_w.l(libinit2.o)
    0x080001e6   0x00000000   Code   RO         2352    .ARM.Collect$$libinit$$00000023  c_w.l(libinit2.o)
    0x080001e6   0x00000000   Code   RO         2354    .ARM.Collect$$libinit$$00000025  c_w.l(libinit2.o)
    0x080001e6   0x00000000   Code   RO         2358    .ARM.Collect$$libinit$$0000002C  c_w.l(libinit2.o)
    0x080001e6   0x00000000   Code   RO         2360    .ARM.Collect$$libinit$$0000002E  c_w.l(libinit2.o)
    0x080001e6   0x00000000   Code   RO         2362    .ARM.Collect$$libinit$$00000030  c_w.l(libinit2.o)
    0x080001e6   0x00000000   Code   RO         2364    .ARM.Collect$$libinit$$00000032  c_w.l(libinit2.o)
    0x080001e6   0x00000002   Code   RO         2365    .ARM.Collect$$libinit$$00000033  c_w.l(libinit2.o)
    0x080001e8   0x00000002   Code   RO         2387    .ARM.Collect$$libshutdown$$00000000  c_w.l(libshutdown.o)
    0x080001ea   0x00000000   Code   RO         2397    .ARM.Collect$$libshutdown$$00000002  c_w.l(libshutdown2.o)
    0x080001ea   0x00000000   Code   RO         2399    .ARM.Collect$$libshutdown$$00000004  c_w.l(libshutdown2.o)
    0x080001ea   0x00000000   Code   RO         2402    .ARM.Collect$$libshutdown$$00000007  c_w.l(libshutdown2.o)
    0x080001ea   0x00000000   Code   RO         2405    .ARM.Collect$$libshutdown$$0000000A  c_w.l(libshutdown2.o)
    0x080001ea   0x00000000   Code   RO         2407    .ARM.Collect$$libshutdown$$0000000C  c_w.l(libshutdown2.o)
    0x080001ea   0x00000000   Code   RO         2410    .ARM.Collect$$libshutdown$$0000000F  c_w.l(libshutdown2.o)
    0x080001ea   0x00000002   Code   RO         2411    .ARM.Collect$$libshutdown$$00000010  c_w.l(libshutdown2.o)
    0x080001ec   0x00000000   Code   RO         2219    .ARM.Collect$$rtentry$$00000000  c_w.l(__rtentry.o)
    0x080001ec   0x00000000   Code   RO         2275    .ARM.Collect$$rtentry$$00000002  c_w.l(__rtentry2.o)
    0x080001ec   0x00000006   Code   RO         2287    .ARM.Collect$$rtentry$$00000004  c_w.l(__rtentry4.o)
    0x080001f2   0x00000000   Code   RO         2277    .ARM.Collect$$rtentry$$00000009  c_w.l(__rtentry2.o)
    0x080001f2   0x00000004   Code   RO         2278    .ARM.Collect$$rtentry$$0000000A  c_w.l(__rtentry2.o)
    0x080001f6   0x00000000   Code   RO         2280    .ARM.Collect$$rtentry$$0000000C  c_w.l(__rtentry2.o)
    0x080001f6   0x00000008   Code   RO         2281    .ARM.Collect$$rtentry$$0000000D  c_w.l(__rtentry2.o)
    0x080001fe   0x00000002   Code   RO         2319    .ARM.Collect$$rtexit$$00000000  c_w.l(rtexit.o)
    0x08000200   0x00000000   Code   RO         2369    .ARM.Collect$$rtexit$$00000002  c_w.l(rtexit2.o)
    0x08000200   0x00000004   Code   RO         2370    .ARM.Collect$$rtexit$$00000003  c_w.l(rtexit2.o)
    0x08000204   0x00000006   Code   RO         2371    .ARM.Collect$$rtexit$$00000004  c_w.l(rtexit2.o)
    0x0800020a   0x00000002   PAD
    0x0800020c   0x00000040   Code   RO          929    .text               startup_stm32f10x_hd.o
    0x0800024c   0x00000002   Code   RO         2133    .text               c_w.l(use_no_semi_2.o)
    0x0800024e   0x00000006   Code   RO         2135    .text               c_w.l(heapauxi.o)
    0x08000254   0x00000002   Code   RO         2217    .text               c_w.l(use_no_semi.o)
    0x08000256   0x00000016   Code   RO         2220    .text               c_w.l(_rserrno.o)
    0x0800026c   0x00000008   Code   RO         2292    .text               c_w.l(rt_errno_addr_intlibspace.o)
    0x08000274   0x00000008   Code   RO         2304    .text               c_w.l(libspace.o)
    0x0800027c   0x0000004a   Code   RO         2307    .text               c_w.l(sys_stackheap_outer.o)
    0x080002c6   0x00000012   Code   RO         2309    .text               c_w.l(exit.o)
    0x080002d8   0x00000088   Code   RO          309    i.AutoMode          gimbalcontrol.o
    0x08000360   0x000000dc   Code   RO          310    i.BiasInit          gimbalcontrol.o
    0x0800043c   0x0000019c   Code   RO          447    i.BoardMpu_CalPitchRoll  boardmpu.o
    0x080005d8   0x000000c0   Code   RO          448    i.BoardMpu_GetAccelData  boardmpu.o
    0x08000698   0x0000001c   Code   RO          449    i.BoardMpu_GetDevID  boardmpu.o
    0x080006b4   0x000000c4   Code   RO          450    i.BoardMpu_GetGyroData  boardmpu.o
    0x08000778   0x000000c8   Code   RO          452    i.BoardMpu_Init     boardmpu.o
    0x08000840   0x0000005a   Code   RO          453    i.BoardMpu_SetDLPF  boardmpu.o
    0x0800089a   0x0000005e   Code   RO          454    i.BoardMpu_SetSampleRate  boardmpu.o
    0x080008f8   0x00000004   Code   RO          153    i.BusFault_Handler  stm32f10x_it.o
    0x080008fc   0x00000108   Code   RO          311    i.ConvertAngle      gimbalcontrol.o
    0x08000a04   0x00000002   Code   RO          154    i.DebugMon_Handler  stm32f10x_it.o
    0x08000a06   0x00000116   Code   RO         1095    i.GPIO_Init         stm32f10x_gpio.o
    0x08000b1c   0x00000012   Code   RO         1099    i.GPIO_ReadInputDataBit  stm32f10x_gpio.o
    0x08000b2e   0x00000004   Code   RO         1102    i.GPIO_ResetBits    stm32f10x_gpio.o
    0x08000b32   0x00000004   Code   RO         1103    i.GPIO_SetBits      stm32f10x_gpio.o
    0x08000b36   0x0000000a   Code   RO         1106    i.GPIO_WriteBit     stm32f10x_gpio.o
    0x08000b40   0x00000268   Code   RO          312    i.GimbalControl     gimbalcontrol.o
    0x08000da8   0x00000004   Code   RO          155    i.HardFault_Handler  stm32f10x_it.o
    0x08000dac   0x00000034   Code   RO          510    i.I2C1_Init         boardmpui2c.o
    0x08000de0   0x00000094   Code   RO          511    i.I2C1_ReadData     boardmpui2c.o
    0x08000e74   0x00000094   Code   RO          512    i.I2C1_RecvByte     boardmpui2c.o
    0x08000f08   0x00000044   Code   RO          513    i.I2C1_SendACK      boardmpui2c.o
    0x08000f4c   0x0000005c   Code   RO          514    i.I2C1_SendByte     boardmpui2c.o
    0x08000fa8   0x0000003c   Code   RO          515    i.I2C1_Start        boardmpui2c.o
    0x08000fe4   0x0000003c   Code   RO          516    i.I2C1_Stop         boardmpui2c.o
    0x08001020   0x00000084   Code   RO          517    i.I2C1_WaitACK      boardmpui2c.o
    0x080010a4   0x0000006e   Code   RO          518    i.I2C1_WriteData    boardmpui2c.o
    0x08001112   0x00000002   PAD
    0x08001114   0x00000038   Code   RO          572    i.I2C2_Init         mpui2c.o
    0x0800114c   0x00000094   Code   RO          573    i.I2C2_ReadData     mpui2c.o
    0x080011e0   0x000000a0   Code   RO          574    i.I2C2_RecvByte     mpui2c.o
    0x08001280   0x0000004c   Code   RO          575    i.I2C2_SendACK      mpui2c.o
    0x080012cc   0x00000064   Code   RO          576    i.I2C2_SendByte     mpui2c.o
    0x08001330   0x00000044   Code   RO          577    i.I2C2_Start        mpui2c.o
    0x08001374   0x00000044   Code   RO          578    i.I2C2_Stop         mpui2c.o
    0x080013b8   0x00000094   Code   RO          579    i.I2C2_WaitACK      mpui2c.o
    0x0800144c   0x0000006e   Code   RO          580    i.I2C2_WriteData    mpui2c.o
    0x080014ba   0x00000002   PAD
    0x080014bc   0x00000038   Code   RO          375    i.LED_Init          led.o
    0x080014f4   0x00000134   Code   RO          276    i.MedianFilter      pid.o
    0x08001628   0x00000004   Code   RO          156    i.MemManage_Handler  stm32f10x_it.o
    0x0800162c   0x000000f0   Code   RO          634    i.Motor0_Run        motor.o
    0x0800171c   0x00000040   Code   RO          635    i.Motor0_SetPWM     motor.o
    0x0800175c   0x000000f0   Code   RO          637    i.Motor1_Run        motor.o
    0x0800184c   0x00000044   Code   RO          638    i.Motor1_SetPWM     motor.o
    0x08001890   0x000000f0   Code   RO          640    i.Motor2_Run        motor.o
    0x08001980   0x00000044   Code   RO          641    i.Motor2_SetPWM     motor.o
    0x080019c4   0x00000190   Code   RO          643    i.MotorPWM_Init     motor.o
    0x08001b54   0x00000010   Code   RO          644    i.MotorPos_Init     motor.o
    0x08001b64   0x00000010   Code   RO          645    i.Motor_Init        motor.o
    0x08001b74   0x000001a8   Code   RO          387    i.Mpu6050_CalPitchRoll  mpu6050.o
    0x08001d1c   0x000000c0   Code   RO          388    i.Mpu6050_GetAccelData  mpu6050.o
    0x08001ddc   0x0000001c   Code   RO          389    i.Mpu6050_GetDevID  mpu6050.o
    0x08001df8   0x000000c4   Code   RO          390    i.Mpu6050_GetGyroData  mpu6050.o
    0x08001ebc   0x000000c8   Code   RO          392    i.Mpu6050_Init      mpu6050.o
    0x08001f84   0x0000005a   Code   RO          393    i.Mpu6050_SetDLPF   mpu6050.o
    0x08001fde   0x0000005e   Code   RO          394    i.Mpu6050_SetSampleRate  mpu6050.o
    0x0800203c   0x00000002   Code   RO          157    i.NMI_Handler       stm32f10x_it.o
    0x0800203e   0x00000002   PAD
    0x08002040   0x00000070   Code   RO          933    i.NVIC_Init         misc.o
    0x080020b0   0x00000174   Code   RO          277    i.PID_Motor0        pid.o
    0x08002224   0x00000174   Code   RO          278    i.PID_Motor1        pid.o
    0x08002398   0x00000168   Code   RO          279    i.PID_Motor2        pid.o
    0x08002500   0x00000002   Code   RO          158    i.PendSV_Handler    stm32f10x_it.o
    0x08002502   0x00000002   PAD
    0x08002504   0x00000020   Code   RO         1205    i.RCC_APB1PeriphClockCmd  stm32f10x_rcc.o
    0x08002524   0x00000020   Code   RO         1207    i.RCC_APB2PeriphClockCmd  stm32f10x_rcc.o
    0x08002544   0x000000d4   Code   RO         1215    i.RCC_GetClocksFreq  stm32f10x_rcc.o
    0x08002618   0x00000002   Code   RO          159    i.SVC_Handler       stm32f10x_it.o
    0x0800261a   0x00000002   PAD
    0x0800261c   0x00000084   Code   RO          722    i.Send_Check        tim_message.o
    0x080026a0   0x000000a8   Code   RO          723    i.Send_Remote       tim_message.o
    0x08002748   0x000000f8   Code   RO          313    i.SerialMode        gimbalcontrol.o
    0x08002840   0x00000080   Code   RO          314    i.SerialPara_Init   gimbalcontrol.o
    0x080028c0   0x000000dc   Code   RO          315    i.Serial_CalXYZ     gimbalcontrol.o
    0x0800299c   0x00000008   Code   RO          242    i.SetSysClock       system_stm32f10x.o
    0x080029a4   0x000000e0   Code   RO          243    i.SetSysClockTo72   system_stm32f10x.o
    0x08002a84   0x00000144   Code   RO          646    i.SineArray_Init    motor.o
    0x08002bc8   0x00000028   Code   RO          937    i.SysTick_CLKSourceConfig  misc.o
    0x08002bf0   0x00000002   Code   RO          160    i.SysTick_Handler   stm32f10x_it.o
    0x08002bf2   0x00000002   PAD
    0x08002bf4   0x00000060   Code   RO          245    i.SystemInit        system_stm32f10x.o
    0x08002c54   0x00000070   Code   RO          724    i.TIM5_IRQHandler   tim_message.o
    0x08002cc4   0x00000018   Code   RO         1587    i.TIM_ARRPreloadConfig  stm32f10x_tim.o
    0x08002cdc   0x00000006   Code   RO         1594    i.TIM_ClearITPendingBit  stm32f10x_tim.o
    0x08002ce2   0x00000018   Code   RO         1599    i.TIM_Cmd           stm32f10x_tim.o
    0x08002cfa   0x00000022   Code   RO         1620    i.TIM_GetITStatus   stm32f10x_tim.o
    0x08002d1c   0x00000098   Code   RO         1628    i.TIM_OC1Init       stm32f10x_tim.o
    0x08002db4   0x00000012   Code   RO         1631    i.TIM_OC1PreloadConfig  stm32f10x_tim.o
    0x08002dc6   0x00000002   PAD
    0x08002dc8   0x000000a4   Code   RO         1633    i.TIM_OC2Init       stm32f10x_tim.o
    0x08002e6c   0x0000001a   Code   RO         1636    i.TIM_OC2PreloadConfig  stm32f10x_tim.o
    0x08002e86   0x00000002   PAD
    0x08002e88   0x000000a0   Code   RO         1638    i.TIM_OC3Init       stm32f10x_tim.o
    0x08002f28   0x00000012   Code   RO         1641    i.TIM_OC3PreloadConfig  stm32f10x_tim.o
    0x08002f3a   0x00000002   PAD
    0x08002f3c   0x0000007c   Code   RO         1643    i.TIM_OC4Init       stm32f10x_tim.o
    0x08002fb8   0x0000001a   Code   RO         1645    i.TIM_OC4PreloadConfig  stm32f10x_tim.o
    0x08002fd2   0x00000004   Code   RO         1660    i.TIM_SetCompare1   stm32f10x_tim.o
    0x08002fd6   0x00000004   Code   RO         1661    i.TIM_SetCompare2   stm32f10x_tim.o
    0x08002fda   0x00000004   Code   RO         1662    i.TIM_SetCompare3   stm32f10x_tim.o
    0x08002fde   0x00000006   Code   RO         1663    i.TIM_SetCompare4   stm32f10x_tim.o
    0x08002fe4   0x000000a4   Code   RO         1670    i.TIM_TimeBaseInit  stm32f10x_tim.o
    0x08003088   0x000000f4   Code   RO          838    i.USART1_IRQHandler  usart.o
    0x0800317c   0x00000018   Code   RO         1407    i.USART_Cmd         stm32f10x_usart.o
    0x08003194   0x0000001a   Code   RO         1410    i.USART_GetFlagStatus  stm32f10x_usart.o
    0x080031ae   0x00000054   Code   RO         1411    i.USART_GetITStatus  stm32f10x_usart.o
    0x08003202   0x0000004a   Code   RO         1413    i.USART_ITConfig    stm32f10x_usart.o
    0x0800324c   0x000000d8   Code   RO         1414    i.USART_Init        stm32f10x_usart.o
    0x08003324   0x0000000a   Code   RO         1421    i.USART_ReceiveData  stm32f10x_usart.o
    0x0800332e   0x00000008   Code   RO         1424    i.USART_SendData    stm32f10x_usart.o
    0x08003336   0x00000004   Code   RO          161    i.UsageFault_Handler  stm32f10x_it.o
    0x0800333a   0x00000030   Code   RO          839    i.Usart_SendArray   usart.o
    0x0800336a   0x0000001e   Code   RO          840    i.Usart_SendByte    usart.o
    0x08003388   0x00000028   Code   RO         2300    i.__ARM_fpclassify  m_ws.l(fpclassify.o)
    0x080033b0   0x00000388   Code   RO         2263    i.__ieee754_rem_pio2  m_ws.l(rred.o)
    0x08003738   0x000000fc   Code   RO         2245    i.__kernel_cos      m_ws.l(cos_i.o)
    0x08003834   0x000000aa   Code   RO         2302    i.__kernel_poly     m_ws.l(poly.o)
    0x080038de   0x00000002   PAD
    0x080038e0   0x000000ec   Code   RO         2268    i.__kernel_sin      m_ws.l(sin_i.o)
    0x080039cc   0x00000006   Code   RO         2249    i.__mathlib_dbl_infnan  m_ws.l(dunder.o)
    0x080039d2   0x00000004   Code   RO         2250    i.__mathlib_dbl_infnan2  m_ws.l(dunder.o)
    0x080039d6   0x0000000c   Code   RO         2251    i.__mathlib_dbl_invalid  m_ws.l(dunder.o)
    0x080039e2   0x00000002   PAD
    0x080039e4   0x00000010   Code   RO         2254    i.__mathlib_dbl_underflow  m_ws.l(dunder.o)
    0x080039f4   0x00000006   Code   RO          843    i._sys_exit         usart.o
    0x080039fa   0x00000002   PAD
    0x080039fc   0x00000220   Code   RO         2236    i.atan              m_ws.l(atan.o)
    0x08003c1c   0x00000180   Code   RO         2202    i.atan2             m_ws.l(atan2.o)
    0x08003d9c   0x00000044   Code   RO          782    i.delay_init        delay.o
    0x08003de0   0x0000004c   Code   RO          783    i.delay_ms          delay.o
    0x08003e2c   0x0000004c   Code   RO          784    i.delay_us          delay.o
    0x08003e78   0x0000004c   Code   RO            1    i.main              main.o
    0x08003ec4   0x000000b8   Code   RO          316    i.positionInit      gimbalcontrol.o
    0x08003f7c   0x000000a0   Code   RO         2210    i.sin               m_ws.l(sin.o)
    0x0800401c   0x000000a0   Code   RO          845    i.uart_init         usart.o
    0x080040bc   0x00000062   Code   RO         2139    x$fpl$d2f           fz_ws.l(d2f.o)
    0x0800411e   0x00000002   PAD
    0x08004120   0x00000150   Code   RO         2141    x$fpl$dadd          fz_ws.l(daddsub_clz.o)
    0x08004270   0x00000010   Code   RO         2317    x$fpl$dcheck1       fz_ws.l(dcheck1.o)
    0x08004280   0x00000018   Code   RO         2222    x$fpl$dcmpinf       fz_ws.l(dcmpi.o)
    0x08004298   0x000002b0   Code   RO         2148    x$fpl$ddiv          fz_ws.l(ddiv.o)
    0x08004548   0x0000005e   Code   RO         2294    x$fpl$dfix          fz_ws.l(dfix.o)
    0x080045a6   0x00000002   PAD
    0x080045a8   0x0000005a   Code   RO         2151    x$fpl$dfixu         fz_ws.l(dfixu.o)
    0x08004602   0x0000002e   Code   RO         2156    x$fpl$dflt          fz_ws.l(dflt_clz.o)
    0x08004630   0x00000026   Code   RO         2155    x$fpl$dfltu         fz_ws.l(dflt_clz.o)
    0x08004656   0x00000002   PAD
    0x08004658   0x00000078   Code   RO         2161    x$fpl$dleqf         fz_ws.l(dleqf.o)
    0x080046d0   0x00000154   Code   RO         2163    x$fpl$dmul          fz_ws.l(dmul.o)
    0x08004824   0x0000009c   Code   RO         2224    x$fpl$dnaninf       fz_ws.l(dnaninf.o)
    0x080048c0   0x0000000c   Code   RO         2226    x$fpl$dretinf       fz_ws.l(dretinf.o)
    0x080048cc   0x0000006c   Code   RO         2165    x$fpl$drleqf        fz_ws.l(drleqf.o)
    0x08004938   0x00000016   Code   RO         2142    x$fpl$drsb          fz_ws.l(daddsub_clz.o)
    0x0800494e   0x00000002   PAD
    0x08004950   0x000001d4   Code   RO         2143    x$fpl$dsub          fz_ws.l(daddsub_clz.o)
    0x08004b24   0x00000056   Code   RO         2167    x$fpl$f2d           fz_ws.l(f2d.o)
    0x08004b7a   0x00000002   PAD
    0x08004b7c   0x000000c4   Code   RO         2169    x$fpl$fadd          fz_ws.l(faddsub_clz.o)
    0x08004c40   0x00000018   Code   RO         2228    x$fpl$fcmpinf       fz_ws.l(fcmpi.o)
    0x08004c58   0x00000184   Code   RO         2176    x$fpl$fdiv          fz_ws.l(fdiv.o)
    0x08004ddc   0x00000068   Code   RO         2179    x$fpl$feqf          fz_ws.l(feqf.o)
    0x08004e44   0x00000036   Code   RO         2181    x$fpl$ffix          fz_ws.l(ffix.o)
    0x08004e7a   0x00000002   PAD
    0x08004e7c   0x0000003e   Code   RO         2185    x$fpl$ffixu         fz_ws.l(ffixu.o)
    0x08004eba   0x00000002   PAD
    0x08004ebc   0x00000026   Code   RO         2189    x$fpl$ffltu         fz_ws.l(fflt_clz.o)
    0x08004ee2   0x00000002   PAD
    0x08004ee4   0x00000068   Code   RO         2195    x$fpl$fleqf         fz_ws.l(fleqf.o)
    0x08004f4c   0x00000102   Code   RO         2197    x$fpl$fmul          fz_ws.l(fmul.o)
    0x0800504e   0x0000008c   Code   RO         2230    x$fpl$fnaninf       fz_ws.l(fnaninf.o)
    0x080050da   0x0000000a   Code   RO         2232    x$fpl$fretinf       fz_ws.l(fretinf.o)
    0x080050e4   0x00000062   Code   RO         2199    x$fpl$frleqf        fz_ws.l(frleqf.o)
    0x08005146   0x00000014   Code   RO         2170    x$fpl$frsb          fz_ws.l(faddsub_clz.o)
    0x0800515a   0x00000002   PAD
    0x0800515c   0x000000ea   Code   RO         2171    x$fpl$fsub          fz_ws.l(faddsub_clz.o)
    0x08005246   0x00000064   Code   RO         2366    x$fpl$retnan        fz_ws.l(retnan.o)
    0x080052aa   0x0000005c   Code   RO         2298    x$fpl$scalbn        fz_ws.l(scalbn.o)
    0x08005306   0x00000030   Code   RO         2379    x$fpl$trapveneer    fz_ws.l(trapv.o)
    0x08005336   0x00000000   Code   RO         2234    x$fpl$usenofp       fz_ws.l(usenofp.o)
    0x08005336   0x00000002   Data   RO          648    .constdata          motor.o
    0x08005338   0x00000098   Data   RO         2237    .constdata          m_ws.l(atan.o)
    0x080053d0   0x00000030   Data   RO         2246    .constdata          m_ws.l(cos_i.o)
    0x08005400   0x00000008   Data   RO         2262    .constdata          m_ws.l(qnan.o)
    0x08005408   0x000000c8   Data   RO         2265    .constdata          m_ws.l(rred.o)
    0x080054d0   0x00000028   Data   RO         2269    .constdata          m_ws.l(sin_i.o)
    0x080054f8   0x00000020   Data   RO         2443    Region$$Table       anon$$obj.o


    Execution Region RW_IRAM1 (Base: 0x20000000, Size: 0x00002b68, Max: 0x0000c000, ABSOLUTE, COMPRESSED[0x00000044])

    Base Addr    Size         Type   Attr      Idx    E Section Name        Object

    0x20000000   0x00000014   Data   RW          246    .data               system_stm32f10x.o
    0x20000014   0x000000a8   Data   RW          281    .data               pid.o
    0x200000bc   0x000000b4   Data   RW          319    .data               gimbalcontrol.o
    0x20000170   0x0000003c   Data   RW          395    .data               mpu6050.o
    0x200001ac   0x00000040   Data   RW          455    .data               boardmpu.o
    0x200001ec   0x00000004   Data   RW          519    .data               boardmpui2c.o
    0x200001f0   0x00000004   Data   RW          581    .data               mpui2c.o
    0x200001f4   0x0000002e   Data   RW          649    .data               motor.o
    0x20000222   0x00000010   Data   RW          726    .data               tim_message.o
    0x20000232   0x00000004   Data   RW          785    .data               delay.o
    0x20000236   0x00000002   PAD
    0x20000238   0x00000074   Data   RW          848    .data               usart.o
    0x200002ac   0x00000014   Data   RW         1235    .data               stm32f10x_rcc.o
    0x200002c0   0x0000011c   Zero   RW          280    .bss                pid.o
    0x200003dc   0x00001000   Zero   RW          647    .bss                motor.o
    0x200013dc   0x00001127   Zero   RW          846    .bss                usart.o
    0x20002503   0x00000001   PAD
    0x20002504   0x00000060   Zero   RW         2305    .bss                c_w.l(libspace.o)
    0x20002564   0x00000004   PAD
    0x20002568   0x00000200   Zero   RW          927    HEAP                startup_stm32f10x_hd.o
    0x20002768   0x00000400   Zero   RW          926    STACK               startup_stm32f10x_hd.o


==============================================================================

Image component sizes


      Code (inc. data)   RO Data    RW Data    ZI Data      Debug   Object Name

      1212        112          0         64          0       5524   boardmpu.o
       870         50          0          4          0       6120   boardmpui2c.o
       220         26          0          4          0       1691   delay.o
      2016        376          0        180          0       6137   gimbalcontrol.o
        56          6          0          0          0        483   led.o
        76          0          0          0          0     256765   main.o
       152         12          0          0          0       1522   misc.o
      1676        178          2         46       4096       6061   motor.o
      1224        116          0         60          0       6562   mpu6050.o
       934         50          0          4          0       5988   mpui2c.o
      1412        216          0        168        284       3614   pid.o
        64         26        304          0       1536        792   startup_stm32f10x_hd.o
       314          0          0          0          0       4200   stm32f10x_gpio.o
        26          0          0          0          0       3642   stm32f10x_it.o
       276         32          0         20          0       4406   stm32f10x_rcc.o
       958         92          0          0          0      10758   stm32f10x_tim.o
       442          6          0          0          0       6117   stm32f10x_usart.o
         0          0          0          0          0         32   sys.o
       328         28          0         20          0       2057   system_stm32f10x.o
       412         48          0         16          0       2203   tim_message.o
       488         28          0        116       4391       7006   usart.o

    ----------------------------------------------------------------------
     13176       1402        338        704      10308     341680   Object Totals
         0          0         32          0          0          0   (incl. Generated)
        20          0          0          2          1          0   (incl. Padding)

    ----------------------------------------------------------------------

      Code (inc. data)   RO Data    RW Data    ZI Data      Debug   Library Member Name

        90          0          0          0          0          0   __dczerorl2.o
         8          0          0          0          0         68   __main.o
         0          0          0          0          0          0   __rtentry.o
        12          0          0          0          0          0   __rtentry2.o
         6          0          0          0          0          0   __rtentry4.o
        52          8          0          0          0          0   __scatter.o
        28          0          0          0          0          0   __scatter_zi.o
        22          0          0          0          0        100   _rserrno.o
        18          0          0          0          0         80   exit.o
         6          0          0          0          0        152   heapauxi.o
         2          0          0          0          0          0   libinit.o
         2          0          0          0          0          0   libinit2.o
         2          0          0          0          0          0   libshutdown.o
         2          0          0          0          0          0   libshutdown2.o
         8          4          0          0         96         68   libspace.o
         8          4          0          0          0         68   rt_errno_addr_intlibspace.o
         2          0          0          0          0          0   rtexit.o
        10          0          0          0          0          0   rtexit2.o
        74          0          0          0          0         80   sys_stackheap_outer.o
         2          0          0          0          0         68   use_no_semi.o
         2          0          0          0          0         68   use_no_semi_2.o
        98          4          0          0          0         92   d2f.o
       826         16          0          0          0        348   daddsub_clz.o
        16          4          0          0          0         68   dcheck1.o
        24          0          0          0          0         68   dcmpi.o
       688        140          0          0          0        208   ddiv.o
        94          4          0          0          0         92   dfix.o
        90          4          0          0          0         92   dfixu.o
        84          0          0          0          0        136   dflt_clz.o
       120          4          0          0          0         92   dleqf.o
       340         12          0          0          0        104   dmul.o
       156          4          0          0          0         92   dnaninf.o
        12          0          0          0          0         68   dretinf.o
       108          0          0          0          0         80   drleqf.o
        86          4          0          0          0         84   f2d.o
       450          8          0          0          0        236   faddsub_clz.o
        24          0          0          0          0         68   fcmpi.o
       388         76          0          0          0         96   fdiv.o
       104          4          0          0          0         84   feqf.o
        54          4          0          0          0         84   ffix.o
        62          4          0          0          0         84   ffixu.o
        38          0          0          0          0         68   fflt_clz.o
       104          4          0          0          0         84   fleqf.o
       258          4          0          0          0         84   fmul.o
       140          4          0          0          0         84   fnaninf.o
        10          0          0          0          0         68   fretinf.o
        98          0          0          0          0         68   frleqf.o
       100          0          0          0          0         68   retnan.o
        92          0          0          0          0         68   scalbn.o
        48          0          0          0          0         68   trapv.o
         0          0          0          0          0          0   usenofp.o
       544         70        152          0          0        124   atan.o
       384         38          0          0          0        144   atan2.o
       252         22         48          0          0        124   cos_i.o
        38          6          0          0          0        272   dunder.o
        40          0          0          0          0         68   fpclassify.o
       170          0          0          0          0         96   poly.o
         0          0          8          0          0          0   qnan.o
       904         76        200          0          0        140   rred.o
       160         10          0          0          0        108   sin.o
       236         12         40          0          0        128   sin_i.o

    ----------------------------------------------------------------------
      7822        554        448          0        100       4892   Library Totals
        26          0          0          0          4          0   (incl. Padding)

    ----------------------------------------------------------------------

      Code (inc. data)   RO Data    RW Data    ZI Data      Debug   Library Name

       356         16          0          0         96        752   c_w.l
      4712        304          0          0          0       2936   fz_ws.l
      2728        234        448          0          0       1204   m_ws.l

    ----------------------------------------------------------------------
      7822        554        448          0        100       4892   Library Totals

    ----------------------------------------------------------------------

==============================================================================


      Code (inc. data)   RO Data    RW Data    ZI Data      Debug   

     20998       1956        786        704      10408     338248   Grand Totals
     20998       1956        786         68      10408     338248   ELF Image Totals (compressed)
     20998       1956        786         68          0          0   ROM Totals

==============================================================================

    Total RO  Size (Code + RO Data)                21784 (  21.27kB)
    Total RW  Size (RW Data + ZI Data)             11112 (  10.85kB)
    Total ROM Size (Code + RO Data + RW Data)      21852 (  21.34kB)

==============================================================================

