Component: ARM Compiler 5.06 update 4 (build 422) Tool: armlink [4d35d2]

==============================================================================

Section Cross References

    main.o(i.main) refers to usart.o(i.uart_init) for uart_init
    main.o(i.main) refers to usart3.o(i.uart3_init) for uart3_init
    main.o(i.main) refers to delay.o(i.delay_init) for delay_init
    main.o(i.main) refers to led.o(i.LED_Init) for LED_Init
    main.o(i.main) refers to tim5message.o(i.TIM5_Init) for TIM5_Init
    main.o(i.main) refers to delay.o(i.delay_ms) for delay_ms
    main.o(i.main) refers to boardmpu.o(i.BoardMpu_Init) for BoardMpu_Init
    main.o(i.main) refers to mpu6050.o(i.Mpu6050_Init) for Mpu6050_Init
    main.o(i.main) refers to motor.o(i.Motor_Init) for Motor_Init
    main.o(i.main) refers to gimbalcontrol.o(i.BiasInit) for BiasInit
    main.o(i.main) refers to gimbalcontrol.o(i.positionInit) for positionInit
    main.o(i.main) refers to gimbalcontrol.o(i.GimbalControl) for GimbalControl
    system_stm32f10x.o(i.SetSysClock) refers to system_stm32f10x.o(i.SetSysClockTo72) for SetSysClockTo72
    system_stm32f10x.o(i.SystemCoreClockUpdate) refers to system_stm32f10x.o(.data) for SystemCoreClock
    system_stm32f10x.o(i.SystemInit) refers to system_stm32f10x.o(i.SetSysClock) for SetSysClock
    gimbalcontrol.o(i.AutoMode) refers to pid.o(i.PID_Motor0) for PID_Motor0
    gimbalcontrol.o(i.AutoMode) refers to f2d.o(.text) for __aeabi_f2d
    gimbalcontrol.o(i.AutoMode) refers to cdrcmple.o(.text) for __aeabi_cdrcmple
==============================================================================

Removing Unused input sections from the image.

    Removing main.o(.bss), (4344 bytes).
    Removing main.o(.constdata), (2 bytes).
    Removing main.o(.data), (82 bytes).
    Removing system_stm32f10x.o(i.SystemCoreClockUpdate), (164 bytes).
    Removing gimbalcontrol.o(.bss), (4344 bytes).
    Removing gimbalcontrol.o(.constdata), (2 bytes).
    Removing kalman.o(i.Angle_Calcu), (944 bytes).
    Removing kalman.o(i.Erjielvbo), (272 bytes).
    Removing kalman.o(i.KalmanFilter), (184 bytes).
    Removing kalman.o(i.Kalman_Filter_X), (788 bytes).
    Removing kalman.o(i.Kalman_Filter_Y), (788 bytes).
    Removing kalman.o(i.Kalman_Filter_Z), (788 bytes).
    Removing kalman.o(i.erjiehubu_P), (240 bytes).
    Removing kalman.o(i.yijiehubu_P), (104 bytes).
    Removing kalman.o(i.yijiehubu_R), (164 bytes).
    Removing kalman.o(.bss), (16 bytes).
    Removing kalman.o(.data), (176 bytes).
    Removing mpu6050.o(i.Mpu6050_GetTempData), (108 bytes).
==============================================================================

Image Symbol Table

    Local Symbols

    Symbol Name                              Value     Ov Type        Size  Object(Section)

    ../clib/../cmprslib/zerorunl2.c          0x00000000   Number         0  __dczerorl2.o ABSOLUTE
    ../clib/microlib/errno.c                 0x00000000   Number         0  errno.o ABSOLUTE
    ../clib/microlib/init/entry.s            0x00000000   Number         0  entry2.o ABSOLUTE
    ../clib/microlib/init/entry.s            0x00000000   Number         0  entry7b.o ABSOLUTE
    ../clib/microlib/init/entry.s            0x00000000   Number         0  entry8b.o ABSOLUTE
    ../clib/microlib/init/entry.s            0x00000000   Number         0  entry11b.o ABSOLUTE
    ../clib/microlib/init/entry.s            0x00000000   Number         0  entry9a.o ABSOLUTE
    ../clib/microlib/init/entry.s            0x00000000   Number         0  entry9b.o ABSOLUTE
    ../clib/microlib/init/entry.s            0x00000000   Number         0  entry5.o ABSOLUTE
    ../clib/microlib/init/entry.s            0x00000000   Number         0  entry11a.o ABSOLUTE
    ../clib/microlib/init/entry.s            0x00000000   Number         0  entry10b.o ABSOLUTE
    ../clib/microlib/init/entry.s            0x00000000   Number         0  entry8a.o ABSOLUTE
    ../clib/microlib/init/entry.s            0x00000000   Number         0  entry10a.o ABSOLUTE
    ../clib/microlib/init/entry.s            0x00000000   Number         0  entry.o ABSOLUTE
    ../clib/microlib/init/entry.s            0x00000000   Number         0  entry7a.o ABSOLUTE
    ../clib/microlib/longlong.c              0x00000000   Number         0  llushr.o ABSOLUTE
    ../clib/microlib/longlong.c              0x00000000   Number         0  llshl.o ABSOLUTE
    ../clib/microlib/longlong.c              0x00000000   Number         0  llsshr.o ABSOLUTE
    ../clib/microlib/stubs.s                 0x00000000   Number         0  useno.o ABSOLUTE
    ../clib/microlib/stubs.s                 0x00000000   Number         0  iusefp.o ABSOLUTE
    ../fplib/microlib/d2f.c                  0x00000000   Number         0  d2f.o ABSOLUTE
    ../fplib/microlib/f2d.c                  0x00000000   Number         0  f2d.o ABSOLUTE
    ../fplib/microlib/fpadd.c                0x00000000   Number         0  fadd.o ABSOLUTE
    ../fplib/microlib/fpadd.c                0x00000000   Number         0  dadd.o ABSOLUTE
    ../fplib/microlib/fpdiv.c                0x00000000   Number         0  fdiv.o ABSOLUTE
    ../fplib/microlib/fpdiv.c                0x00000000   Number         0  ddiv.o ABSOLUTE
    ../fplib/microlib/fpepilogue.c           0x00000000   Number         0  fepilogue.o ABSOLUTE
    ../fplib/microlib/fpepilogue.c           0x00000000   Number         0  depilogue.o ABSOLUTE
    ../fplib/microlib/fpfix.c                0x00000000   Number         0  ffixui.o ABSOLUTE
    ../fplib/microlib/fpfix.c                0x00000000   Number         0  ffixi.o ABSOLUTE
    ../fplib/microlib/fpfix.c                0x00000000   Number         0  dfixui.o ABSOLUTE
    ../fplib/microlib/fpfix.c                0x00000000   Number         0  dfixi.o ABSOLUTE
    ../fplib/microlib/fpflt.c                0x00000000   Number         0  ffltui.o ABSOLUTE
    ../fplib/microlib/fpflt.c                0x00000000   Number         0  dflti.o ABSOLUTE
    ../fplib/microlib/fpflt.c                0x00000000   Number         0  dfltui.o ABSOLUTE
    ../fplib/microlib/fpmul.c                0x00000000   Number         0  dmul.o ABSOLUTE
    ../fplib/microlib/fpmul.c                0x00000000   Number         0  fmul.o ABSOLUTE
    ../fplib/microlib/fpscalb.c              0x00000000   Number         0  dscalb.o ABSOLUTE
    ../mathlib/atan.c                        0x00000000   Number         0  atan_x.o ABSOLUTE
    ../mathlib/atan.c                        0x00000000   Number         0  atan.o ABSOLUTE
    ../mathlib/atan2.c                       0x00000000   Number         0  atan2_x.o ABSOLUTE
    ../mathlib/atan2.c                       0x00000000   Number         0  atan2.o ABSOLUTE
    ../mathlib/cos_i.c                       0x00000000   Number         0  cos_i.o ABSOLUTE
    ../mathlib/dunder.c                      0x00000000   Number         0  dunder.o ABSOLUTE
    ../mathlib/fpclassify.c                  0x00000000   Number         0  fpclassify.o ABSOLUTE
    ../mathlib/poly.c                        0x00000000   Number         0  poly.o ABSOLUTE
    ../mathlib/qnan.c                        0x00000000   Number         0  qnan.o ABSOLUTE
    ../mathlib/rred.c                        0x00000000   Number         0  rred.o ABSOLUTE
    ../mathlib/sin.c                         0x00000000   Number         0  sin_x.o ABSOLUTE
    ../mathlib/sin.c                         0x00000000   Number         0  sin.o ABSOLUTE
    ../mathlib/sin_i.c                       0x00000000   Number         0  sin_i.o ABSOLUTE
    ../mathlib/sin_i.c                       0x00000000   Number         0  sin_i_x.o ABSOLUTE
    ..\CORE\core_cm3.c                       0x00000000   Number         0  core_cm3.o ABSOLUTE
    ..\CORE\startup_stm32f10x_hd.s           0x00000000   Number         0  startup_stm32f10x_hd.o ABSOLUTE
    ..\HARDWARE\AS14TTL\as14ttl.c            0x00000000   Number         0  as14ttl.o ABSOLUTE
    ..\HARDWARE\BOARDMPU\boardmpu.c          0x00000000   Number         0  boardmpu.o ABSOLUTE
    ..\HARDWARE\BOARDMPU\boardmpui2c.c       0x00000000   Number         0  boardmpui2c.o ABSOLUTE
    ..\HARDWARE\LED\led.c                    0x00000000   Number         0  led.o ABSOLUTE
    ..\HARDWARE\MPU6050\mpu6050.c            0x00000000   Number         0  mpu6050.o ABSOLUTE
    ..\HARDWARE\MPU6050\mpui2c.c             0x00000000   Number         0  mpui2c.o ABSOLUTE
    ..\HARDWARE\REPORT\tim5message.c         0x00000000   Number         0  tim5message.o ABSOLUTE
    ..\HARDWARE\USART3\usart3.c              0x00000000   Number         0  usart3.o ABSOLUTE
    ..\HARDWARE\motor\motor.c                0x00000000   Number         0  motor.o ABSOLUTE
    ..\STM32F10x_FWLib\src\misc.c            0x00000000   Number         0  misc.o ABSOLUTE
    ..\STM32F10x_FWLib\src\stm32f10x_fsmc.c  0x00000000   Number         0  stm32f10x_fsmc.o ABSOLUTE
    ..\STM32F10x_FWLib\src\stm32f10x_gpio.c  0x00000000   Number         0  stm32f10x_gpio.o ABSOLUTE
    ..\STM32F10x_FWLib\src\stm32f10x_rcc.c   0x00000000   Number         0  stm32f10x_rcc.o ABSOLUTE
    ..\STM32F10x_FWLib\src\stm32f10x_tim.c   0x00000000   Number         0  stm32f10x_tim.o ABSOLUTE
    ..\STM32F10x_FWLib\src\stm32f10x_usart.c 0x00000000   Number         0  stm32f10x_usart.o ABSOLUTE
    ..\SYSTEM\delay\delay.c                  0x00000000   Number         0  delay.o ABSOLUTE
    ..\SYSTEM\sys\sys.c                      0x00000000   Number         0  sys.o ABSOLUTE
    ..\SYSTEM\usart\usart.c                  0x00000000   Number         0  usart.o ABSOLUTE
    ..\\CORE\\core_cm3.c                     0x00000000   Number         0  core_cm3.o ABSOLUTE
    ..\\SYSTEM\\sys\\sys.c                   0x00000000   Number         0  sys.o ABSOLUTE
    cdcmple.s                                0x00000000   Number         0  cdcmple.o ABSOLUTE
    cdrcmple.s                               0x00000000   Number         0  cdrcmple.o ABSOLUTE
    cfcmple.s                                0x00000000   Number         0  cfcmple.o ABSOLUTE
    cfrcmple.s                               0x00000000   Number         0  cfrcmple.o ABSOLUTE
    dc.s                                     0x00000000   Number         0  dc.o ABSOLUTE
    gimbalcontrol.c                          0x00000000   Number         0  gimbalcontrol.o ABSOLUTE
    handlers.s                               0x00000000   Number         0  handlers.o ABSOLUTE
    init.s                                   0x00000000   Number         0  init.o ABSOLUTE
    kalman.c                                 0x00000000   Number         0  kalman.o ABSOLUTE
    main.c                                   0x00000000   Number         0  main.o ABSOLUTE
    pid.c                                    0x00000000   Number         0  pid.o ABSOLUTE
    report.c                                 0x00000000   Number         0  report.o ABSOLUTE
    stm32f10x_it.c                           0x00000000   Number         0  stm32f10x_it.o ABSOLUTE
    system_stm32f10x.c                       0x00000000   Number         0  system_stm32f10x.o ABSOLUTE
    RESET                                    0x08000000   Section      304  startup_stm32f10x_hd.o(RESET)
    .ARM.Collect$$$$00000000                 0x08000130   Section        0  entry.o(.ARM.Collect$$$$00000000)
    .ARM.Collect$$$$00000001                 0x08000130   Section        4  entry2.o(.ARM.Collect$$$$00000001)
    .ARM.Collect$$$$00000004                 0x08000134   Section        4  entry5.o(.ARM.Collect$$$$00000004)
    .ARM.Collect$$$$00000008                 0x08000138   Section        0  entry7b.o(.ARM.Collect$$$$00000008)
    .ARM.Collect$$$$0000000A                 0x08000138   Section        0  entry8b.o(.ARM.Collect$$$$0000000A)
    .ARM.Collect$$$$0000000B                 0x08000138   Section        8  entry9a.o(.ARM.Collect$$$$0000000B)
    .ARM.Collect$$$$0000000D                 0x08000140   Section        0  entry10a.o(.ARM.Collect$$$$0000000D)
    .ARM.Collect$$$$0000000F                 0x08000140   Section        0  entry11a.o(.ARM.Collect$$$$0000000F)
    .ARM.Collect$$$$00002712                 0x08000140   Section        4  entry2.o(.ARM.Collect$$$$00002712)
    __lit__00000000                          0x08000140   Data           4  entry2.o(.ARM.Collect$$$$00002712)
    .text                                    0x08000144   Section       36  startup_stm32f10x_hd.o(.text)
    .text                                    0x08000168   Section        0  fadd.o(.text)
    .text                                    0x08000218   Section        0  fmul.o(.text)
    .text                                    0x0800027c   Section        0  fdiv.o(.text)
    .text                                    0x080002f8   Section        0  dadd.o(.text)
    .text                                    0x08000446   Section        0  dmul.o(.text)
    .text                                    0x0800052a   Section        0  ddiv.o(.text)
    .text                                    0x08000608   Section        0  dflti.o(.text)
    .text                                    0x0800062a   Section        0  dfltui.o(.text)
    .text                                    0x08000644   Section        0  ffixi.o(.text)
    .text                                    0x08000676   Section        0  dfixui.o(.text)
    .text                                    0x080006a8   Section        0  f2d.o(.text)
    .text                                    0x080006d0   Section       48  cdcmple.o(.text)
    .text                                    0x08000700   Section       48  cdrcmple.o(.text)
    .text                                    0x08000730   Section        0  d2f.o(.text)
    .text                                    0x08000768   Section       20  cfcmple.o(.text)
    .text                                    0x0800077c   Section       20  cfrcmple.o(.text)
    .text                                    0x08000790   Section        0  llshl.o(.text)
    .text                                    0x080007ae   Section        0  llushr.o(.text)
    .text                                    0x080007ce   Section        0  llsshr.o(.text)
    .text                                    0x080007f2   Section        0  iusefp.o(.text)
    .text                                    0x080007f2   Section        0  fepilogue.o(.text)
    .text                                    0x08000860   Section        0  depilogue.o(.text)
    .text                                    0x0800091c   Section       36  init.o(.text)
    .text                                    0x08000940   Section        0  dscalb.o(.text)
    .text                                    0x0800096e   Section        0  dfixi.o(.text)
    .text                                    0x080009ac   Section        0  __dczerorl2.o(.text)
    i.AutoMode                               0x08000a04   Section        0  gimbalcontrol.o(i.AutoMode)
    i.BiasInit                               0x08000a8c   Section        0  gimbalcontrol.o(i.BiasInit)
    i.BoardMpu_Calu                          0x08000b08   Section        0  boardmpu.o(i.BoardMpu_Calu)
    i.BoardMpu_GetAccelData                  0x08000ca4   Section        0  boardmpu.o(i.BoardMpu_GetAccelData)
    i.BoardMpu_GetDevID                      0x08000d64   Section        0  boardmpu.o(i.BoardMpu_GetDevID)
    i.BoardMpu_GetGyroData                   0x08000d80   Section        0  boardmpu.o(i.BoardMpu_GetGyroData)
    i.BoardMpu_Init                          0x08000e44   Section        0  boardmpu.o(i.BoardMpu_Init)
    i.BoardMpu_SetDLPF                       0x08000f0c   Section        0  boardmpu.o(i.BoardMpu_SetDLPF)
    i.BoardMpu_SetSampleRate                 0x08000f66   Section        0  boardmpu.o(i.BoardMpu_SetSampleRate)
    i.BusFault_Handler                       0x08000fc4   Section        0  stm32f10x_it.o(i.BusFault_Handler)
    i.DebugMon_Handler                       0x08000fc8   Section        0  stm32f10x_it.o(i.DebugMon_Handler)
    i.GPIO_Init                              0x08000fca   Section        0  stm32f10x_gpio.o(i.GPIO_Init)
    i.GPIO_PinRemapConfig                    0x080010e0   Section        0  stm32f10x_gpio.o(i.GPIO_PinRemapConfig)
    i.GPIO_ReadInputDataBit                  0x08001170   Section        0  stm32f10x_gpio.o(i.GPIO_ReadInputDataBit)
    i.GPIO_ResetBits                         0x08001182   Section        0  stm32f10x_gpio.o(i.GPIO_ResetBits)
    i.GPIO_SetBits                           0x08001186   Section        0  stm32f10x_gpio.o(i.GPIO_SetBits)
    i.GPIO_WriteBit                          0x0800118a   Section        0  stm32f10x_gpio.o(i.GPIO_WriteBit)
    i.GimbalControl                          0x08001194   Section        0  gimbalcontrol.o(i.GimbalControl)
    i.HardFault_Handler                      0x08001360   Section        0  stm32f10x_it.o(i.HardFault_Handler)
    i.I2C1_Init                              0x08001364   Section        0  boardmpui2c.o(i.I2C1_Init)
    i.I2C1_ReadData                          0x08001398   Section        0  boardmpui2c.o(i.I2C1_ReadData)
    i.I2C1_RecvByte                          0x0800142c   Section        0  boardmpui2c.o(i.I2C1_RecvByte)
    i.I2C1_SendACK                           0x080014c0   Section        0  boardmpui2c.o(i.I2C1_SendACK)
    i.I2C1_SendByte                          0x08001504   Section        0  boardmpui2c.o(i.I2C1_SendByte)
    i.I2C1_Start                             0x08001560   Section        0  boardmpui2c.o(i.I2C1_Start)
    i.I2C1_Stop                              0x0800159c   Section        0  boardmpui2c.o(i.I2C1_Stop)
    i.I2C1_WaitACK                           0x080015d8   Section        0  boardmpui2c.o(i.I2C1_WaitACK)
    i.I2C1_WriteData                         0x0800165c   Section        0  boardmpui2c.o(i.I2C1_WriteData)
    i.I2C2_Init                              0x080016cc   Section        0  mpui2c.o(i.I2C2_Init)
    i.I2C2_ReadData                          0x08001704   Section        0  mpui2c.o(i.I2C2_ReadData)
    i.I2C2_RecvByte                          0x08001798   Section        0  mpui2c.o(i.I2C2_RecvByte)
    i.I2C2_SendACK                           0x08001838   Section        0  mpui2c.o(i.I2C2_SendACK)
    i.I2C2_SendByte                          0x08001884   Section        0  mpui2c.o(i.I2C2_SendByte)
    i.I2C2_Start                             0x080018e8   Section        0  mpui2c.o(i.I2C2_Start)
    i.I2C2_Stop                              0x0800192c   Section        0  mpui2c.o(i.I2C2_Stop)
    i.I2C2_WaitACK                           0x08001970   Section        0  mpui2c.o(i.I2C2_WaitACK)
    i.I2C2_WriteData                         0x08001a04   Section        0  mpui2c.o(i.I2C2_WriteData)
    i.LED_Init                               0x08001a74   Section        0  led.o(i.LED_Init)
    i.MedianFilter                           0x08001aac   Section        0  pid.o(i.MedianFilter)
    i.MemManage_Handler                      0x08001be0   Section        0  stm32f10x_it.o(i.MemManage_Handler)
    i.Motor0_Run                             0x08001be4   Section        0  motor.o(i.Motor0_Run)
    i.Motor0_SetPWM                          0x08001cd4   Section        0  motor.o(i.Motor0_SetPWM)
    i.Motor1_Run                             0x08001d14   Section        0  motor.o(i.Motor1_Run)
    i.Motor1_SetPWM                          0x08001e04   Section        0  motor.o(i.Motor1_SetPWM)
    i.Motor2_SetPWM                          0x08001e48   Section        0  motor.o(i.Motor2_SetPWM)
    i.MotorPWM_Init                          0x08001e8c   Section        0  motor.o(i.MotorPWM_Init)
    i.MotorPos_Init                          0x0800201c   Section        0  motor.o(i.MotorPos_Init)
    i.Motor_Init                             0x0800202c   Section        0  motor.o(i.Motor_Init)
    i.Mpu6050_Calu                           0x0800203c   Section        0  mpu6050.o(i.Mpu6050_Calu)
    i.Mpu6050_GetAccelData                   0x080021e4   Section        0  mpu6050.o(i.Mpu6050_GetAccelData)
    i.Mpu6050_GetDevID                       0x080022a4   Section        0  mpu6050.o(i.Mpu6050_GetDevID)
    i.Mpu6050_GetGyroData                    0x080022c0   Section        0  mpu6050.o(i.Mpu6050_GetGyroData)
    i.Mpu6050_Init                           0x08002384   Section        0  mpu6050.o(i.Mpu6050_Init)
    i.Mpu6050_SetDLPF                        0x0800244c   Section        0  mpu6050.o(i.Mpu6050_SetDLPF)
    i.Mpu6050_SetSampleRate                  0x080024a6   Section        0  mpu6050.o(i.Mpu6050_SetSampleRate)
    i.NMI_Handler                            0x08002504   Section        0  stm32f10x_it.o(i.NMI_Handler)
    i.NVIC_Init                              0x08002508   Section        0  misc.o(i.NVIC_Init)
    i.PID_Motor0                             0x08002578   Section        0  pid.o(i.PID_Motor0)
    i.PID_Motor1                             0x080026ec   Section        0  pid.o(i.PID_Motor1)
    i.PID_Motor2                             0x08002860   Section        0  pid.o(i.PID_Motor2)
    i.PendSV_Handler                         0x080029c8   Section        0  stm32f10x_it.o(i.PendSV_Handler)
    i.RCC_APB1PeriphClockCmd                 0x080029cc   Section        0  stm32f10x_rcc.o(i.RCC_APB1PeriphClockCmd)
    i.RCC_APB2PeriphClockCmd                 0x080029ec   Section        0  stm32f10x_rcc.o(i.RCC_APB2PeriphClockCmd)
    i.RCC_GetClocksFreq                      0x08002a0c   Section        0  stm32f10x_rcc.o(i.RCC_GetClocksFreq)
    i.SVC_Handler                            0x08002ae0   Section        0  stm32f10x_it.o(i.SVC_Handler)
    i.Send_Remote                            0x08002ae4   Section        0  tim5message.o(i.Send_Remote)
    i.SetSysClock                            0x08002b8c   Section        0  system_stm32f10x.o(i.SetSysClock)
    SetSysClock                              0x08002b8d   Thumb Code     8  system_stm32f10x.o(i.SetSysClock)
    i.SetSysClockTo72                        0x08002b94   Section        0  system_stm32f10x.o(i.SetSysClockTo72)
    SetSysClockTo72                          0x08002b95   Thumb Code   214  system_stm32f10x.o(i.SetSysClockTo72)
    i.SineArray_Init                         0x08002c74   Section        0  motor.o(i.SineArray_Init)
    i.SysTick_CLKSourceConfig                0x08002db8   Section        0  misc.o(i.SysTick_CLKSourceConfig)
    i.SysTick_Handler                        0x08002de0   Section        0  stm32f10x_it.o(i.SysTick_Handler)
    i.SystemInit                             0x08002de4   Section        0  system_stm32f10x.o(i.SystemInit)
    i.TIM5_IRQHandler                        0x08002e44   Section        0  tim5message.o(i.TIM5_IRQHandler)
    i.TIM5_Init                              0x08002ecc   Section        0  tim5message.o(i.TIM5_Init)
    i.TIM_ARRPreloadConfig                   0x08002f28   Section        0  stm32f10x_tim.o(i.TIM_ARRPreloadConfig)
    i.TIM_ClearITPendingBit                  0x08002f40   Section        0  stm32f10x_tim.o(i.TIM_ClearITPendingBit)
    i.TIM_Cmd                                0x08002f46   Section        0  stm32f10x_tim.o(i.TIM_Cmd)
    i.TIM_GetITStatus                        0x08002f5e   Section        0  stm32f10x_tim.o(i.TIM_GetITStatus)
    i.TIM_ITConfig                           0x08002f80   Section        0  stm32f10x_tim.o(i.TIM_ITConfig)
    i.TIM_OC1Init                            0x08002f94   Section        0  stm32f10x_tim.o(i.TIM_OC1Init)
    i.TIM_OC1PreloadConfig                   0x0800302c   Section        0  stm32f10x_tim.o(i.TIM_OC1PreloadConfig)
    i.TIM_OC2Init                            0x08003040   Section        0  stm32f10x_tim.o(i.TIM_OC2Init)
    i.TIM_OC2PreloadConfig                   0x080030e4   Section        0  stm32f10x_tim.o(i.TIM_OC2PreloadConfig)
    i.TIM_OC3Init                            0x08003100   Section        0  stm32f10x_tim.o(i.TIM_OC3Init)
    i.TIM_OC3PreloadConfig                   0x080031a0   Section        0  stm32f10x_tim.o(i.TIM_OC3PreloadConfig)
    i.TIM_OC4Init                            0x080031b4   Section        0  stm32f10x_tim.o(i.TIM_OC4Init)
    i.TIM_OC4PreloadConfig                   0x08003230   Section        0  stm32f10x_tim.o(i.TIM_OC4PreloadConfig)
    i.TIM_SetCompare1                        0x0800324a   Section        0  stm32f10x_tim.o(i.TIM_SetCompare1)
    i.TIM_SetCompare2                        0x0800324e   Section        0  stm32f10x_tim.o(i.TIM_SetCompare2)
    i.TIM_SetCompare3                        0x08003252   Section        0  stm32f10x_tim.o(i.TIM_SetCompare3)
    i.TIM_SetCompare4                        0x08003256   Section        0  stm32f10x_tim.o(i.TIM_SetCompare4)
    i.TIM_TimeBaseInit                       0x0800325c   Section        0  stm32f10x_tim.o(i.TIM_TimeBaseInit)
    i.USART1_IRQHandler                      0x08003300   Section        0  usart.o(i.USART1_IRQHandler)
    i.USART_Cmd                              0x08003404   Section        0  stm32f10x_usart.o(i.USART_Cmd)
    i.USART_GetFlagStatus                    0x0800341c   Section        0  stm32f10x_usart.o(i.USART_GetFlagStatus)
    i.USART_GetITStatus                      0x08003436   Section        0  stm32f10x_usart.o(i.USART_GetITStatus)
    i.USART_ITConfig                         0x0800348a   Section        0  stm32f10x_usart.o(i.USART_ITConfig)
    i.USART_Init                             0x080034d4   Section        0  stm32f10x_usart.o(i.USART_Init)
    i.USART_ReceiveData                      0x080035ac   Section        0  stm32f10x_usart.o(i.USART_ReceiveData)
    i.USART_SendData                         0x080035b6   Section        0  stm32f10x_usart.o(i.USART_SendData)
    i.UsageFault_Handler                     0x080035be   Section        0  stm32f10x_it.o(i.UsageFault_Handler)
    i.Usart_SendArray                        0x080035c2   Section        0  usart.o(i.Usart_SendArray)
    i.Usart_SendByte                         0x080035f2   Section        0  usart.o(i.Usart_SendByte)
    i.__ARM_fpclassify                       0x08003610   Section        0  fpclassify.o(i.__ARM_fpclassify)
    i.__ieee754_rem_pio2                     0x08003638   Section        0  rred.o(i.__ieee754_rem_pio2)
    i.__kernel_cos                           0x080039c0   Section        0  cos_i.o(i.__kernel_cos)
    i.__kernel_poly                          0x08003abc   Section        0  poly.o(i.__kernel_poly)
    i.__kernel_sin                           0x08003b68   Section        0  sin_i.o(i.__kernel_sin)
    i.__mathlib_dbl_infnan                   0x08003c54   Section        0  dunder.o(i.__mathlib_dbl_infnan)
    i.__mathlib_dbl_infnan2                  0x08003c5a   Section        0  dunder.o(i.__mathlib_dbl_infnan2)
    i.__mathlib_dbl_invalid                  0x08003c5e   Section        0  dunder.o(i.__mathlib_dbl_invalid)
    i.__mathlib_dbl_underflow                0x08003c6c   Section        0  dunder.o(i.__mathlib_dbl_underflow)
    i.__scatterload_copy                     0x08003c7c   Section       14  handlers.o(i.__scatterload_copy)
    i.__scatterload_null                     0x08003c8a   Section        2  handlers.o(i.__scatterload_null)
    i.__scatterload_zeroinit                 0x08003c8c   Section       14  handlers.o(i.__scatterload_zeroinit)
    i.__set_errno                            0x08003c9c   Section        0  errno.o(i.__set_errno)
    i.atan                                   0x08003ca8   Section        0  atan.o(i.atan)
    i.atan2                                  0x08003ec8   Section        0  atan2.o(i.atan2)
    i.delay_init                             0x08004048   Section        0  delay.o(i.delay_init)
    i.delay_ms                               0x0800408c   Section        0  delay.o(i.delay_ms)
    i.delay_us                               0x080040d8   Section        0  delay.o(i.delay_us)
    i.main                                   0x08004124   Section        0  main.o(i.main)
    i.positionInit                           0x08004184   Section        0  gimbalcontrol.o(i.positionInit)
    i.sin                                    0x0800423c   Section        0  sin.o(i.sin)
    i.uart3_init                             0x080042dc   Section        0  usart3.o(i.uart3_init)
    i.uart_init                              0x08004390   Section        0  usart.o(i.uart_init)
    i.usart3_niming_report                   0x08004434   Section        0  report.o(i.usart3_niming_report)
    i.usart3_report_imu                      0x080044a4   Section        0  report.o(i.usart3_report_imu)
    .constdata                               0x08004564   Section        2  motor.o(.constdata)
    mdir_cal_factor                          0x08004564   Data           2  motor.o(.constdata)
    .constdata                               0x08004568   Section      152  atan.o(.constdata)
    atanhi                                   0x08004568   Data          32  atan.o(.constdata)
    atanlo                                   0x08004588   Data          32  atan.o(.constdata)
    aTodd                                    0x080045a8   Data          40  atan.o(.constdata)
    aTeven                                   0x080045d0   Data          48  atan.o(.constdata)
    .constdata                               0x08004600   Section       48  cos_i.o(.constdata)
    C                                        0x08004600   Data          48  cos_i.o(.constdata)
    .constdata                               0x08004630   Section        8  qnan.o(.constdata)
    .constdata                               0x08004638   Section      200  rred.o(.constdata)
    pio2s                                    0x08004638   Data          48  rred.o(.constdata)
    twooverpi                                0x08004668   Data         152  rred.o(.constdata)
    .constdata                               0x08004700   Section       40  sin_i.o(.constdata)
    S                                        0x08004700   Data          40  sin_i.o(.constdata)
    .data                                    0x20000000   Section       20  system_stm32f10x.o(.data)
    .data                                    0x20000014   Section      133  gimbalcontrol.o(.data)
    i2c2GPIOInitStruct                       0x20000014   Data           4  gimbalcontrol.o(.data)
    AccelData                                0x20000018   Data           6  gimbalcontrol.o(.data)
    TempData                                 0x2000001e   Data           2  gimbalcontrol.o(.data)
    GyroData                                 0x20000020   Data           6  gimbalcontrol.o(.data)
    i2c1GPIOInitStruct                       0x20000026   Data           4  gimbalcontrol.o(.data)
    pitchPPara                               0x2000002c   Data           4  gimbalcontrol.o(.data)
    pitchIPara                               0x20000030   Data           4  gimbalcontrol.o(.data)
    pitchDPara                               0x20000034   Data           4  gimbalcontrol.o(.data)
    rollPPara                                0x20000038   Data           4  gimbalcontrol.o(.data)
    rollIPara                                0x2000003c   Data           4  gimbalcontrol.o(.data)
    rollDPara                                0x20000040   Data           4  gimbalcontrol.o(.data)
    yawPPara                                 0x20000044   Data           4  gimbalcontrol.o(.data)
    yawIPara                                 0x20000048   Data           4  gimbalcontrol.o(.data)
    yawDPara                                 0x2000004c   Data           4  gimbalcontrol.o(.data)
    sineArraySize                            0x20000050   Data           2  gimbalcontrol.o(.data)
    phaseShift                               0x20000052   Data           2  gimbalcontrol.o(.data)
    mPitch                                   0x20000054   Data           6  gimbalcontrol.o(.data)
    mRoll                                    0x2000005a   Data           6  gimbalcontrol.o(.data)
    mYaw                                     0x20000060   Data           6  gimbalcontrol.o(.data)
    .data                                    0x2000009c   Section      168  pid.o(.data)
    pitchPPara                               0x2000009c   Data           4  pid.o(.data)
    pitchIPara                               0x200000a0   Data           4  pid.o(.data)
    pitchDPara                               0x200000a4   Data           4  pid.o(.data)
    rollPPara                                0x200000a8   Data           4  pid.o(.data)
    rollIPara                                0x200000ac   Data           4  pid.o(.data)
    rollDPara                                0x200000b0   Data           4  pid.o(.data)
    yawPPara                                 0x200000b4   Data           4  pid.o(.data)
    yawIPara                                 0x200000b8   Data           4  pid.o(.data)
    yawDPara                                 0x200000bc   Data           4  pid.o(.data)
    cntICal                                  0x200000c0   Data           2  pid.o(.data)
    expAngle_old                             0x200000c4   Data           4  pid.o(.data)
    et                                       0x200000c8   Data           4  pid.o(.data)
    et_pre                                   0x200000cc   Data           4  pid.o(.data)
    et_sum                                   0x200000d0   Data           4  pid.o(.data)
    et_diff                                  0x200000d4   Data           4  pid.o(.data)
    dpid                                     0x200000d8   Data           4  pid.o(.data)
    dP                                       0x200000dc   Data           4  pid.o(.data)
    dI                                       0x200000e0   Data           4  pid.o(.data)
    dD                                       0x200000e4   Data           4  pid.o(.data)
    indexICal                                0x200000e8   Data           4  pid.o(.data)
    expAngle_old                             0x200000ec   Data           4  pid.o(.data)
    et                                       0x200000f0   Data           4  pid.o(.data)
    et_pre                                   0x200000f4   Data           4  pid.o(.data)
    et_sum                                   0x200000f8   Data           4  pid.o(.data)
    et_diff                                  0x200000fc   Data           4  pid.o(.data)
    dpid                                     0x20000100   Data           4  pid.o(.data)
    dP                                       0x20000104   Data           4  pid.o(.data)
    dI                                       0x20000108   Data           4  pid.o(.data)
    dD                                       0x2000010c   Data           4  pid.o(.data)
    indexICal                                0x20000110   Data           4  pid.o(.data)
    expAngle_old                             0x20000114   Data           4  pid.o(.data)
    et                                       0x20000118   Data           4  pid.o(.data)
    et_pre                                   0x2000011c   Data           4  pid.o(.data)
    et_sum                                   0x20000120   Data           4  pid.o(.data)
    et_diff                                  0x20000124   Data           4  pid.o(.data)
    dpid                                     0x20000128   Data           4  pid.o(.data)
    dP                                       0x2000012c   Data           4  pid.o(.data)
    dI                                       0x20000130   Data           4  pid.o(.data)
    dD                                       0x20000134   Data           4  pid.o(.data)
    indexICal                                0x20000138   Data           4  pid.o(.data)
    flagInit                                 0x2000013c   Data           1  pid.o(.data)
    cntMFData                                0x2000013e   Data           2  pid.o(.data)
    rtnValue                                 0x20000140   Data           4  pid.o(.data)
    .data                                    0x20000144   Section      100  mpu6050.o(.data)
    i2c2GPIOInitStruct                       0x20000144   Data           4  mpu6050.o(.data)
    AccelData                                0x20000148   Data           6  mpu6050.o(.data)
    TempData                                 0x2000014e   Data           2  mpu6050.o(.data)
    GyroData                                 0x20000150   Data           6  mpu6050.o(.data)
    pitchPPara                               0x20000158   Data           4  mpu6050.o(.data)
    pitchIPara                               0x2000015c   Data           4  mpu6050.o(.data)
    pitchDPara                               0x20000160   Data           4  mpu6050.o(.data)
    rollPPara                                0x20000164   Data           4  mpu6050.o(.data)
    rollIPara                                0x20000168   Data           4  mpu6050.o(.data)
    rollDPara                                0x2000016c   Data           4  mpu6050.o(.data)
    yawPPara                                 0x20000170   Data           4  mpu6050.o(.data)
    yawIPara                                 0x20000174   Data           4  mpu6050.o(.data)
    yawDPara                                 0x20000178   Data           4  mpu6050.o(.data)
    .data                                    0x200001a8   Section      100  boardmpu.o(.data)
    i2c2GPIOInitStruct                       0x200001a8   Data           4  boardmpu.o(.data)
    i2c1GPIOInitStruct                       0x200001ac   Data           4  boardmpu.o(.data)
    pitchPPara                               0x200001b0   Data           4  boardmpu.o(.data)
    pitchIPara                               0x200001b4   Data           4  boardmpu.o(.data)
    pitchDPara                               0x200001b8   Data           4  boardmpu.o(.data)
    rollPPara                                0x200001bc   Data           4  boardmpu.o(.data)
    rollIPara                                0x200001c0   Data           4  boardmpu.o(.data)
    rollDPara                                0x200001c4   Data           4  boardmpu.o(.data)
    yawPPara                                 0x200001c8   Data           4  boardmpu.o(.data)
    yawIPara                                 0x200001cc   Data           4  boardmpu.o(.data)
    yawDPara                                 0x200001d0   Data           4  boardmpu.o(.data)
    AccelData                                0x200001d4   Data           6  boardmpu.o(.data)
    TempData                                 0x200001da   Data           2  boardmpu.o(.data)
    GyroData                                 0x200001dc   Data           6  boardmpu.o(.data)
    .data                                    0x2000020c   Section        4  boardmpui2c.o(.data)
    i2c1GPIOInitStruct                       0x2000020c   Data           4  boardmpui2c.o(.data)
    .data                                    0x20000210   Section        4  mpui2c.o(.data)
    i2c2GPIOInitStruct                       0x20000210   Data           4  mpui2c.o(.data)
    .data                                    0x20000214   Section       46  motor.o(.data)
    sineArraySize                            0x20000214   Data           2  motor.o(.data)
    phaseShift                               0x20000216   Data           2  motor.o(.data)
    mPitch                                   0x20000218   Data           6  motor.o(.data)
    mRoll                                    0x2000021e   Data           6  motor.o(.data)
    mYaw                                     0x20000224   Data           6  motor.o(.data)
    preSpeed                                 0x2000022a   Data           2  motor.o(.data)
    timeout                                  0x2000022c   Data           2  motor.o(.data)
    cntTime                                  0x2000022e   Data           2  motor.o(.data)
    growthFactor                             0x20000230   Data           2  motor.o(.data)
    preSpeed                                 0x20000232   Data           2  motor.o(.data)
    timeout                                  0x20000234   Data           2  motor.o(.data)
    cntTime                                  0x20000236   Data           2  motor.o(.data)
    growthFactor                             0x20000238   Data           2  motor.o(.data)
    preSpeed                                 0x2000023a   Data           2  motor.o(.data)
    timeout                                  0x2000023c   Data           2  motor.o(.data)
    cntTime                                  0x2000023e   Data           2  motor.o(.data)
    growthFactor                             0x20000240   Data           2  motor.o(.data)
    .data                                    0x20000244   Section      128  as14ttl.o(.data)
    sineArraySize                            0x20000244   Data           2  as14ttl.o(.data)
    phaseShift                               0x20000246   Data           2  as14ttl.o(.data)
    mPitch                                   0x20000248   Data           6  as14ttl.o(.data)
    mRoll                                    0x2000024e   Data           6  as14ttl.o(.data)
    mYaw                                     0x20000254   Data           6  as14ttl.o(.data)
    i2c2GPIOInitStruct                       0x2000025a   Data           4  as14ttl.o(.data)
    AccelData                                0x2000025e   Data           6  as14ttl.o(.data)
    TempData                                 0x20000264   Data           2  as14ttl.o(.data)
    GyroData                                 0x20000266   Data           6  as14ttl.o(.data)
    i2c1GPIOInitStruct                       0x2000026c   Data           4  as14ttl.o(.data)
    pitchPPara                               0x20000270   Data           4  as14ttl.o(.data)
    pitchIPara                               0x20000274   Data           4  as14ttl.o(.data)
    pitchDPara                               0x20000278   Data           4  as14ttl.o(.data)
    rollPPara                                0x2000027c   Data           4  as14ttl.o(.data)
    rollIPara                                0x20000280   Data           4  as14ttl.o(.data)
    rollDPara                                0x20000284   Data           4  as14ttl.o(.data)
    yawPPara                                 0x20000288   Data           4  as14ttl.o(.data)
    yawIPara                                 0x2000028c   Data           4  as14ttl.o(.data)
    yawDPara                                 0x20000290   Data           4  as14ttl.o(.data)
    K_X                                      0x20000294   Data           4  as14ttl.o(.data)
    K_Y                                      0x20000298   Data           4  as14ttl.o(.data)
    K_Z                                      0x2000029c   Data           4  as14ttl.o(.data)
    B_X                                      0x200002a0   Data           4  as14ttl.o(.data)
    B_Y                                      0x200002a4   Data           4  as14ttl.o(.data)
    B_Z                                      0x200002a8   Data           4  as14ttl.o(.data)
    .data                                    0x200002c4   Section       21  tim5message.o(.data)
    i2c2GPIOInitStruct                       0x200002c4   Data           4  tim5message.o(.data)
    AccelData                                0x200002c8   Data           6  tim5message.o(.data)
    TempData                                 0x200002ce   Data           2  tim5message.o(.data)
    GyroData                                 0x200002d0   Data           6  tim5message.o(.data)
    time_flag                                0x200002d8   Data           1  tim5message.o(.data)
    .data                                    0x200002da   Section        4  delay.o(.data)
    fac_us                                   0x200002da   Data           1  delay.o(.data)
    fac_ms                                   0x200002dc   Data           2  delay.o(.data)
    .data                                    0x200002e0   Section      123  usart.o(.data)
    i2c2GPIOInitStruct                       0x200002e0   Data           4  usart.o(.data)
    AccelData                                0x200002e4   Data           6  usart.o(.data)
    TempData                                 0x200002ea   Data           2  usart.o(.data)
    GyroData                                 0x200002ec   Data           6  usart.o(.data)
    i2c1GPIOInitStruct                       0x200002f2   Data           4  usart.o(.data)
    pitchPPara                               0x200002f8   Data           4  usart.o(.data)
    pitchIPara                               0x200002fc   Data           4  usart.o(.data)
    pitchDPara                               0x20000300   Data           4  usart.o(.data)
    rollPPara                                0x20000304   Data           4  usart.o(.data)
    rollIPara                                0x20000308   Data           4  usart.o(.data)
    rollDPara                                0x2000030c   Data           4  usart.o(.data)
    yawPPara                                 0x20000310   Data           4  usart.o(.data)
    yawIPara                                 0x20000314   Data           4  usart.o(.data)
    yawDPara                                 0x20000318   Data           4  usart.o(.data)
    sineArraySize                            0x2000031c   Data           2  usart.o(.data)
    phaseShift                               0x2000031e   Data           2  usart.o(.data)
    mPitch                                   0x20000320   Data           6  usart.o(.data)
    mRoll                                    0x20000326   Data           6  usart.o(.data)
    mYaw                                     0x2000032c   Data           6  usart.o(.data)
    K_X                                      0x20000334   Data           4  usart.o(.data)
    K_Y                                      0x20000338   Data           4  usart.o(.data)
    K_Z                                      0x2000033c   Data           4  usart.o(.data)
    B_X                                      0x20000340   Data           4  usart.o(.data)
    B_Y                                      0x20000344   Data           4  usart.o(.data)
    B_Z                                      0x20000348   Data           4  usart.o(.data)
    index                                    0x20000354   Data           1  usart.o(.data)
    .data                                    0x2000035b   Section       20  stm32f10x_rcc.o(.data)
    APBAHBPrescTable                         0x2000035b   Data          16  stm32f10x_rcc.o(.data)
    ADCPrescTable                            0x2000036b   Data           4  stm32f10x_rcc.o(.data)
    .data                                    0x20000370   Section        4  errno.o(.data)
    _errno                                   0x20000370   Data           4  errno.o(.data)
    .bss                                     0x20000374   Section      257  pid.o(.bss)
    mfData                                   0x20000374   Data         124  pid.o(.bss)
    mfSort                                   0x200003f0   Data         124  pid.o(.bss)
    .bss                                     0x20000476   Section     4096  motor.o(.bss)
    pwmSin                                   0x20000476   Data        4096  motor.o(.bss)
    STACK                                    0x20001478   Section     1024  startup_stm32f10x_hd.o(STACK)

    Global Symbols

    Symbol Name                              Value     Ov Type        Size  Object(Section)

    BuildAttributes$$THM_ISAv4$P$D$K$B$S$PE$A:L22UL41UL21$X:L11$S22US41US21$IEEE1$IW$USESV6$~STKCKD$USESV7$~SHL$OTIME$ROPI$IEEEX$EBA8$MICROLIB$REQ8$PRES8$EABIv2 0x00000000   Number         0  anon$$obj.o ABSOLUTE
    __ARM_use_no_argv                        0x00000000   Number         0  main.o ABSOLUTE
    __use_no_errno                           0x00000000   Number         0  useno.o ABSOLUTE
    __use_no_exception_handling              0x00000000   Number         0  useno.o ABSOLUTE
    __use_no_fp                              0x00000000   Number         0  useno.o ABSOLUTE
    __use_no_heap                            0x00000000   Number         0  useno.o ABSOLUTE
    __use_no_heap_region                     0x00000000   Number         0  useno.o ABSOLUTE
    __use_no_semihosting                     0x00000000   Number         0  useno.o ABSOLUTE
    __use_no_semihosting_swi                 0x00000000   Number         0  useno.o ABSOLUTE
    __use_no_signal_handling                 0x00000000   Number         0  useno.o ABSOLUTE
    __cpp_initialize__aeabi_                  - Undefined Weak Reference
    __cxa_finalize                            - Undefined Weak Reference
    _clock_init                               - Undefined Weak Reference
    _microlib_exit                            - Undefined Weak Reference
    __Vectors_Size                           0x00000130   Number         0  startup_stm32f10x_hd.o ABSOLUTE
    __Vectors                                0x08000000   Data           4  startup_stm32f10x_hd.o(RESET)
    __Vectors_End                            0x08000130   Data           0  startup_stm32f10x_hd.o(RESET)
    __main                                   0x08000131   Thumb Code     0  entry.o(.ARM.Collect$$$$00000000)
    _main_stk                                0x08000131   Thumb Code     0  entry2.o(.ARM.Collect$$$$00000001)
    _main_scatterload                        0x08000135   Thumb Code     0  entry5.o(.ARM.Collect$$$$00000004)
    __main_after_scatterload                 0x08000139   Thumb Code     0  entry5.o(.ARM.Collect$$$$00000004)
    _main_clock                              0x08000139   Thumb Code     0  entry7b.o(.ARM.Collect$$$$00000008)
    _main_cpp_init                           0x08000139   Thumb Code     0  entry8b.o(.ARM.Collect$$$$0000000A)
    _main_init                               0x08000139   Thumb Code     0  entry9a.o(.ARM.Collect$$$$0000000B)
    __rt_final_cpp                           0x08000141   Thumb Code     0  entry10a.o(.ARM.Collect$$$$0000000D)
    __rt_final_exit                          0x08000141   Thumb Code     0  entry11a.o(.ARM.Collect$$$$0000000F)
    Reset_Handler                            0x08000145   Thumb Code     8  startup_stm32f10x_hd.o(.text)
    ADC1_2_IRQHandler                        0x0800015f   Thumb Code     0  startup_stm32f10x_hd.o(.text)
    ADC3_IRQHandler                          0x0800015f   Thumb Code     0  startup_stm32f10x_hd.o(.text)
    CAN1_RX1_IRQHandler                      0x0800015f   Thumb Code     0  startup_stm32f10x_hd.o(.text)
    CAN1_SCE_IRQHandler                      0x0800015f   Thumb Code     0  startup_stm32f10x_hd.o(.text)
    DMA1_Channel1_IRQHandler                 0x0800015f   Thumb Code     0  startup_stm32f10x_hd.o(.text)
    DMA1_Channel2_IRQHandler                 0x0800015f   Thumb Code     0  startup_stm32f10x_hd.o(.text)
    DMA1_Channel3_IRQHandler                 0x0800015f   Thumb Code     0  startup_stm32f10x_hd.o(.text)
    DMA1_Channel4_IRQHandler                 0x0800015f   Thumb Code     0  startup_stm32f10x_hd.o(.text)
    DMA1_Channel5_IRQHandler                 0x0800015f   Thumb Code     0  startup_stm32f10x_hd.o(.text)
    DMA1_Channel6_IRQHandler                 0x0800015f   Thumb Code     0  startup_stm32f10x_hd.o(.text)
    DMA1_Channel7_IRQHandler                 0x0800015f   Thumb Code     0  startup_stm32f10x_hd.o(.text)
    DMA2_Channel1_IRQHandler                 0x0800015f   Thumb Code     0  startup_stm32f10x_hd.o(.text)
    DMA2_Channel2_IRQHandler                 0x0800015f   Thumb Code     0  startup_stm32f10x_hd.o(.text)
    DMA2_Channel3_IRQHandler                 0x0800015f   Thumb Code     0  startup_stm32f10x_hd.o(.text)
    DMA2_Channel4_5_IRQHandler               0x0800015f   Thumb Code     0  startup_stm32f10x_hd.o(.text)
    EXTI0_IRQHandler                         0x0800015f   Thumb Code     0  startup_stm32f10x_hd.o(.text)
    EXTI15_10_IRQHandler                     0x0800015f   Thumb Code     0  startup_stm32f10x_hd.o(.text)
    EXTI1_IRQHandler                         0x0800015f   Thumb Code     0  startup_stm32f10x_hd.o(.text)
    EXTI2_IRQHandler                         0x0800015f   Thumb Code     0  startup_stm32f10x_hd.o(.text)
    EXTI3_IRQHandler                         0x0800015f   Thumb Code     0  startup_stm32f10x_hd.o(.text)
    EXTI4_IRQHandler                         0x0800015f   Thumb Code     0  startup_stm32f10x_hd.o(.text)
    EXTI9_5_IRQHandler                       0x0800015f   Thumb Code     0  startup_stm32f10x_hd.o(.text)
    FLASH_IRQHandler                         0x0800015f   Thumb Code     0  startup_stm32f10x_hd.o(.text)
    FSMC_IRQHandler                          0x0800015f   Thumb Code     0  startup_stm32f10x_hd.o(.text)
    I2C1_ER_IRQHandler                       0x0800015f   Thumb Code     0  startup_stm32f10x_hd.o(.text)
    I2C1_EV_IRQHandler                       0x0800015f   Thumb Code     0  startup_stm32f10x_hd.o(.text)
    I2C2_ER_IRQHandler                       0x0800015f   Thumb Code     0  startup_stm32f10x_hd.o(.text)
    I2C2_EV_IRQHandler                       0x0800015f   Thumb Code     0  startup_stm32f10x_hd.o(.text)
    PVD_IRQHandler                           0x0800015f   Thumb Code     0  startup_stm32f10x_hd.o(.text)
    RCC_IRQHandler                           0x0800015f   Thumb Code     0  startup_stm32f10x_hd.o(.text)
    RTCAlarm_IRQHandler                      0x0800015f   Thumb Code     0  startup_stm32f10x_hd.o(.text)
    RTC_IRQHandler                           0x0800015f   Thumb Code     0  startup_stm32f10x_hd.o(.text)
    SDIO_IRQHandler                          0x0800015f   Thumb Code     0  startup_stm32f10x_hd.o(.text)
    SPI1_IRQHandler                          0x0800015f   Thumb Code     0  startup_stm32f10x_hd.o(.text)
    SPI2_IRQHandler                          0x0800015f   Thumb Code     0  startup_stm32f10x_hd.o(.text)
    SPI3_IRQHandler                          0x0800015f   Thumb Code     0  startup_stm32f10x_hd.o(.text)
    TAMPER_IRQHandler                        0x0800015f   Thumb Code     0  startup_stm32f10x_hd.o(.text)
    TIM1_BRK_IRQHandler                      0x0800015f   Thumb Code     0  startup_stm32f10x_hd.o(.text)
    TIM1_CC_IRQHandler                       0x0800015f   Thumb Code     0  startup_stm32f10x_hd.o(.text)
    TIM1_TRG_COM_IRQHandler                  0x0800015f   Thumb Code     0  startup_stm32f10x_hd.o(.text)
    TIM1_UP_IRQHandler                       0x0800015f   Thumb Code     0  startup_stm32f10x_hd.o(.text)
    TIM2_IRQHandler                          0x0800015f   Thumb Code     0  startup_stm32f10x_hd.o(.text)
    TIM3_IRQHandler                          0x0800015f   Thumb Code     0  startup_stm32f10x_hd.o(.text)
    TIM4_IRQHandler                          0x0800015f   Thumb Code     0  startup_stm32f10x_hd.o(.text)
    TIM6_IRQHandler                          0x0800015f   Thumb Code     0  startup_stm32f10x_hd.o(.text)
    TIM7_IRQHandler                          0x0800015f   Thumb Code     0  startup_stm32f10x_hd.o(.text)
    TIM8_BRK_IRQHandler                      0x0800015f   Thumb Code     0  startup_stm32f10x_hd.o(.text)
    TIM8_CC_IRQHandler                       0x0800015f   Thumb Code     0  startup_stm32f10x_hd.o(.text)
    TIM8_TRG_COM_IRQHandler                  0x0800015f   Thumb Code     0  startup_stm32f10x_hd.o(.text)
    TIM8_UP_IRQHandler                       0x0800015f   Thumb Code     0  startup_stm32f10x_hd.o(.text)
    UART4_IRQHandler                         0x0800015f   Thumb Code     0  startup_stm32f10x_hd.o(.text)
    UART5_IRQHandler                         0x0800015f   Thumb Code     0  startup_stm32f10x_hd.o(.text)
    USART2_IRQHandler                        0x0800015f   Thumb Code     0  startup_stm32f10x_hd.o(.text)
    USART3_IRQHandler                        0x0800015f   Thumb Code     0  startup_stm32f10x_hd.o(.text)
    USBWakeUp_IRQHandler                     0x0800015f   Thumb Code     0  startup_stm32f10x_hd.o(.text)
    USB_HP_CAN1_TX_IRQHandler                0x0800015f   Thumb Code     0  startup_stm32f10x_hd.o(.text)
    USB_LP_CAN1_RX0_IRQHandler               0x0800015f   Thumb Code     0  startup_stm32f10x_hd.o(.text)
    WWDG_IRQHandler                          0x0800015f   Thumb Code     0  startup_stm32f10x_hd.o(.text)
    __aeabi_fadd                             0x08000169   Thumb Code   164  fadd.o(.text)
    __aeabi_fsub                             0x0800020d   Thumb Code     6  fadd.o(.text)
    __aeabi_frsub                            0x08000213   Thumb Code     6  fadd.o(.text)
    __aeabi_fmul                             0x08000219   Thumb Code   100  fmul.o(.text)
    __aeabi_fdiv                             0x0800027d   Thumb Code   124  fdiv.o(.text)
    __aeabi_dadd                             0x080002f9   Thumb Code   322  dadd.o(.text)
    __aeabi_dsub                             0x0800043b   Thumb Code     6  dadd.o(.text)
    __aeabi_drsub                            0x08000441   Thumb Code     6  dadd.o(.text)
    __aeabi_dmul                             0x08000447   Thumb Code   228  dmul.o(.text)
    __aeabi_ddiv                             0x0800052b   Thumb Code   222  ddiv.o(.text)
    __aeabi_i2d                              0x08000609   Thumb Code    34  dflti.o(.text)
    __aeabi_ui2d                             0x0800062b   Thumb Code    26  dfltui.o(.text)
    __aeabi_f2iz                             0x08000645   Thumb Code    50  ffixi.o(.text)
    __aeabi_d2uiz                            0x08000677   Thumb Code    50  dfixui.o(.text)
    __aeabi_f2d                              0x080006a9   Thumb Code    38  f2d.o(.text)
    __aeabi_cdcmpeq                          0x080006d1   Thumb Code     0  cdcmple.o(.text)
    __aeabi_cdcmple                          0x080006d1   Thumb Code    48  cdcmple.o(.text)
    __aeabi_cdrcmple                         0x08000701   Thumb Code    48  cdrcmple.o(.text)
    __aeabi_d2f                              0x08000731   Thumb Code    56  d2f.o(.text)
    __aeabi_cfcmpeq                          0x08000769   Thumb Code     0  cfcmple.o(.text)
    __aeabi_cfcmple                          0x08000769   Thumb Code    20  cfcmple.o(.text)
    __aeabi_cfrcmple                         0x0800077d   Thumb Code    20  cfrcmple.o(.text)
    __aeabi_llsl                             0x08000791   Thumb Code    30  llshl.o(.text)
    _ll_shift_l                              0x08000791   Thumb Code     0  llshl.o(.text)
    __aeabi_llsr                             0x080007af   Thumb Code    32  llushr.o(.text)
    _ll_ushift_r                             0x080007af   Thumb Code     0  llushr.o(.text)
    __aeabi_lasr                             0x080007cf   Thumb Code    36  llsshr.o(.text)
    _ll_sshift_r                             0x080007cf   Thumb Code     0  llsshr.o(.text)
    __I$use$fp                               0x080007f3   Thumb Code     0  iusefp.o(.text)
    _float_round                             0x080007f3   Thumb Code    18  fepilogue.o(.text)
    _float_epilogue                          0x08000805   Thumb Code    92  fepilogue.o(.text)
    _double_round                            0x08000861   Thumb Code    30  depilogue.o(.text)
    _double_epilogue                         0x0800087f   Thumb Code   156  depilogue.o(.text)
    __scatterload                            0x0800091d   Thumb Code    28  init.o(.text)
    __scatterload_rt2                        0x0800091d   Thumb Code     0  init.o(.text)
    __ARM_scalbn                             0x08000941   Thumb Code    46  dscalb.o(.text)
    scalbn                                   0x08000941   Thumb Code     0  dscalb.o(.text)
    __aeabi_d2iz                             0x0800096f   Thumb Code    62  dfixi.o(.text)
    __decompress                             0x080009ad   Thumb Code     0  __dczerorl2.o(.text)
    __decompress1                            0x080009ad   Thumb Code    86  __dczerorl2.o(.text)
    AutoMode                                 0x08000a05   Thumb Code    96  gimbalcontrol.o(i.AutoMode)
    BiasInit                                 0x08000a8d   Thumb Code   100  gimbalcontrol.o(i.BiasInit)
    BoardMpu_Calu                            0x08000b09   Thumb Code   358  boardmpu.o(i.BoardMpu_Calu)
    BoardMpu_GetAccelData                    0x08000ca5   Thumb Code   170  boardmpu.o(i.BoardMpu_GetAccelData)
    BoardMpu_GetDevID                        0x08000d65   Thumb Code    24  boardmpu.o(i.BoardMpu_GetDevID)
    BoardMpu_GetGyroData                     0x08000d81   Thumb Code   170  boardmpu.o(i.BoardMpu_GetGyroData)
    BoardMpu_Init                            0x08000e45   Thumb Code   194  boardmpu.o(i.BoardMpu_Init)
    BoardMpu_SetDLPF                         0x08000f0d   Thumb Code    90  boardmpu.o(i.BoardMpu_SetDLPF)
    BoardMpu_SetSampleRate                   0x08000f67   Thumb Code    94  boardmpu.o(i.BoardMpu_SetSampleRate)
    BusFault_Handler                         0x08000fc5   Thumb Code     4  stm32f10x_it.o(i.BusFault_Handler)
    DebugMon_Handler                         0x08000fc9   Thumb Code     2  stm32f10x_it.o(i.DebugMon_Handler)
    GPIO_Init                                0x08000fcb   Thumb Code   278  stm32f10x_gpio.o(i.GPIO_Init)
    GPIO_PinRemapConfig                      0x080010e1   Thumb Code   138  stm32f10x_gpio.o(i.GPIO_PinRemapConfig)
    GPIO_ReadInputDataBit                    0x08001171   Thumb Code    18  stm32f10x_gpio.o(i.GPIO_ReadInputDataBit)
    GPIO_ResetBits                           0x08001183   Thumb Code     4  stm32f10x_gpio.o(i.GPIO_ResetBits)
    GPIO_SetBits                             0x08001187   Thumb Code     4  stm32f10x_gpio.o(i.GPIO_SetBits)
    GPIO_WriteBit                            0x0800118b   Thumb Code    10  stm32f10x_gpio.o(i.GPIO_WriteBit)
    GimbalControl                            0x08001195   Thumb Code   368  gimbalcontrol.o(i.GimbalControl)
    HardFault_Handler                        0x08001361   Thumb Code     4  stm32f10x_it.o(i.HardFault_Handler)
    I2C1_Init                                0x08001365   Thumb Code    42  boardmpui2c.o(i.I2C1_Init)
    I2C1_ReadData                            0x08001399   Thumb Code   148  boardmpui2c.o(i.I2C1_ReadData)
    I2C1_RecvByte                            0x0800142d   Thumb Code   138  boardmpui2c.o(i.I2C1_RecvByte)
    I2C1_SendACK                             0x080014c1   Thumb Code    64  boardmpui2c.o(i.I2C1_SendACK)
    I2C1_SendByte                            0x08001505   Thumb Code    86  boardmpui2c.o(i.I2C1_SendByte)
    I2C1_Start                               0x08001561   Thumb Code    54  boardmpui2c.o(i.I2C1_Start)
    I2C1_Stop                                0x0800159d   Thumb Code    54  boardmpui2c.o(i.I2C1_Stop)
    I2C1_WaitACK                             0x080015d9   Thumb Code   124  boardmpui2c.o(i.I2C1_WaitACK)
    I2C1_WriteData                           0x0800165d   Thumb Code   110  boardmpui2c.o(i.I2C1_WriteData)
    I2C2_Init                                0x080016cd   Thumb Code    46  mpui2c.o(i.I2C2_Init)
    I2C2_ReadData                            0x08001705   Thumb Code   148  mpui2c.o(i.I2C2_ReadData)
    I2C2_RecvByte                            0x08001799   Thumb Code   152  mpui2c.o(i.I2C2_RecvByte)
    I2C2_SendACK                             0x08001839   Thumb Code    72  mpui2c.o(i.I2C2_SendACK)
    I2C2_SendByte                            0x08001885   Thumb Code    94  mpui2c.o(i.I2C2_SendByte)
    I2C2_Start                               0x080018e9   Thumb Code    62  mpui2c.o(i.I2C2_Start)
    I2C2_Stop                                0x0800192d   Thumb Code    62  mpui2c.o(i.I2C2_Stop)
    I2C2_WaitACK                             0x08001971   Thumb Code   138  mpui2c.o(i.I2C2_WaitACK)
    I2C2_WriteData                           0x08001a05   Thumb Code   110  mpui2c.o(i.I2C2_WriteData)
    LED_Init                                 0x08001a75   Thumb Code    50  led.o(i.LED_Init)
    MedianFilter                             0x08001aad   Thumb Code   284  pid.o(i.MedianFilter)
    MemManage_Handler                        0x08001be1   Thumb Code     4  stm32f10x_it.o(i.MemManage_Handler)
    Motor0_Run                               0x08001be5   Thumb Code   212  motor.o(i.Motor0_Run)
    Motor0_SetPWM                            0x08001cd5   Thumb Code    52  motor.o(i.Motor0_SetPWM)
    Motor1_Run                               0x08001d15   Thumb Code   212  motor.o(i.Motor1_Run)
    Motor1_SetPWM                            0x08001e05   Thumb Code    56  motor.o(i.Motor1_SetPWM)
    Motor2_SetPWM                            0x08001e49   Thumb Code    54  motor.o(i.Motor2_SetPWM)
    MotorPWM_Init                            0x08001e8d   Thumb Code   384  motor.o(i.MotorPWM_Init)
    MotorPos_Init                            0x0800201d   Thumb Code    16  motor.o(i.MotorPos_Init)
    Motor_Init                               0x0800202d   Thumb Code    16  motor.o(i.Motor_Init)
    Mpu6050_Calu                             0x0800203d   Thumb Code   368  mpu6050.o(i.Mpu6050_Calu)
    Mpu6050_GetAccelData                     0x080021e5   Thumb Code   170  mpu6050.o(i.Mpu6050_GetAccelData)
    Mpu6050_GetDevID                         0x080022a5   Thumb Code    24  mpu6050.o(i.Mpu6050_GetDevID)
    Mpu6050_GetGyroData                      0x080022c1   Thumb Code   170  mpu6050.o(i.Mpu6050_GetGyroData)
    Mpu6050_Init                             0x08002385   Thumb Code   194  mpu6050.o(i.Mpu6050_Init)
    Mpu6050_SetDLPF                          0x0800244d   Thumb Code    90  mpu6050.o(i.Mpu6050_SetDLPF)
    Mpu6050_SetSampleRate                    0x080024a7   Thumb Code    94  mpu6050.o(i.Mpu6050_SetSampleRate)
    NMI_Handler                              0x08002505   Thumb Code     2  stm32f10x_it.o(i.NMI_Handler)
    NVIC_Init                                0x08002509   Thumb Code   100  misc.o(i.NVIC_Init)
    PID_Motor0                               0x08002579   Thumb Code   308  pid.o(i.PID_Motor0)
    PID_Motor1                               0x080026ed   Thumb Code   308  pid.o(i.PID_Motor1)
    PID_Motor2                               0x08002861   Thumb Code   296  pid.o(i.PID_Motor2)
    PendSV_Handler                           0x080029c9   Thumb Code     2  stm32f10x_it.o(i.PendSV_Handler)
    RCC_APB1PeriphClockCmd                   0x080029cd   Thumb Code    26  stm32f10x_rcc.o(i.RCC_APB1PeriphClockCmd)
    RCC_APB2PeriphClockCmd                   0x080029ed   Thumb Code    26  stm32f10x_rcc.o(i.RCC_APB2PeriphClockCmd)
    RCC_GetClocksFreq                        0x08002a0d   Thumb Code   192  stm32f10x_rcc.o(i.RCC_GetClocksFreq)
    SVC_Handler                              0x08002ae1   Thumb Code     2  stm32f10x_it.o(i.SVC_Handler)
    Send_Remote                              0x08002ae5   Thumb Code   156  tim5message.o(i.Send_Remote)
    SineArray_Init                           0x08002c75   Thumb Code   284  motor.o(i.SineArray_Init)
    SysTick_CLKSourceConfig                  0x08002db9   Thumb Code    40  misc.o(i.SysTick_CLKSourceConfig)
    SysTick_Handler                          0x08002de1   Thumb Code     2  stm32f10x_it.o(i.SysTick_Handler)
    SystemInit                               0x08002de5   Thumb Code    78  system_stm32f10x.o(i.SystemInit)
    TIM5_IRQHandler                          0x08002e45   Thumb Code   112  tim5message.o(i.TIM5_IRQHandler)
    TIM5_Init                                0x08002ecd   Thumb Code    88  tim5message.o(i.TIM5_Init)
    TIM_ARRPreloadConfig                     0x08002f29   Thumb Code    24  stm32f10x_tim.o(i.TIM_ARRPreloadConfig)
    TIM_ClearITPendingBit                    0x08002f41   Thumb Code     6  stm32f10x_tim.o(i.TIM_ClearITPendingBit)
    TIM_Cmd                                  0x08002f47   Thumb Code    24  stm32f10x_tim.o(i.TIM_Cmd)
    TIM_GetITStatus                          0x08002f5f   Thumb Code    34  stm32f10x_tim.o(i.TIM_GetITStatus)
    TIM_ITConfig                             0x08002f81   Thumb Code    18  stm32f10x_tim.o(i.TIM_ITConfig)
    TIM_OC1Init                              0x08002f95   Thumb Code   132  stm32f10x_tim.o(i.TIM_OC1Init)
    TIM_OC1PreloadConfig                     0x0800302d   Thumb Code    18  stm32f10x_tim.o(i.TIM_OC1PreloadConfig)
    TIM_OC2Init                              0x08003041   Thumb Code   154  stm32f10x_tim.o(i.TIM_OC2Init)
    TIM_OC2PreloadConfig                     0x080030e5   Thumb Code    26  stm32f10x_tim.o(i.TIM_OC2PreloadConfig)
    TIM_OC3Init                              0x08003101   Thumb Code   150  stm32f10x_tim.o(i.TIM_OC3Init)
    TIM_OC3PreloadConfig                     0x080031a1   Thumb Code    18  stm32f10x_tim.o(i.TIM_OC3PreloadConfig)
    TIM_OC4Init                              0x080031b5   Thumb Code   114  stm32f10x_tim.o(i.TIM_OC4Init)
    TIM_OC4PreloadConfig                     0x08003231   Thumb Code    26  stm32f10x_tim.o(i.TIM_OC4PreloadConfig)
    TIM_SetCompare1                          0x0800324b   Thumb Code     4  stm32f10x_tim.o(i.TIM_SetCompare1)
    TIM_SetCompare2                          0x0800324f   Thumb Code     4  stm32f10x_tim.o(i.TIM_SetCompare2)
    TIM_SetCompare3                          0x08003253   Thumb Code     4  stm32f10x_tim.o(i.TIM_SetCompare3)
    TIM_SetCompare4                          0x08003257   Thumb Code     6  stm32f10x_tim.o(i.TIM_SetCompare4)
    TIM_TimeBaseInit                         0x0800325d   Thumb Code   122  stm32f10x_tim.o(i.TIM_TimeBaseInit)
    USART1_IRQHandler                        0x08003301   Thumb Code   230  usart.o(i.USART1_IRQHandler)
    USART_Cmd                                0x08003405   Thumb Code    24  stm32f10x_usart.o(i.USART_Cmd)
    USART_GetFlagStatus                      0x0800341d   Thumb Code    26  stm32f10x_usart.o(i.USART_GetFlagStatus)
    USART_GetITStatus                        0x08003437   Thumb Code    84  stm32f10x_usart.o(i.USART_GetITStatus)
    USART_ITConfig                           0x0800348b   Thumb Code    74  stm32f10x_usart.o(i.USART_ITConfig)
    USART_Init                               0x080034d5   Thumb Code   210  stm32f10x_usart.o(i.USART_Init)
    USART_ReceiveData                        0x080035ad   Thumb Code    10  stm32f10x_usart.o(i.USART_ReceiveData)
    USART_SendData                           0x080035b7   Thumb Code     8  stm32f10x_usart.o(i.USART_SendData)
    UsageFault_Handler                       0x080035bf   Thumb Code     4  stm32f10x_it.o(i.UsageFault_Handler)
    Usart_SendArray                          0x080035c3   Thumb Code    48  usart.o(i.Usart_SendArray)
    Usart_SendByte                           0x080035f3   Thumb Code    30  usart.o(i.Usart_SendByte)
    __ARM_fpclassify                         0x08003611   Thumb Code    40  fpclassify.o(i.__ARM_fpclassify)
    __ieee754_rem_pio2                       0x08003639   Thumb Code   828  rred.o(i.__ieee754_rem_pio2)
    __kernel_cos                             0x080039c1   Thumb Code   230  cos_i.o(i.__kernel_cos)
    __kernel_poly                            0x08003abd   Thumb Code   170  poly.o(i.__kernel_poly)
    __kernel_sin                             0x08003b69   Thumb Code   224  sin_i.o(i.__kernel_sin)
    __mathlib_dbl_infnan                     0x08003c55   Thumb Code     6  dunder.o(i.__mathlib_dbl_infnan)
    __mathlib_dbl_infnan2                    0x08003c5b   Thumb Code     4  dunder.o(i.__mathlib_dbl_infnan2)
    __mathlib_dbl_invalid                    0x08003c5f   Thumb Code    12  dunder.o(i.__mathlib_dbl_invalid)
    __mathlib_dbl_underflow                  0x08003c6d   Thumb Code    10  dunder.o(i.__mathlib_dbl_underflow)
    __scatterload_copy                       0x08003c7d   Thumb Code    14  handlers.o(i.__scatterload_copy)
    __scatterload_null                       0x08003c8b   Thumb Code     2  handlers.o(i.__scatterload_null)
    __scatterload_zeroinit                   0x08003c8d   Thumb Code    14  handlers.o(i.__scatterload_zeroinit)
    __set_errno                              0x08003c9d   Thumb Code     6  errno.o(i.__set_errno)
    atan                                     0x08003ca9   Thumb Code   474  atan.o(i.atan)
    atan2                                    0x08003ec9   Thumb Code   346  atan2.o(i.atan2)
    delay_init                               0x08004049   Thumb Code    50  delay.o(i.delay_init)
    delay_ms                                 0x0800408d   Thumb Code    72  delay.o(i.delay_ms)
    delay_us                                 0x080040d9   Thumb Code    72  delay.o(i.delay_us)
    main                                     0x08004125   Thumb Code    96  main.o(i.main)
    positionInit                             0x08004185   Thumb Code   154  gimbalcontrol.o(i.positionInit)
    sin                                      0x0800423d   Thumb Code   150  sin.o(i.sin)
    uart3_init                               0x080042dd   Thumb Code   168  usart3.o(i.uart3_init)
    uart_init                                0x08004391   Thumb Code   154  usart.o(i.uart_init)
    usart3_niming_report                     0x08004435   Thumb Code   106  report.o(i.usart3_niming_report)
    usart3_report_imu                        0x080044a5   Thumb Code   192  report.o(i.usart3_report_imu)
    __mathlib_zero                           0x08004630   Data           8  qnan.o(.constdata)
    Region$$Table$$Base                      0x08004728   Number         0  anon$$obj.o(Region$$Table)
    Region$$Table$$Limit                     0x08004748   Number         0  anon$$obj.o(Region$$Table)
    SystemCoreClock                          0x20000000   Data           4  system_stm32f10x.o(.data)
    AHBPrescTable                            0x20000004   Data          16  system_stm32f10x.o(.data)
    cntGreen                                 0x20000068   Data           4  gimbalcontrol.o(.data)
    cntRed                                   0x2000006c   Data           4  gimbalcontrol.o(.data)
    cntPosInit                               0x20000070   Data           4  gimbalcontrol.o(.data)
    cntCalibrate                             0x20000074   Data           4  gimbalcontrol.o(.data)
    cntCaliDelay                             0x20000078   Data           4  gimbalcontrol.o(.data)
    pitchSpeed                               0x2000007c   Data           4  gimbalcontrol.o(.data)
    rollSpeed                                0x20000080   Data           4  gimbalcontrol.o(.data)
    yawSpeed                                 0x20000084   Data           4  gimbalcontrol.o(.data)
    gypoZBiasMpu                             0x20000088   Data           4  gimbalcontrol.o(.data)
    gypoZBiasBoard                           0x2000008c   Data           4  gimbalcontrol.o(.data)
    gypoMedianBoard                          0x20000090   Data           4  gimbalcontrol.o(.data)
    yawDiff                                  0x20000094   Data           4  gimbalcontrol.o(.data)
    LED0_flag                                0x20000098   Data           1  gimbalcontrol.o(.data)
    Mpu6050_ID                               0x2000017c   Data           1  mpu6050.o(.data)
    Mpu6050_Accel_X                          0x20000180   Data           4  mpu6050.o(.data)
    Mpu6050_Accel_Y                          0x20000184   Data           4  mpu6050.o(.data)
    Mpu6050_Accel_Z                          0x20000188   Data           4  mpu6050.o(.data)
    Mpu6050_Temp                             0x2000018c   Data           4  mpu6050.o(.data)
    Mpu6050_Gyro_X                           0x20000190   Data           4  mpu6050.o(.data)
    Mpu6050_Gyro_Y                           0x20000194   Data           4  mpu6050.o(.data)
    Mpu6050_Gyro_Z                           0x20000198   Data           4  mpu6050.o(.data)
    Mpu6050_Pitch                            0x2000019c   Data           4  mpu6050.o(.data)
    Mpu6050_Roll                             0x200001a0   Data           4  mpu6050.o(.data)
    Mpu6050_Yaw                              0x200001a4   Data           4  mpu6050.o(.data)
    BoardMpu_ID                              0x200001e2   Data           1  boardmpu.o(.data)
    BoardMpu_Accel_X                         0x200001e4   Data           4  boardmpu.o(.data)
    BoardMpu_Accel_Y                         0x200001e8   Data           4  boardmpu.o(.data)
    BoardMpu_Accel_Z                         0x200001ec   Data           4  boardmpu.o(.data)
    BoardMpu_Temp                            0x200001f0   Data           4  boardmpu.o(.data)
    BoardMpu_Gyro_X                          0x200001f4   Data           4  boardmpu.o(.data)
    BoardMpu_Gyro_Y                          0x200001f8   Data           4  boardmpu.o(.data)
    BoardMpu_Gyro_Z                          0x200001fc   Data           4  boardmpu.o(.data)
    BoardMpu_Pitch                           0x20000200   Data           4  boardmpu.o(.data)
    BoardMpu_Roll                            0x20000204   Data           4  boardmpu.o(.data)
    BoardMpu_Yaw                             0x20000208   Data           4  boardmpu.o(.data)
    Serial_Z                                 0x200002ac   Data           2  as14ttl.o(.data)
    Serial_X                                 0x200002ae   Data           2  as14ttl.o(.data)
    Serial_Y                                 0x200002b0   Data           2  as14ttl.o(.data)
    ADC_Value                                0x200002b2   Data           6  as14ttl.o(.data)
    ExpPitch                                 0x200002b8   Data           4  as14ttl.o(.data)
    ExpYaw                                   0x200002bc   Data           4  as14ttl.o(.data)
    ExpRoll                                  0x200002c0   Data           4  as14ttl.o(.data)
    fun                                      0x200002d6   Data           1  tim5message.o(.data)
    len                                      0x200002d7   Data           1  tim5message.o(.data)
    keyValue                                 0x2000034c   Data           1  usart.o(.data)
    __stdout                                 0x20000350   Data           4  usart.o(.data)
    USART_RX                                 0x20000355   Data           6  usart.o(.data)
    debugPara                                0x2000046c   Data           9  pid.o(.bss)
    __initial_sp                             0x20001878   Data           0  startup_stm32f10x_hd.o(STACK)



==============================================================================

Memory Map of the image

  Image Entry point : 0x08000131

  Load Region LR_IROM1 (Base: 0x08000000, Size: 0x00004abc, Max: 0x00040000, ABSOLUTE, COMPRESSED[0x00004788])

    Execution Region ER_IROM1 (Base: 0x08000000, Size: 0x00004748, Max: 0x00040000, ABSOLUTE)

    Base Addr    Size         Type   Attr      Idx    E Section Name        Object

    0x08000000   0x00000130   Data   RO         1046    RESET               startup_stm32f10x_hd.o
    0x08000130   0x00000000   Code   RO         2265  * .ARM.Collect$$$$00000000  mc_w.l(entry.o)
    0x08000130   0x00000004   Code   RO         2343    .ARM.Collect$$$$00000001  mc_w.l(entry2.o)
    0x08000134   0x00000004   Code   RO         2346    .ARM.Collect$$$$00000004  mc_w.l(entry5.o)
    0x08000138   0x00000000   Code   RO         2348    .ARM.Collect$$$$00000008  mc_w.l(entry7b.o)
    0x08000138   0x00000000   Code   RO         2350    .ARM.Collect$$$$0000000A  mc_w.l(entry8b.o)
    0x08000138   0x00000008   Code   RO         2351    .ARM.Collect$$$$0000000B  mc_w.l(entry9a.o)
    0x08000140   0x00000000   Code   RO         2353    .ARM.Collect$$$$0000000D  mc_w.l(entry10a.o)
    0x08000140   0x00000000   Code   RO         2355    .ARM.Collect$$$$0000000F  mc_w.l(entry11a.o)
    0x08000140   0x00000004   Code   RO         2344    .ARM.Collect$$$$00002712  mc_w.l(entry2.o)
    0x08000144   0x00000024   Code   RO         1047    .text               startup_stm32f10x_hd.o
    0x08000168   0x000000b0   Code   RO         2268    .text               mf_w.l(fadd.o)
    0x08000218   0x00000064   Code   RO         2270    .text               mf_w.l(fmul.o)
    0x0800027c   0x0000007c   Code   RO         2272    .text               mf_w.l(fdiv.o)
    0x080002f8   0x0000014e   Code   RO         2274    .text               mf_w.l(dadd.o)
    0x08000446   0x000000e4   Code   RO         2276    .text               mf_w.l(dmul.o)
    0x0800052a   0x000000de   Code   RO         2278    .text               mf_w.l(ddiv.o)
    0x08000608   0x00000022   Code   RO         2282    .text               mf_w.l(dflti.o)
    0x0800062a   0x0000001a   Code   RO         2284    .text               mf_w.l(dfltui.o)
    0x08000644   0x00000032   Code   RO         2286    .text               mf_w.l(ffixi.o)
    0x08000676   0x00000032   Code   RO         2290    .text               mf_w.l(dfixui.o)
    0x080006a8   0x00000026   Code   RO         2292    .text               mf_w.l(f2d.o)
    0x080006ce   0x00000002   PAD
    0x080006d0   0x00000030   Code   RO         2294    .text               mf_w.l(cdcmple.o)
    0x08000700   0x00000030   Code   RO         2296    .text               mf_w.l(cdrcmple.o)
    0x08000730   0x00000038   Code   RO         2298    .text               mf_w.l(d2f.o)
    0x08000768   0x00000014   Code   RO         2300    .text               mf_w.l(cfcmple.o)
    0x0800077c   0x00000014   Code   RO         2302    .text               mf_w.l(cfrcmple.o)
    0x08000790   0x0000001e   Code   RO         2357    .text               mc_w.l(llshl.o)
    0x080007ae   0x00000020   Code   RO         2359    .text               mc_w.l(llushr.o)
    0x080007ce   0x00000024   Code   RO         2361    .text               mc_w.l(llsshr.o)
    0x080007f2   0x00000000   Code   RO         2370    .text               mc_w.l(iusefp.o)
    0x080007f2   0x0000006e   Code   RO         2371    .text               mf_w.l(fepilogue.o)
    0x08000860   0x000000ba   Code   RO         2373    .text               mf_w.l(depilogue.o)
    0x0800091a   0x00000002   PAD
    0x0800091c   0x00000024   Code   RO         2379    .text               mc_w.l(init.o)
    0x08000940   0x0000002e   Code   RO         2381    .text               mf_w.l(dscalb.o)
    0x0800096e   0x0000003e   Code   RO         2383    .text               mf_w.l(dfixi.o)
    0x080009ac   0x00000056   Code   RO         2393    .text               mc_w.l(__dczerorl2.o)
    0x08000a02   0x00000002   PAD
    0x08000a04   0x00000088   Code   RO          289    i.AutoMode          gimbalcontrol.o
    0x08000a8c   0x0000007c   Code   RO          290    i.BiasInit          gimbalcontrol.o
    0x08000b08   0x0000019c   Code   RO          516    i.BoardMpu_Calu     boardmpu.o
    0x08000ca4   0x000000c0   Code   RO          517    i.BoardMpu_GetAccelData  boardmpu.o
    0x08000d64   0x0000001c   Code   RO          518    i.BoardMpu_GetDevID  boardmpu.o
    0x08000d80   0x000000c4   Code   RO          519    i.BoardMpu_GetGyroData  boardmpu.o
    0x08000e44   0x000000c8   Code   RO          521    i.BoardMpu_Init     boardmpu.o
    0x08000f0c   0x0000005a   Code   RO          522    i.BoardMpu_SetDLPF  boardmpu.o
    0x08000f66   0x0000005e   Code   RO          523    i.BoardMpu_SetSampleRate  boardmpu.o
    0x08000fc4   0x00000004   Code   RO          166    i.BusFault_Handler  stm32f10x_it.o
    0x08000fc8   0x00000002   Code   RO          167    i.DebugMon_Handler  stm32f10x_it.o
    0x08000fca   0x00000116   Code   RO         1213    i.GPIO_Init         stm32f10x_gpio.o
    0x080010e0   0x00000090   Code   RO         1215    i.GPIO_PinRemapConfig  stm32f10x_gpio.o
    0x08001170   0x00000012   Code   RO         1217    i.GPIO_ReadInputDataBit  stm32f10x_gpio.o
    0x08001182   0x00000004   Code   RO         1220    i.GPIO_ResetBits    stm32f10x_gpio.o
    0x08001186   0x00000004   Code   RO         1221    i.GPIO_SetBits      stm32f10x_gpio.o
    0x0800118a   0x0000000a   Code   RO         1224    i.GPIO_WriteBit     stm32f10x_gpio.o
    0x08001194   0x000001cc   Code   RO          291    i.GimbalControl     gimbalcontrol.o
    0x08001360   0x00000004   Code   RO          168    i.HardFault_Handler  stm32f10x_it.o
    0x08001364   0x00000034   Code   RO          577    i.I2C1_Init         boardmpui2c.o
    0x08001398   0x00000094   Code   RO          578    i.I2C1_ReadData     boardmpui2c.o
    0x0800142c   0x00000094   Code   RO          579    i.I2C1_RecvByte     boardmpui2c.o
    0x080014c0   0x00000044   Code   RO          580    i.I2C1_SendACK      boardmpui2c.o
    0x08001504   0x0000005c   Code   RO          581    i.I2C1_SendByte     boardmpui2c.o
    0x08001560   0x0000003c   Code   RO          582    i.I2C1_Start        boardmpui2c.o
    0x0800159c   0x0000003c   Code   RO          583    i.I2C1_Stop         boardmpui2c.o
    0x080015d8   0x00000084   Code   RO          584    i.I2C1_WaitACK      boardmpui2c.o
    0x0800165c   0x0000006e   Code   RO          585    i.I2C1_WriteData    boardmpui2c.o
    0x080016ca   0x00000002   PAD
    0x080016cc   0x00000038   Code   RO          639    i.I2C2_Init         mpui2c.o
    0x08001704   0x00000094   Code   RO          640    i.I2C2_ReadData     mpui2c.o
    0x08001798   0x000000a0   Code   RO          641    i.I2C2_RecvByte     mpui2c.o
    0x08001838   0x0000004c   Code   RO          642    i.I2C2_SendACK      mpui2c.o
    0x08001884   0x00000064   Code   RO          643    i.I2C2_SendByte     mpui2c.o
    0x080018e8   0x00000044   Code   RO          644    i.I2C2_Start        mpui2c.o
    0x0800192c   0x00000044   Code   RO          645    i.I2C2_Stop         mpui2c.o
    0x08001970   0x00000094   Code   RO          646    i.I2C2_WaitACK      mpui2c.o
    0x08001a04   0x0000006e   Code   RO          647    i.I2C2_WriteData    mpui2c.o
    0x08001a72   0x00000002   PAD
    0x08001a74   0x00000038   Code   RO          443    i.LED_Init          led.o
    0x08001aac   0x00000134   Code   RO          403    i.MedianFilter      pid.o
    0x08001be0   0x00000004   Code   RO          169    i.MemManage_Handler  stm32f10x_it.o
    0x08001be4   0x000000f0   Code   RO          701    i.Motor0_Run        motor.o
    0x08001cd4   0x00000040   Code   RO          702    i.Motor0_SetPWM     motor.o
    0x08001d14   0x000000f0   Code   RO          704    i.Motor1_Run        motor.o
    0x08001e04   0x00000044   Code   RO          705    i.Motor1_SetPWM     motor.o
    0x08001e48   0x00000044   Code   RO          708    i.Motor2_SetPWM     motor.o
    0x08001e8c   0x00000190   Code   RO          710    i.MotorPWM_Init     motor.o
    0x0800201c   0x00000010   Code   RO          711    i.MotorPos_Init     motor.o
    0x0800202c   0x00000010   Code   RO          712    i.Motor_Init        motor.o
    0x0800203c   0x000001a8   Code   RO          455    i.Mpu6050_Calu      mpu6050.o
    0x080021e4   0x000000c0   Code   RO          456    i.Mpu6050_GetAccelData  mpu6050.o
    0x080022a4   0x0000001c   Code   RO          457    i.Mpu6050_GetDevID  mpu6050.o
    0x080022c0   0x000000c4   Code   RO          458    i.Mpu6050_GetGyroData  mpu6050.o
    0x08002384   0x000000c8   Code   RO          460    i.Mpu6050_Init      mpu6050.o
    0x0800244c   0x0000005a   Code   RO          461    i.Mpu6050_SetDLPF   mpu6050.o
    0x080024a6   0x0000005e   Code   RO          462    i.Mpu6050_SetSampleRate  mpu6050.o
    0x08002504   0x00000002   Code   RO          170    i.NMI_Handler       stm32f10x_it.o
    0x08002506   0x00000002   PAD
    0x08002508   0x00000070   Code   RO         1051    i.NVIC_Init         misc.o
    0x08002578   0x00000174   Code   RO          404    i.PID_Motor0        pid.o
    0x080026ec   0x00000174   Code   RO          405    i.PID_Motor1        pid.o
    0x08002860   0x00000168   Code   RO          406    i.PID_Motor2        pid.o
    0x080029c8   0x00000002   Code   RO          171    i.PendSV_Handler    stm32f10x_it.o
    0x080029ca   0x00000002   PAD
    0x080029cc   0x00000020   Code   RO         1323    i.RCC_APB1PeriphClockCmd  stm32f10x_rcc.o
    0x080029ec   0x00000020   Code   RO         1325    i.RCC_APB2PeriphClockCmd  stm32f10x_rcc.o
    0x08002a0c   0x000000d4   Code   RO         1333    i.RCC_GetClocksFreq  stm32f10x_rcc.o
    0x08002ae0   0x00000002   Code   RO          172    i.SVC_Handler       stm32f10x_it.o
    0x08002ae2   0x00000002   PAD
    0x08002ae4   0x000000a8   Code   RO          859    i.Send_Remote       tim5message.o
    0x08002b8c   0x00000008   Code   RO          255    i.SetSysClock       system_stm32f10x.o
    0x08002b94   0x000000e0   Code   RO          256    i.SetSysClockTo72   system_stm32f10x.o
    0x08002c74   0x00000144   Code   RO          713    i.SineArray_Init    motor.o
    0x08002db8   0x00000028   Code   RO         1055    i.SysTick_CLKSourceConfig  misc.o
    0x08002de0   0x00000002   Code   RO          173    i.SysTick_Handler   stm32f10x_it.o
    0x08002de2   0x00000002   PAD
    0x08002de4   0x00000060   Code   RO          258    i.SystemInit        system_stm32f10x.o
    0x08002e44   0x00000088   Code   RO          860    i.TIM5_IRQHandler   tim5message.o
    0x08002ecc   0x0000005c   Code   RO          861    i.TIM5_Init         tim5message.o
    0x08002f28   0x00000018   Code   RO         1705    i.TIM_ARRPreloadConfig  stm32f10x_tim.o
    0x08002f40   0x00000006   Code   RO         1712    i.TIM_ClearITPendingBit  stm32f10x_tim.o
    0x08002f46   0x00000018   Code   RO         1717    i.TIM_Cmd           stm32f10x_tim.o
    0x08002f5e   0x00000022   Code   RO         1738    i.TIM_GetITStatus   stm32f10x_tim.o
    0x08002f80   0x00000012   Code   RO         1742    i.TIM_ITConfig      stm32f10x_tim.o
    0x08002f92   0x00000002   PAD
    0x08002f94   0x00000098   Code   RO         1746    i.TIM_OC1Init       stm32f10x_tim.o
    0x0800302c   0x00000012   Code   RO         1749    i.TIM_OC1PreloadConfig  stm32f10x_tim.o
    0x0800303e   0x00000002   PAD
    0x08003040   0x000000a4   Code   RO         1751    i.TIM_OC2Init       stm32f10x_tim.o
    0x080030e4   0x0000001a   Code   RO         1754    i.TIM_OC2PreloadConfig  stm32f10x_tim.o
    0x080030fe   0x00000002   PAD
    0x08003100   0x000000a0   Code   RO         1756    i.TIM_OC3Init       stm32f10x_tim.o
    0x080031a0   0x00000012   Code   RO         1759    i.TIM_OC3PreloadConfig  stm32f10x_tim.o
    0x080031b2   0x00000002   PAD
    0x080031b4   0x0000007c   Code   RO         1761    i.TIM_OC4Init       stm32f10x_tim.o
    0x08003230   0x0000001a   Code   RO         1763    i.TIM_OC4PreloadConfig  stm32f10x_tim.o
    0x0800324a   0x00000004   Code   RO         1778    i.TIM_SetCompare1   stm32f10x_tim.o
    0x0800324e   0x00000004   Code   RO         1779    i.TIM_SetCompare2   stm32f10x_tim.o
    0x08003252   0x00000004   Code   RO         1780    i.TIM_SetCompare3   stm32f10x_tim.o
    0x08003256   0x00000006   Code   RO         1781    i.TIM_SetCompare4   stm32f10x_tim.o
    0x0800325c   0x000000a4   Code   RO         1788    i.TIM_TimeBaseInit  stm32f10x_tim.o
    0x08003300   0x00000104   Code   RO          959    i.USART1_IRQHandler  usart.o
    0x08003404   0x00000018   Code   RO         1525    i.USART_Cmd         stm32f10x_usart.o
    0x0800341c   0x0000001a   Code   RO         1528    i.USART_GetFlagStatus  stm32f10x_usart.o
    0x08003436   0x00000054   Code   RO         1529    i.USART_GetITStatus  stm32f10x_usart.o
    0x0800348a   0x0000004a   Code   RO         1531    i.USART_ITConfig    stm32f10x_usart.o
    0x080034d4   0x000000d8   Code   RO         1532    i.USART_Init        stm32f10x_usart.o
    0x080035ac   0x0000000a   Code   RO         1539    i.USART_ReceiveData  stm32f10x_usart.o
    0x080035b6   0x00000008   Code   RO         1542    i.USART_SendData    stm32f10x_usart.o
    0x080035be   0x00000004   Code   RO          174    i.UsageFault_Handler  stm32f10x_it.o
    0x080035c2   0x00000030   Code   RO          960    i.Usart_SendArray   usart.o
    0x080035f2   0x0000001e   Code   RO          961    i.Usart_SendByte    usart.o
    0x08003610   0x00000028   Code   RO         2375    i.__ARM_fpclassify  m_ws.l(fpclassify.o)
    0x08003638   0x00000388   Code   RO         2332    i.__ieee754_rem_pio2  m_ws.l(rred.o)
    0x080039c0   0x000000fc   Code   RO         2314    i.__kernel_cos      m_ws.l(cos_i.o)
    0x08003abc   0x000000aa   Code   RO         2377    i.__kernel_poly     m_ws.l(poly.o)
    0x08003b66   0x00000002   PAD
    0x08003b68   0x000000ec   Code   RO         2337    i.__kernel_sin      m_ws.l(sin_i.o)
    0x08003c54   0x00000006   Code   RO         2318    i.__mathlib_dbl_infnan  m_ws.l(dunder.o)
    0x08003c5a   0x00000004   Code   RO         2319    i.__mathlib_dbl_infnan2  m_ws.l(dunder.o)
    0x08003c5e   0x0000000c   Code   RO         2320    i.__mathlib_dbl_invalid  m_ws.l(dunder.o)
    0x08003c6a   0x00000002   PAD
    0x08003c6c   0x00000010   Code   RO         2323    i.__mathlib_dbl_underflow  m_ws.l(dunder.o)
    0x08003c7c   0x0000000e   Code   RO         2387    i.__scatterload_copy  mc_w.l(handlers.o)
    0x08003c8a   0x00000002   Code   RO         2388    i.__scatterload_null  mc_w.l(handlers.o)
    0x08003c8c   0x0000000e   Code   RO         2389    i.__scatterload_zeroinit  mc_w.l(handlers.o)
    0x08003c9a   0x00000002   PAD
    0x08003c9c   0x0000000c   Code   RO         2365    i.__set_errno       mc_w.l(errno.o)
    0x08003ca8   0x00000220   Code   RO         2305    i.atan              m_ws.l(atan.o)
    0x08003ec8   0x00000180   Code   RO         2250    i.atan2             m_ws.l(atan2.o)
    0x08004048   0x00000044   Code   RO          903    i.delay_init        delay.o
    0x0800408c   0x0000004c   Code   RO          904    i.delay_ms          delay.o
    0x080040d8   0x0000004c   Code   RO          905    i.delay_us          delay.o
    0x08004124   0x00000060   Code   RO            1    i.main              main.o
    0x08004184   0x000000b8   Code   RO          292    i.positionInit      gimbalcontrol.o
    0x0800423c   0x000000a0   Code   RO         2258    i.sin               m_ws.l(sin.o)
    0x080042dc   0x000000b4   Code   RO          891    i.uart3_init        usart3.o
    0x08004390   0x000000a4   Code   RO          966    i.uart_init         usart.o
    0x08004434   0x00000070   Code   RO          790    i.usart3_niming_report  report.o
    0x080044a4   0x000000c0   Code   RO          791    i.usart3_report_imu  report.o
    0x08004564   0x00000002   Data   RO          715    .constdata          motor.o
    0x08004566   0x00000002   PAD
    0x08004568   0x00000098   Data   RO         2306    .constdata          m_ws.l(atan.o)
    0x08004600   0x00000030   Data   RO         2315    .constdata          m_ws.l(cos_i.o)
    0x08004630   0x00000008   Data   RO         2331    .constdata          m_ws.l(qnan.o)
    0x08004638   0x000000c8   Data   RO         2334    .constdata          m_ws.l(rred.o)
    0x08004700   0x00000028   Data   RO         2338    .constdata          m_ws.l(sin_i.o)
    0x08004728   0x00000020   Data   RO         2385    Region$$Table       anon$$obj.o


    Execution Region RW_IRAM1 (Base: 0x20000000, Size: 0x00001878, Max: 0x0000c000, ABSOLUTE, COMPRESSED[0x00000040])

    Base Addr    Size         Type   Attr      Idx    E Section Name        Object

    0x20000000   0x00000014   Data   RW          259    .data               system_stm32f10x.o
    0x20000014   0x00000085   Data   RW          295    .data               gimbalcontrol.o
    0x20000099   0x00000003   PAD
    0x2000009c   0x000000a8   Data   RW          408    .data               pid.o
    0x20000144   0x00000064   Data   RW          464    .data               mpu6050.o
    0x200001a8   0x00000064   Data   RW          525    .data               boardmpu.o
    0x2000020c   0x00000004   Data   RW          586    .data               boardmpui2c.o
    0x20000210   0x00000004   Data   RW          648    .data               mpui2c.o
    0x20000214   0x0000002e   Data   RW          716    .data               motor.o
    0x20000242   0x00000002   PAD
    0x20000244   0x00000080   Data   RW          819    .data               as14ttl.o
    0x200002c4   0x00000015   Data   RW          862    .data               tim5message.o
    0x200002d9   0x00000001   PAD
    0x200002da   0x00000004   Data   RW          906    .data               delay.o
    0x200002de   0x00000002   PAD
    0x200002e0   0x0000007b   Data   RW          969    .data               usart.o
    0x2000035b   0x00000014   Data   RW         1353    .data               stm32f10x_rcc.o
    0x2000036f   0x00000001   PAD
    0x20000370   0x00000004   Data   RW         2366    .data               mc_w.l(errno.o)
    0x20000374   0x00000101   Zero   RW          407    .bss                pid.o
    0x20000475   0x00000001   PAD
    0x20000476   0x00001000   Zero   RW          714    .bss                motor.o
    0x20001476   0x00000002   PAD
    0x20001478   0x00000400   Zero   RW         1044    STACK               startup_stm32f10x_hd.o


==============================================================================

Image component sizes


      Code (inc. data)   RO Data    RW Data    ZI Data      Debug   Object Name

         0          0          0        128          0       1395   as14ttl.o
      1212        112          0        100          0       6360   boardmpu.o
       870         50          0          4          0       6268   boardmpui2c.o
       220         26          0          4          0       1751   delay.o
       904        186          0        133          0       4580   gimbalcontrol.o
        56          6          0          0          0        495   led.o
        96          0          0          0          0     256289   main.o
       152         12          0          0          0       1562   misc.o
      1436        150          2         46       4096       6113   motor.o
      1224        114          0        100          0       6210   mpu6050.o
       934         50          0          4          0       6128   mpui2c.o
      1412        216          0        168        257       5266   pid.o
       304          6          0          0          0       1999   report.o
        36          8        304          0       1024        792   startup_stm32f10x_hd.o
       458          6          0          0          0       5118   stm32f10x_gpio.o
        26          0          0          0          0     206834   stm32f10x_it.o
       276         32          0         20          0       4470   stm32f10x_rcc.o
       976         92          0          0          0      11597   stm32f10x_tim.o
       442          6          0          0          0       6213   stm32f10x_usart.o
         0          0          0          0          0         32   sys.o
       328         28          0         20          0       2117   system_stm32f10x.o
       396         40          0         21          0       2342   tim5message.o
       502         40          0        123          0       5279   usart.o
       180         12          0          0          0        725   usart3.o

    ----------------------------------------------------------------------
     12460       1192        340        880       5380     549935   Object Totals
         0          0         32          0          0          0   (incl. Generated)
        20          0          2          9          3          0   (incl. Padding)

    ----------------------------------------------------------------------

      Code (inc. data)   RO Data    RW Data    ZI Data      Debug   Library Member Name

       544         70        152          0          0        124   atan.o
       384         38          0          0          0        144   atan2.o
       252         22         48          0          0        124   cos_i.o
        38          6          0          0          0        272   dunder.o
        40          0          0          0          0         68   fpclassify.o
       170          0          0          0          0         96   poly.o
         0          0          8          0          0          0   qnan.o
       904         76        200          0          0        140   rred.o
       160         10          0          0          0        108   sin.o
       236         12         40          0          0        128   sin_i.o
        86          0          0          0          0          0   __dczerorl2.o
         0          0          0          0          0          0   entry.o
         0          0          0          0          0          0   entry10a.o
         0          0          0          0          0          0   entry11a.o
         8          4          0          0          0          0   entry2.o
         4          0          0          0          0          0   entry5.o
         0          0          0          0          0          0   entry7b.o
         0          0          0          0          0          0   entry8b.o
         8          4          0          0          0          0   entry9a.o
        12          6          0          4          0         68   errno.o
        30          0          0          0          0          0   handlers.o
        36          8          0          0          0         68   init.o
         0          0          0          0          0          0   iusefp.o
        30          0          0          0          0         68   llshl.o
        36          0          0          0          0         68   llsshr.o
        32          0          0          0          0         68   llushr.o
        48          0          0          0          0         68   cdcmple.o
        48          0          0          0          0         68   cdrcmple.o
        20          0          0          0          0         68   cfcmple.o
        20          0          0          0          0         68   cfrcmple.o
        56          0          0          0          0         88   d2f.o
       334          0          0          0          0        148   dadd.o
       222          0          0          0          0        100   ddiv.o
       186          0          0          0          0        176   depilogue.o
        62          0          0          0          0         80   dfixi.o
        50          0          0          0          0         76   dfixui.o
        34          0          0          0          0         76   dflti.o
        26          0          0          0          0         76   dfltui.o
       228          0          0          0          0         96   dmul.o
        46          0          0          0          0         80   dscalb.o
        38          0          0          0          0         68   f2d.o
       176          0          0          0          0        140   fadd.o
       124          0          0          0          0         88   fdiv.o
       110          0          0          0          0        168   fepilogue.o
        50          0          0          0          0         68   ffixi.o
       100          0          0          0          0         76   fmul.o

    ----------------------------------------------------------------------
      5000        256        448          4          0       3420   Library Totals
        12          0          0          0          0          0   (incl. Padding)

    ----------------------------------------------------------------------

      Code (inc. data)   RO Data    RW Data    ZI Data      Debug   Library Name

      2728        234        448          0          0       1204   m_ws.l
       282         22          0          4          0        340   mc_w.l
      1978          0          0          0          0       1876   mf_w.l

    ----------------------------------------------------------------------
      5000        256        448          4          0       3420   Library Totals

    ----------------------------------------------------------------------

==============================================================================


      Code (inc. data)   RO Data    RW Data    ZI Data      Debug   

     17460       1448        788        884       5380     546151   Grand Totals
     17460       1448        788         64       5380     546151   ELF Image Totals (compressed)
     17460       1448        788         64          0          0   ROM Totals

==============================================================================

    Total RO  Size (Code + RO Data)                18248 (  17.82kB)
    Total RW  Size (RW Data + ZI Data)              6264 (   6.12kB)
    Total ROM Size (Code + RO Data + RW Data)      18312 (  17.88kB)

==============================================================================

