:020000040800F2
:10000000383B002045010008252E00089115000806
:100010000D240008C510000823430008000000005C
:10002000000000000000000000000000353500085E
:10003000D911000800000000E9320008153A000854
:100040005F0100085F0100085F0100085F01000810
:100050005F0100085F0100085F0100085F01000800
:100060005F0100085F0100085F0100085F010008F0
:100070005F0100085F0100085F0100085F010008E0
:100080005F0100085F0100085F0100085F010008D0
:100090005F0100085F0100085F0100085F010008C0
:1000A0005F0100085F0100085F0100085F010008B0
:1000B0005F0100085F0100085F0100085F010008A0
:1000C0005F0100085F0100085F0100085F01000890
:1000D0005F010008C53E00085F01000821400008DC
:1000E0005F0100085F0100085F0100085F01000870
:1000F0005F0100085F0100085F0100085F01000860
:100100005F0100085F010008793A00085F010008FC
:100110005F0100085F0100085F0100085F0100083F
:100120005F0100085F0100085F0100085F0100082F
:10013000DFF80CD000F08AFC00480047795700082F
:10014000383B00200648804706480047FEE7FEE7A8
:10015000FEE7FEE7FEE7FEE7FEE7FEE7FEE7FEE777
:10016000193A000831010008F0B480EA0102D40F06
:100170004200B2EB410F02D20246084611464A0045
:1001800042D0C30DDDB2C1F3C752AD1A202D35DA0E
:10019000C1F3160141F4000204B15242C5F1200638
:1001A00002FA06F12A411044B3EBD05F23D0C4B168
:1001B000012DA0EBC35009DCF0BC4FF0004202EA75
:1001C000C352DBB200F5000000F085BB400000F137
:1001D000807000EBC350A0F1807040EAD1704900FC
:1001E00009E0490841EAC071A0EBC35000F50000E6
:1001F000400800EBC350F0BC00F064BB6142012238
:1002000002EB4101001BF6E7F0BC704781F00041B2
:10021000AAE780F00040A7E780EA010210B502F0EB
:100220000043400022D04A001FD0010E01EB1261B2
:10023000C0F35600C2F3560240F4000042F400023C
:10024000A0FB022000047F39140400D0401C50EAB7
:10025000124001D44000491EC2B20C0604EBD0107B
:10026000401C4008802A02D003E0002010BD20F08E
:100270000100002900DA0020184310BD30B480EAE4
:10028000010202F0004530F0004221F0004013D09E
:1002900090B1C30DD40DC2F31601C0F31600E41AD9
:1002A00041F4000140F400027D34914201D3641C0A
:1002B00000E04900002C02DA30BC002070474FF407
:1002C00000000023914201D3891A034340084FEAFA
:1002D0004101F7D151B1914202D14FF0004105E007
:1002E00002D24FF0010101E06FF0010103EBC450B5
:1002F000284430BC00F0E6BA2DE9FE4F804681EA82
:100300000300C00F0C46009021F0004123F000458F
:10031000B8EB0200A94105D24046214690461C4652
:100320000B46024623F00040104347D0270DC7F389
:100330000A00C3F30A510290401A019040286BDA78
:10034000C3F3130040F4801B0098924620B10023B1
:10035000D2EB030A63EB0B0B01985946C0F1400244
:10036000504600F07EFA06460D4650465946019A20
:1003700000F096FA10EB08006141002487EA115260
:1003800084EAE7731A4340D0009A62B3019A012AC3
:100390004FEA075215DC001B61EB02014FF00042EF
:1003A00002EA0752CDE90042001C41F580113246B5
:1003B0002B4600F0CDFA03B0BDE8F08F4046214651
:1003C000F9E7001B61EB0201001C41F580130018E6
:1003D0005B412018A2F5001747EB030140EAD570F6
:1003E000B6196D4111E06D084FEA360645EAC07551
:1003F0004FEA0752001B61EB0201001C41F580111E
:1004000049084FEA30000019514132462B4603B0EB
:10041000BDE8F04F00F08DBA0098012240000023A3
:10042000D0EB020263EBE073009821464FEAE074E0
:10043000B8EB000061EB0401E9E783F000435BE700
:1004400081F0004158E72DE9FE4F81EA030404F0F2
:10045000004421F0004100944FF0000B23F00043D2
:1004600050EA01045ED052EA03045BD0C3F30A549D
:10047000C1F30A552C44A4F2F3340194A0FB0254B6
:10048000C1F3130141F48011C3F3130343F4801348
:1004900001FB024400FB034E840A970A44EA81549C
:1004A00047EA8357A4FB076802958D0A05FB078579
:1004B0004FEA932C04FB0C542705029D4FEA065883
:1004C00047EA1637B5EB08056EEB070C870E920E60
:1004D00047EA811742EA8312A7FB0201B6EB0B0140
:1004E00064EB00042B0D43EA0C335E1844EB1C5004
:1004F000DA465146E7FB0201C5F313044FEA0B331A
:1005000043EA14534FEA0432019C43EA0603A4F180
:100510000C040294009CCDE900B400F019FA03B079
:10052000BDE8F08F00200146F9E72DE9F04D81EAA2
:10053000030404F0004B21F0004514464FF0000A7C
:1005400023F0004150EA050220D054EA01021DD0F8
:10055000C5F30A570246C5F31303C1F31300C1F3F1
:100560000A5640F4801543F48013A7EB0608101BCD
:10057000D64608F2FD3873EB050002D308F10108F6
:1005800001E092185B41B8F1000F03DA0020014648
:10059000BDE8F08D00204FF48011064684460EE041
:1005A000171B73EB050705D3121B63EB050306430B
:1005B0004CEA010C49084FEA300092185B4150EABE
:1005C0000107EDD152EA030012D082EA040083EA67
:1005D0000501084305D0101BAB4106D201220023C0
:1005E00006E000224FF0004302E06FF001025310DA
:1005F0001AEB06004CEB085110EB0A0041EB0B0123
:10060000BDE8F04D00F095B9C10F80EAE0700844F4
:10061000CA079623002100F05EB9962300221146F6
:1006200000F059B90EB5C10F80EAE0700844CA075E
:10063000002140F233438DE80E000A460B4600F0DD
:1006400087F903B000BD0EB540F23341029100219D
:10065000CDE900110A460B4600F07AF903B000BD5F
:1006600000F0004220F00040C10DC0F3160040F43D
:1006700000007F2901DA00207047962903DCC1F1D0
:100680009601C84001E096398840002AF4D04042E3
:10069000704720F00040C10DC0F3160040F4000088
:1006A0007F2901DA00207047962903DCC1F1960109
:1006B000C8407047963988407047C1F30A5210B558
:1006C000C1F3130140F2FF3341F480119A4201DA81
:1006D000002010BD40F233439A42A2F2334203DCC1
:1006E000524200F0CDF810BD904010BD00F0004225
:1006F00030F000400AD0C10D01F56071C0F3160062
:1007000042EA0151C20840071143704700200146E8
:100710007047000030B5041E71F1000404DB4FF097
:100720000044404264EB0101141E73F1000405DB38
:100730001C464FF00043524263EB04038B4208BF58
:10074000824230BD30B5041E71F1000404DB4FF06D
:100750000044404264EB0101141E73F1000405DB08
:100760001C464FF00043524263EB0403994208BF1A
:10077000904230BD01F0004330B421F0004150EA16
:10078000010206D00A0DA2F56072C1F31301002A1E
:1007900002DC30BC00207047440F44EAC104C100B1
:1007A000E01830BC00EBC25000F08CB8002801DB30
:1007B000C0F10040002901DBC1F1004181427047D6
:1007C000002801DBC0F10040002901DBC1F100413C
:1007D0008842704730B50B46014600202022012494
:1007E00009E021FA02F59D4205D303FA02F5491BFF
:1007F00004FA02F52844151EA2F10102F1DC30BD15
:100800002DE9F05F0546002092469B468846064645
:10081000814640241BE0284641464746224600F0D8
:100820002FF853465A46C01A914110D31146184624
:10083000224600F016F82D1A67EB01084F462246B3
:100840000120002100F00DF817EB00094E41201E99
:10085000A4F10104DFDC484631462A464346BDE8A0
:10086000F09F202A04DB203A00FA02F100207047B2
:100870009140C2F1200320FA03F3194390407047DE
:10088000202A04DB203A21FA02F00021704721FAE5
:1008900002F3D040C2F1200291400843194670474C
:1008A000202A06DBCB17203A41FA02F043EAE07334
:1008B00006E041FA02F3D040C2F120029140084321
:1008C000194670470029A8BF7047401C490008BF5F
:1008D00020F00100704710B4B0FA80FC00FA0CF070
:1008E00050EA010404BF10BC704749B1CCF12004A8
:1008F00021FA04F411FA0CF118BF01212143084335
:10090000A3EB0C01CB1D4FEA00614FEA102042BF60
:10091000002010BC704700EBC35010440029A4BF56
:1009200010BC7047401C490008BF20F0010010BCFB
:10093000704710B5141E73F1000408DA401C41F131
:10094000000192185B411A4301D120F0010010BD53
:100950002DE9F04D92469B4611B1B1FA81F202E0C9
:10096000B0FA80F220329046FFF77BFF04460F4634
:1009700040EA0A0041EA0B0153465A46084313D0A5
:10098000114653EA010019D0C8F140025046FFF762
:1009900077FF05460E46504659464246FFF761FF2F
:1009A000084305D0012004E020463946BDE8F08D1B
:1009B0000020054346EAE0762C4337430A98630556
:1009C000E40AA0EB08000022FD0A44EA47540A307A
:1009D00002D500200146E9E7010510196941DDE96A
:1009E000084500196941BDE8F04DA2E770B521F056
:1009F000004303430CD0C1F30A550024D5EB040592
:100A000064EB0403D617AD1AB34102DB00200146A4
:100A100070BD201841EB025170BDC1F30A52C1F301
:100A2000130140F2FF3341F480119A4202DA0020B0
:100A30000146704740F233439A42A2F2334202DC4D
:100A40005242FFF71DBFFFF70CBF0000064C074DD9
:100A500006E0E06840F0010394E80700984710348E
:100A6000AC42F6D3FFF768FB885B0008A85B000880
:100A700070B5C1F30A5201F000450024C1F313011F
:100A800040F2FF3341F480119A4201DA002070BD38
:100A900040F233439A42A2F2334203DC5242FFF760
:100AA000EFFE00E090402C43F1D0404270BD70B5A5
:100AB0008C1810F8015B15F0070301D110F8013B09
:100AC0002A1106D110F8012B03E010F8016B01F890
:100AD000016B5B1EF9D12B0705D40023521E0DD4E8
:100AE00001F8013BFAE710F8013BCB1A921C03E036
:100AF00013F8015B01F8015B521EF9D5A142D8D36E
:100B0000002070BD70B500211648006802F0C4F9DD
:100B10001549086015480068FFF7E8FD21F000411D
:100B200004464FF08042124BFFF70CFE0BD21149E6
:100B30000E480068FFF7A2FB04460F49FFF76CFB65
:100B40000E49086006E000210D48006802F018FB1D
:100B50000A49086000210B48006802F057FA0A4968
:100B6000086070BDB401002094000020A80000209F
:100B7000E17AC43F0000484300803B459C000020D0
:100B8000AC000020B80100209800002010B518E04B
:100B900002F026F800F074F915480168154800685D
:100BA000FFF7E2FA13490860134801681348006828
:100BB000FFF7DAFA1149086011480068401C104933
:100BC00008600F480068B0F5487FE1D300200C4969
:100BD00008600C4907480068FFF750FB05490860AA
:100BE000084906480068FFF749FB0449086010BD42
:100BF000B0010020A000002014020020A40000206A
:100C00008C000020000048442DE9F74F8CB083464B
:100C1000924600F0C7F800F033F955480D99006886
:100C2000FFF7FAFA0746534801683846FFF79CFA7F
:100C300005464FF07E515846FFF7EBFA0646294627
:100C4000FFF7EAFA0446FFF751FDCDE908014A48EB
:100C50000068FFF74BFDCDE9000148480068FFF749
:100C600045FD8046DDE9002304F04AFCCDE904019E
:100C70005846FFF73BFDCDE90201DDE90423FFF70C
:100C8000E2FB064600223E4BFFF7DDFB04463D4AF1
:100C90003D4BFFF74AFCCDE90601DDE90823FFF7EC
:100CA0002BFBCDE90A01FFF765FD324908603748A3
:100CB0000D990068FFF7B0FA089035480168089868
:100CC000FFF752FA07464FF07E515846FFF7A1FA58
:100CD00039460990FFF7A0FA0646FFF707FD0446DC
:100CE0000D4625480068FFF701FDCDE902012948BE
:100CF0000068FFF7FBFCCDE90001DDE9022304F009
:100D0000FFFB06460F465846FFF7F0FC32463B46CF
:100D1000CDE90401FFF797FB0022194BCDE906014D
:100D2000FFF791FB174A184BCDE90801FFF7FDFBD0
:100D300022462B46CDE90A01FFF7DEFA8046FFF78F
:100D400019FD13490860514613480068FFF75EFA21
:100D500005461249FFF792FA0446114801682046F9
:100D6000FFF702FA0E4908600FB0BDE8F08F0000EF
:100D70000C020020180200200402002000020020C3
:100D800000806640182D4454FB21094010020020C9
:100D90001C020020FC010020140200200000484337
:100DA000200200202DE9FC4106236A463B216920F0
:100DB00000F00AFC10B10120BDE8FC819DF80100A3
:100DC0009DF8001040EA012000B2214908809DF8FA
:100DD00003009DF8021040EA012000B21C4948803F
:100DE0009DF805009DF8041040EA012000B2184962
:100DF0008880B1F90000FFF715FC06460022154B6C
:100E0000FFF793FB0446FFF7B5FC13490860104950
:100E1000B1F90200FFF706FC064600220D4BFFF772
:100E200084FB0446FFF7A6FC0C4908600849B1F9A9
:100E30000400FFF7F7FB06460022064BFFF775FBA1
:100E40000446FFF797FC064908600020B4E700005D
:100E5000EC0100200000D040FC0100200002002036
:100E60000402002010B50123044A7521692000F016
:100E7000ABFB08B1012010BD0020FCE7FA01002007
:100E80002DE9FC4106236A464321692000F09CFBC2
:100E900010B10120BDE8FC819DF801009DF8001013
:100EA00040EA012000B2214908809DF803009DF826
:100EB000021040EA012000B21C4948809DF805005C
:100EC0009DF8041040EA012000B218498880B1F969
:100ED0000000FFF7A7FB0646154A164BFFF725FB58
:100EE0000446FFF747FC144908601049B1F90200B5
:100EF000FFF798FB06460E4A0E4BFFF716FB04461B
:100F0000FFF738FC0D4908600849B1F90400FFF704
:100F100089FB0646064A074BFFF707FB0446FFF727
:100F200029FC074908600020B4E70000F401002014
:100F3000FCA9F1D24D6230400C02002010020020CA
:100F400014020020F8B504460D46002000F022FBF4
:100F50000A2004F0B7FBFFF785FF08B10120F8BDB8
:100F600029480078682801D00220F8E78020009006
:100F700001236A466B21692000F088FC08B1032038
:100F8000EDE70A2004F09EFB0020009001236A4652
:100F90006B21692000F07AFC08B10420DFE7012012
:100FA000009001236A466B21692000F06FFC08B1B4
:100FB0000A20D4E71820009001236A461B216920EB
:100FC00000F064FC08B10B20C9E700200090012369
:100FD0006A461C21692000F059FC08B10C20BEE7CC
:100FE0002946204600F03FF808B10D20B7E704EB92
:100FF000D471C1F34F00294600F008F808B10E2063
:10100000ADE70020ABE70000FA01002038B5044648
:101010000D46DDB1BC2C02DD0120009018E0622CF1
:1010200002DD0220009013E02A2C02DD0320009054
:101030000EE0142C02DD0420009009E00A2C02DDF1
:101040000520009004E00620009001E000200090C0
:1010500001236A461A21692000F018FC08B101201A
:1010600038BD0020FCE7F8B504460E466EB14FF4DB
:101070007A75B4F57A7F01DD284604E0042C01DAA4
:10108000042000E0204604460CE04FF4FA55B4F585
:10109000FA5F01DD284604E0202C01DA202000E080
:1010A0002046044695FBF4F0401EC0B20090012398
:1010B0006A461921692000F0E9FB08B10120F8BD5A
:1010C0000020FCE700BFFEE72DE9F05F04460D4677
:1010D0001646384800880A38B0F5004F02DD4FF454
:1010E000004009E0334800880A38002801D5002074
:1010F00002E0304800880A3887B22F4800880A3852
:10110000B0F5004F02DD4FF4004009E02A480088A6
:101110000A38002801D5002002E0274800880A3854
:101120001FFA80F8254800880A38B0F5004F02DD24
:101130004FF4004009E0214800880A38002801D512
:10114000002002E01D4800880A381FFA80F938465E
:10115000FFF763FA83461A4801685846FFF75CF8C0
:101160008246184801685046FEF7FEFF2060404660
:10117000FFF753FA8346144801685846FFF74CF8C6
:101180008246124801685046FEF7EEFF2860484646
:10119000FFF743FA83460E4801685846FFF73CF8CC
:1011A00082460C4801685046FEF7DEFF3060BDE81D
:1011B000F09F0000C6020020C8020020C4020020E8
:1011C000AC020020B8020020B0020020BC020020C7
:1011D000B4020020C002002070472DE9F041024611
:1011E00000250026002000230024002791F803C0DA
:1011F0000CF00F0591F803C00CF0100CBCF1000FBF
:1012000003D091F802C04CEA050591F800C0BCF18A
:10121000000F31D0146800202BE04FF0010C0CFAC5
:1012200000F3B1F800C00CEA03069E4220D183000F
:101230004FF00F0C0CFA03F7BC4305FA03FC4CEA21
:10124000040491F803C0BCF1280F06D14FF0010C43
:101250000CFA00FCC2F814C00AE091F803C0BCF11B
:10126000480F05D14FF0010C0CFA00FCC2F810C079
:10127000401C0828D1D31460B1F800C0BCF1FF0FA6
:1012800034DD546800202EE000F1080C4FF0010816
:1012900008FA0CF3B1F800C00CEA03069E4221D113
:1012A00083004FF00F0C0CFA03F7BC4305FA03FC64
:1012B0004CEA040491F803C0BCF1280F05D100F1F9
:1012C000080C08FA0CF8C2F8148091F803C0BCF1BD
:1012D000480F07D100F1080C4FF0010808FA0CF88C
:1012E000C2F81080401C0828CED35460BDE8F081BD
:1012F0000246002093680B400BB1012000E0002063
:10130000704741617047016170470AB1016100E0B7
:10131000416170472DE9F041804881490268814868
:1013200001F01AFB80487E4902687E48FFF76CFC9A
:101330007E480068FFF7DAF921F0004104460022F8
:101340007B4BFFF7E7F902D2002078490860794823
:101350000068FFF7CBF921F0004104460022744BEE
:10136000FFF7D8F902D2002072490860724801687C
:1013700072480068FEF74AFF714908606A480168D0
:1013800070480068FEF742FF044600F0A5FF6E4972
:1013900008606E496E480068FFF712FA11D36D4974
:1013A0006B480068FFF702FA0BD36B496B48006883
:1013B000FFF706FA05D36A4968480068FFF7F6F9AF
:1013C00006D20020674908606749086067490860DD
:1013D00067480078012802D1FFF794FB1AE06448BF
:1013E0000078022816D163480078401C61490870D3
:1013F00008460078202808D15F48006880F48050B3
:101400005D49086000205B4908705C48007808B1BD
:1014100001F0F6FF5A4954480068FFF7D1F901D2AC
:10142000574809E0574950480068FFF7BFF901D213
:10143000544801E04C4800684B49086050494B480B
:101440000068FFF7BDF901D24D4809E04D49474812
:101450000068FFF7ABF901D24A4801E04348006851
:101460004249086048493F480068FFF7A9F901D29E
:10147000454809E045493B480068FFF797F901D224
:10148000424801E03748006836490860374800683C
:10149000FFF72CF921F000410646FFF70EF984B260
:1014A000002132480068FFF78BF901D2012000E0EB
:1014B00000200546214600F0ABFF2B480068FFF7EF
:1014C00015F921F000410646FFF7F7F884B2002134
:1014D00025480068FFF76AF901D2012000E00020EA
:1014E0000546214601F02CF81E480068FFF7FEF87B
:1014F00021F000410646FFF7E0F885B200211948C7
:101500000068FFF75DF901D2012000E000200446E9
:10151000294601F0AFF8BDE8F0810000A0000020EE
:101520000AD7A33BCDCC4C3DA4000020B401002041
:101530000000D03FB801002020020020BC010020A4
:10154000AC00002014020020A800002000005C4233
:101550001802002000005CC2000070421C02002043
:10156000000070C29C000020980000209400002021
:10157000F8030020B00000200C0C01400004002003
:1015800000007A4400007AC400004844000048C4C7
:1015900000BFFEE710B504460121082001F0B6FEA9
:1015A000C020074908801420C870032088700548AF
:1015B000FFF713FEC0210348FFF7A5FE10BD000092
:1015C00024020020000C01402DE9F04105460F46A1
:1015D00090461E4600F0DCF8002141EA4501C8B201
:1015E00000F0A8F800F010F9012804D100F0EEF89E
:1015F0000120BDE8F081384600F09CF800F004F9C5
:10160000012803D100F0E2F80120F2E700F0C0F871
:10161000012101EB4501C8B200F08CF800F0F4F8AC
:10162000012803D100F0D2F80120E2E700240FE006
:1016300000F014F808F80400701EA04203D1012045
:1016400000F056F802E0002000F052F8601CC4B22E
:10165000B442EDDB00F0BAF80020CAE770B5002410
:1016600080212148FFF74FFE032004F051F880202D
:101670001E4908800420C8701B48FFF7AEFD0320F8
:1016800004F046F8002518E06006040E40211648D4
:10169000FFF737FE032004F03BF840211248FFF724
:1016A00032FE032004F034F880210F48FFF720FEBB
:1016B00000F001000443681CC5B2082DE4DB4021A2
:1016C0000948FFF71EFE032004F022F88020074996
:1016D00008801420C8700448FFF77FFD032004F041
:1016E00017F8204670BD0000000C014024020020C5
:1016F00010B5044640210E48FFF703FE032004F016
:1017000007F8224680210A48FFF7FFFD032003F077
:10171000FFFF40210648FFF7F6FD032003F0F8FF26
:1017200040210348FFF7EDFD032003F0F1FF10BD5A
:10173000000C014070B5054600241CE04021134810
:10174000FFF7DFFD032003F0E3FFC4F1070045FAD4
:1017500000F000F0010280210C48FFF7D6FD0320C5
:1017600003F0D6FF40210948FFF7CDFD032003F029
:10177000CFFF601CC4B2082CE0DB40210348FFF718
:10178000C0FD032003F0C4FF70BD0000000C014049
:1017900010B580210C48FFF7B6FD40210A48FFF73D
:1017A000B2FD032003F0B4FF80210748FFF7A9FD35
:1017B000032003F0ADFF40210348FFF7A2FD032003
:1017C00003F0A6FF10BD0000000C014010B5402141
:1017D0000C48FFF796FD80210A48FFF792FD032091
:1017E00003F096FF40210748FFF78DFD032003F02B
:1017F0008FFF80210348FFF786FD032003F088FF59
:1018000010BD0000000C014010B540211D48FFF73D
:1018100078FD032003F07CFF80211A48FFF773FD59
:10182000032003F075FF40211648FFF76CFD0320ED
:1018300003F06EFF8020144908800420C87011480E
:10184000FFF7CBFC032003F063FF80210D48FFF777
:101850004FFD00F00104032003F05AFF80200A49E5
:1018600008801420C8700748FFF7B7FC032003F076
:101870004FFF40210348FFF744FD032003F048FFDA
:10188000204610BD000C0140240200202DE9F0414B
:1018900005460E4617469846FFF77AFF002141EAB3
:1018A0004501C8B2FFF746FFFFF7AEFF012804D19C
:1018B000FFF78CFF0120BDE8F0813046FFF73AFFCB
:1018C000FFF7A2FF012803D1FFF780FF0120F2E715
:1018D00000240CE0385DFFF72DFFFFF795FF01288E
:1018E00003D1FFF773FF0120E5E7601CC4B2444554
:1018F000F0DBFFF76BFF0020DDE7000010B50446CA
:101900000121082001F002FD4FF4406007490880E2
:101910001420C870032088700548FFF75EFC4FF460
:1019200040610348FFF7EFFC10BD000028020020D3
:10193000000C01402DE9F04105460F4690461E4639
:1019400000F0EAF8002141EA4501C8B200F0B2F81F
:1019500000F026F9012804D100F000F90120BDE8CB
:10196000F081384600F0A6F800F01AF9012803D1FA
:1019700000F0F4F80120F2E700F0CEF8012101EBCD
:101980004501C8B200F096F800F00AF9012803D129
:1019900000F0E4F80120E2E700240FE000F014F882
:1019A00008F80400701EA04203D1012000F05CF88A
:1019B00002E0002000F058F8601CC4B2B442EDDB35
:1019C00000F0CCF80020CAE770B500244FF40061A5
:1019D0002348FFF798FC032003F09AFE4FF40060C1
:1019E000204908800420C8701D48FFF7F6FB03203B
:1019F00003F08EFE00251BE06006040E4FF48061AC
:101A00001748FFF77EFC032003F082FE4FF480614D
:101A10001348FFF778FC032003F07AFE4FF40061CF
:101A20000F48FFF765FC00F001000443681CC5B2D5
:101A3000082DE1DB4FF480610948FFF762FC0320C9
:101A400003F066FE4FF40060064908801420C87059
:101A50000348FFF7C2FB032003F05AFE204670BD87
:101A6000000C01402802002010B504464FF48061AC
:101A70000F48FFF746FC032003F04AFE22464FF4CE
:101A800000610B48FFF741FC032003F041FE4FF4D7
:101A900080610748FFF737FC032003F039FE4FF45D
:101AA00080610348FFF72DFC032003F031FE10BDD9
:101AB000000C014070B5054600241FE04FF4806122
:101AC0001448FFF71EFC032003F022FEC4F10700B8
:101AD00045FA00F000F001024FF400610D48FFF7F5
:101AE00014FC032003F014FE4FF480610948FFF753
:101AF0000AFC032003F00CFE601CC4B2082CDDDBE2
:101B00004FF480610348FFF7FCFB032003F000FE65
:101B100070BD0000000C014010B54FF400610E488C
:101B2000FFF7F1FB4FF480610B48FFF7ECFB03205C
:101B300003F0EEFD4FF400610748FFF7E2FB0320DE
:101B400003F0E6FD4FF480610348FFF7DAFB032062
:101B500003F0DEFD10BD0000000C014010B54FF495
:101B600080610E48FFF7CDFB4FF400610B48FFF793
:101B7000C8FB032003F0CCFD4FF480610748FFF75A
:101B8000C2FB032003F0C4FD4FF400610348FFF7DC
:101B9000BAFB032003F0BCFD10BD0000000C0140A7
:101BA00010B54FF480612148FFF7ABFB032003F031
:101BB000AFFD4FF400611D48FFF7A5FB032003F0C4
:101BC000A7FD4FF480611948FFF79DFB032003F048
:101BD0009FFD4FF40060164908800420C870134828
:101BE000FFF7FBFA032003F093FD4FF400610F4869
:101BF000FFF77EFB00F00104032003F089FD4FF4A2
:101C000000600B4908801420C8700848FFF7E5FA07
:101C1000032003F07DFD4FF480610448FFF771FB62
:101C2000032003F075FD204610BD0000000C0140AC
:101C3000280200202DE9F04105460E461746984639
:101C4000FFF76AFF002141EA4501C8B2FFF732FF02
:101C5000FFF7A6FF012804D1FFF780FF0120BDE8B0
:101C6000F0813046FFF726FFFFF79AFF012803D1E6
:101C7000FFF774FF0120F2E700240CE0385DFFF766
:101C800019FFFFF78DFF012803D1FFF767FF012040
:101C9000E5E7601CC4B24445F0DBFFF75FFF0020BE
:101CA000DDE7000008B50121482001F02FFB4FF4CB
:101CB0004050ADF8000010208DF8030003208DF88F
:101CC000020069460448FFF788FA4FF44051024881
:101CD000FFF719FB08BD0000000C01402DE9F04F93
:101CE00089B081460C466B480068A9EB00096A4838
:101CF0000068241AB9F1000F07D1002C02DD4FF063
:101D00005A0AC3E04FF4877AC0E044B9B9F1000F32
:101D100002DD4FF0000AB9E04FF0B40AB6E0B9F1C5
:101D2000000F24DD002C22DD4846FEF76DFC0390F9
:101D30002046FEF769FC02900399FEF79FFA83465E
:101D4000FEF7D4FC074603F0CBFA0022534BCDE953
:101D50000401FEF778FB524A524BCDE90601FEF72B
:101D6000E4FB0546FEF7A9FC1FFA80FA8EE0B9F104
:101D7000000F2CDA002C2ADDC9F100094846FEF7D5
:101D800043FC01902046FEF73FFC00900199FEF7CE
:101D900075FA8346FEF7AAFCCDE9020103F0A0FA2A
:101DA00000223E4BCDE90401FEF74DFB3C4A3D4B82
:101DB000CDE90601FEF7B9FB05460022374BFEF7D9
:101DC0003FFB0746FEF779FC1FFA80FA5EE0B9F1A7
:101DD000000F2DDA002C2BDAC9F1000964424846C5
:101DE000FEF712FC01902046FEF70EFC00900199D0
:101DF000FEF744FA8346FEF779FCCDE9020103F0D1
:101E00006FFA0022254BCDE90401FEF71CFB0746C3
:101E1000234A244BFEF789FB054600221F4BFEF7A1
:101E20006BFACDE90601FEF748FC1FFA80FA2DE0B7
:101E3000B9F1000F2ADD002C28DA64424846FEF78B
:101E4000E3FB01902046FEF7DFFB00900199FEF7CF
:101E500015FA8346FEF74AFC054603F041FA0022D4
:101E60000E4BCDE90201FEF7EEFA0D4A0D4BCDE91E
:101E70000401FEF75AFB074600220B4BFEF7E0FA7F
:101E8000CDE90601FEF719FC1FFA80FA504609B0A9
:101E9000BDE8F08F640300206803002000806640E6
:101EA0001F85EB51B81E0940008076401CB501200B
:101EB00000F0F4F98DF80000022000F0EFF98DF841
:101EC0000100032000F0EAF98DF80200042000F080
:101ED000E5F98DF80300052000F0E0F98DF8040025
:101EE000062000F0DBF98DF805009DF800000002E7
:101EF00010B99DF8010008B1012000E000203C4924
:101F000008609DF80200000210B99DF8030008B1B6
:101F1000012000E00020374908603748007890B978
:101F20003348006835490860314800683449086022
:101F300030480068334908602E480068324908601C
:101F400001202D4908702A4800682C4909688842F8
:101F500004D9274800682949086009E02448006836
:101F600027490968884203D221480068244908604B
:101F70002048006823490968884204D91D48006840
:101F80002049086009E01B4800681F490968884229
:101F900003D2184800681C490860184800681849AE
:101FA000096808444008194908601648006816493D
:101FB000096808444008164908609DF8022012028A
:101FC00012B99DF803200AB1012200E00022114657
:101FD0009DF80020120212B99DF801200AB10122D9
:101FE00000E000221046FFF779FE0A4908601CBD98
:101FF0007C03002080030020840300206C03002069
:102000007403002070030020780300206403002084
:10201000680300206003002010B500200F4908600D
:102020000F48006820F00F000D4908600D48006857
:1020300040F003000B49086000200B49C1F8BC01C7
:10204000012003F065FB01200449086003F060FBF8
:1020500000200549C1F8B80110BD0000B881214237
:1020600000080140000C01400080214210B5002012
:102070000E4908600E48006820F00F000C49086007
:102080000C48006840F003000A49086001200A4932
:10209000C1F8BC0103F03CFB01200449086003F0D7
:1020A00037FB00200449C1F8B80110BDB8812142B6
:1020B00000080140000C01400080214270B5054637
:1020C00000241748006820F00F00154908601548E3
:1020D000006840F0080013490860002616E0002060
:1020E00011490860012003F013FB01200F49C1F8DA
:1020F000B8016006040E0C487C38006808B1601C0A
:10210000C4B2012003F004FB701CC6B2082EE6DB4B
:1021100015B9FFF7ABFF01E0FFF77EFF204670BD6A
:1021200000080140000C0140B8812142008021429A
:1021300070B504461348006820F00F00114908608C
:102140001148006840F003000F49086000200F4963
:102150000860002513E0E0090C49091D08606006CD
:10216000040E01200A49C1F8B80103F0D1FA002099
:1021700006490860012003F0CBFA681CC5B2082D9F
:10218000E9DB70BD00080140000C0140B88121422C
:102190000080214210B50F48006820F00F000D4963
:1021A00008600D48006840F003000B4908600120FA
:1021B0000A4908600A49C1F8B80103F0A9FA0020E9
:1021C00006490860012003F0A3FA00200449C1F881
:1021D000B80110BD00080140000C0140BC81214243
:1021E0000080214210B50F48006820F00F000D4913
:1021F00008600D48006840F003000B4908600020AB
:102200000A4908600A49C1F8BC01012003F080FABC
:102210000120064908600649C1F8BC0103F078FABC
:1022200010BD000000080140000C0140B8812142AF
:102230000080214210B500241448006820F00F00EF
:10224000124908601248006840F008001049086010
:1022500001201049086003F05BFA01200E49C1F823
:10226000B80103F055FA07E0601CC4B2FA2C03DD94
:10227000FFF7B8FF012010BD06488038006800282D
:10228000F2D10449091F086000BFF4E700080140CB
:10229000000C0140BC8121420080214270B50446FF
:1022A000FFF778FF3820FFF743FFFFF7C3FF204613
:1022B000FFF73EFFFFF7BEFFFFF76CFF3920FFF788
:1022C00037FFFFF7B7FF0020FFF7F8FE0546FFF7DF
:1022D00089FF284670BD00002DE9F0410646002424
:1022E0000025002743484449098840F821604348B5
:1022F000007870BB4048048817E0621E3D4B53F8DD
:1023000022101A4652F82400FEF750FA0BD2394830
:1023100050F82470601E374951F8200041F824001D
:10232000601E41F82070601E84B2002CE5DC32494A
:10233000088800EBD07149102E4A52F82110304A1B
:1023400011602D4800881E2846D101202B490870B5
:1023500042E0FFE7002407E0264850F8240029491E
:1023600041F82400601C84B21F2CF5DB00241BE024
:10237000601C85B214E0234A52F8251052F824005C
:10238000FEF71EFA0AD21F4850F8247050F82500B4
:102390001C4941F82400084640F82570681C85B2A5
:1023A0001F2DE8DB601C84B21E2CE1DB07240AE051
:1023B000144850F8241012480068FDF7D5FE104963
:1023C0000860601C84B2172CF2DB0F490C480068CF
:1023D000FDF754FF0A49086007480088401C1F2188
:1023E00090FBF1F201FB12000349088004480068E9
:1023F000BDE8F0811C04002056010020540100209B
:1024000058010020980400200000784100BFFEE73A
:1024100070B505460C46002C63D0324800888442D3
:1024200015D03C2C09DA3C2090FBF4F0401E2E49DC
:10243000088001202D49088007E000202A490880F3
:102440003C2094FBF0F02949088026480480284865
:10245000008825490988884205DA25480088401CFB
:10246000234908803DE000202149088000F048F819
:1024700020480088204909880844204949571B4AB8
:10248000128801FB02001C49098890FBF1F201FB54
:1024900012001849088008464088174909880844EE
:1024A00016494957114A128801FB0200124909884E
:1024B00090FBF1F201FB12000E494880084680882B
:1024C0000D49098801440D484057084A128800FB0D
:1024D00002100949098890FBF1F201FB120005493D
:1024E000888070BD42020020440200204802002083
:1024F00046020020300200202C020020C0590008B3
:1025000010B50C4800880C4A32F810100B4801F046
:1025100084FC08484088084A32F81010074801F047
:102520007AFC04488088044A32F81010034801F00D
:1025300070FC10BD300200201E0500200004004089
:1025400070B505460C46002C63D0324800888442A2
:1025500015D03C2C09DA3C2090FBF4F0401E2E49AB
:10256000088001202D49088007E000202A490880C2
:102570003C2094FBF0F02949088026480480284834
:10258000008825490988884205DA25480088401CCA
:10259000234908803DE000202149088000F048F8E8
:1025A00020480088204909880844204949571B4A87
:1025B000128801FB02001C49098890FBF1F201FB23
:1025C00012001849088008464088174909880844BD
:1025D00016494957114A128801FB0200124909881D
:1025E00090FBF1F201FB12000E49488008468088FA
:1025F0000D49098801440D484057084A128800FBDC
:1026000002100949098890FBF1F201FB120005490B
:10261000888070BD4A0200204C0200205002002039
:102620004E020020360200202C020020C059000873
:1026300010B50D4800880D4A32F810100C4801F012
:10264000E6FB09484088094A32F810104FF08040F4
:1026500001F0E3FB04488088044A32F810104FF080
:10266000804001F0D8FB10BD360200201E0500207E
:102670000004004070B505460C46002C63D032487B
:102680000088844215D03C2C09DA3C2090FBF4F001
:10269000401E2E49088001202D49088007E00020B7
:1026A0002A4908803C2094FBF0F0294908802648FC
:1026B00004802848008825490988884205DA254889
:1026C0000088401C234908803DE000202149088003
:1026D00000F048F82048008820490988084420492B
:1026E00049571B4A128801FB02001C49098890FBCC
:1026F000F1F201FB1200184908800846408817498A
:102700000988084416494957114A128801FB0200FA
:102710001249098890FBF1F201FB12000E49488032
:10272000084680880D49098801440D484057084AE9
:10273000128800FB02100949098890FBF1F201FBA5
:1027400012000549888070BD52020020540200200A
:1027500058020020560200203C0200202C020020DB
:10276000C059000810B50D4800880D4A32F8101005
:102770000C4801F052FB09484088094A32F8101011
:102780004FF0804001F045FB04488088044A32F84D
:102790001010044801F03FFB10BD00003C02002077
:1027A0001E0500200008004000B589B001210C2062
:1027B00000F0ACFD0121072000F098FD18208DF8F5
:1027C000230003208DF822008020ADF8200008A906
:1027D0005548FEF702FD0320ADF8200008A9534834
:1027E000FEF7FBFC4C20ADF8200008A94E48FEF790
:1027F000F4FC0220ADF8200008A94B48FEF7EDFCE0
:102800004FF44070ADF8200008A94848FEF7E5FCF9
:102810004720ADF814003120ADF818000020ADF8C5
:102820001600ADF81A008DF81C0005A9404801F00B
:10283000F7FA05A94FF0804001F0F2FA05A93D48EA
:1028400001F0EEFA6020ADF804000120ADF80600BA
:102850000020ADF80C00ADF81000ADF80A0001A999
:10286000334801F0CFF90821314801F01DFA01A9E0
:102870002F4801F027FA08212D4801F073FA01A929
:102880002B4801F079FA0821294801F0B3FA01A98F
:10289000274801F061F90821254801F0A9F901A9AB
:1028A0004FF0804001F00EFA0821C80601F05AFAF4
:1028B00001A94FF0804001F05FFA0821C80601F03D
:1028C00099FA01A94FF0804001F09CF90821C8064F
:1028D00001F0EAF901A9174801F0F4F908211548B7
:1028E00001F040FA01A9134801F046FA0821114805
:1028F00001F080FA01210E4801F002F90121880758
:1029000001F0FEF801210B4801F0FAF80121084816
:1029100001F005F90121880701F001F901210548BD
:1029200001F0FDF809B000BD00080140000C0140B5
:10293000000400400008004010B5FFF7E1FDFFF77C
:1029400077FEFFF70FFF10BD10B500F0ADFFFFF7EA
:102950002BFFFFF7F1FF10BD2DE9F74F8CB0834639
:10296000924600F0CFF800F03BF9FFF79FFA574886
:102970000D990068FDF750FC074655480168384638
:10298000FDF7F2FB05464FF07E515846FDF741FC3E
:1029900006462946FDF740FC0446FDF7A7FECDE9B3
:1029A00008014C480068FDF7A1FE804689464A4868
:1029B0000068FDF79BFE42464B46CDE9000102F060
:1029C0009FFDCDE902015846FDF790FE0646DDE980
:1029D0000223FDF738FD0022404BCDE90401FDF74D
:1029E00032FD04463E4A3F4BFDF79FFDCDE906010F
:1029F000DDE90823FDF780FCCDE90A01FDF7BAFE09
:102A00003349086038480D990068FDF705FC814698
:102A1000364801684846FDF7A7FB07464FF07E5150
:102A20005846FDF7F6FB80463946FDF7F5FB0646AE
:102A3000FDF75CFECDE9080126480068FDF756FE6B
:102A4000CDE900012A480068FDF750FE0646DDE9A1
:102A5000002302F055FD8046894626495846FDF779
:102A6000DBFB0646FDF742FE42464B46CDE902013E
:102A7000FDF7E9FC0022194BCDE90401FDF7E3FC69
:102A8000174A184BCDE90601FDF74FFD0446DDE975
:102A90000823FDF731FCCDE90A01FDF76BFE134970
:102AA000086015495046FDF7E9FB054613480168E3
:102AB0002846FDF7AEFB0446114801682046FDF7A5
:102AC00053FB0F4908600FB0BDE8F08FA80100204C
:102AD000B4010020A00100209C010020008066407D
:102AE000182D4454FB210940AC010020B8010020FE
:102AF00098010020000080BF00004843B001002082
:102B0000BC0100202DE9FC4106236A463B216820D8
:102B1000FEF710FF10B10120BDE8FC819DF8010017
:102B20009DF8001040EA012000B2214908809DF87C
:102B300003009DF8021040EA012000B21C494880C1
:102B40009DF805009DF8041040EA012000B21849E4
:102B50008880B1F90000FDF765FD06460022154B9F
:102B6000FDF7E3FC0446FDF705FE13490860104934
:102B7000B1F90200FDF756FD064600220D4BFDF7A8
:102B8000D4FC0446FDF7F6FD0C4908600849B1F98C
:102B90000400FDF747FD06460022064BFDF7C5FC85
:102BA0000446FDF7E7FD064908600020B4E7000091
:102BB000600100200000D040980100209C0100200E
:102BC000A001002010B50123044A75216820FEF7FA
:102BD000B1FE08B1012010BD0020FCE794010020E7
:102BE0002DE9FC4106236A4643216820FEF7A2FE38
:102BF00010B10120BDE8FC819DF801009DF8001096
:102C000040EA012000B2214908809DF803009DF8A8
:102C1000021040EA012000B21C4948809DF80500DE
:102C20009DF8041040EA012000B218498880B1F9EB
:102C30000000FDF7F7FC0646154A164BFDF775FC3C
:102C40000446FDF797FD144908601049B1F90200E8
:102C5000FDF7E8FC06460E4A0E4BFDF766FC0446FF
:102C6000FDF788FD0D4908600849B1F90400FDF73A
:102C7000D9FC0646064A074BFDF757FC0446FDF70C
:102C800079FD074908600020B4E7000068010020D2
:102C9000FCA9F1D24D623040A8010020AC01002017
:102CA000B0010020F8B504460D460020FEF726FED0
:102CB0000A2002F007FDFFF785FF08B10120F8BDEB
:102CC00029480078682801D00220F8E78020009089
:102CD00001236A466B216820FEF7ACFF08B1032090
:102CE000EDE70A2002F0EEFC0020009001236A4686
:102CF0006B216820FEF79EFF08B10420DFE701206A
:102D0000009001236A466B216820FEF793FF08B10B
:102D10000A20D4E71820009001236A461B2168206E
:102D2000FEF788FF08B10B20C9E7002000900123BF
:102D30006A461C216820FEF77DFF08B10C20BEE723
:102D40002946204600F03FF808B10D20B7E704EB14
:102D5000D471C1F34F00294600F008F808B10E20E5
:102D6000ADE70020ABE700009401002038B5044631
:102D70000D46DDB1BC2C02DD0120009018E0622C74
:102D800002DD0220009013E02A2C02DD03200090D7
:102D90000EE0142C02DD0420009009E00A2C02DD74
:102DA0000520009004E00620009001E00020009043
:102DB00001236A461A216820FEF73CFF08B1012072
:102DC00038BD0020FCE7F8B504460E466EB14FF45E
:102DD0007A75B4F57A7F01DD284604E0042C01DA27
:102DE000042000E0204604460CE04FF4FA55B4F508
:102DF000FA5F01DD284604E0202C01DA202000E003
:102E00002046044695FBF4F0401EC0B2009001231A
:102E10006A4619216820FEF70DFF08B10120F8BDB0
:102E20000020FCE77047000070B5002100230F224E
:102E3000C47804B3154C246804F4E064C4F5E06479
:102E4000210AC1F10403CA40447804FA03F18478EA
:102E50001440214309010E4C0678A155047804F072
:102E60001F050124AC4005786D11AD0005F1E0258A
:102E7000C5F8004109E0047804F01F050124AC40C6
:102E8000044D0678761145F8264070BD0CED00E043
:102E900000E400E080E100E02DE9FC5F83468A4623
:102EA00051464A480068FDF781FC09D04748C0F800
:102EB00000A000204649086046490860464908606D
:102EC00051465846FDF7A2F9444908600846016892
:102ED00043480068FDF7A0F9424908603F48006890
:102EE000FDF704FC21F00041044600223E4BFDF7B3
:102EF00029FC03D800203D4908602BE037480068D2
:102F0000FDF7F4FB21F0004104460022384BFDF7A9
:102F100001FC04D84FF07E50344908601AE02F4875
:102F20000068FDF7E3FB21F0004180460022304BB2
:102F3000FDF7E2F900222C4BCDE90001FDF7F5FA8F
:102F4000064600222B4BFDF77BFA0446FDF712FCE8
:102F500026490860214801681E480068FDF704F909
:102F60001C4908602448016820480068FDF754F9AE
:102F70000446184801682046FDF74EF91F490860CD
:102F80001548016815480068FDF740F910490860C8
:102F900012480068104908600D4801681848006828
:102FA000FDF73AF917490860144801680D480068B0
:102FB000FDF7DAF80446134801682046FDF7D4F817
:102FC0001149086008460068BDE8FC9FDC0000204D
:102FD000EC000020E8000020E4000020E0000020D9
:102FE000B4000020F400002000004E40000100204A
:102FF00000003E400000F03FB8000020F800002034
:10300000BC000020FC000020F00000202DE9FC5F47
:1030100083468A4651464A480068FDF7C7FB09D0F7
:103020004748C0F800A000204649086046490860AB
:103030004649086051465846FDF7E8F8444908609B
:103040000846016843480068FDF7E6F84249086011
:103050003F480068FDF74AFB21F00041044600228A
:103060003E4BFDF76FFB03D800203D4908602BE085
:1030700037480068FDF73AFB21F000410446002282
:10308000384BFDF747FB04D84FF07E5034490860B9
:103090001AE02F480068FDF729FB21F00041804627
:1030A0000022304BFDF728F900222C4BCDE900011E
:1030B000FDF73BFA064600222B4BFDF7C1F904460B
:1030C000FDF758FB26490860214801681E48006842
:1030D000FDF74AF81C490860244801682048006848
:1030E000FDF79AF80446184801682046FDF794F861
:1030F0001F4908601548016815480068FDF786F803
:103100001049086012480068104908600D480168BD
:1031100018480068FDF780F81749086014480168EE
:103120000D480068FDF720F8044613480168204662
:10313000FDF71AF81149086008460068BDE8FC9FD1
:103140000401002014010020100100200C010020C7
:1031500008010020C00000201C01002000004E409B
:103160002801002000003E400000F03FC400002085
:1031700020010020C80000202401002018010020A8
:103180002DE9FC5F83468A46514647480068FDF7B3
:103190000DFB09D04448C0F800A000204349086056
:1031A000434908604349086051465846FDF72EF8E8
:1031B000414908600846016840480068FDF72CF85E
:1031C0003F4908603C480068FDF790FA21F0004153
:1031D000044600223B4BFDF7B5FA03D800203A49DC
:1031E00008602BE034480068FDF780FA21F00041C8
:1031F00004460022354BFDF78DFA04D84FF07E507F
:10320000314908601AE02C480068FDF76FFA21F098
:103210000041804600222D4BFDF76EF80022294B1D
:10322000CDE90001FDF781F906460022284BFDF7A4
:1032300007F90446FDF79EFA234908601E48016815
:103240001B480068FCF790FF1949086008460168B0
:1032500020480068FCF7E0FF1F4908601548016836
:1032600015480068FCF7D2FF104908601248006852
:10327000104908600D48016818480068FCF7CCFF49
:1032800017490860144801680D480068FCF76CFF96
:103290000446134801682046FCF766FF11490860A0
:1032A00008460068BDE8FC9F2C0100203C0100207E
:1032B000380100203401002030010020CC00002023
:1032C0004401002000004E405001002000003E401C
:1032D0000000F03FD000002048010020D400002072
:1032E0004C010020400100207047000029B1064A2F
:1032F000D2690243044BDA6104E0034AD269824393
:10330000014BDA61704700000010024029B1064A03
:1033100092690243044B9A6104E0034A9269824332
:10332000014B9A61704700000010024030B5002147
:103330000022002400232D4D6D6805F00C0121B101
:10334000042905D0082923D105E0294D056022E094
:10335000274D05601FE0254D6D6805F47012234D63
:103360006D6805F48034022505EB92421CB9214DAD
:10337000554305600BE01D4D6D6805F400351DB12A
:103380001C4D5543056002E0194D5543056002E0B0
:10339000174D056000BF00BF144D6D6805F0F001CA
:1033A0000909154D6B5C0568DD4045600F4D6D6882
:1033B00005F4E061090A104D6B5C4568DD408560ED
:1033C0000A4D6D6805F46051C90A0B4D6B5C456888
:1033D000DD40C560054D6D6805F44041890B074D22
:1033E0006B5CC568B5FBF3F5056130BD00100240AC
:1033F00000127A0000093D0002040020120400209F
:103400002DE9FF4700F02EF93B4800F06BF93B4AED
:103410003B493C48FDF758FE3B493A480068FDF7F8
:10342000CFF901D2384809E0384936480068FDF73D
:10343000BDF901D2354801E03248006831490860E1
:1034400031492F480068FDF7BBF901D22E4809E049
:103450002E492B480068FDF7A9F901D22B4801E05D
:103460002748006826490860274924480068FDF776
:10347000A7F901D2244809E0244920480068FDF753
:1034800095F901D2214801E01C4800681B490860F9
:1034900008460068FDF72AF904460D4618480068FA
:1034A000FDF724F906460F4616480068FDF71EF999
:1034B000804642460B4616A0CDE90067CDE902459D
:1034C00000F058FF0E48016814480068FFF7E4FC5C
:1034D000134908600B48016812480068FFF796FD21
:1034E000114908600548016810480068FFF748FE68
:1034F0000F490860BDE8FF876666663FD40200207A
:10350000D0020020D802002000007042000070C2EB
:1035100025662C25662C25660D0A0000B4010020C6
:1035200094000020B801002098000020AC0000208A
:103530009C00002070470000FEB505460E460220A4
:103540001B4908701B490870002404E000200DF896
:103550000400601CC4B2092CF8DBAA208DF800001E
:103560008DF80100124800788DF8020011480078AB
:103570008DF803008DF804508DF80560002409E0F3
:103580009DF806001DF804100844C0B28DF806002E
:10359000601CC4B2062CF3DB0D208DF807000A2056
:1035A0008DF8080009226946034800F0BCFEFEBD04
:1035B000EE020020EF020020003801402DE9FF411B
:1035C00005460E4617460120234908700620234968
:1035D0000870002404E000200DF80400601CC4B250
:1035E0000D2CF8DBAA208DF800008DF801001A4898
:1035F00000788DF80200194800788DF80300280A39
:103600008DF80400E8B28DF80500300A8DF8060048
:10361000F0B28DF80700380A8DF80800F8B28DF87E
:103620000900002409E09DF80A001DF80410084470
:10363000C0B28DF80A00601CC4B20A2CF3DB0D2066
:103640008DF80B000A208DF80C000D226946044805
:1036500000F069FEBDE8FF81EE020020EF020020CD
:103660000038014010B5154815490860002114487C
:103670000068FCF7D1FD04461249FCF7CAFD124967
:103680000860124812490860002111480068FCF7E0
:10369000C3FD04460F49FCF7BCFD0F4908600B4809
:1036A0000E49086000210D480068FCF7B5FD04468E
:1036B0000849FCF7AEFD0A49086010BD00005C3BFC
:1036C000AC02002000005CC2B80200200000703B89
:1036D000B0020020000070C2BC020020B402002032
:1036E000C00200202DE9F047044631490888FCF764
:1036F00094FF80464FF07E512046FCF78AFD8146BC
:103700004146FCF789FD06462A480088FCF785FFFC
:1037100080462146FCF780FD07463146FCF724FD34
:103720000546FCF7B6FF2349088021494888FCF785
:1037300074FF80464FF07E512046FCF76AFD8146BB
:103740004146FCF769FD06461B480088FCF765FF0B
:1037500080462146FCF760FD07463146FCF704FD34
:103760000546FCF796FF1449088011498888FCF744
:1037700054FF80464FF07E512046FCF74AFD8146BB
:103780004146FCF749FD06460C480088FCF745FF1A
:1037900080462146FCF740FD07463146FCF7E4FC35
:1037A0000546FCF776FF05490880BDE8F087000074
:1037B000CA020020C6020020C8020020C402002065
:1037C00010B500F001F810BD0CB50020019000907C
:1037D0003348006840F480303149086000BF304809
:1037E000006800F4003000900198401C019000989F
:1037F00018B90198B0F5A06FF1D12948006800F41C
:10380000003010B10120009001E0002000900098ED
:10381000012843D12348006840F010002149086086
:103820000846006820F0030008600846006840F081
:10383000020008601A484068194948600846406814
:1038400048600846406840F4806048600846406828
:1038500020F47C1048600846406840F4E810486056
:103860000846006840F08070086000BF0C4800689F
:1038700000F000700028F9D00948406820F00300EB
:10388000074948600846406840F00200486000BFB1
:103890000348406800F00C000828F9D10CBD000076
:1038A00000100240002002402DE9F0478EB04FF09A
:1038B000000A4FF4966043490880084600880321B7
:1038C00090FBF1F0404908800020404908800846FC
:1038D00000883D49098808443C494880084640889A
:1038E00039490988084439498880002038490880C6
:1038F0000846008834490988084435494880084604
:10390000408831490988084431498880002031497C
:103910000880084600882C49098808442D494880B9
:10392000084640882849098808442A49888000BFF9
:1039300041E024480088FCF786FECDE902010AF147
:103940000100FCF76FFE06460022234BFCF77BFDCF
:10395000CDE90001DDE90223FCF7E7FD00224FF08D
:103960008043CDE90401FCF76EFD04461B4A1C4B65
:10397000FCF769FD804601F081FF0022164BCDE97E
:103980000601FCF7B9FC0022164BCDE90801FCF753
:103990005AFD00224FF08043CDE90A01FCF7C5FD36
:1039A000CDE90C01FCF789FE0F4921F81A000AF154
:1039B00001001FFA80FA034800888245B9DB0EB087
:1039C000BDE8F0872C0200202E02002030020020EB
:1039D000360200203C0200200000F03F182D445425
:1039E000FB210940008048401E050020042808D122
:1039F0004FF0E021096941F004014FF0E02211612C
:103A000007E04FF0E021096921F004014FF0E022C6
:103A1000116170477047000010B51348006840F00E
:103A200001001149086008464068104908400E49E5
:103A30004860084600680E4908400B49086008467F
:103A4000006820F4802008600846406820F4FE00EA
:103A500048604FF41F008860FFF7B2FE4FF000602F
:103A60000449086010BD0000001002400000FFF88B
:103A7000FFFFF6FE08ED00E02DE9F04101211A48B4
:103A800000F059F870B30121174800F045F81748C5
:103A90000078401C1549087008460078042821D198
:103AA00000200870124913480068FCF7B5FB074670
:103AB000FCF7D6FD04B20E490F480068FCF7ACFBDA
:103AC0000746FCF7CDFD05B209490C480068FCF734
:103AD000A3FB0746FCF7C4FD06B222462946304642
:103AE000FFF76CFDBDE8F081000C0040F002002003
:103AF0000000C842BC010020B4010020B801002031
:103B000021B1028842F08002028004E002884FF670
:103B10007F731A4002807047CA430282704721B106
:103B2000028842F00102028004E002884FF6FE7330
:103B30001A400280704730B502460020002300245E
:103B4000158A05EA0103958905EA010413B10CB150
:103B5000012000E0002030BD70B5002400220023C9
:103B6000058C4FF6FE7635400584028C8388048BE5
:103B70004FF68F752C40B51E2C400D882C43751EBA
:103B80002A400D892A434D882A43144DA8420BD060
:103B9000134DA84208D0134DA84205D0124DA8429B
:103BA00002D0124DA84213D14FF6F7752A404D8925
:103BB0002A434FF6FB752A408D882A434FF6FF654E
:103BC0002B404FF6FF552B408D892B43CD892B433E
:103BD00083800483CD888586028470BD002C0140DB
:103BE00000340140004001400044014000480140D1
:103BF0000A460021018B4FF6F773194011430183E8
:103C00007047000070B5002400220023058C4FF699
:103C1000EF7635400584028C8388048B48F6FF7567
:103C20002C404FF6FF452C400D884FF6FF7606EAF4
:103C300005252C434FF6DF752A400D8906EA051548
:103C40002A434D8806EA05152A43154DA84202D09D
:103C5000144DA8421DD14FF67F752A404D894FF66D
:103C6000FF7606EA05152A434FF6BF752A408D8870
:103C700006EA05152A434FF6FF352B404FF2FF7534
:103C80002B408D8906EA85052B43CD8906EA8505FB
:103C90002B4383800483CD880587028470BD000098
:103CA000002C0140003401400A460021018B4FF2F4
:103CB000FF7319404FF6FF7303EA02231943018390
:103CC0007047000070B5002400220023058C4FF6D9
:103CD000FF6635400584028C8388848B4FF68F7590
:103CE0002C404FF6FC752C400D882C434FF6FF55A9
:103CF0002A400D894FF6FF7606EA05252A434D88AE
:103D000006EA05252A43154DA84202D0144DA842C3
:103D10001DD14FF2FF752A404D894FF6FF7606EA16
:103D200005252A434FF6FF352A408D8806EA0525EA
:103D30002A434EF6FF752B404DF6FF752B408D89BB
:103D400006EA05152B43CD8906EA05152B4383802A
:103D50008483CD888587028470BD0000002C0140DB
:103D6000003401400A460021818B4FF6F773194059
:103D7000114381837047000070B5002200230024A6
:103D8000058C4EF6FF7635400584038C8488828B43
:103D900048F6FF752A404FF6FF452A400D884FF63A
:103DA000FF7606EA05252A434DF6FF752B400D895F
:103DB00006EA05352B434D8806EA05352B430B4DA6
:103DC000A84202D00A4DA84208D14BF6FF752C40FC
:103DD0008D894FF6FF7606EA85152C438480828311
:103DE000CD88A0F84050038470BD0000002C014035
:103DF000003401400A460021818B4FF2FF731940C5
:103E00004FF6FF7303EA02231943818370478186CB
:103E100070470187704781877047A0F8401070474E
:103E2000002202881D4B98420ED01D4B98420BD0A9
:103E3000B0F1804F08D01B4B984205D01A4B9842E6
:103E400002D01A4B984204D14FF68F731A404B8818
:103E50001A43174B984207D0164B984204D04FF69E
:103E6000FF431A40CB881A4302808B8883850B88D6
:103E700003850A4B98420BD0094B984208D00E4B51
:103E8000984205D00D4B984202D00D4B984201D17B
:103E90000B7A03860123838270470000002C0140C7
:103EA000003401400004004000080040000C0040C5
:103EB0000010004000140040004001400044014058
:103EC0000048014070B540F225514F4800F065F9B7
:103ED00000282DD04C4800F01BFAC5B20A2D77D12E
:103EE0004A480078401E4A49085C0D28F7D14748E7
:103EF0000078401E062839D108468078012818D15C
:103F000008460079112814D1002040490870404A21
:103F100051799078FFF710FB002404E000203C4921
:103F20000855601CC4B239480078401C8442F5DB57
:103F300068E037488078032864D10020334908704E
:103F40003348007933490870314A51799078FFF746
:103F5000F3FA002404E000202D490855601CC4B287
:103F60002A480078401C8442F5DB4BE02748007863
:103F7000401E0B282DD1012027490870002023491D
:103F80000870234A917A9078FFF7D6FA2048417951
:103F9000007941EA0020214908801D48C1798079D3
:103FA00041EA00201D4948801948417A007A41EAD7
:103FB00000201A498880002404E000201449085594
:103FC000601CC4B211480078401C8442F5DB19E043
:103FD0000FE000200D490870002404E000200C4987
:103FE0000855601CC4B209480078401C8442F5DBC7
:103FF00008E0074805490978455404480078401C02
:104000000249087070BD0000003801400104002022
:1040100024370020F803002000040020CA020020FA
:1040200010B50A2D71D146480078401E4549085CFC
:104030000D287BD142480078401E062834D108461E
:104040008078012813D10846007911280FD100206B
:104050003B490870002404E000203A490855601CE0
:10406000C4B237480078401C8442F5DB16E035487E
:104070008078032812D10020314908703148007936
:1040800031490870002404E000202E490855601CC6
:10409000C4B22B480078401C8442F5DB0622294933
:1040A0002A4800F040F94AE025480078401E0B28D5
:1040B0002CD100202249087022484179007941EA38
:1040C0000020234908801F48C179807941EA0020F7
:1040D0001F4948801B48417A007A41EA00201C4968
:1040E000888008468388428801881AA000F042F937
:1040F000002404E0002013490855601CC4B2104895
:104100000078401C8442F5DB19E00FE000200C49E8
:104110000870002404E000200A490855601CC4B25D
:1041200007480078401C8442F5DB08E00548044954
:104130000978455402480078401C0149087010BDB8
:104140005C03002018260020F803002000480040EF
:10415000CA020020252D356420252D356420252D0B
:1041600035640D0A0000000021B1828942F400523A
:10417000828104E082894DF6FF731A408281704784
:1041800002460020B1F5007F00D100BF13880B402C
:104190000BB1012000E00020704770B502460024FA
:1041A00000230025002040F66A16B14200D100BF6E
:1041B000C1F3421501F01F03012606FA03F3012D96
:1041C00002D19689334006E0022D02D1168A33408F
:1041D00001E0968A33400C12012606FA04F4168890
:1041E000344013B10CB1012000E0002070BDF0B5E7
:1041F0000346002400260025002040F66A17B94235
:1042000000D100BF1846C1F3421401F01F06012778
:1042100007FA06F5012C01D10C3004E0022C01D183
:10422000103000E014301AB107682F43076002E035
:104230000768AF430760F0BD2DE9F04786B005463B
:104240000E460024A24600BFA1460027B08900B157
:1042500000BF2F462C8A4CF6FF700440F0880443C0
:104260002C82AC894EF6F3100440B08831890843A3
:10427000718908430443AC81AC8A4FF6FF40044087
:10428000B0890443AC8201A8FFF750F81F48874269
:1042900002D1DDF810A001E0DDF80CA0A88900F43F
:1042A000004040B10AEBCA0000EB0A103168490037
:1042B000B0FBF1F807E00AEBCA0000EB0A10316826
:1042C0008900B0FBF1F86420B8FBF0F0040120098C
:1042D000642101FB1089A88900F4004040B132201C
:1042E00000EBC900B0FBF1F000F00700044308E068
:1042F000322000EB09106421B0FBF1F000F00F0058
:1043000004432C8106B0BDE8F0870000003801406E
:1043100001468888C0F308007047C1F30802828014
:10432000704700BFFEE72DE9F04107460D461646EF
:10433000002405E0295D384600F00DF8601CC4B289
:10434000B442F7DB00BF40213846FFF719FF0028D1
:10435000F9D0BDE8F08170B504460D4629462046E7
:10436000FFF7DBFF00BF80212046FFF709FF002891
:10437000F9D070BD0FB4054B10B503A9044A0298DB
:1043800000F016FC10BC5DF814FB00005D5700083F
:10439000FC030020490050EAC12018BF04204A0D48
:1043A00018BF40F0010040F2FF72B2EB515F08BF4E
:1043B00040F00200012808BF052070472DE9F74FA3
:1043C000144694B00021C4E902111599079121F017
:1043D0000045C9498D4206DC1599C4E9000117B0B2
:1043E0000020BDE8F08FC549DFF814A3A9423CDDE9
:1043F0000799C44E0029C44FC44A1599534619DD84
:10440000FCF71BF8554506D0C14AC24BFCF715F81E
:10441000C4E900010AE04FF0D352BE4BFCF70DF89F
:1044200032463B46FCF709F8C4E9000117B0012009
:10443000BDE8F08FFBF760FF554506D0B44AB54B99
:10444000FBF75AFFC4E900010AE04FF0D352B14B29
:10445000FBF752FF32463B46FBF74EFFC4E9000133
:1044600017B04FF0FF30BDE8F08FAB49A942159966
:1044700078DB21F0004183468846A84AA84BFBF729
:10448000E2FF0022A74BFBF737FFFCF7F1FA099098
:10449000FCF7C8F806460F469C4A5346FBF7D3FF85
:1044A00043465A46FBF7CCFF80468A46984A994BCA
:1044B00030463946FBF7C7FF2A0D01250B924246CD
:1044C0005346FBF7BDFF032DC4E9000139D00B981B
:1044D000C1F30A51401A05EB45111139814230DA16
:1044E0009148C346784400EB0510CDF80CA00C9021
:1044F000D0E9002330463946FBF7A5FF02460B46BC
:104500000491069058460399FBF797FF80468A4628
:1045100002460B4658460399FBF78FFF049B069A09
:10452000FBF78BFF83460C9803913946D0E90223B1
:104530003046FBF788FF5A46039BFBF77EFF6D1C56
:10454000BDE707980028A2BF099817B0BDE8F08F13
:10455000616881F000416160099817B04042BDE890
:10456000F08FFFE784461598C1F31301C0F30A509A
:10457000A0F2F5304FEA601800F01F06C6F12000E7
:10458000139000200690079041F4801E05206D4690
:1045900076B1664A08EB00017A4452F8213002EB0A
:1045A0008101B3404A68139922FA01F1194305E0E9
:1045B0005F4908EB0002794451F82210A1FB0E2755
:1045C000A1FB0C131A449A4234BF0123002303EBCE
:1045D000070A05EB8003D3E901B70F448F4234BFCC
:1045E0000121002193448B4411B1934502D903E08A
:1045F000934501D2012100E00021C3E901B75144F4
:1046000045F82010011EA0F10100C1DC0298059FB1
:1046100000F10050800F12900298DDE903568000EF
:10462000FCF700F8834628460D91FCF70CF86FF074
:104630001D02FCF7DBF9CDE90E013046FCF703F86B
:104640006FF03D02FCF7D2F980468A463846FBF708
:10465000FAFF6FF05D02FCF7C9F907464246534680
:104660001191FBF749FEDDE90E23FBF745FE5A46A3
:104670000D9BFBF741FE00250E465A4628460D9B32
:10468000FBF7DBFEDDE90E23FBF7D7FE4246534680
:10469000FBF7D3FE3A46119BFBF7D2FEDFF898A05A
:1046A000244A5346FBF7CFFE07468846234A244B4D
:1046B00031462846FBF7C7FE3A464346FBF71CFE49
:1046C000074688464FF0A842534631462846FBF736
:1046D000BAFE3A464346FBF70FFE159A12F0004F1A
:1046E00004D0129A81F0004152421292C4E90001B2
:1046F000129817B0BDE8F08FFB21E93F7CD902404A
:10470000FB21F93F7370032E8A19A33B000040542C
:104710003163621A61B4D03DFB21394183C8C96D50
:10472000305FE43F0000E03FB01500002C150000B2
:104730000E150000182D4454FB21F93D3326A61117
:10474000460B113C2DE9FF4D21F0004807460C4671
:10475000B8F1795F08DAFCF78BF9002801BF002077
:10476000324904B0BDE8F08D3A462346104619465A
:10477000FBF769FE054602462D480E460B4606210C
:10478000784400F05DF82A463346FBF75CFEDDE92D
:10479000022382468B4638462146FBF754FE0446E8
:1047A0000F4652465B4628463146FBF74CFE2246F2
:1047B0003B46FBF742FE07468A464FF0FF3228464B
:1047C0003146FCF713F91B4A90450ADA3A4653463C
:1047D000FBF733FE04B00022BDE8F04D134BFBF7AE
:1047E0002FBE154A4245A8BFA8F500154FF000049A
:1047F000B8BF124D22462B46FBF71FFE06468846E1
:1048000022462B4600200949FBF717FE04460D46B9
:104810003A46534630464146FBF70FFE04B0224667
:104820002B46BDE8F04DFBF70BBE00000000F03F4B
:10483000DC1200003333D33F0000E93F0000D23FD9
:104840002DE9F0414F1E00EBC7010446D1E90001FC
:1048500015461E4637F006020DD02A463346FBF7B2
:10486000F2FD7F1E04EBC703D3E90023FBF744FDF1
:1048700037F00602F1D1022F25D0042F13D0062FD6
:1048800018BFBDE8F0812A463346FBF7DCFDD4E9CA
:104890000A23FBF731FD2A463346FBF7D4FDD4E962
:1048A0000823FBF729FD2A463346FBF7CCFDD4E964
:1048B0000623FBF721FD2A463346FBF7C4FDD4E966
:1048C0000423FBF719FD2A463346FBF7BCFDD4E968
:1048D0000223FBF711FD2A463346FBF7B4FDD4E96A
:1048E0000023BDE8F041FBF707BD00002DE9FF4DB7
:1048F000054621F0004084B00C46B0F1795F0BDA38
:104900002846FFF747FD042808BF00F071F8284645
:1049100008B02146BDE8F08D2A460B461046FBF74D
:1049200092FD06460F462A462346FBF78CFD80463D
:1049300026488A4632463B4605217844FFF780FFE9
:1049400083461098029160B3214A224B404651465B
:10495000FBF779FDCDE900015A4640465146029BDE
:10496000FBF771FD82468846DDE906014FF0FF3214
:10497000FCF73CF852464346FBF75FFD32463B46A8
:10498000FBF761FDDDE90623FBF757FDDDE90023B9
:10499000FBF753FD08B02A462346BDE8F04DFBF770
:1049A0004FBD0B465A4630463946FBF74CFD084A88
:1049B000084BFBF7A1FC42465346FBF744FD08B009
:1049C0002A462346BDE8F04DFBF796BC22120000B4
:1049D000495555555555C5BF0122FCF707B8FBF79A
:1049E0008BBC0022134610461146FBF79EBD00000B
:1049F000024A00201107FBF7F9BF000001FDFFFF8D
:104A000002E008C8121F08C1002AFAD17047704797
:104A1000002001E001C1121F002AFBD170470000F5
:104A20000149086070470000180400202DE9FF5F6D
:104A300082B00021DDE90430020DDDF840B003430F
:104A400018D044F61050A2F2FF32424315141198C8
:104A500001281FD0A5EB0B00401C5FEA000A4FF0B5
:104A600000064E4FDFF83891B046504615D5CAF1D2
:104A7000000413E0119801244AA3012801D16FEA30
:104A80000B010298119AC0E90031C0E9024206B058
:104A9000BDE8F09FCBF10000DFE704460021404A6B
:104AA000491842EB0450CDE9001012E0E00707D0AE
:104AB00032463B4640464946FBF7C5FC80468946A0
:104AC00032463B4610461946FBF7BDFC06460F46EC
:104AD0006410002CEAD1DDE90401DDE90023BAF11C
:104AE000000F06DAFBF7AFFC42464B46FBF7ABFC88
:104AF00005E0FBF71AFD42464B46FBF716FD044660
:104B00000E460022284BFBF71DFE03D84FF0FF3066
:104B1000014607E00022254B20463146FBF7ECFB1F
:104B2000FBF77BFF102409E0002C0ADB0A2200239C
:104B3000FBF766FE039B30321A55641E50EA0102F1
:104B4000F2D1641C039AC4F111031444119A012A8E
:104B500003D0012208430DD10AE0084304D000200D
:104B60004FF0110B119072E7A3EB0B056D1E0DE0DA
:104B70005B4504DD4FF0000205F1010504E003DAB6
:104B80004FF00002A5F10105002AECD0029811991E
:104B9000C0E90231C0E9004579E700000000144097
:104BA0000000F03F300000000000F0430000E03F54
:104BB0002DE9FF4F95B09B468946064600250FE23A
:104BC000252877D100242746F84A0121059400E0E2
:104BD000044316F8013F203B01FA03F01042F7D1DD
:104BE00030782A2811D06FF02F033078A0F13002EE
:104BF000092A16D8059A44F0020402EB820203EB5C
:104C000042021044761C0590EFE759F8042B0592F8
:104C1000002A03DA504244F40054059044F00204A0
:104C2000761C30782E2816D116F8010F44F00404B3
:104C30002A280DD06FF02F023078A0F13003092B15
:104C400009D807EB870302EB4303C718761CF3E789
:104C500059F8047B761C30786C280FD006DC4C2881
:104C600017D068280DD06A2814D104E0742810D019
:104C70007A280FD10DE044F400140AE044F48014C3
:104C800001E044F440147278824202D104F58014A9
:104C9000761C761C307866280BD013DC582877D029
:104CA00009DC002875D04528F6D04628F4D04728DE
:104CB0001AD19DE118E0632835D0642879D06528A1
:104CC00012D195E1702873D008DC6728F1D06928EB
:104CD0006FD06E280DD06F2806D1B5E073282CD088
:104CE000752875D0782874D05A46179990476D1C4E
:104CF00075E1C4F30250022809D003280DD0D9F879
:104D0000001004280DD00D6009F1040967E1D9F8FD
:104D10000010EA17C1E90052F6E7D9F800100D803B
:104D2000F2E70D70F0E719F8041B8DF80010002071
:104D30008DF80100EA46012003E059F804AB4FF07A
:104D4000FF3061074FF0000102D40DE008F10101CE
:104D50008846B9420FDA8045F8DB1AF808100029B6
:104D6000F4D108E008F1010188468142FADB1AF823
:104D700008100029F6D105985B46A0EB08072146EC
:104D80003846179A00F094FA284400EB080507E02B
:104D90004DE029E10DE01AF8010B5A4617999047AA
:104DA000B8F10108F7D25B4621463846179A13E15D
:104DB00042E00A220092C4F302524FF0000A022A93
:104DC00008D059F804CB032A4FEAEC710AD00DE061
:104DD00029E02AE009F1070121F00702F2E802C107
:104DE000914609E00FFA8CFC4FEAEC71042A03D1DA
:104DF0004FFA8CFC4FEAEC71002907DA0A460021D1
:104E0000DCF1000C61EB02012D2202E0220504D549
:104E10002B228DF80420012203E0E20701D020229A
:104E2000F7E7904659E00A2102E010220DE0102138
:104E30004FF0000A00910BE010224FF0000A44F0FE
:104E400004040827009203E008224FF0000A0092B1
:104E5000C4F30252022A05D059F804CB0021032AD8
:104E600008D009E009F1070121F00702F2E802C1C8
:104E7000914605E01FFA8CFC042A01D10CF0FF0CCE
:104E80004FF00008220728D5702806D0009B83F039
:104E9000100353EA0A0305D00EE040228DF80420E7
:104EA000012208E05CEA010206D030228DF80420DD
:104EB0008DF8050002229046009B83F0080353EA18
:104EC0000A030AD15CEA010201D1620705D530224A
:104ED0008DF804204FF001087F1E582804D034A01C
:104EE00003900EA802900DE036A0F9E75346604605
:104EF000009AFBF785FC84460398825C0298401E6A
:104F0000029002705CEA0100F0D1029806A9081A2A
:104F100000F1200A600702D524F4803400E0012764
:104F2000574502DDA7EB0A0000E0002000EB0A0174
:104F3000009005984144401A0590E00306D45B4672
:104F40002146179A059800F0B3F90544002706E0BA
:104F500001A85A46C05D179990476D1C7F1C4745B4
:104F6000F6DBE0030CD55B462146179A059800F066
:104F70009FF9054404E030205A46179990476D1C6C
:104F80000099481E00900029F5DC08E0029802997B
:104F90005A460078491C0291179990476D1CBAF146
:104FA0000001AAF1010AF1DC65E100000928010015
:104FB000303132333435363738396162636465668F
:104FC0000000000030313233343536373839414251
:104FD000434445460000000000F058F90544761CA3
:104FE000307800287FF4ECAD19B02846BDE8F08F8A
:104FF000620700D4062709F1070222F0070CFCE83B
:105000000223E14603F000485FEA080C02D00FF2E9
:10501000702C0DE05FEA045C02D50FF2682C07E00B
:105020005FEAC47C02D00FF2602C01E0AFF2700C9A
:105030004FF0FF3823F00043CDF850C065280CD066
:1050400006DC452809D046281DD047283DD13DE043
:10505000662818D067287ED138E00021112F01DBA7
:10506000112000E0781CCDE9000106A90EA8FFF789
:10507000DDFCDDE90F010E9A03910021009207F19A
:10508000010A04914DE04FF000400097CDE9011076
:1050900006A90EA8FFF7CAFCDDE90F0203920E9BDA
:1050A00011990022DDF80CA00093049211B9791C2B
:1050B00000EB010AB7EB0A0004D4C0F1FF3007F19E
:1050C000010A0490AAEB0700019044E0012F00DAE6
:1050D00001270021112F01DD112000E03846CDE924
:1050E000000106A90EA8FFF7A1FCDDE90F010E9A49
:1050F0000391002104910092BA4621070CD4039930
:10510000514500DA8A46BAF1010F05DD009AAAF18D
:105110000101515C302908D0B84202DA10F1040FC5
:1051200006DA0121CDE9011015E0AAF10101E9E754
:10513000002805DC049901440491AAEB000102E077
:10514000411C514500DD8A460499401A401C0190DB
:105150004FF000400290200704D40198504501DB35
:10516000CDF8048000208DF84F0002980DF14F0714
:10517000B0F1004F25D02B200E9002984FF002087E
:1051800000280CDA404202902D200E9007E00A2100
:105190000298FBF71FFB3031029007F8011DB8F1B0
:1051A0000001A8F10108F2DC02980028EFD1791E75
:1051B0000E980870307800F0200040F0450007F8A5
:1051C000020D12A8C01B00F107081498007800B166
:1051D000012000EB0A01019801EBE07105984144C0
:1051E000401A401E0590E00306D45B462146179AFC
:1051F000059800F05DF805441498007818B15A46F7
:10520000179990476D1CE00324D55B462146179AF9
:10521000059800F04DF805441CE00498002807DBD1
:10522000DDE90301884203DD0098405C179901E045
:10523000179930205A469047049805F10105401C03
:1052400004900198401E019004D12E205A461799CF
:1052500090476D1CBAF10001AAF1010ADDDC05E0FE
:1052600017F8010B5A46179990476D1CB8F10001C9
:10527000A8F10108F4DC5B462146179A0598ABE6D5
:105280002D0000002B000000200000002DE9F0415F
:10529000044600251E461746880404D405E0394616
:1052A0002020B0476D1C641EF9D52846BDE8F0816A
:1052B0002DE9F041044600251E469046C80301D55D
:1052C000302700E02027880404D505E04146384611
:1052D000B0476D1C641EF9D52846BDE8F08100007A
:1052E0002DE9F84F04460D4621F000400091734926
:1052F000814211DC7249884201DC06D12CB1204682
:105300002946BDE8F84FFFF767BB6E48002DCCBFBC
:105310006D496E49BDE8F88F6D49814211DD6D49D7
:105320008142D8BF4FF0FF366DDD20462946FFF79A
:1053300031F8042808BFFFF75BFB20462946BDE88B
:10534000F88F6549654F25F00045814233DD64499A
:10535000814219DD002632464FF08043204629461F
:10536000FAF7CAFF80468A46012220462946FBF703
:105370003DFB00223B46FBF760F842465346FBF7F5
:10538000D4F804460D463EE001260022BA463B46CC
:1053900020462946FAF7B0FF80460F4600225346C2
:1053A00020462946FBF749F842463B46FBF7BDF845
:1053B00004460D4627E04B4981421BDDDFF828A15A
:1053C00002260022534620462946FBF73CF80022DD
:1053D0003B46FAF791FF80460F460022534620468F
:1053E0002946FBF72AF842463B46FBF79EF804465F
:1053F0000D4608E0032622462B4600203B49FBF7DA
:1054000094F804460D4622462B4610461946FBF7F3
:105410001AF88B46824602460B46FBF714F80746FD
:105420000246334888460B4606217844FFF708FABF
:1054300052465B46FBF707F882462E488B463A46B3
:10544000434605217844FFF7FBF93A464346FAF70D
:10545000FAFF02460B46002E504659460CDAFAF780
:105460004BFF22462B46FAF7EEFF01B022462B46B1
:10547000BDE8F04FFAF7E4BFFAF73EFF22462B46AD
:10548000FAF7E1FF1C4A7A4402EBC603D3E9002392
:10549000FAF7D3FF22462B46FAF7CFFF174A7A4492
:1054A00002EBC603D3E90023FAF7CAFF009A002AE9
:1054B000B8BF81F00041BDE8F88F00000000104443
:1054C0000000F07F182D4454FB21F93FFB21F9BF68
:1054D0000000DC3F0000203E0000F33F0000F03FF2
:1054E0000000E63F008003400000F83F0000F0BFEE
:1054F00002060000C00500005E0500002605000051
:105500002DE9F04D9446CCF1000423F000464CEA1E
:105510000404524F46EAD4749A46884621F0004269
:10552000BC4206D8454240EA050442EAD474BC4273
:1055300004D9BDE8F04D6246FFF751BAAAF14055D3
:10554000A5F17F6555EA0C040BD0022404EAAA7485
:10555000434DDFF810E144EAD87452EA000B04D05E
:105560000CE0BDE8F04DFFF7BBBE002C14BF012CD2
:10557000BDE8F08D022C30D0032C32D056EA0C0B53
:105580000AD0BE4220D1BA4209D126F0804622F08C
:1055900080423346114617E000291ADB25E0DFF888
:1055A000C8B0FB44002C04BFDBE90001BDE8F08D6E
:1055B000012C02BFDBE9000181F00041BDE8F08D64
:1055C000022C0AD0032C0CD0BA4212D1B8F1000F31
:1055D0000BDA23482549BDE8F08D28462449BDE86B
:1055E000F08D28467146BDE8F08D1D482149BDE883
:1055F000F08D921B12153C2AC4BF19481D490EDCC0
:10560000BAF1000FBEBF12F13C0F0020014606DBCD
:105610006246FAF78AFF21F00041FFF761FE002C95
:1056200008BFBDE8F08D012C04BF81F00041BDE84A
:10563000F08D114A114B022C07D0FAF7FEFE2A46D4
:10564000BDE8F04D0A4BFAF7F8BEFAF7F6FE2A4627
:10565000BDE8F04D064BFAF7F3BE00000000F07F06
:10566000182D4454FB2109C0EA040000FB21F9BFB6
:10567000FB210940FB21F93F075C143326A6A13C1E
:1056800010B56FF00400FEF7B1F90A4800680A4946
:10569000B0FBF1F0094908700846007800EB4001C2
:1056A000C1EBC0104FF6FF7101EAC0000449088049
:1056B00010BD00000000002000127A0086030020C8
:1056C000880300200146114A12884A434FF0E02324
:1056D0005A6100229A611A46126942F001021A6167
:1056E00000BF4FF0E022106900F001021AB100F48F
:1056F0008032002AF5D04FF0E022126922F0010238
:105700004FF0E0231A6100229A617047880300205D
:105710000146114A12784A434FF0E0235A610022B1
:105720009A611A46126942F001021A6100BF4FF0F5
:10573000E022106900F001021AB100F48032002A60
:10574000F5D04FF0E022126922F001024FF0E02381
:105750001A6100229A6170478603002000BF054A43
:10576000128802F04002002AF9D0C2B2014B1B1D80
:105770001A807047003801404FF4165000F0CEF800
:10578000FFF77EFFFCF78EFA02E0C820FFF79AFFD2
:1057900001213220FBF7D6FB0028F6D102E0C82019
:1057A000FFF790FF01213220FDF77CFA0028F6D1A7
:1057B000FDF7CAF8FBF7EAF900F004F801E0FBF79F
:1057C000A9FDFCE770B52648264902682648FDF782
:1057D000C3F826480068FAF789FF21F00041044623
:1057E0000022234BFAF7AEFF0DD200211F480068BC
:1057F000FAF7DCFF01D2012000E000200446782106
:10580000FCF79EFE2AE01B480068FAF76FFF21F0C4
:10581000004104460022164BFAF794FF0DD20021F6
:1058200014480068FAF7CCFF01D2012000E0002004
:1058300004467821FCF7ECFD10E00F480068401C9E
:105840000D49086008460068C82807D900210846A5
:10585000FCF7DEFD00210846FCF772FE70BD00007B
:10586000A00000200AD7A33BCDCC4C3DB8010020BE
:105870000000F03FB40100208800002000B5254B57
:1058800021F0004287B09A4203DC002213460092C6
:105890002BE0214B9A4208D140B94FF00100FFF7AD
:1058A000BFF8FFF79EF807B000BD03DBFFF794F8E1
:1058B00007B000BD02AAFEF781FD10F003014FF012
:1058C00001000DD0012914D002291AD00DF1080CC5
:1058D0009CE80F00FEF736FF07B081F0004100BDE5
:1058E0000DF1080C00909CE80F00FEF7FFFF07B0D9
:1058F00000BD0DF1080C9CE80F00FEF723FF07B078
:1059000000BD0DF1080C00909CE80F00FEF7EEFFC3
:10591000E2E70000FB21E93F0000F07F10B586B010
:105920000446012144F20400FDF7F0FC4FF400703E
:10593000ADF8140003208DF8160018208DF817001C
:1059400005A91D48FBF749FC4FF48060ADF8140031
:1059500004208DF8170005A91748FBF73EFC252009
:105960008DF8000000208DF8010003208DF8020062
:1059700001208DF803006846FDF756FA01940020D7
:10598000ADF80800ADF80A00ADF80C00ADF8100055
:105990000C20ADF80E0001A90848FEF74DFC0122CD
:1059A00040F225510548FEF722FC01210348FEF78D
:1059B000DBFB06B010BD00000008014000380140CC
:1059C000FF010000000000004FBB610567ACDD3F38
:1059D000182D4454FB21E93F9BF681D20B73EF3F16
:1059E000182D4454FB21F93FE2652F227F2B7A3C8E
:1059F000075C143326A6813CBDCBF07A8807703C47
:105A0000075C143326A6913CC4EB98999999C9BFB9
:105A1000711623FEC671BCBF6D9A74AFF2B0B3BFEE
:105A20009AFDDE522DDEADBF2F6C6A2C44B4A2BFAE
:105A30000D5555555555D53FFF8300922449C23F1A
:105A40006E204CC5CD45B73F513DD0A0660DB13F4E
:105A5000EB0D76244B7BA93F11DA22E33AAD903F60
:105A60004C5555555555A53F7751C1166CC156BF7C
:105A70009015CB19A001FA3EAD529C804F7E92BE8C
:105A8000C4B1B4BD9EEE213ED43888BEE9FAA8BDAB
:105A9000000000000000000000004054FB21F93F1E
:105AA0003163621A61B4D03D0000601A61B4D03D28
:105AB0007370032E8A19A33B0000002E8A19A33BA2
:105AC000C14920259A837B390000000000000000B6
:105AD0006E83F9A22915444ED15727FCC0DD34F559
:105AE000999562DB4190433CAB6351FE61C5BBDEDF
:105AF0003A6E24B7E0D24D42EA2E49061C92D109F3
:105B00001CEB1DFE3EA729B1F53582E88444BB2E6F
:105B100026709CE9417E5FB439D69139F4395383BC
:105B20008B5F849C3B28F9BDFF97F81F0F9805DE1B
:105B30008B112FEF1F6D0A5ACF7E366DB709CB2719
:105B4000663F464F2DEA5F9EC7BA27757BF1E5EBAE
:105B5000F739073DEA92528AB15FFB6B085D8D1FF2
:105B6000A6F810111111813FD561C119A0012ABFFA
:105B70007DFEB157E31DC73EEB9C2B8AE6E55ABE7E
:105B80007CD5CF5A3AD9E53DA85B0008000000203B
:105B90001C040000AE0A0008E85B00081C0400209A
:105BA0001C370000104A00081184A24A0400091A98
:105BB000010203040607080963B442CB20410C012B
:105BC00070098688098ABC09565801680996C00977
:105BD0008298095084CA010E2C020304046009064D
:085BE000070809020406080091
:0400000508000131BD
:00000001FF
