Component: ARM Compiler 5.06 update 4 (build 422) Tool: armlink [4d35d2]

==============================================================================

Section Cross References

    main.o(i.main) refers to usart.o(i.uart_init) for uart_init
    main.o(i.main) refers to delay.o(i.delay_init) for delay_init
    main.o(i.main) refers to led.o(i.LED_Init) for LED_Init
    main.o(i.main) refers to delay.o(i.delay_ms) for delay_ms
    main.o(i.main) refers to boardmpu.o(i.BoardMpu_Init) for BoardMpu_Init
    main.o(i.main) refers to mpu6050.o(i.Mpu6050_Init) for Mpu6050_Init
    main.o(i.main) refers to motor.o(i.Motor_Init) for Motor_Init
    main.o(i.main) refers to gimbalcontrol.o(i.BiasInit) for BiasInit
    main.o(i.main) refers to gimbalcontrol.o(i.positionInit) for positionInit
    main.o(i.main) refers to gimbalcontrol.o(i.GimbalControl) for GimbalControl
    system_stm32f10x.o(i.SetSysClock) refers to system_stm32f10x.o(i.SetSysClockTo72) for SetSysClockTo72
    system_stm32f10x.o(i.SystemCoreClockUpdate) refers to system_stm32f10x.o(.data) for SystemCoreClock
    system_stm32f10x.o(i.SystemInit) refers to system_stm32f10x.o(i.SetSysClock) for SetSysClock
    gimbalcontrol.o(i.AutoMode) refers to pid.o(i.PID_Motor0) for PID_Motor0
    gimbalcontrol.o(i.AutoMode) refers to f2d.o(.text) for __aeabi_f2d
    gimbalcontrol.o(i.AutoMode) refers to cdrcmple.o(.text) for __aeabi_cdrcmple
    gimbalcontrol.o(i.AutoMode) refers to fdiv.o(.text) for __aeabi_fdiv
    gimbalcontrol.o(i.AutoMode) refers to fmul.o(.text) for __aeabi_fmul
==============================================================================

Removing Unused input sections from the image.

    Removing main.o(.bss), (4344 bytes).
    Removing main.o(.constdata), (2 bytes).
    Removing main.o(.data), (82 bytes).
    Removing system_stm32f10x.o(i.SystemCoreClockUpdate), (164 bytes).
    Removing gimbalcontrol.o(.bss), (4344 bytes).
    Removing gimbalcontrol.o(.constdata), (2 bytes).
    Removing kalman.o(i.Angle_Calcu), (944 bytes).
    Removing kalman.o(i.Erjielvbo), (272 bytes).
    Removing kalman.o(i.KalmanFilter), (184 bytes).
    Removing kalman.o(i.Kalman_Filter_X), (788 bytes).
    Removing kalman.o(i.Kalman_Filter_Y), (788 bytes).
    Removing kalman.o(i.Kalman_Filter_Z), (788 bytes).
    Removing kalman.o(i.erjiehubu_P), (240 bytes).
    Removing kalman.o(i.yijiehubu_P), (104 bytes).
    Removing kalman.o(i.yijiehubu_R), (164 bytes).
    Removing kalman.o(.bss), (16 bytes).
    Removing kalman.o(.data), (176 bytes).
    Removing mpu6050.o(i.Mpu6050_GetTempData), (108 bytes).
==============================================================================

Image Symbol Table

    Local Symbols

    Symbol Name                              Value     Ov Type        Size  Object(Section)

    ../clib/../cmprslib/zerorunl2.c          0x00000000   Number         0  __dczerorl2.o ABSOLUTE
    ../clib/microlib/division.c              0x00000000   Number         0  uidiv.o ABSOLUTE
    ../clib/microlib/division.c              0x00000000   Number         0  uldiv.o ABSOLUTE
    ../clib/microlib/errno.c                 0x00000000   Number         0  errno.o ABSOLUTE
    ../clib/microlib/init/entry.s            0x00000000   Number         0  entry7a.o ABSOLUTE
    ../clib/microlib/init/entry.s            0x00000000   Number         0  entry2.o ABSOLUTE
    ../clib/microlib/init/entry.s            0x00000000   Number         0  entry5.o ABSOLUTE
    ../clib/microlib/init/entry.s            0x00000000   Number         0  entry.o ABSOLUTE
    ../clib/microlib/init/entry.s            0x00000000   Number         0  entry10b.o ABSOLUTE
    ../clib/microlib/init/entry.s            0x00000000   Number         0  entry11a.o ABSOLUTE
    ../clib/microlib/init/entry.s            0x00000000   Number         0  entry10a.o ABSOLUTE
    ../clib/microlib/init/entry.s            0x00000000   Number         0  entry11b.o ABSOLUTE
    ../clib/microlib/init/entry.s            0x00000000   Number         0  entry9b.o ABSOLUTE
    ../clib/microlib/init/entry.s            0x00000000   Number         0  entry7b.o ABSOLUTE
    ../clib/microlib/init/entry.s            0x00000000   Number         0  entry9a.o ABSOLUTE
    ../clib/microlib/init/entry.s            0x00000000   Number         0  entry8b.o ABSOLUTE
    ../clib/microlib/init/entry.s            0x00000000   Number         0  entry8a.o ABSOLUTE
    ../clib/microlib/longlong.c              0x00000000   Number         0  llshl.o ABSOLUTE
    ../clib/microlib/longlong.c              0x00000000   Number         0  llsshr.o ABSOLUTE
    ../clib/microlib/longlong.c              0x00000000   Number         0  llushr.o ABSOLUTE
    ../clib/microlib/printf/printf.c         0x00000000   Number         0  printfb.o ABSOLUTE
    ../clib/microlib/printf/printf.c         0x00000000   Number         0  printf6.o ABSOLUTE
    ../clib/microlib/printf/printf.c         0x00000000   Number         0  printfa.o ABSOLUTE
    ../clib/microlib/printf/printf.c         0x00000000   Number         0  printf8.o ABSOLUTE
    ../clib/microlib/printf/printf.c         0x00000000   Number         0  printf7.o ABSOLUTE
    ../clib/microlib/printf/printf.c         0x00000000   Number         0  printf5.o ABSOLUTE
    ../clib/microlib/printf/printf.c         0x00000000   Number         0  printf4.o ABSOLUTE
    ../clib/microlib/printf/printf.c         0x00000000   Number         0  printf3.o ABSOLUTE
    ../clib/microlib/printf/printf.c         0x00000000   Number         0  printf2.o ABSOLUTE
    ../clib/microlib/printf/printf.c         0x00000000   Number         0  printf1.o ABSOLUTE
    ../clib/microlib/printf/printf.c         0x00000000   Number         0  printf0.o ABSOLUTE
    ../clib/microlib/printf/stubs.s          0x00000000   Number         0  stubs.o ABSOLUTE
    ../clib/microlib/stubs.s                 0x00000000   Number         0  iusefp.o ABSOLUTE
    ../clib/microlib/stubs.s                 0x00000000   Number         0  useno.o ABSOLUTE
    ../fplib/microlib/d2f.c                  0x00000000   Number         0  d2f.o ABSOLUTE
    ../fplib/microlib/f2d.c                  0x00000000   Number         0  f2d.o ABSOLUTE
    ../fplib/microlib/fpadd.c                0x00000000   Number         0  fadd.o ABSOLUTE
    ../fplib/microlib/fpadd.c                0x00000000   Number         0  dadd.o ABSOLUTE
    ../fplib/microlib/fpdiv.c                0x00000000   Number         0  fdiv.o ABSOLUTE
    ../fplib/microlib/fpdiv.c                0x00000000   Number         0  ddiv.o ABSOLUTE
    ../fplib/microlib/fpepilogue.c           0x00000000   Number         0  fepilogue.o ABSOLUTE
    ../fplib/microlib/fpepilogue.c           0x00000000   Number         0  depilogue.o ABSOLUTE
    ../fplib/microlib/fpfix.c                0x00000000   Number         0  dfixui.o ABSOLUTE
    ../fplib/microlib/fpfix.c                0x00000000   Number         0  ffixui.o ABSOLUTE
    ../fplib/microlib/fpfix.c                0x00000000   Number         0  ffixi.o ABSOLUTE
    ../fplib/microlib/fpfix.c                0x00000000   Number         0  dfixi.o ABSOLUTE
    ../fplib/microlib/fpfix.c                0x00000000   Number         0  dfixul.o ABSOLUTE
    ../fplib/microlib/fpflt.c                0x00000000   Number         0  fflti.o ABSOLUTE
    ../fplib/microlib/fpflt.c                0x00000000   Number         0  ffltui.o ABSOLUTE
    ../fplib/microlib/fpflt.c                0x00000000   Number         0  dflti.o ABSOLUTE
    ../fplib/microlib/fpflt.c                0x00000000   Number         0  dfltui.o ABSOLUTE
    ../fplib/microlib/fpmul.c                0x00000000   Number         0  dmul.o ABSOLUTE
    ../fplib/microlib/fpmul.c                0x00000000   Number         0  fmul.o ABSOLUTE
    ../fplib/microlib/fpscalb.c              0x00000000   Number         0  dscalb.o ABSOLUTE
    ../mathlib/atan.c                        0x00000000   Number         0  atan.o ABSOLUTE
    ../mathlib/atan.c                        0x00000000   Number         0  atan_x.o ABSOLUTE
    ../mathlib/atan2.c                       0x00000000   Number         0  atan2_x.o ABSOLUTE
    ../mathlib/atan2.c                       0x00000000   Number         0  atan2.o ABSOLUTE
    ../mathlib/cos_i.c                       0x00000000   Number         0  cos_i.o ABSOLUTE
    ../mathlib/dunder.c                      0x00000000   Number         0  dunder.o ABSOLUTE
    ../mathlib/fpclassify.c                  0x00000000   Number         0  fpclassify.o ABSOLUTE
    ../mathlib/poly.c                        0x00000000   Number         0  poly.o ABSOLUTE
    ../mathlib/qnan.c                        0x00000000   Number         0  qnan.o ABSOLUTE
    ../mathlib/rred.c                        0x00000000   Number         0  rred.o ABSOLUTE
    ../mathlib/sin.c                         0x00000000   Number         0  sin.o ABSOLUTE
    ../mathlib/sin.c                         0x00000000   Number         0  sin_x.o ABSOLUTE
    ../mathlib/sin_i.c                       0x00000000   Number         0  sin_i_x.o ABSOLUTE
    ../mathlib/sin_i.c                       0x00000000   Number         0  sin_i.o ABSOLUTE
    ..\CORE\core_cm3.c                       0x00000000   Number         0  core_cm3.o ABSOLUTE
    ..\CORE\startup_stm32f10x_hd.s           0x00000000   Number         0  startup_stm32f10x_hd.o ABSOLUTE
    ..\HARDWARE\AS14TTL\as14ttl.c            0x00000000   Number         0  as14ttl.o ABSOLUTE
    ..\HARDWARE\BOARDMPU\boardmpu.c          0x00000000   Number         0  boardmpu.o ABSOLUTE
    ..\HARDWARE\BOARDMPU\boardmpui2c.c       0x00000000   Number         0  boardmpui2c.o ABSOLUTE
    ..\HARDWARE\LED\led.c                    0x00000000   Number         0  led.o ABSOLUTE
    ..\HARDWARE\MAG3110\mag3110.c            0x00000000   Number         0  mag3110.o ABSOLUTE
    ..\HARDWARE\MAG3110\magi2c.c             0x00000000   Number         0  magi2c.o ABSOLUTE
    ..\HARDWARE\MPU6050\mpu6050.c            0x00000000   Number         0  mpu6050.o ABSOLUTE
    ..\HARDWARE\MPU6050\mpui2c.c             0x00000000   Number         0  mpui2c.o ABSOLUTE
    ..\HARDWARE\REPORT\tim5message.c         0x00000000   Number         0  tim5message.o ABSOLUTE
    ..\HARDWARE\USART3\usart3.c              0x00000000   Number         0  usart3.o ABSOLUTE
    ..\HARDWARE\motor\motor.c                0x00000000   Number         0  motor.o ABSOLUTE
    ..\STM32F10x_FWLib\src\misc.c            0x00000000   Number         0  misc.o ABSOLUTE
    ..\STM32F10x_FWLib\src\stm32f10x_fsmc.c  0x00000000   Number         0  stm32f10x_fsmc.o ABSOLUTE
    ..\STM32F10x_FWLib\src\stm32f10x_gpio.c  0x00000000   Number         0  stm32f10x_gpio.o ABSOLUTE
    ..\STM32F10x_FWLib\src\stm32f10x_rcc.c   0x00000000   Number         0  stm32f10x_rcc.o ABSOLUTE
    ..\STM32F10x_FWLib\src\stm32f10x_tim.c   0x00000000   Number         0  stm32f10x_tim.o ABSOLUTE
    ..\STM32F10x_FWLib\src\stm32f10x_usart.c 0x00000000   Number         0  stm32f10x_usart.o ABSOLUTE
    ..\SYSTEM\delay\delay.c                  0x00000000   Number         0  delay.o ABSOLUTE
    ..\SYSTEM\sys\sys.c                      0x00000000   Number         0  sys.o ABSOLUTE
    ..\SYSTEM\usart\usart.c                  0x00000000   Number         0  usart.o ABSOLUTE
    ..\\CORE\\core_cm3.c                     0x00000000   Number         0  core_cm3.o ABSOLUTE
    ..\\SYSTEM\\sys\\sys.c                   0x00000000   Number         0  sys.o ABSOLUTE
    cdcmple.s                                0x00000000   Number         0  cdcmple.o ABSOLUTE
    cdrcmple.s                               0x00000000   Number         0  cdrcmple.o ABSOLUTE
    cfcmple.s                                0x00000000   Number         0  cfcmple.o ABSOLUTE
    cfrcmple.s                               0x00000000   Number         0  cfrcmple.o ABSOLUTE
    dc.s                                     0x00000000   Number         0  dc.o ABSOLUTE
    gimbalcontrol.c                          0x00000000   Number         0  gimbalcontrol.o ABSOLUTE
    handlers.s                               0x00000000   Number         0  handlers.o ABSOLUTE
    init.s                                   0x00000000   Number         0  init.o ABSOLUTE
    kalman.c                                 0x00000000   Number         0  kalman.o ABSOLUTE
    main.c                                   0x00000000   Number         0  main.o ABSOLUTE
    pid.c                                    0x00000000   Number         0  pid.o ABSOLUTE
    report.c                                 0x00000000   Number         0  report.o ABSOLUTE
    stm32f10x_it.c                           0x00000000   Number         0  stm32f10x_it.o ABSOLUTE
    system_stm32f10x.c                       0x00000000   Number         0  system_stm32f10x.o ABSOLUTE
    RESET                                    0x08000000   Section      304  startup_stm32f10x_hd.o(RESET)
    .ARM.Collect$$$$00000000                 0x08000130   Section        0  entry.o(.ARM.Collect$$$$00000000)
    .ARM.Collect$$$$00000001                 0x08000130   Section        4  entry2.o(.ARM.Collect$$$$00000001)
    .ARM.Collect$$$$00000004                 0x08000134   Section        4  entry5.o(.ARM.Collect$$$$00000004)
    .ARM.Collect$$$$00000008                 0x08000138   Section        0  entry7b.o(.ARM.Collect$$$$00000008)
    .ARM.Collect$$$$0000000A                 0x08000138   Section        0  entry8b.o(.ARM.Collect$$$$0000000A)
    .ARM.Collect$$$$0000000B                 0x08000138   Section        8  entry9a.o(.ARM.Collect$$$$0000000B)
    .ARM.Collect$$$$0000000D                 0x08000140   Section        0  entry10a.o(.ARM.Collect$$$$0000000D)
    .ARM.Collect$$$$0000000F                 0x08000140   Section        0  entry11a.o(.ARM.Collect$$$$0000000F)
    .ARM.Collect$$$$00002712                 0x08000140   Section        4  entry2.o(.ARM.Collect$$$$00002712)
    __lit__00000000                          0x08000140   Data           4  entry2.o(.ARM.Collect$$$$00002712)
    .text                                    0x08000144   Section       36  startup_stm32f10x_hd.o(.text)
    .text                                    0x08000168   Section        0  fadd.o(.text)
    .text                                    0x08000218   Section        0  fmul.o(.text)
    .text                                    0x0800027c   Section        0  fdiv.o(.text)
    .text                                    0x080002f8   Section        0  dadd.o(.text)
    .text                                    0x08000446   Section        0  dmul.o(.text)
    .text                                    0x0800052a   Section        0  ddiv.o(.text)
    .text                                    0x08000608   Section        0  fflti.o(.text)
    .text                                    0x0800061a   Section        0  ffltui.o(.text)
    .text                                    0x08000624   Section        0  dflti.o(.text)
    .text                                    0x08000646   Section        0  dfltui.o(.text)
    .text                                    0x08000660   Section        0  ffixi.o(.text)
    .text                                    0x08000692   Section        0  ffixui.o(.text)
    .text                                    0x080006ba   Section        0  dfixui.o(.text)
    .text                                    0x080006ec   Section        0  f2d.o(.text)
    .text                                    0x08000714   Section       48  cdcmple.o(.text)
    .text                                    0x08000744   Section       48  cdrcmple.o(.text)
    .text                                    0x08000774   Section        0  d2f.o(.text)
    .text                                    0x080007ac   Section       20  cfcmple.o(.text)
    .text                                    0x080007c0   Section       20  cfrcmple.o(.text)
    .text                                    0x080007d4   Section        0  uidiv.o(.text)
    .text                                    0x08000800   Section        0  uldiv.o(.text)
    .text                                    0x08000862   Section        0  llshl.o(.text)
    .text                                    0x08000880   Section        0  llushr.o(.text)
    .text                                    0x080008a0   Section        0  llsshr.o(.text)
    .text                                    0x080008c4   Section        0  fepilogue.o(.text)
    .text                                    0x080008c4   Section        0  iusefp.o(.text)
    .text                                    0x08000932   Section        0  depilogue.o(.text)
    .text                                    0x080009ec   Section        0  dscalb.o(.text)
    .text                                    0x08000a1a   Section        0  dfixul.o(.text)
    .text                                    0x08000a4c   Section       36  init.o(.text)
    .text                                    0x08000a70   Section        0  dfixi.o(.text)
    .text                                    0x08000aae   Section        0  __dczerorl2.o(.text)
    i.AutoMode                               0x08000b04   Section        0  gimbalcontrol.o(i.AutoMode)
    i.BiasInit                               0x08000b8c   Section        0  gimbalcontrol.o(i.BiasInit)
    i.BoardMpu_Calu                          0x08000c08   Section        0  boardmpu.o(i.BoardMpu_Calu)
    i.BoardMpu_GetAccelData                  0x08000da4   Section        0  boardmpu.o(i.BoardMpu_GetAccelData)
    i.BoardMpu_GetDevID                      0x08000e64   Section        0  boardmpu.o(i.BoardMpu_GetDevID)
    i.BoardMpu_GetGyroData                   0x08000e80   Section        0  boardmpu.o(i.BoardMpu_GetGyroData)
    i.BoardMpu_Init                          0x08000f44   Section        0  boardmpu.o(i.BoardMpu_Init)
    i.BoardMpu_SetDLPF                       0x0800100c   Section        0  boardmpu.o(i.BoardMpu_SetDLPF)
    i.BoardMpu_SetSampleRate                 0x08001066   Section        0  boardmpu.o(i.BoardMpu_SetSampleRate)
    i.BusFault_Handler                       0x080010c4   Section        0  stm32f10x_it.o(i.BusFault_Handler)
    i.ConvertAngle                           0x080010c8   Section        0  as14ttl.o(i.ConvertAngle)
    i.DebugMon_Handler                       0x080011d8   Section        0  stm32f10x_it.o(i.DebugMon_Handler)
    i.GPIO_Init                              0x080011da   Section        0  stm32f10x_gpio.o(i.GPIO_Init)
    i.GPIO_ReadInputDataBit                  0x080012f0   Section        0  stm32f10x_gpio.o(i.GPIO_ReadInputDataBit)
    i.GPIO_ResetBits                         0x08001302   Section        0  stm32f10x_gpio.o(i.GPIO_ResetBits)
    i.GPIO_SetBits                           0x08001306   Section        0  stm32f10x_gpio.o(i.GPIO_SetBits)
    i.GPIO_WriteBit                          0x0800130a   Section        0  stm32f10x_gpio.o(i.GPIO_WriteBit)
    i.GimbalControl                          0x08001314   Section        0  gimbalcontrol.o(i.GimbalControl)
    i.HardFault_Handler                      0x08001590   Section        0  stm32f10x_it.o(i.HardFault_Handler)
    i.I2C1_Init                              0x08001594   Section        0  boardmpui2c.o(i.I2C1_Init)
    i.I2C1_ReadData                          0x080015c8   Section        0  boardmpui2c.o(i.I2C1_ReadData)
    i.I2C1_RecvByte                          0x0800165c   Section        0  boardmpui2c.o(i.I2C1_RecvByte)
    i.I2C1_SendACK                           0x080016f0   Section        0  boardmpui2c.o(i.I2C1_SendACK)
    i.I2C1_SendByte                          0x08001734   Section        0  boardmpui2c.o(i.I2C1_SendByte)
    i.I2C1_Start                             0x08001790   Section        0  boardmpui2c.o(i.I2C1_Start)
    i.I2C1_Stop                              0x080017cc   Section        0  boardmpui2c.o(i.I2C1_Stop)
    i.I2C1_WaitACK                           0x08001808   Section        0  boardmpui2c.o(i.I2C1_WaitACK)
    i.I2C1_WriteData                         0x0800188c   Section        0  boardmpui2c.o(i.I2C1_WriteData)
    i.I2C2_Init                              0x080018fc   Section        0  mpui2c.o(i.I2C2_Init)
    i.I2C2_ReadData                          0x08001934   Section        0  mpui2c.o(i.I2C2_ReadData)
    i.I2C2_RecvByte                          0x080019c8   Section        0  mpui2c.o(i.I2C2_RecvByte)
    i.I2C2_SendACK                           0x08001a68   Section        0  mpui2c.o(i.I2C2_SendACK)
    i.I2C2_SendByte                          0x08001ab4   Section        0  mpui2c.o(i.I2C2_SendByte)
    i.I2C2_Start                             0x08001b18   Section        0  mpui2c.o(i.I2C2_Start)
    i.I2C2_Stop                              0x08001b5c   Section        0  mpui2c.o(i.I2C2_Stop)
    i.I2C2_WaitACK                           0x08001ba0   Section        0  mpui2c.o(i.I2C2_WaitACK)
    i.I2C2_WriteData                         0x08001c34   Section        0  mpui2c.o(i.I2C2_WriteData)
    i.LED_Init                               0x08001ca4   Section        0  led.o(i.LED_Init)
    i.MAG3110_DataProcess                    0x08001cdc   Section        0  mag3110.o(i.MAG3110_DataProcess)
    i.MAG3110_STD                            0x08001eac   Section        0  mag3110.o(i.MAG3110_STD)
    i.MAG_IIC_Ack                            0x08002018   Section        0  magi2c.o(i.MAG_IIC_Ack)
    i.MAG_IIC_NAck                           0x0800206c   Section        0  magi2c.o(i.MAG_IIC_NAck)
    i.MAG_IIC_Read_Byte                      0x080020bc   Section        0  magi2c.o(i.MAG_IIC_Read_Byte)
    i.MAG_IIC_Send_Byte                      0x08002130   Section        0  magi2c.o(i.MAG_IIC_Send_Byte)
    i.MAG_IIC_Start                          0x08002194   Section        0  magi2c.o(i.MAG_IIC_Start)
    i.MAG_IIC_Stop                           0x080021e4   Section        0  magi2c.o(i.MAG_IIC_Stop)
    i.MAG_IIC_Wait_Ack                       0x08002234   Section        0  magi2c.o(i.MAG_IIC_Wait_Ack)
    i.MAG_Read_Byte                          0x0800229c   Section        0  magi2c.o(i.MAG_Read_Byte)
    i.MedianFilter                           0x080022d8   Section        0  pid.o(i.MedianFilter)
    i.MemManage_Handler                      0x0800240c   Section        0  stm32f10x_it.o(i.MemManage_Handler)
    i.Motor0_Run                             0x08002410   Section        0  motor.o(i.Motor0_Run)
    i.Motor0_SetPWM                          0x08002500   Section        0  motor.o(i.Motor0_SetPWM)
    i.Motor1_Run                             0x08002540   Section        0  motor.o(i.Motor1_Run)
    i.Motor1_SetPWM                          0x08002630   Section        0  motor.o(i.Motor1_SetPWM)
    i.Motor2_Run                             0x08002674   Section        0  motor.o(i.Motor2_Run)
    i.Motor2_SetPWM                          0x08002764   Section        0  motor.o(i.Motor2_SetPWM)
    i.MotorPWM_Init                          0x080027a8   Section        0  motor.o(i.MotorPWM_Init)
    i.MotorPos_Init                          0x08002938   Section        0  motor.o(i.MotorPos_Init)
    i.Motor_Init                             0x08002948   Section        0  motor.o(i.Motor_Init)
    i.Mpu6050_Calu                           0x08002958   Section        0  mpu6050.o(i.Mpu6050_Calu)
    i.Mpu6050_GetAccelData                   0x08002b04   Section        0  mpu6050.o(i.Mpu6050_GetAccelData)
    i.Mpu6050_GetDevID                       0x08002bc4   Section        0  mpu6050.o(i.Mpu6050_GetDevID)
    i.Mpu6050_GetGyroData                    0x08002be0   Section        0  mpu6050.o(i.Mpu6050_GetGyroData)
    i.Mpu6050_Init                           0x08002ca4   Section        0  mpu6050.o(i.Mpu6050_Init)
    i.Mpu6050_SetDLPF                        0x08002d6c   Section        0  mpu6050.o(i.Mpu6050_SetDLPF)
    i.Mpu6050_SetSampleRate                  0x08002dc6   Section        0  mpu6050.o(i.Mpu6050_SetSampleRate)
    i.NMI_Handler                            0x08002e24   Section        0  stm32f10x_it.o(i.NMI_Handler)
    i.NVIC_Init                              0x08002e28   Section        0  misc.o(i.NVIC_Init)
    i.PID_Motor0                             0x08002e98   Section        0  pid.o(i.PID_Motor0)
    i.PID_Motor1                             0x0800300c   Section        0  pid.o(i.PID_Motor1)
    i.PID_Motor2                             0x08003180   Section        0  pid.o(i.PID_Motor2)
    i.PendSV_Handler                         0x080032e8   Section        0  stm32f10x_it.o(i.PendSV_Handler)
    i.RCC_APB1PeriphClockCmd                 0x080032ec   Section        0  stm32f10x_rcc.o(i.RCC_APB1PeriphClockCmd)
    i.RCC_APB2PeriphClockCmd                 0x0800330c   Section        0  stm32f10x_rcc.o(i.RCC_APB2PeriphClockCmd)
    i.RCC_GetClocksFreq                      0x0800332c   Section        0  stm32f10x_rcc.o(i.RCC_GetClocksFreq)
    i.RemoteMode                             0x08003400   Section        0  as14ttl.o(i.RemoteMode)
    i.SVC_Handler                            0x08003534   Section        0  stm32f10x_it.o(i.SVC_Handler)
    i.Send_Check                             0x08003538   Section        0  tim5message.o(i.Send_Check)
    i.Send_Remote                            0x080035bc   Section        0  tim5message.o(i.Send_Remote)
    i.SerialPara_Init                        0x08003664   Section        0  as14ttl.o(i.SerialPara_Init)
    i.Serial_CalXYZ                          0x080036e4   Section        0  as14ttl.o(i.Serial_CalXYZ)
    i.SetSysClock                            0x080037c0   Section        0  system_stm32f10x.o(i.SetSysClock)
    SetSysClock                              0x080037c1   Thumb Code     8  system_stm32f10x.o(i.SetSysClock)
    i.SetSysClockTo72                        0x080037c8   Section        0  system_stm32f10x.o(i.SetSysClockTo72)
    SetSysClockTo72                          0x080037c9   Thumb Code   214  system_stm32f10x.o(i.SetSysClockTo72)
    i.SineArray_Init                         0x080038a8   Section        0  motor.o(i.SineArray_Init)
    i.SysTick_CLKSourceConfig                0x080039ec   Section        0  misc.o(i.SysTick_CLKSourceConfig)
    i.SysTick_Handler                        0x08003a14   Section        0  stm32f10x_it.o(i.SysTick_Handler)
    i.SystemInit                             0x08003a18   Section        0  system_stm32f10x.o(i.SystemInit)
    i.TIM5_IRQHandler                        0x08003a78   Section        0  tim5message.o(i.TIM5_IRQHandler)
    i.TIM_ARRPreloadConfig                   0x08003b00   Section        0  stm32f10x_tim.o(i.TIM_ARRPreloadConfig)
    i.TIM_ClearITPendingBit                  0x08003b18   Section        0  stm32f10x_tim.o(i.TIM_ClearITPendingBit)
    i.TIM_Cmd                                0x08003b1e   Section        0  stm32f10x_tim.o(i.TIM_Cmd)
    i.TIM_GetITStatus                        0x08003b36   Section        0  stm32f10x_tim.o(i.TIM_GetITStatus)
    i.TIM_OC1Init                            0x08003b58   Section        0  stm32f10x_tim.o(i.TIM_OC1Init)
    i.TIM_OC1PreloadConfig                   0x08003bf0   Section        0  stm32f10x_tim.o(i.TIM_OC1PreloadConfig)
    i.TIM_OC2Init                            0x08003c04   Section        0  stm32f10x_tim.o(i.TIM_OC2Init)
    i.TIM_OC2PreloadConfig                   0x08003ca8   Section        0  stm32f10x_tim.o(i.TIM_OC2PreloadConfig)
    i.TIM_OC3Init                            0x08003cc4   Section        0  stm32f10x_tim.o(i.TIM_OC3Init)
    i.TIM_OC3PreloadConfig                   0x08003d64   Section        0  stm32f10x_tim.o(i.TIM_OC3PreloadConfig)
    i.TIM_OC4Init                            0x08003d78   Section        0  stm32f10x_tim.o(i.TIM_OC4Init)
    i.TIM_OC4PreloadConfig                   0x08003df4   Section        0  stm32f10x_tim.o(i.TIM_OC4PreloadConfig)
    i.TIM_SetCompare1                        0x08003e0e   Section        0  stm32f10x_tim.o(i.TIM_SetCompare1)
    i.TIM_SetCompare2                        0x08003e12   Section        0  stm32f10x_tim.o(i.TIM_SetCompare2)
    i.TIM_SetCompare3                        0x08003e16   Section        0  stm32f10x_tim.o(i.TIM_SetCompare3)
    i.TIM_SetCompare4                        0x08003e1a   Section        0  stm32f10x_tim.o(i.TIM_SetCompare4)
    i.TIM_TimeBaseInit                       0x08003e20   Section        0  stm32f10x_tim.o(i.TIM_TimeBaseInit)
    i.USART1_IRQHandler                      0x08003ec4   Section        0  usart.o(i.USART1_IRQHandler)
    i.USART3_IRQHandler                      0x08004020   Section        0  usart3.o(i.USART3_IRQHandler)
    i.USART_Cmd                              0x08004168   Section        0  stm32f10x_usart.o(i.USART_Cmd)
    i.USART_GetFlagStatus                    0x08004180   Section        0  stm32f10x_usart.o(i.USART_GetFlagStatus)
    i.USART_GetITStatus                      0x0800419a   Section        0  stm32f10x_usart.o(i.USART_GetITStatus)
    i.USART_ITConfig                         0x080041ee   Section        0  stm32f10x_usart.o(i.USART_ITConfig)
    i.USART_Init                             0x08004238   Section        0  stm32f10x_usart.o(i.USART_Init)
    i.USART_ReceiveData                      0x08004310   Section        0  stm32f10x_usart.o(i.USART_ReceiveData)
    i.USART_SendData                         0x0800431a   Section        0  stm32f10x_usart.o(i.USART_SendData)
    i.UsageFault_Handler                     0x08004322   Section        0  stm32f10x_it.o(i.UsageFault_Handler)
    i.Usart_SendArray                        0x08004326   Section        0  usart.o(i.Usart_SendArray)
    i.Usart_SendByte                         0x08004356   Section        0  usart.o(i.Usart_SendByte)
    i.__0printf                              0x08004374   Section        0  printfa.o(i.__0printf)
    i.__ARM_fpclassify                       0x08004394   Section        0  fpclassify.o(i.__ARM_fpclassify)
    i.__ieee754_rem_pio2                     0x080043bc   Section        0  rred.o(i.__ieee754_rem_pio2)
    i.__kernel_cos                           0x08004744   Section        0  cos_i.o(i.__kernel_cos)
    i.__kernel_poly                          0x08004840   Section        0  poly.o(i.__kernel_poly)
    i.__kernel_sin                           0x080048ec   Section        0  sin_i.o(i.__kernel_sin)
    i.__mathlib_dbl_infnan                   0x080049d8   Section        0  dunder.o(i.__mathlib_dbl_infnan)
    i.__mathlib_dbl_infnan2                  0x080049de   Section        0  dunder.o(i.__mathlib_dbl_infnan2)
    i.__mathlib_dbl_invalid                  0x080049e2   Section        0  dunder.o(i.__mathlib_dbl_invalid)
    i.__mathlib_dbl_underflow                0x080049f0   Section        0  dunder.o(i.__mathlib_dbl_underflow)
    i.__scatterload_copy                     0x08004a00   Section       14  handlers.o(i.__scatterload_copy)
    i.__scatterload_null                     0x08004a0e   Section        2  handlers.o(i.__scatterload_null)
    i.__scatterload_zeroinit                 0x08004a10   Section       14  handlers.o(i.__scatterload_zeroinit)
    i.__set_errno                            0x08004a20   Section        0  errno.o(i.__set_errno)
    i._fp_digits                             0x08004a2c   Section        0  printfa.o(i._fp_digits)
    _fp_digits                               0x08004a2d   Thumb Code   366  printfa.o(i._fp_digits)
    i._printf_core                           0x08004bb0   Section        0  printfa.o(i._printf_core)
    _printf_core                             0x08004bb1   Thumb Code  1744  printfa.o(i._printf_core)
    i._printf_post_padding                   0x0800528c   Section        0  printfa.o(i._printf_post_padding)
    _printf_post_padding                     0x0800528d   Thumb Code    36  printfa.o(i._printf_post_padding)
    i._printf_pre_padding                    0x080052b0   Section        0  printfa.o(i._printf_pre_padding)
    _printf_pre_padding                      0x080052b1   Thumb Code    46  printfa.o(i._printf_pre_padding)
    i.atan                                   0x080052e0   Section        0  atan.o(i.atan)
    i.atan2                                  0x08005500   Section        0  atan2.o(i.atan2)
    i.delay_init                             0x08005680   Section        0  delay.o(i.delay_init)
    i.delay_ms                               0x080056c4   Section        0  delay.o(i.delay_ms)
    i.delay_us                               0x08005710   Section        0  delay.o(i.delay_us)
    i.fputc                                  0x0800575c   Section        0  usart.o(i.fputc)
    i.main                                   0x08005778   Section        0  main.o(i.main)
    i.positionInit                           0x080057c4   Section        0  gimbalcontrol.o(i.positionInit)
    i.sin                                    0x0800587c   Section        0  sin.o(i.sin)
    i.uart_init                              0x0800591c   Section        0  usart.o(i.uart_init)
    .constdata                               0x080059c0   Section        2  motor.o(.constdata)
    mdir_cal_factor                          0x080059c0   Data           2  motor.o(.constdata)
    .constdata                               0x080059c8   Section      152  atan.o(.constdata)
    atanhi                                   0x080059c8   Data          32  atan.o(.constdata)
    atanlo                                   0x080059e8   Data          32  atan.o(.constdata)
    aTodd                                    0x08005a08   Data          40  atan.o(.constdata)
    aTeven                                   0x08005a30   Data          48  atan.o(.constdata)
    .constdata                               0x08005a60   Section       48  cos_i.o(.constdata)
    C                                        0x08005a60   Data          48  cos_i.o(.constdata)
    .constdata                               0x08005a90   Section        8  qnan.o(.constdata)
    .constdata                               0x08005a98   Section      200  rred.o(.constdata)
    pio2s                                    0x08005a98   Data          48  rred.o(.constdata)
    twooverpi                                0x08005ac8   Data         152  rred.o(.constdata)
    .constdata                               0x08005b60   Section       40  sin_i.o(.constdata)
    S                                        0x08005b60   Data          40  sin_i.o(.constdata)
    .data                                    0x20000000   Section       20  system_stm32f10x.o(.data)
    .data                                    0x20000014   Section      157  gimbalcontrol.o(.data)
    i2c2GPIOInitStruct                       0x20000014   Data           4  gimbalcontrol.o(.data)
    AccelData                                0x20000018   Data           6  gimbalcontrol.o(.data)
    TempData                                 0x2000001e   Data           2  gimbalcontrol.o(.data)
    GyroData                                 0x20000020   Data           6  gimbalcontrol.o(.data)
    i2c1GPIOInitStruct                       0x20000026   Data           4  gimbalcontrol.o(.data)
    pitchPPara                               0x2000002c   Data           4  gimbalcontrol.o(.data)
    pitchIPara                               0x20000030   Data           4  gimbalcontrol.o(.data)
    pitchDPara                               0x20000034   Data           4  gimbalcontrol.o(.data)
    rollPPara                                0x20000038   Data           4  gimbalcontrol.o(.data)
    rollIPara                                0x2000003c   Data           4  gimbalcontrol.o(.data)
    rollDPara                                0x20000040   Data           4  gimbalcontrol.o(.data)
    yawPPara                                 0x20000044   Data           4  gimbalcontrol.o(.data)
    yawIPara                                 0x20000048   Data           4  gimbalcontrol.o(.data)
    yawDPara                                 0x2000004c   Data           4  gimbalcontrol.o(.data)
    sineArraySize                            0x20000050   Data           2  gimbalcontrol.o(.data)
    phaseShift                               0x20000052   Data           2  gimbalcontrol.o(.data)
    mPitch                                   0x20000054   Data           6  gimbalcontrol.o(.data)
    mRoll                                    0x2000005a   Data           6  gimbalcontrol.o(.data)
    mYaw                                     0x20000060   Data           6  gimbalcontrol.o(.data)
    K_X                                      0x20000068   Data           4  gimbalcontrol.o(.data)
    K_Y                                      0x2000006c   Data           4  gimbalcontrol.o(.data)
    K_Z                                      0x20000070   Data           4  gimbalcontrol.o(.data)
    B_X                                      0x20000074   Data           4  gimbalcontrol.o(.data)
    B_Y                                      0x20000078   Data           4  gimbalcontrol.o(.data)
    B_Z                                      0x2000007c   Data           4  gimbalcontrol.o(.data)
    .data                                    0x200000b4   Section      168  pid.o(.data)
    pitchPPara                               0x200000b4   Data           4  pid.o(.data)
    pitchIPara                               0x200000b8   Data           4  pid.o(.data)
    pitchDPara                               0x200000bc   Data           4  pid.o(.data)
    rollPPara                                0x200000c0   Data           4  pid.o(.data)
    rollIPara                                0x200000c4   Data           4  pid.o(.data)
    rollDPara                                0x200000c8   Data           4  pid.o(.data)
    yawPPara                                 0x200000cc   Data           4  pid.o(.data)
    yawIPara                                 0x200000d0   Data           4  pid.o(.data)
    yawDPara                                 0x200000d4   Data           4  pid.o(.data)
    cntICal                                  0x200000d8   Data           2  pid.o(.data)
    expAngle_old                             0x200000dc   Data           4  pid.o(.data)
    et                                       0x200000e0   Data           4  pid.o(.data)
    et_pre                                   0x200000e4   Data           4  pid.o(.data)
    et_sum                                   0x200000e8   Data           4  pid.o(.data)
    et_diff                                  0x200000ec   Data           4  pid.o(.data)
    dpid                                     0x200000f0   Data           4  pid.o(.data)
    dP                                       0x200000f4   Data           4  pid.o(.data)
    dI                                       0x200000f8   Data           4  pid.o(.data)
    dD                                       0x200000fc   Data           4  pid.o(.data)
    indexICal                                0x20000100   Data           4  pid.o(.data)
    expAngle_old                             0x20000104   Data           4  pid.o(.data)
    et                                       0x20000108   Data           4  pid.o(.data)
    et_pre                                   0x2000010c   Data           4  pid.o(.data)
    et_sum                                   0x20000110   Data           4  pid.o(.data)
    et_diff                                  0x20000114   Data           4  pid.o(.data)
    dpid                                     0x20000118   Data           4  pid.o(.data)
    dP                                       0x2000011c   Data           4  pid.o(.data)
    dI                                       0x20000120   Data           4  pid.o(.data)
    dD                                       0x20000124   Data           4  pid.o(.data)
    indexICal                                0x20000128   Data           4  pid.o(.data)
    expAngle_old                             0x2000012c   Data           4  pid.o(.data)
    et                                       0x20000130   Data           4  pid.o(.data)
    et_pre                                   0x20000134   Data           4  pid.o(.data)
    et_sum                                   0x20000138   Data           4  pid.o(.data)
    et_diff                                  0x2000013c   Data           4  pid.o(.data)
    dpid                                     0x20000140   Data           4  pid.o(.data)
    dP                                       0x20000144   Data           4  pid.o(.data)
    dI                                       0x20000148   Data           4  pid.o(.data)
    dD                                       0x2000014c   Data           4  pid.o(.data)
    indexICal                                0x20000150   Data           4  pid.o(.data)
    flagInit                                 0x20000154   Data           1  pid.o(.data)
    cntMFData                                0x20000156   Data           2  pid.o(.data)
    rtnValue                                 0x20000158   Data           4  pid.o(.data)
    .data                                    0x2000015c   Section      100  mpu6050.o(.data)
    i2c2GPIOInitStruct                       0x2000015c   Data           4  mpu6050.o(.data)
    AccelData                                0x20000160   Data           6  mpu6050.o(.data)
    TempData                                 0x20000166   Data           2  mpu6050.o(.data)
    GyroData                                 0x20000168   Data           6  mpu6050.o(.data)
    pitchPPara                               0x20000170   Data           4  mpu6050.o(.data)
    pitchIPara                               0x20000174   Data           4  mpu6050.o(.data)
    pitchDPara                               0x20000178   Data           4  mpu6050.o(.data)
    rollPPara                                0x2000017c   Data           4  mpu6050.o(.data)
    rollIPara                                0x20000180   Data           4  mpu6050.o(.data)
    rollDPara                                0x20000184   Data           4  mpu6050.o(.data)
    yawPPara                                 0x20000188   Data           4  mpu6050.o(.data)
    yawIPara                                 0x2000018c   Data           4  mpu6050.o(.data)
    yawDPara                                 0x20000190   Data           4  mpu6050.o(.data)
    .data                                    0x200001c0   Section      100  boardmpu.o(.data)
    i2c2GPIOInitStruct                       0x200001c0   Data           4  boardmpu.o(.data)
    i2c1GPIOInitStruct                       0x200001c4   Data           4  boardmpu.o(.data)
    pitchPPara                               0x200001c8   Data           4  boardmpu.o(.data)
    pitchIPara                               0x200001cc   Data           4  boardmpu.o(.data)
    pitchDPara                               0x200001d0   Data           4  boardmpu.o(.data)
    rollPPara                                0x200001d4   Data           4  boardmpu.o(.data)
    rollIPara                                0x200001d8   Data           4  boardmpu.o(.data)
    rollDPara                                0x200001dc   Data           4  boardmpu.o(.data)
    yawPPara                                 0x200001e0   Data           4  boardmpu.o(.data)
    yawIPara                                 0x200001e4   Data           4  boardmpu.o(.data)
    yawDPara                                 0x200001e8   Data           4  boardmpu.o(.data)
    AccelData                                0x200001ec   Data           6  boardmpu.o(.data)
    TempData                                 0x200001f2   Data           2  boardmpu.o(.data)
    GyroData                                 0x200001f4   Data           6  boardmpu.o(.data)
    .data                                    0x20000224   Section        4  boardmpui2c.o(.data)
    i2c1GPIOInitStruct                       0x20000224   Data           4  boardmpui2c.o(.data)
    .data                                    0x20000228   Section        4  mpui2c.o(.data)
    i2c2GPIOInitStruct                       0x20000228   Data           4  mpui2c.o(.data)
    .data                                    0x2000022c   Section       46  motor.o(.data)
    sineArraySize                            0x2000022c   Data           2  motor.o(.data)
    phaseShift                               0x2000022e   Data           2  motor.o(.data)
    mPitch                                   0x20000230   Data           6  motor.o(.data)
    mRoll                                    0x20000236   Data           6  motor.o(.data)
    mYaw                                     0x2000023c   Data           6  motor.o(.data)
    preSpeed                                 0x20000242   Data           2  motor.o(.data)
    timeout                                  0x20000244   Data           2  motor.o(.data)
    cntTime                                  0x20000246   Data           2  motor.o(.data)
    growthFactor                             0x20000248   Data           2  motor.o(.data)
    preSpeed                                 0x2000024a   Data           2  motor.o(.data)
    timeout                                  0x2000024c   Data           2  motor.o(.data)
    cntTime                                  0x2000024e   Data           2  motor.o(.data)
    growthFactor                             0x20000250   Data           2  motor.o(.data)
    preSpeed                                 0x20000252   Data           2  motor.o(.data)
    timeout                                  0x20000254   Data           2  motor.o(.data)
    cntTime                                  0x20000256   Data           2  motor.o(.data)
    growthFactor                             0x20000258   Data           2  motor.o(.data)
    .data                                    0x2000025c   Section      128  as14ttl.o(.data)
    sineArraySize                            0x2000025c   Data           2  as14ttl.o(.data)
    phaseShift                               0x2000025e   Data           2  as14ttl.o(.data)
    mPitch                                   0x20000260   Data           6  as14ttl.o(.data)
    mRoll                                    0x20000266   Data           6  as14ttl.o(.data)
    mYaw                                     0x2000026c   Data           6  as14ttl.o(.data)
    i2c2GPIOInitStruct                       0x20000272   Data           4  as14ttl.o(.data)
    AccelData                                0x20000276   Data           6  as14ttl.o(.data)
    TempData                                 0x2000027c   Data           2  as14ttl.o(.data)
    GyroData                                 0x2000027e   Data           6  as14ttl.o(.data)
    i2c1GPIOInitStruct                       0x20000284   Data           4  as14ttl.o(.data)
    pitchPPara                               0x20000288   Data           4  as14ttl.o(.data)
    pitchIPara                               0x2000028c   Data           4  as14ttl.o(.data)
    pitchDPara                               0x20000290   Data           4  as14ttl.o(.data)
    rollPPara                                0x20000294   Data           4  as14ttl.o(.data)
    rollIPara                                0x20000298   Data           4  as14ttl.o(.data)
    rollDPara                                0x2000029c   Data           4  as14ttl.o(.data)
    yawPPara                                 0x200002a0   Data           4  as14ttl.o(.data)
    yawIPara                                 0x200002a4   Data           4  as14ttl.o(.data)
    yawDPara                                 0x200002a8   Data           4  as14ttl.o(.data)
    K_X                                      0x200002ac   Data           4  as14ttl.o(.data)
    K_Y                                      0x200002b0   Data           4  as14ttl.o(.data)
    K_Z                                      0x200002b4   Data           4  as14ttl.o(.data)
    B_X                                      0x200002b8   Data           4  as14ttl.o(.data)
    B_Y                                      0x200002bc   Data           4  as14ttl.o(.data)
    B_Z                                      0x200002c0   Data           4  as14ttl.o(.data)
    .data                                    0x200002dc   Section       21  tim5message.o(.data)
    i2c2GPIOInitStruct                       0x200002dc   Data           4  tim5message.o(.data)
    AccelData                                0x200002e0   Data           6  tim5message.o(.data)
    TempData                                 0x200002e6   Data           2  tim5message.o(.data)
    GyroData                                 0x200002e8   Data           6  tim5message.o(.data)
    time_flag                                0x200002f0   Data           1  tim5message.o(.data)
    .data                                    0x200002f4   Section      105  usart3.o(.data)
    i2c2GPIOInitStruct                       0x200002f4   Data           4  usart3.o(.data)
    AccelData                                0x200002f8   Data           6  usart3.o(.data)
    TempData                                 0x200002fe   Data           2  usart3.o(.data)
    GyroData                                 0x20000300   Data           6  usart3.o(.data)
    sineArraySize                            0x20000306   Data           2  usart3.o(.data)
    phaseShift                               0x20000308   Data           2  usart3.o(.data)
    mPitch                                   0x2000030a   Data           6  usart3.o(.data)
    mRoll                                    0x20000310   Data           6  usart3.o(.data)
    mYaw                                     0x20000316   Data           6  usart3.o(.data)
    i2c1GPIOInitStruct                       0x2000031c   Data           4  usart3.o(.data)
    pitchPPara                               0x20000320   Data           4  usart3.o(.data)
    pitchIPara                               0x20000324   Data           4  usart3.o(.data)
    pitchDPara                               0x20000328   Data           4  usart3.o(.data)
    rollPPara                                0x2000032c   Data           4  usart3.o(.data)
    rollIPara                                0x20000330   Data           4  usart3.o(.data)
    rollDPara                                0x20000334   Data           4  usart3.o(.data)
    yawPPara                                 0x20000338   Data           4  usart3.o(.data)
    yawIPara                                 0x2000033c   Data           4  usart3.o(.data)
    yawDPara                                 0x20000340   Data           4  usart3.o(.data)
    K_X                                      0x20000344   Data           4  usart3.o(.data)
    K_Y                                      0x20000348   Data           4  usart3.o(.data)
    K_Z                                      0x2000034c   Data           4  usart3.o(.data)
    B_X                                      0x20000350   Data           4  usart3.o(.data)
    B_Y                                      0x20000354   Data           4  usart3.o(.data)
    B_Z                                      0x20000358   Data           4  usart3.o(.data)
    index                                    0x2000035c   Data           1  usart3.o(.data)
    .data                                    0x20000360   Section       37  mag3110.o(.data)
    First_Flag                               0x20000384   Data           1  mag3110.o(.data)
    .data                                    0x20000386   Section        4  delay.o(.data)
    fac_us                                   0x20000386   Data           1  delay.o(.data)
    fac_ms                                   0x20000388   Data           2  delay.o(.data)
    .data                                    0x2000038c   Section      118  usart.o(.data)
    i2c2GPIOInitStruct                       0x2000038c   Data           4  usart.o(.data)
    AccelData                                0x20000390   Data           6  usart.o(.data)
    TempData                                 0x20000396   Data           2  usart.o(.data)
    GyroData                                 0x20000398   Data           6  usart.o(.data)
    i2c1GPIOInitStruct                       0x2000039e   Data           4  usart.o(.data)
    pitchPPara                               0x200003a4   Data           4  usart.o(.data)
    pitchIPara                               0x200003a8   Data           4  usart.o(.data)
    pitchDPara                               0x200003ac   Data           4  usart.o(.data)
    rollPPara                                0x200003b0   Data           4  usart.o(.data)
    rollIPara                                0x200003b4   Data           4  usart.o(.data)
    rollDPara                                0x200003b8   Data           4  usart.o(.data)
    yawPPara                                 0x200003bc   Data           4  usart.o(.data)
    yawIPara                                 0x200003c0   Data           4  usart.o(.data)
    yawDPara                                 0x200003c4   Data           4  usart.o(.data)
    sineArraySize                            0x200003c8   Data           2  usart.o(.data)
    phaseShift                               0x200003ca   Data           2  usart.o(.data)
    mPitch                                   0x200003cc   Data           6  usart.o(.data)
    mRoll                                    0x200003d2   Data           6  usart.o(.data)
    mYaw                                     0x200003d8   Data           6  usart.o(.data)
    K_X                                      0x200003e0   Data           4  usart.o(.data)
    K_Y                                      0x200003e4   Data           4  usart.o(.data)
    K_Z                                      0x200003e8   Data           4  usart.o(.data)
    B_X                                      0x200003ec   Data           4  usart.o(.data)
    B_Y                                      0x200003f0   Data           4  usart.o(.data)
    B_Z                                      0x200003f4   Data           4  usart.o(.data)
    index                                    0x20000401   Data           1  usart.o(.data)
    .data                                    0x20000402   Section       20  stm32f10x_rcc.o(.data)
    APBAHBPrescTable                         0x20000402   Data          16  stm32f10x_rcc.o(.data)
    ADCPrescTable                            0x20000412   Data           4  stm32f10x_rcc.o(.data)
    .data                                    0x20000418   Section        4  errno.o(.data)
    _errno                                   0x20000418   Data           4  errno.o(.data)
    .bss                                     0x2000041c   Section      257  pid.o(.bss)
    mfData                                   0x2000041c   Data         124  pid.o(.bss)
    mfSort                                   0x20000498   Data         124  pid.o(.bss)
    .bss                                     0x2000051e   Section     4096  motor.o(.bss)
    pwmSin                                   0x2000051e   Data        4096  motor.o(.bss)
    .bss                                     0x20001520   Section     4364  usart3.o(.bss)
    pwmSin                                   0x20001520   Data        4096  usart3.o(.bss)
    mfData                                   0x20002520   Data         124  usart3.o(.bss)
    mfSort                                   0x2000259c   Data         124  usart3.o(.bss)
    USART_RX                                 0x20002618   Data          20  usart3.o(.bss)
    .bss                                     0x2000262c   Section     4364  usart.o(.bss)
    mfData                                   0x2000262c   Data         124  usart.o(.bss)
    mfSort                                   0x200026a8   Data         124  usart.o(.bss)
    pwmSin                                   0x20002724   Data        4096  usart.o(.bss)
    USART_RX                                 0x20003724   Data          20  usart.o(.bss)
    STACK                                    0x20003738   Section     1024  startup_stm32f10x_hd.o(STACK)

    Global Symbols

    Symbol Name                              Value     Ov Type        Size  Object(Section)

    BuildAttributes$$THM_ISAv4$P$D$K$B$S$PE$A:L22UL41UL21$X:L11$S22US41US21$IEEE1$IW$USESV6$~STKCKD$USESV7$~SHL$OTIME$ROPI$IEEEX$EBA8$MICROLIB$REQ8$PRES8$EABIv2 0x00000000   Number         0  anon$$obj.o ABSOLUTE
    __ARM_use_no_argv                        0x00000000   Number         0  main.o ABSOLUTE
    __use_no_errno                           0x00000000   Number         0  useno.o ABSOLUTE
    __use_no_exception_handling              0x00000000   Number         0  useno.o ABSOLUTE
    __use_no_fp                              0x00000000   Number         0  useno.o ABSOLUTE
    __use_no_heap                            0x00000000   Number         0  useno.o ABSOLUTE
    __use_no_heap_region                     0x00000000   Number         0  useno.o ABSOLUTE
    __use_no_semihosting                     0x00000000   Number         0  useno.o ABSOLUTE
    __use_no_semihosting_swi                 0x00000000   Number         0  useno.o ABSOLUTE
    __use_no_signal_handling                 0x00000000   Number         0  useno.o ABSOLUTE
    _printf_a                                0x00000000   Number         0  stubs.o ABSOLUTE
    _printf_c                                0x00000000   Number         0  stubs.o ABSOLUTE
    _printf_charcount                        0x00000000   Number         0  stubs.o ABSOLUTE
    _printf_d                                0x00000000   Number         0  stubs.o ABSOLUTE
    _printf_e                                0x00000000   Number         0  stubs.o ABSOLUTE
    _printf_f                                0x00000000   Number         0  stubs.o ABSOLUTE
    _printf_flags                            0x00000000   Number         0  stubs.o ABSOLUTE
    _printf_fp_dec                           0x00000000   Number         0  stubs.o ABSOLUTE
    _printf_fp_hex                           0x00000000   Number         0  stubs.o ABSOLUTE
    _printf_g                                0x00000000   Number         0  stubs.o ABSOLUTE
    _printf_i                                0x00000000   Number         0  stubs.o ABSOLUTE
    _printf_int_dec                          0x00000000   Number         0  stubs.o ABSOLUTE
    _printf_l                                0x00000000   Number         0  stubs.o ABSOLUTE
    _printf_lc                               0x00000000   Number         0  stubs.o ABSOLUTE
    _printf_ll                               0x00000000   Number         0  stubs.o ABSOLUTE
    _printf_lld                              0x00000000   Number         0  stubs.o ABSOLUTE
    _printf_lli                              0x00000000   Number         0  stubs.o ABSOLUTE
    _printf_llo                              0x00000000   Number         0  stubs.o ABSOLUTE
    _printf_llu                              0x00000000   Number         0  stubs.o ABSOLUTE
    _printf_llx                              0x00000000   Number         0  stubs.o ABSOLUTE
    _printf_longlong_dec                     0x00000000   Number         0  stubs.o ABSOLUTE
    _printf_longlong_hex                     0x00000000   Number         0  stubs.o ABSOLUTE
    _printf_longlong_oct                     0x00000000   Number         0  stubs.o ABSOLUTE
    _printf_ls                               0x00000000   Number         0  stubs.o ABSOLUTE
    _printf_mbtowc                           0x00000000   Number         0  stubs.o ABSOLUTE
    _printf_n                                0x00000000   Number         0  stubs.o ABSOLUTE
    _printf_o                                0x00000000   Number         0  stubs.o ABSOLUTE
    _printf_p                                0x00000000   Number         0  stubs.o ABSOLUTE
    _printf_percent                          0x00000000   Number         0  stubs.o ABSOLUTE
    _printf_pre_padding                      0x00000000   Number         0  stubs.o ABSOLUTE
    _printf_return_value                     0x00000000   Number         0  stubs.o ABSOLUTE
    _printf_s                                0x00000000   Number         0  stubs.o ABSOLUTE
    _printf_sizespec                         0x00000000   Number         0  stubs.o ABSOLUTE
    _printf_str                              0x00000000   Number         0  stubs.o ABSOLUTE
    _printf_truncate_signed                  0x00000000   Number         0  stubs.o ABSOLUTE
    _printf_truncate_unsigned                0x00000000   Number         0  stubs.o ABSOLUTE
    _printf_u                                0x00000000   Number         0  stubs.o ABSOLUTE
    _printf_wc                               0x00000000   Number         0  stubs.o ABSOLUTE
    _printf_wctomb                           0x00000000   Number         0  stubs.o ABSOLUTE
    _printf_widthprec                        0x00000000   Number         0  stubs.o ABSOLUTE
    _printf_x                                0x00000000   Number         0  stubs.o ABSOLUTE
    __cpp_initialize__aeabi_                  - Undefined Weak Reference
    __cxa_finalize                            - Undefined Weak Reference
    _clock_init                               - Undefined Weak Reference
    _microlib_exit                            - Undefined Weak Reference
    __Vectors_Size                           0x00000130   Number         0  startup_stm32f10x_hd.o ABSOLUTE
    __Vectors                                0x08000000   Data           4  startup_stm32f10x_hd.o(RESET)
    __Vectors_End                            0x08000130   Data           0  startup_stm32f10x_hd.o(RESET)
    __main                                   0x08000131   Thumb Code     0  entry.o(.ARM.Collect$$$$00000000)
    _main_stk                                0x08000131   Thumb Code     0  entry2.o(.ARM.Collect$$$$00000001)
    _main_scatterload                        0x08000135   Thumb Code     0  entry5.o(.ARM.Collect$$$$00000004)
    __main_after_scatterload                 0x08000139   Thumb Code     0  entry5.o(.ARM.Collect$$$$00000004)
    _main_clock                              0x08000139   Thumb Code     0  entry7b.o(.ARM.Collect$$$$00000008)
    _main_cpp_init                           0x08000139   Thumb Code     0  entry8b.o(.ARM.Collect$$$$0000000A)
    _main_init                               0x08000139   Thumb Code     0  entry9a.o(.ARM.Collect$$$$0000000B)
    __rt_final_cpp                           0x08000141   Thumb Code     0  entry10a.o(.ARM.Collect$$$$0000000D)
    __rt_final_exit                          0x08000141   Thumb Code     0  entry11a.o(.ARM.Collect$$$$0000000F)
    Reset_Handler                            0x08000145   Thumb Code     8  startup_stm32f10x_hd.o(.text)
    ADC1_2_IRQHandler                        0x0800015f   Thumb Code     0  startup_stm32f10x_hd.o(.text)
    ADC3_IRQHandler                          0x0800015f   Thumb Code     0  startup_stm32f10x_hd.o(.text)
    CAN1_RX1_IRQHandler                      0x0800015f   Thumb Code     0  startup_stm32f10x_hd.o(.text)
    CAN1_SCE_IRQHandler                      0x0800015f   Thumb Code     0  startup_stm32f10x_hd.o(.text)
    DMA1_Channel1_IRQHandler                 0x0800015f   Thumb Code     0  startup_stm32f10x_hd.o(.text)
    DMA1_Channel2_IRQHandler                 0x0800015f   Thumb Code     0  startup_stm32f10x_hd.o(.text)
    DMA1_Channel3_IRQHandler                 0x0800015f   Thumb Code     0  startup_stm32f10x_hd.o(.text)
    DMA1_Channel4_IRQHandler                 0x0800015f   Thumb Code     0  startup_stm32f10x_hd.o(.text)
    DMA1_Channel5_IRQHandler                 0x0800015f   Thumb Code     0  startup_stm32f10x_hd.o(.text)
    DMA1_Channel6_IRQHandler                 0x0800015f   Thumb Code     0  startup_stm32f10x_hd.o(.text)
    DMA1_Channel7_IRQHandler                 0x0800015f   Thumb Code     0  startup_stm32f10x_hd.o(.text)
    DMA2_Channel1_IRQHandler                 0x0800015f   Thumb Code     0  startup_stm32f10x_hd.o(.text)
    DMA2_Channel2_IRQHandler                 0x0800015f   Thumb Code     0  startup_stm32f10x_hd.o(.text)
    DMA2_Channel3_IRQHandler                 0x0800015f   Thumb Code     0  startup_stm32f10x_hd.o(.text)
    DMA2_Channel4_5_IRQHandler               0x0800015f   Thumb Code     0  startup_stm32f10x_hd.o(.text)
    EXTI0_IRQHandler                         0x0800015f   Thumb Code     0  startup_stm32f10x_hd.o(.text)
    EXTI15_10_IRQHandler                     0x0800015f   Thumb Code     0  startup_stm32f10x_hd.o(.text)
    EXTI1_IRQHandler                         0x0800015f   Thumb Code     0  startup_stm32f10x_hd.o(.text)
    EXTI2_IRQHandler                         0x0800015f   Thumb Code     0  startup_stm32f10x_hd.o(.text)
    EXTI3_IRQHandler                         0x0800015f   Thumb Code     0  startup_stm32f10x_hd.o(.text)
    EXTI4_IRQHandler                         0x0800015f   Thumb Code     0  startup_stm32f10x_hd.o(.text)
    EXTI9_5_IRQHandler                       0x0800015f   Thumb Code     0  startup_stm32f10x_hd.o(.text)
    FLASH_IRQHandler                         0x0800015f   Thumb Code     0  startup_stm32f10x_hd.o(.text)
    FSMC_IRQHandler                          0x0800015f   Thumb Code     0  startup_stm32f10x_hd.o(.text)
    I2C1_ER_IRQHandler                       0x0800015f   Thumb Code     0  startup_stm32f10x_hd.o(.text)
    I2C1_EV_IRQHandler                       0x0800015f   Thumb Code     0  startup_stm32f10x_hd.o(.text)
    I2C2_ER_IRQHandler                       0x0800015f   Thumb Code     0  startup_stm32f10x_hd.o(.text)
    I2C2_EV_IRQHandler                       0x0800015f   Thumb Code     0  startup_stm32f10x_hd.o(.text)
    PVD_IRQHandler                           0x0800015f   Thumb Code     0  startup_stm32f10x_hd.o(.text)
    RCC_IRQHandler                           0x0800015f   Thumb Code     0  startup_stm32f10x_hd.o(.text)
    RTCAlarm_IRQHandler                      0x0800015f   Thumb Code     0  startup_stm32f10x_hd.o(.text)
    RTC_IRQHandler                           0x0800015f   Thumb Code     0  startup_stm32f10x_hd.o(.text)
    SDIO_IRQHandler                          0x0800015f   Thumb Code     0  startup_stm32f10x_hd.o(.text)
    SPI1_IRQHandler                          0x0800015f   Thumb Code     0  startup_stm32f10x_hd.o(.text)
    SPI2_IRQHandler                          0x0800015f   Thumb Code     0  startup_stm32f10x_hd.o(.text)
    SPI3_IRQHandler                          0x0800015f   Thumb Code     0  startup_stm32f10x_hd.o(.text)
    TAMPER_IRQHandler                        0x0800015f   Thumb Code     0  startup_stm32f10x_hd.o(.text)
    TIM1_BRK_IRQHandler                      0x0800015f   Thumb Code     0  startup_stm32f10x_hd.o(.text)
    TIM1_CC_IRQHandler                       0x0800015f   Thumb Code     0  startup_stm32f10x_hd.o(.text)
    TIM1_TRG_COM_IRQHandler                  0x0800015f   Thumb Code     0  startup_stm32f10x_hd.o(.text)
    TIM1_UP_IRQHandler                       0x0800015f   Thumb Code     0  startup_stm32f10x_hd.o(.text)
    TIM2_IRQHandler                          0x0800015f   Thumb Code     0  startup_stm32f10x_hd.o(.text)
    TIM3_IRQHandler                          0x0800015f   Thumb Code     0  startup_stm32f10x_hd.o(.text)
    TIM4_IRQHandler                          0x0800015f   Thumb Code     0  startup_stm32f10x_hd.o(.text)
    TIM6_IRQHandler                          0x0800015f   Thumb Code     0  startup_stm32f10x_hd.o(.text)
    TIM7_IRQHandler                          0x0800015f   Thumb Code     0  startup_stm32f10x_hd.o(.text)
    TIM8_BRK_IRQHandler                      0x0800015f   Thumb Code     0  startup_stm32f10x_hd.o(.text)
    TIM8_CC_IRQHandler                       0x0800015f   Thumb Code     0  startup_stm32f10x_hd.o(.text)
    TIM8_TRG_COM_IRQHandler                  0x0800015f   Thumb Code     0  startup_stm32f10x_hd.o(.text)
    TIM8_UP_IRQHandler                       0x0800015f   Thumb Code     0  startup_stm32f10x_hd.o(.text)
    UART4_IRQHandler                         0x0800015f   Thumb Code     0  startup_stm32f10x_hd.o(.text)
    UART5_IRQHandler                         0x0800015f   Thumb Code     0  startup_stm32f10x_hd.o(.text)
    USART2_IRQHandler                        0x0800015f   Thumb Code     0  startup_stm32f10x_hd.o(.text)
    USBWakeUp_IRQHandler                     0x0800015f   Thumb Code     0  startup_stm32f10x_hd.o(.text)
    USB_HP_CAN1_TX_IRQHandler                0x0800015f   Thumb Code     0  startup_stm32f10x_hd.o(.text)
    USB_LP_CAN1_RX0_IRQHandler               0x0800015f   Thumb Code     0  startup_stm32f10x_hd.o(.text)
    WWDG_IRQHandler                          0x0800015f   Thumb Code     0  startup_stm32f10x_hd.o(.text)
    __aeabi_fadd                             0x08000169   Thumb Code   164  fadd.o(.text)
    __aeabi_fsub                             0x0800020d   Thumb Code     6  fadd.o(.text)
    __aeabi_frsub                            0x08000213   Thumb Code     6  fadd.o(.text)
    __aeabi_fmul                             0x08000219   Thumb Code   100  fmul.o(.text)
    __aeabi_fdiv                             0x0800027d   Thumb Code   124  fdiv.o(.text)
    __aeabi_dadd                             0x080002f9   Thumb Code   322  dadd.o(.text)
    __aeabi_dsub                             0x0800043b   Thumb Code     6  dadd.o(.text)
    __aeabi_drsub                            0x08000441   Thumb Code     6  dadd.o(.text)
    __aeabi_dmul                             0x08000447   Thumb Code   228  dmul.o(.text)
    __aeabi_ddiv                             0x0800052b   Thumb Code   222  ddiv.o(.text)
    __aeabi_i2f                              0x08000609   Thumb Code    18  fflti.o(.text)
    __aeabi_ui2f                             0x0800061b   Thumb Code    10  ffltui.o(.text)
    __aeabi_i2d                              0x08000625   Thumb Code    34  dflti.o(.text)
    __aeabi_ui2d                             0x08000647   Thumb Code    26  dfltui.o(.text)
    __aeabi_f2iz                             0x08000661   Thumb Code    50  ffixi.o(.text)
    __aeabi_f2uiz                            0x08000693   Thumb Code    40  ffixui.o(.text)
    __aeabi_d2uiz                            0x080006bb   Thumb Code    50  dfixui.o(.text)
    __aeabi_f2d                              0x080006ed   Thumb Code    38  f2d.o(.text)
    __aeabi_cdcmpeq                          0x08000715   Thumb Code     0  cdcmple.o(.text)
    __aeabi_cdcmple                          0x08000715   Thumb Code    48  cdcmple.o(.text)
    __aeabi_cdrcmple                         0x08000745   Thumb Code    48  cdrcmple.o(.text)
    __aeabi_d2f                              0x08000775   Thumb Code    56  d2f.o(.text)
    __aeabi_cfcmpeq                          0x080007ad   Thumb Code     0  cfcmple.o(.text)
    __aeabi_cfcmple                          0x080007ad   Thumb Code    20  cfcmple.o(.text)
    __aeabi_cfrcmple                         0x080007c1   Thumb Code    20  cfrcmple.o(.text)
    __aeabi_uidiv                            0x080007d5   Thumb Code     0  uidiv.o(.text)
    __aeabi_uidivmod                         0x080007d5   Thumb Code    44  uidiv.o(.text)
    __aeabi_uldivmod                         0x08000801   Thumb Code    98  uldiv.o(.text)
    __aeabi_llsl                             0x08000863   Thumb Code    30  llshl.o(.text)
    _ll_shift_l                              0x08000863   Thumb Code     0  llshl.o(.text)
    __aeabi_llsr                             0x08000881   Thumb Code    32  llushr.o(.text)
    _ll_ushift_r                             0x08000881   Thumb Code     0  llushr.o(.text)
    __aeabi_lasr                             0x080008a1   Thumb Code    36  llsshr.o(.text)
    _ll_sshift_r                             0x080008a1   Thumb Code     0  llsshr.o(.text)
    __I$use$fp                               0x080008c5   Thumb Code     0  iusefp.o(.text)
    _float_round                             0x080008c5   Thumb Code    18  fepilogue.o(.text)
    _float_epilogue                          0x080008d7   Thumb Code    92  fepilogue.o(.text)
    _double_round                            0x08000933   Thumb Code    30  depilogue.o(.text)
    _double_epilogue                         0x08000951   Thumb Code   156  depilogue.o(.text)
    __ARM_scalbn                             0x080009ed   Thumb Code    46  dscalb.o(.text)
    scalbn                                   0x080009ed   Thumb Code     0  dscalb.o(.text)
    __aeabi_d2ulz                            0x08000a1b   Thumb Code    48  dfixul.o(.text)
    __scatterload                            0x08000a4d   Thumb Code    28  init.o(.text)
    __scatterload_rt2                        0x08000a4d   Thumb Code     0  init.o(.text)
    __aeabi_d2iz                             0x08000a71   Thumb Code    62  dfixi.o(.text)
    __decompress                             0x08000aaf   Thumb Code     0  __dczerorl2.o(.text)
    __decompress1                            0x08000aaf   Thumb Code    86  __dczerorl2.o(.text)
    AutoMode                                 0x08000b05   Thumb Code    96  gimbalcontrol.o(i.AutoMode)
    BiasInit                                 0x08000b8d   Thumb Code   100  gimbalcontrol.o(i.BiasInit)
    BoardMpu_Calu                            0x08000c09   Thumb Code   358  boardmpu.o(i.BoardMpu_Calu)
    BoardMpu_GetAccelData                    0x08000da5   Thumb Code   170  boardmpu.o(i.BoardMpu_GetAccelData)
    BoardMpu_GetDevID                        0x08000e65   Thumb Code    24  boardmpu.o(i.BoardMpu_GetDevID)
    BoardMpu_GetGyroData                     0x08000e81   Thumb Code   170  boardmpu.o(i.BoardMpu_GetGyroData)
    BoardMpu_Init                            0x08000f45   Thumb Code   194  boardmpu.o(i.BoardMpu_Init)
    BoardMpu_SetDLPF                         0x0800100d   Thumb Code    90  boardmpu.o(i.BoardMpu_SetDLPF)
    BoardMpu_SetSampleRate                   0x08001067   Thumb Code    94  boardmpu.o(i.BoardMpu_SetSampleRate)
    BusFault_Handler                         0x080010c5   Thumb Code     4  stm32f10x_it.o(i.BusFault_Handler)
    ConvertAngle                             0x080010c9   Thumb Code   234  as14ttl.o(i.ConvertAngle)
    DebugMon_Handler                         0x080011d9   Thumb Code     2  stm32f10x_it.o(i.DebugMon_Handler)
    GPIO_Init                                0x080011db   Thumb Code   278  stm32f10x_gpio.o(i.GPIO_Init)
    GPIO_ReadInputDataBit                    0x080012f1   Thumb Code    18  stm32f10x_gpio.o(i.GPIO_ReadInputDataBit)
    GPIO_ResetBits                           0x08001303   Thumb Code     4  stm32f10x_gpio.o(i.GPIO_ResetBits)
    GPIO_SetBits                             0x08001307   Thumb Code     4  stm32f10x_gpio.o(i.GPIO_SetBits)
    GPIO_WriteBit                            0x0800130b   Thumb Code    10  stm32f10x_gpio.o(i.GPIO_WriteBit)
    GimbalControl                            0x08001315   Thumb Code   518  gimbalcontrol.o(i.GimbalControl)
    HardFault_Handler                        0x08001591   Thumb Code     4  stm32f10x_it.o(i.HardFault_Handler)
    I2C1_Init                                0x08001595   Thumb Code    42  boardmpui2c.o(i.I2C1_Init)
    I2C1_ReadData                            0x080015c9   Thumb Code   148  boardmpui2c.o(i.I2C1_ReadData)
    I2C1_RecvByte                            0x0800165d   Thumb Code   138  boardmpui2c.o(i.I2C1_RecvByte)
    I2C1_SendACK                             0x080016f1   Thumb Code    64  boardmpui2c.o(i.I2C1_SendACK)
    I2C1_SendByte                            0x08001735   Thumb Code    86  boardmpui2c.o(i.I2C1_SendByte)
    I2C1_Start                               0x08001791   Thumb Code    54  boardmpui2c.o(i.I2C1_Start)
    I2C1_Stop                                0x080017cd   Thumb Code    54  boardmpui2c.o(i.I2C1_Stop)
    I2C1_WaitACK                             0x08001809   Thumb Code   124  boardmpui2c.o(i.I2C1_WaitACK)
    I2C1_WriteData                           0x0800188d   Thumb Code   110  boardmpui2c.o(i.I2C1_WriteData)
    I2C2_Init                                0x080018fd   Thumb Code    46  mpui2c.o(i.I2C2_Init)
    I2C2_ReadData                            0x08001935   Thumb Code   148  mpui2c.o(i.I2C2_ReadData)
    I2C2_RecvByte                            0x080019c9   Thumb Code   152  mpui2c.o(i.I2C2_RecvByte)
    I2C2_SendACK                             0x08001a69   Thumb Code    72  mpui2c.o(i.I2C2_SendACK)
    I2C2_SendByte                            0x08001ab5   Thumb Code    94  mpui2c.o(i.I2C2_SendByte)
    I2C2_Start                               0x08001b19   Thumb Code    62  mpui2c.o(i.I2C2_Start)
    I2C2_Stop                                0x08001b5d   Thumb Code    62  mpui2c.o(i.I2C2_Stop)
    I2C2_WaitACK                             0x08001ba1   Thumb Code   138  mpui2c.o(i.I2C2_WaitACK)
    I2C2_WriteData                           0x08001c35   Thumb Code   110  mpui2c.o(i.I2C2_WriteData)
    LED_Init                                 0x08001ca5   Thumb Code    50  led.o(i.LED_Init)
    MAG3110_DataProcess                      0x08001cdd   Thumb Code   440  mag3110.o(i.MAG3110_DataProcess)
    MAG3110_STD                              0x08001ead   Thumb Code   324  mag3110.o(i.MAG3110_STD)
    MAG_IIC_Ack                              0x08002019   Thumb Code    66  magi2c.o(i.MAG_IIC_Ack)
    MAG_IIC_NAck                             0x0800206d   Thumb Code    64  magi2c.o(i.MAG_IIC_NAck)
    MAG_IIC_Read_Byte                        0x080020bd   Thumb Code   100  magi2c.o(i.MAG_IIC_Read_Byte)
    MAG_IIC_Send_Byte                        0x08002131   Thumb Code    84  magi2c.o(i.MAG_IIC_Send_Byte)
    MAG_IIC_Start                            0x08002195   Thumb Code    64  magi2c.o(i.MAG_IIC_Start)
    MAG_IIC_Stop                             0x080021e5   Thumb Code    62  magi2c.o(i.MAG_IIC_Stop)
    MAG_IIC_Wait_Ack                         0x08002235   Thumb Code    88  magi2c.o(i.MAG_IIC_Wait_Ack)
    MAG_Read_Byte                            0x0800229d   Thumb Code    58  magi2c.o(i.MAG_Read_Byte)
    MedianFilter                             0x080022d9   Thumb Code   284  pid.o(i.MedianFilter)
    MemManage_Handler                        0x0800240d   Thumb Code     4  stm32f10x_it.o(i.MemManage_Handler)
    Motor0_Run                               0x08002411   Thumb Code   212  motor.o(i.Motor0_Run)
    Motor0_SetPWM                            0x08002501   Thumb Code    52  motor.o(i.Motor0_SetPWM)
    Motor1_Run                               0x08002541   Thumb Code   212  motor.o(i.Motor1_Run)
    Motor1_SetPWM                            0x08002631   Thumb Code    56  motor.o(i.Motor1_SetPWM)
    Motor2_Run                               0x08002675   Thumb Code   212  motor.o(i.Motor2_Run)
    Motor2_SetPWM                            0x08002765   Thumb Code    54  motor.o(i.Motor2_SetPWM)
    MotorPWM_Init                            0x080027a9   Thumb Code   384  motor.o(i.MotorPWM_Init)
    MotorPos_Init                            0x08002939   Thumb Code    16  motor.o(i.MotorPos_Init)
    Motor_Init                               0x08002949   Thumb Code    16  motor.o(i.Motor_Init)
    Mpu6050_Calu                             0x08002959   Thumb Code   372  mpu6050.o(i.Mpu6050_Calu)
    Mpu6050_GetAccelData                     0x08002b05   Thumb Code   170  mpu6050.o(i.Mpu6050_GetAccelData)
    Mpu6050_GetDevID                         0x08002bc5   Thumb Code    24  mpu6050.o(i.Mpu6050_GetDevID)
    Mpu6050_GetGyroData                      0x08002be1   Thumb Code   170  mpu6050.o(i.Mpu6050_GetGyroData)
    Mpu6050_Init                             0x08002ca5   Thumb Code   194  mpu6050.o(i.Mpu6050_Init)
    Mpu6050_SetDLPF                          0x08002d6d   Thumb Code    90  mpu6050.o(i.Mpu6050_SetDLPF)
    Mpu6050_SetSampleRate                    0x08002dc7   Thumb Code    94  mpu6050.o(i.Mpu6050_SetSampleRate)
    NMI_Handler                              0x08002e25   Thumb Code     2  stm32f10x_it.o(i.NMI_Handler)
    NVIC_Init                                0x08002e29   Thumb Code   100  misc.o(i.NVIC_Init)
    PID_Motor0                               0x08002e99   Thumb Code   308  pid.o(i.PID_Motor0)
    PID_Motor1                               0x0800300d   Thumb Code   308  pid.o(i.PID_Motor1)
    PID_Motor2                               0x08003181   Thumb Code   296  pid.o(i.PID_Motor2)
    PendSV_Handler                           0x080032e9   Thumb Code     2  stm32f10x_it.o(i.PendSV_Handler)
    RCC_APB1PeriphClockCmd                   0x080032ed   Thumb Code    26  stm32f10x_rcc.o(i.RCC_APB1PeriphClockCmd)
    RCC_APB2PeriphClockCmd                   0x0800330d   Thumb Code    26  stm32f10x_rcc.o(i.RCC_APB2PeriphClockCmd)
    RCC_GetClocksFreq                        0x0800332d   Thumb Code   192  stm32f10x_rcc.o(i.RCC_GetClocksFreq)
    RemoteMode                               0x08003401   Thumb Code   248  as14ttl.o(i.RemoteMode)
    SVC_Handler                              0x08003535   Thumb Code     2  stm32f10x_it.o(i.SVC_Handler)
    Send_Check                               0x08003539   Thumb Code   120  tim5message.o(i.Send_Check)
    Send_Remote                              0x080035bd   Thumb Code   156  tim5message.o(i.Send_Remote)
    SerialPara_Init                          0x08003665   Thumb Code    88  as14ttl.o(i.SerialPara_Init)
    Serial_CalXYZ                            0x080036e5   Thumb Code   202  as14ttl.o(i.Serial_CalXYZ)
    SineArray_Init                           0x080038a9   Thumb Code   284  motor.o(i.SineArray_Init)
    SysTick_CLKSourceConfig                  0x080039ed   Thumb Code    40  misc.o(i.SysTick_CLKSourceConfig)
    SysTick_Handler                          0x08003a15   Thumb Code     2  stm32f10x_it.o(i.SysTick_Handler)
    SystemInit                               0x08003a19   Thumb Code    78  system_stm32f10x.o(i.SystemInit)
    TIM5_IRQHandler                          0x08003a79   Thumb Code   112  tim5message.o(i.TIM5_IRQHandler)
    TIM_ARRPreloadConfig                     0x08003b01   Thumb Code    24  stm32f10x_tim.o(i.TIM_ARRPreloadConfig)
    TIM_ClearITPendingBit                    0x08003b19   Thumb Code     6  stm32f10x_tim.o(i.TIM_ClearITPendingBit)
    TIM_Cmd                                  0x08003b1f   Thumb Code    24  stm32f10x_tim.o(i.TIM_Cmd)
    TIM_GetITStatus                          0x08003b37   Thumb Code    34  stm32f10x_tim.o(i.TIM_GetITStatus)
    TIM_OC1Init                              0x08003b59   Thumb Code   132  stm32f10x_tim.o(i.TIM_OC1Init)
    TIM_OC1PreloadConfig                     0x08003bf1   Thumb Code    18  stm32f10x_tim.o(i.TIM_OC1PreloadConfig)
    TIM_OC2Init                              0x08003c05   Thumb Code   154  stm32f10x_tim.o(i.TIM_OC2Init)
    TIM_OC2PreloadConfig                     0x08003ca9   Thumb Code    26  stm32f10x_tim.o(i.TIM_OC2PreloadConfig)
    TIM_OC3Init                              0x08003cc5   Thumb Code   150  stm32f10x_tim.o(i.TIM_OC3Init)
    TIM_OC3PreloadConfig                     0x08003d65   Thumb Code    18  stm32f10x_tim.o(i.TIM_OC3PreloadConfig)
    TIM_OC4Init                              0x08003d79   Thumb Code   114  stm32f10x_tim.o(i.TIM_OC4Init)
    TIM_OC4PreloadConfig                     0x08003df5   Thumb Code    26  stm32f10x_tim.o(i.TIM_OC4PreloadConfig)
    TIM_SetCompare1                          0x08003e0f   Thumb Code     4  stm32f10x_tim.o(i.TIM_SetCompare1)
    TIM_SetCompare2                          0x08003e13   Thumb Code     4  stm32f10x_tim.o(i.TIM_SetCompare2)
    TIM_SetCompare3                          0x08003e17   Thumb Code     4  stm32f10x_tim.o(i.TIM_SetCompare3)
    TIM_SetCompare4                          0x08003e1b   Thumb Code     6  stm32f10x_tim.o(i.TIM_SetCompare4)
    TIM_TimeBaseInit                         0x08003e21   Thumb Code   122  stm32f10x_tim.o(i.TIM_TimeBaseInit)
    USART1_IRQHandler                        0x08003ec5   Thumb Code   322  usart.o(i.USART1_IRQHandler)
    USART3_IRQHandler                        0x08004021   Thumb Code   288  usart3.o(i.USART3_IRQHandler)
    USART_Cmd                                0x08004169   Thumb Code    24  stm32f10x_usart.o(i.USART_Cmd)
    USART_GetFlagStatus                      0x08004181   Thumb Code    26  stm32f10x_usart.o(i.USART_GetFlagStatus)
    USART_GetITStatus                        0x0800419b   Thumb Code    84  stm32f10x_usart.o(i.USART_GetITStatus)
    USART_ITConfig                           0x080041ef   Thumb Code    74  stm32f10x_usart.o(i.USART_ITConfig)
    USART_Init                               0x08004239   Thumb Code   210  stm32f10x_usart.o(i.USART_Init)
    USART_ReceiveData                        0x08004311   Thumb Code    10  stm32f10x_usart.o(i.USART_ReceiveData)
    USART_SendData                           0x0800431b   Thumb Code     8  stm32f10x_usart.o(i.USART_SendData)
    UsageFault_Handler                       0x08004323   Thumb Code     4  stm32f10x_it.o(i.UsageFault_Handler)
    Usart_SendArray                          0x08004327   Thumb Code    48  usart.o(i.Usart_SendArray)
    Usart_SendByte                           0x08004357   Thumb Code    30  usart.o(i.Usart_SendByte)
    __0printf                                0x08004375   Thumb Code    22  printfa.o(i.__0printf)
    __1printf                                0x08004375   Thumb Code     0  printfa.o(i.__0printf)
    __2printf                                0x08004375   Thumb Code     0  printfa.o(i.__0printf)
    __c89printf                              0x08004375   Thumb Code     0  printfa.o(i.__0printf)
    printf                                   0x08004375   Thumb Code     0  printfa.o(i.__0printf)
    __ARM_fpclassify                         0x08004395   Thumb Code    40  fpclassify.o(i.__ARM_fpclassify)
    __ieee754_rem_pio2                       0x080043bd   Thumb Code   828  rred.o(i.__ieee754_rem_pio2)
    __kernel_cos                             0x08004745   Thumb Code   230  cos_i.o(i.__kernel_cos)
    __kernel_poly                            0x08004841   Thumb Code   170  poly.o(i.__kernel_poly)
    __kernel_sin                             0x080048ed   Thumb Code   224  sin_i.o(i.__kernel_sin)
    __mathlib_dbl_infnan                     0x080049d9   Thumb Code     6  dunder.o(i.__mathlib_dbl_infnan)
    __mathlib_dbl_infnan2                    0x080049df   Thumb Code     4  dunder.o(i.__mathlib_dbl_infnan2)
    __mathlib_dbl_invalid                    0x080049e3   Thumb Code    12  dunder.o(i.__mathlib_dbl_invalid)
    __mathlib_dbl_underflow                  0x080049f1   Thumb Code    10  dunder.o(i.__mathlib_dbl_underflow)
    __scatterload_copy                       0x08004a01   Thumb Code    14  handlers.o(i.__scatterload_copy)
    __scatterload_null                       0x08004a0f   Thumb Code     2  handlers.o(i.__scatterload_null)
    __scatterload_zeroinit                   0x08004a11   Thumb Code    14  handlers.o(i.__scatterload_zeroinit)
    __set_errno                              0x08004a21   Thumb Code     6  errno.o(i.__set_errno)
    atan                                     0x080052e1   Thumb Code   474  atan.o(i.atan)
    atan2                                    0x08005501   Thumb Code   346  atan2.o(i.atan2)
    delay_init                               0x08005681   Thumb Code    50  delay.o(i.delay_init)
    delay_ms                                 0x080056c5   Thumb Code    72  delay.o(i.delay_ms)
    delay_us                                 0x08005711   Thumb Code    72  delay.o(i.delay_us)
    fputc                                    0x0800575d   Thumb Code    24  usart.o(i.fputc)
    main                                     0x08005779   Thumb Code    76  main.o(i.main)
    positionInit                             0x080057c5   Thumb Code   154  gimbalcontrol.o(i.positionInit)
    sin                                      0x0800587d   Thumb Code   150  sin.o(i.sin)
    uart_init                                0x0800591d   Thumb Code   154  usart.o(i.uart_init)
    __mathlib_zero                           0x08005a90   Data           8  qnan.o(.constdata)
    Region$$Table$$Base                      0x08005b88   Number         0  anon$$obj.o(Region$$Table)
    Region$$Table$$Limit                     0x08005ba8   Number         0  anon$$obj.o(Region$$Table)
    SystemCoreClock                          0x20000000   Data           4  system_stm32f10x.o(.data)
    AHBPrescTable                            0x20000004   Data          16  system_stm32f10x.o(.data)
    cntGreen                                 0x20000080   Data           4  gimbalcontrol.o(.data)
    cntRed                                   0x20000084   Data           4  gimbalcontrol.o(.data)
    cntPosInit                               0x20000088   Data           4  gimbalcontrol.o(.data)
    cntCalibrate                             0x2000008c   Data           4  gimbalcontrol.o(.data)
    cntCaliDelay                             0x20000090   Data           4  gimbalcontrol.o(.data)
    pitchSpeed                               0x20000094   Data           4  gimbalcontrol.o(.data)
    rollSpeed                                0x20000098   Data           4  gimbalcontrol.o(.data)
    yawSpeed                                 0x2000009c   Data           4  gimbalcontrol.o(.data)
    gypoZBiasMpu                             0x200000a0   Data           4  gimbalcontrol.o(.data)
    gypoZBiasBoard                           0x200000a4   Data           4  gimbalcontrol.o(.data)
    gypoMedianBoard                          0x200000a8   Data           4  gimbalcontrol.o(.data)
    yawDiff                                  0x200000ac   Data           4  gimbalcontrol.o(.data)
    LED0_flag                                0x200000b0   Data           1  gimbalcontrol.o(.data)
    Mpu6050_ID                               0x20000194   Data           1  mpu6050.o(.data)
    Mpu6050_Accel_X                          0x20000198   Data           4  mpu6050.o(.data)
    Mpu6050_Accel_Y                          0x2000019c   Data           4  mpu6050.o(.data)
    Mpu6050_Accel_Z                          0x200001a0   Data           4  mpu6050.o(.data)
    Mpu6050_Temp                             0x200001a4   Data           4  mpu6050.o(.data)
    Mpu6050_Gyro_X                           0x200001a8   Data           4  mpu6050.o(.data)
    Mpu6050_Gyro_Y                           0x200001ac   Data           4  mpu6050.o(.data)
    Mpu6050_Gyro_Z                           0x200001b0   Data           4  mpu6050.o(.data)
    Mpu6050_Pitch                            0x200001b4   Data           4  mpu6050.o(.data)
    Mpu6050_Roll                             0x200001b8   Data           4  mpu6050.o(.data)
    Mpu6050_Yaw                              0x200001bc   Data           4  mpu6050.o(.data)
    BoardMpu_ID                              0x200001fa   Data           1  boardmpu.o(.data)
    BoardMpu_Accel_X                         0x200001fc   Data           4  boardmpu.o(.data)
    BoardMpu_Accel_Y                         0x20000200   Data           4  boardmpu.o(.data)
    BoardMpu_Accel_Z                         0x20000204   Data           4  boardmpu.o(.data)
    BoardMpu_Temp                            0x20000208   Data           4  boardmpu.o(.data)
    BoardMpu_Gyro_X                          0x2000020c   Data           4  boardmpu.o(.data)
    BoardMpu_Gyro_Y                          0x20000210   Data           4  boardmpu.o(.data)
    BoardMpu_Gyro_Z                          0x20000214   Data           4  boardmpu.o(.data)
    BoardMpu_Pitch                           0x20000218   Data           4  boardmpu.o(.data)
    BoardMpu_Roll                            0x2000021c   Data           4  boardmpu.o(.data)
    BoardMpu_Yaw                             0x20000220   Data           4  boardmpu.o(.data)
    Serial_Z                                 0x200002c4   Data           2  as14ttl.o(.data)
    Serial_X                                 0x200002c6   Data           2  as14ttl.o(.data)
    Serial_Y                                 0x200002c8   Data           2  as14ttl.o(.data)
    ADC_Value                                0x200002ca   Data           6  as14ttl.o(.data)
    ExpPitch                                 0x200002d0   Data           4  as14ttl.o(.data)
    ExpYaw                                   0x200002d4   Data           4  as14ttl.o(.data)
    ExpRoll                                  0x200002d8   Data           4  as14ttl.o(.data)
    fun                                      0x200002ee   Data           1  tim5message.o(.data)
    len                                      0x200002ef   Data           1  tim5message.o(.data)
    MAG3110_angle                            0x20000360   Data           4  mag3110.o(.data)
    MAG3110_XOFF                             0x20000364   Data           4  mag3110.o(.data)
    MAG3110_YOFF                             0x20000368   Data           4  mag3110.o(.data)
    MAG3110_XMax                             0x2000036c   Data           4  mag3110.o(.data)
    MAG3110_YMax                             0x20000370   Data           4  mag3110.o(.data)
    MAG3110_XMin                             0x20000374   Data           4  mag3110.o(.data)
    MAG3110_YMin                             0x20000378   Data           4  mag3110.o(.data)
    MAG3110_XData                            0x2000037c   Data           4  mag3110.o(.data)
    MAG3110_YData                            0x20000380   Data           4  mag3110.o(.data)
    keyValue                                 0x200003f8   Data           1  usart.o(.data)
    __stdout                                 0x200003fc   Data           4  usart.o(.data)
    FirstFlag                                0x20000400   Data           1  usart.o(.data)
    debugPara                                0x20000514   Data           9  pid.o(.bss)
    __initial_sp                             0x20003b38   Data           0  startup_stm32f10x_hd.o(STACK)



==============================================================================

Memory Map of the image

  Image Entry point : 0x08000131

  Load Region LR_IROM1 (Base: 0x08000000, Size: 0x00005fc4, Max: 0x00040000, ABSOLUTE, COMPRESSED[0x00005be8])

    Execution Region ER_IROM1 (Base: 0x08000000, Size: 0x00005ba8, Max: 0x00040000, ABSOLUTE)

    Base Addr    Size         Type   Attr      Idx    E Section Name        Object

    0x08000000   0x00000130   Data   RO         1174    RESET               startup_stm32f10x_hd.o
    0x08000130   0x00000000   Code   RO         2403  * .ARM.Collect$$$$00000000  mc_w.l(entry.o)
    0x08000130   0x00000004   Code   RO         2738    .ARM.Collect$$$$00000001  mc_w.l(entry2.o)
    0x08000134   0x00000004   Code   RO         2741    .ARM.Collect$$$$00000004  mc_w.l(entry5.o)
    0x08000138   0x00000000   Code   RO         2743    .ARM.Collect$$$$00000008  mc_w.l(entry7b.o)
    0x08000138   0x00000000   Code   RO         2745    .ARM.Collect$$$$0000000A  mc_w.l(entry8b.o)
    0x08000138   0x00000008   Code   RO         2746    .ARM.Collect$$$$0000000B  mc_w.l(entry9a.o)
    0x08000140   0x00000000   Code   RO         2748    .ARM.Collect$$$$0000000D  mc_w.l(entry10a.o)
    0x08000140   0x00000000   Code   RO         2750    .ARM.Collect$$$$0000000F  mc_w.l(entry11a.o)
    0x08000140   0x00000004   Code   RO         2739    .ARM.Collect$$$$00002712  mc_w.l(entry2.o)
    0x08000144   0x00000024   Code   RO         1175    .text               startup_stm32f10x_hd.o
    0x08000168   0x000000b0   Code   RO         2667    .text               mf_w.l(fadd.o)
    0x08000218   0x00000064   Code   RO         2669    .text               mf_w.l(fmul.o)
    0x0800027c   0x0000007c   Code   RO         2671    .text               mf_w.l(fdiv.o)
    0x080002f8   0x0000014e   Code   RO         2673    .text               mf_w.l(dadd.o)
    0x08000446   0x000000e4   Code   RO         2675    .text               mf_w.l(dmul.o)
    0x0800052a   0x000000de   Code   RO         2677    .text               mf_w.l(ddiv.o)
    0x08000608   0x00000012   Code   RO         2679    .text               mf_w.l(fflti.o)
    0x0800061a   0x0000000a   Code   RO         2681    .text               mf_w.l(ffltui.o)
    0x08000624   0x00000022   Code   RO         2683    .text               mf_w.l(dflti.o)
    0x08000646   0x0000001a   Code   RO         2685    .text               mf_w.l(dfltui.o)
    0x08000660   0x00000032   Code   RO         2687    .text               mf_w.l(ffixi.o)
    0x08000692   0x00000028   Code   RO         2689    .text               mf_w.l(ffixui.o)
    0x080006ba   0x00000032   Code   RO         2691    .text               mf_w.l(dfixui.o)
    0x080006ec   0x00000026   Code   RO         2693    .text               mf_w.l(f2d.o)
    0x08000712   0x00000002   PAD
    0x08000714   0x00000030   Code   RO         2695    .text               mf_w.l(cdcmple.o)
    0x08000744   0x00000030   Code   RO         2697    .text               mf_w.l(cdrcmple.o)
    0x08000774   0x00000038   Code   RO         2699    .text               mf_w.l(d2f.o)
    0x080007ac   0x00000014   Code   RO         2701    .text               mf_w.l(cfcmple.o)
    0x080007c0   0x00000014   Code   RO         2703    .text               mf_w.l(cfrcmple.o)
    0x080007d4   0x0000002c   Code   RO         2752    .text               mc_w.l(uidiv.o)
    0x08000800   0x00000062   Code   RO         2754    .text               mc_w.l(uldiv.o)
    0x08000862   0x0000001e   Code   RO         2756    .text               mc_w.l(llshl.o)
    0x08000880   0x00000020   Code   RO         2758    .text               mc_w.l(llushr.o)
    0x080008a0   0x00000024   Code   RO         2760    .text               mc_w.l(llsshr.o)
    0x080008c4   0x00000000   Code   RO         2769    .text               mc_w.l(iusefp.o)
    0x080008c4   0x0000006e   Code   RO         2770    .text               mf_w.l(fepilogue.o)
    0x08000932   0x000000ba   Code   RO         2772    .text               mf_w.l(depilogue.o)
    0x080009ec   0x0000002e   Code   RO         2774    .text               mf_w.l(dscalb.o)
    0x08000a1a   0x00000030   Code   RO         2776    .text               mf_w.l(dfixul.o)
    0x08000a4a   0x00000002   PAD
    0x08000a4c   0x00000024   Code   RO         2778    .text               mc_w.l(init.o)
    0x08000a70   0x0000003e   Code   RO         2780    .text               mf_w.l(dfixi.o)
    0x08000aae   0x00000056   Code   RO         2790    .text               mc_w.l(__dczerorl2.o)
    0x08000b04   0x00000088   Code   RO          293    i.AutoMode          gimbalcontrol.o
    0x08000b8c   0x0000007c   Code   RO          294    i.BiasInit          gimbalcontrol.o
    0x08000c08   0x0000019c   Code   RO          524    i.BoardMpu_Calu     boardmpu.o
    0x08000da4   0x000000c0   Code   RO          525    i.BoardMpu_GetAccelData  boardmpu.o
    0x08000e64   0x0000001c   Code   RO          526    i.BoardMpu_GetDevID  boardmpu.o
    0x08000e80   0x000000c4   Code   RO          527    i.BoardMpu_GetGyroData  boardmpu.o
    0x08000f44   0x000000c8   Code   RO          529    i.BoardMpu_Init     boardmpu.o
    0x0800100c   0x0000005a   Code   RO          530    i.BoardMpu_SetDLPF  boardmpu.o
    0x08001066   0x0000005e   Code   RO          531    i.BoardMpu_SetSampleRate  boardmpu.o
    0x080010c4   0x00000004   Code   RO          170    i.BusFault_Handler  stm32f10x_it.o
    0x080010c8   0x00000110   Code   RO          821    i.ConvertAngle      as14ttl.o
    0x080011d8   0x00000002   Code   RO          171    i.DebugMon_Handler  stm32f10x_it.o
    0x080011da   0x00000116   Code   RO         1341    i.GPIO_Init         stm32f10x_gpio.o
    0x080012f0   0x00000012   Code   RO         1345    i.GPIO_ReadInputDataBit  stm32f10x_gpio.o
    0x08001302   0x00000004   Code   RO         1348    i.GPIO_ResetBits    stm32f10x_gpio.o
    0x08001306   0x00000004   Code   RO         1349    i.GPIO_SetBits      stm32f10x_gpio.o
    0x0800130a   0x0000000a   Code   RO         1352    i.GPIO_WriteBit     stm32f10x_gpio.o
    0x08001314   0x0000027c   Code   RO          295    i.GimbalControl     gimbalcontrol.o
    0x08001590   0x00000004   Code   RO          172    i.HardFault_Handler  stm32f10x_it.o
    0x08001594   0x00000034   Code   RO          585    i.I2C1_Init         boardmpui2c.o
    0x080015c8   0x00000094   Code   RO          586    i.I2C1_ReadData     boardmpui2c.o
    0x0800165c   0x00000094   Code   RO          587    i.I2C1_RecvByte     boardmpui2c.o
    0x080016f0   0x00000044   Code   RO          588    i.I2C1_SendACK      boardmpui2c.o
    0x08001734   0x0000005c   Code   RO          589    i.I2C1_SendByte     boardmpui2c.o
    0x08001790   0x0000003c   Code   RO          590    i.I2C1_Start        boardmpui2c.o
    0x080017cc   0x0000003c   Code   RO          591    i.I2C1_Stop         boardmpui2c.o
    0x08001808   0x00000084   Code   RO          592    i.I2C1_WaitACK      boardmpui2c.o
    0x0800188c   0x0000006e   Code   RO          593    i.I2C1_WriteData    boardmpui2c.o
    0x080018fa   0x00000002   PAD
    0x080018fc   0x00000038   Code   RO          647    i.I2C2_Init         mpui2c.o
    0x08001934   0x00000094   Code   RO          648    i.I2C2_ReadData     mpui2c.o
    0x080019c8   0x000000a0   Code   RO          649    i.I2C2_RecvByte     mpui2c.o
    0x08001a68   0x0000004c   Code   RO          650    i.I2C2_SendACK      mpui2c.o
    0x08001ab4   0x00000064   Code   RO          651    i.I2C2_SendByte     mpui2c.o
    0x08001b18   0x00000044   Code   RO          652    i.I2C2_Start        mpui2c.o
    0x08001b5c   0x00000044   Code   RO          653    i.I2C2_Stop         mpui2c.o
    0x08001ba0   0x00000094   Code   RO          654    i.I2C2_WaitACK      mpui2c.o
    0x08001c34   0x0000006e   Code   RO          655    i.I2C2_WriteData    mpui2c.o
    0x08001ca2   0x00000002   PAD
    0x08001ca4   0x00000038   Code   RO          451    i.LED_Init          led.o
    0x08001cdc   0x000001d0   Code   RO          922    i.MAG3110_DataProcess  mag3110.o
    0x08001eac   0x0000016c   Code   RO          924    i.MAG3110_STD       mag3110.o
    0x08002018   0x00000054   Code   RO          966    i.MAG_IIC_Ack       magi2c.o
    0x0800206c   0x00000050   Code   RO          968    i.MAG_IIC_NAck      magi2c.o
    0x080020bc   0x00000074   Code   RO          969    i.MAG_IIC_Read_Byte  magi2c.o
    0x08002130   0x00000064   Code   RO          970    i.MAG_IIC_Send_Byte  magi2c.o
    0x08002194   0x00000050   Code   RO          971    i.MAG_IIC_Start     magi2c.o
    0x080021e4   0x00000050   Code   RO          972    i.MAG_IIC_Stop      magi2c.o
    0x08002234   0x00000068   Code   RO          973    i.MAG_IIC_Wait_Ack  magi2c.o
    0x0800229c   0x0000003a   Code   RO          974    i.MAG_Read_Byte     magi2c.o
    0x080022d6   0x00000002   PAD
    0x080022d8   0x00000134   Code   RO          411    i.MedianFilter      pid.o
    0x0800240c   0x00000004   Code   RO          173    i.MemManage_Handler  stm32f10x_it.o
    0x08002410   0x000000f0   Code   RO          709    i.Motor0_Run        motor.o
    0x08002500   0x00000040   Code   RO          710    i.Motor0_SetPWM     motor.o
    0x08002540   0x000000f0   Code   RO          712    i.Motor1_Run        motor.o
    0x08002630   0x00000044   Code   RO          713    i.Motor1_SetPWM     motor.o
    0x08002674   0x000000f0   Code   RO          715    i.Motor2_Run        motor.o
    0x08002764   0x00000044   Code   RO          716    i.Motor2_SetPWM     motor.o
    0x080027a8   0x00000190   Code   RO          718    i.MotorPWM_Init     motor.o
    0x08002938   0x00000010   Code   RO          719    i.MotorPos_Init     motor.o
    0x08002948   0x00000010   Code   RO          720    i.Motor_Init        motor.o
    0x08002958   0x000001ac   Code   RO          463    i.Mpu6050_Calu      mpu6050.o
    0x08002b04   0x000000c0   Code   RO          464    i.Mpu6050_GetAccelData  mpu6050.o
    0x08002bc4   0x0000001c   Code   RO          465    i.Mpu6050_GetDevID  mpu6050.o
    0x08002be0   0x000000c4   Code   RO          466    i.Mpu6050_GetGyroData  mpu6050.o
    0x08002ca4   0x000000c8   Code   RO          468    i.Mpu6050_Init      mpu6050.o
    0x08002d6c   0x0000005a   Code   RO          469    i.Mpu6050_SetDLPF   mpu6050.o
    0x08002dc6   0x0000005e   Code   RO          470    i.Mpu6050_SetSampleRate  mpu6050.o
    0x08002e24   0x00000002   Code   RO          174    i.NMI_Handler       stm32f10x_it.o
    0x08002e26   0x00000002   PAD
    0x08002e28   0x00000070   Code   RO         1179    i.NVIC_Init         misc.o
    0x08002e98   0x00000174   Code   RO          412    i.PID_Motor0        pid.o
    0x0800300c   0x00000174   Code   RO          413    i.PID_Motor1        pid.o
    0x08003180   0x00000168   Code   RO          414    i.PID_Motor2        pid.o
    0x080032e8   0x00000002   Code   RO          175    i.PendSV_Handler    stm32f10x_it.o
    0x080032ea   0x00000002   PAD
    0x080032ec   0x00000020   Code   RO         1451    i.RCC_APB1PeriphClockCmd  stm32f10x_rcc.o
    0x0800330c   0x00000020   Code   RO         1453    i.RCC_APB2PeriphClockCmd  stm32f10x_rcc.o
    0x0800332c   0x000000d4   Code   RO         1461    i.RCC_GetClocksFreq  stm32f10x_rcc.o
    0x08003400   0x00000134   Code   RO          822    i.RemoteMode        as14ttl.o
    0x08003534   0x00000002   Code   RO          176    i.SVC_Handler       stm32f10x_it.o
    0x08003536   0x00000002   PAD
    0x08003538   0x00000084   Code   RO          866    i.Send_Check        tim5message.o
    0x080035bc   0x000000a8   Code   RO          867    i.Send_Remote       tim5message.o
    0x08003664   0x00000080   Code   RO          823    i.SerialPara_Init   as14ttl.o
    0x080036e4   0x000000dc   Code   RO          824    i.Serial_CalXYZ     as14ttl.o
    0x080037c0   0x00000008   Code   RO          259    i.SetSysClock       system_stm32f10x.o
    0x080037c8   0x000000e0   Code   RO          260    i.SetSysClockTo72   system_stm32f10x.o
    0x080038a8   0x00000144   Code   RO          721    i.SineArray_Init    motor.o
    0x080039ec   0x00000028   Code   RO         1183    i.SysTick_CLKSourceConfig  misc.o
    0x08003a14   0x00000002   Code   RO          177    i.SysTick_Handler   stm32f10x_it.o
    0x08003a16   0x00000002   PAD
    0x08003a18   0x00000060   Code   RO          262    i.SystemInit        system_stm32f10x.o
    0x08003a78   0x00000088   Code   RO          868    i.TIM5_IRQHandler   tim5message.o
    0x08003b00   0x00000018   Code   RO         1833    i.TIM_ARRPreloadConfig  stm32f10x_tim.o
    0x08003b18   0x00000006   Code   RO         1840    i.TIM_ClearITPendingBit  stm32f10x_tim.o
    0x08003b1e   0x00000018   Code   RO         1845    i.TIM_Cmd           stm32f10x_tim.o
    0x08003b36   0x00000022   Code   RO         1866    i.TIM_GetITStatus   stm32f10x_tim.o
    0x08003b58   0x00000098   Code   RO         1874    i.TIM_OC1Init       stm32f10x_tim.o
    0x08003bf0   0x00000012   Code   RO         1877    i.TIM_OC1PreloadConfig  stm32f10x_tim.o
    0x08003c02   0x00000002   PAD
    0x08003c04   0x000000a4   Code   RO         1879    i.TIM_OC2Init       stm32f10x_tim.o
    0x08003ca8   0x0000001a   Code   RO         1882    i.TIM_OC2PreloadConfig  stm32f10x_tim.o
    0x08003cc2   0x00000002   PAD
    0x08003cc4   0x000000a0   Code   RO         1884    i.TIM_OC3Init       stm32f10x_tim.o
    0x08003d64   0x00000012   Code   RO         1887    i.TIM_OC3PreloadConfig  stm32f10x_tim.o
    0x08003d76   0x00000002   PAD
    0x08003d78   0x0000007c   Code   RO         1889    i.TIM_OC4Init       stm32f10x_tim.o
    0x08003df4   0x0000001a   Code   RO         1891    i.TIM_OC4PreloadConfig  stm32f10x_tim.o
    0x08003e0e   0x00000004   Code   RO         1906    i.TIM_SetCompare1   stm32f10x_tim.o
    0x08003e12   0x00000004   Code   RO         1907    i.TIM_SetCompare2   stm32f10x_tim.o
    0x08003e16   0x00000004   Code   RO         1908    i.TIM_SetCompare3   stm32f10x_tim.o
    0x08003e1a   0x00000006   Code   RO         1909    i.TIM_SetCompare4   stm32f10x_tim.o
    0x08003e20   0x000000a4   Code   RO         1916    i.TIM_TimeBaseInit  stm32f10x_tim.o
    0x08003ec4   0x0000015c   Code   RO         1091    i.USART1_IRQHandler  usart.o
    0x08004020   0x00000148   Code   RO          899    i.USART3_IRQHandler  usart3.o
    0x08004168   0x00000018   Code   RO         1653    i.USART_Cmd         stm32f10x_usart.o
    0x08004180   0x0000001a   Code   RO         1656    i.USART_GetFlagStatus  stm32f10x_usart.o
    0x0800419a   0x00000054   Code   RO         1657    i.USART_GetITStatus  stm32f10x_usart.o
    0x080041ee   0x0000004a   Code   RO         1659    i.USART_ITConfig    stm32f10x_usart.o
    0x08004238   0x000000d8   Code   RO         1660    i.USART_Init        stm32f10x_usart.o
    0x08004310   0x0000000a   Code   RO         1667    i.USART_ReceiveData  stm32f10x_usart.o
    0x0800431a   0x00000008   Code   RO         1670    i.USART_SendData    stm32f10x_usart.o
    0x08004322   0x00000004   Code   RO          178    i.UsageFault_Handler  stm32f10x_it.o
    0x08004326   0x00000030   Code   RO         1092    i.Usart_SendArray   usart.o
    0x08004356   0x0000001e   Code   RO         1093    i.Usart_SendByte    usart.o
    0x08004374   0x00000020   Code   RO         2639    i.__0printf         mc_w.l(printfa.o)
    0x08004394   0x00000028   Code   RO         2722    i.__ARM_fpclassify  m_ws.l(fpclassify.o)
    0x080043bc   0x00000388   Code   RO         2727    i.__ieee754_rem_pio2  m_ws.l(rred.o)
    0x08004744   0x000000fc   Code   RO         2705    i.__kernel_cos      m_ws.l(cos_i.o)
    0x08004840   0x000000aa   Code   RO         2724    i.__kernel_poly     m_ws.l(poly.o)
    0x080048ea   0x00000002   PAD
    0x080048ec   0x000000ec   Code   RO         2732    i.__kernel_sin      m_ws.l(sin_i.o)
    0x080049d8   0x00000006   Code   RO         2709    i.__mathlib_dbl_infnan  m_ws.l(dunder.o)
    0x080049de   0x00000004   Code   RO         2710    i.__mathlib_dbl_infnan2  m_ws.l(dunder.o)
    0x080049e2   0x0000000c   Code   RO         2711    i.__mathlib_dbl_invalid  m_ws.l(dunder.o)
    0x080049ee   0x00000002   PAD
    0x080049f0   0x00000010   Code   RO         2714    i.__mathlib_dbl_underflow  m_ws.l(dunder.o)
    0x08004a00   0x0000000e   Code   RO         2784    i.__scatterload_copy  mc_w.l(handlers.o)
    0x08004a0e   0x00000002   Code   RO         2785    i.__scatterload_null  mc_w.l(handlers.o)
    0x08004a10   0x0000000e   Code   RO         2786    i.__scatterload_zeroinit  mc_w.l(handlers.o)
    0x08004a1e   0x00000002   PAD
    0x08004a20   0x0000000c   Code   RO         2764    i.__set_errno       mc_w.l(errno.o)
    0x08004a2c   0x00000184   Code   RO         2646    i._fp_digits        mc_w.l(printfa.o)
    0x08004bb0   0x000006dc   Code   RO         2647    i._printf_core      mc_w.l(printfa.o)
    0x0800528c   0x00000024   Code   RO         2648    i._printf_post_padding  mc_w.l(printfa.o)
    0x080052b0   0x0000002e   Code   RO         2649    i._printf_pre_padding  mc_w.l(printfa.o)
    0x080052de   0x00000002   PAD
    0x080052e0   0x00000220   Code   RO         2378    i.atan              m_ws.l(atan.o)
    0x08005500   0x00000180   Code   RO         2388    i.atan2             m_ws.l(atan2.o)
    0x08005680   0x00000044   Code   RO         1035    i.delay_init        delay.o
    0x080056c4   0x0000004c   Code   RO         1036    i.delay_ms          delay.o
    0x08005710   0x0000004c   Code   RO         1037    i.delay_us          delay.o
    0x0800575c   0x0000001c   Code   RO         1097    i.fputc             usart.o
    0x08005778   0x0000004c   Code   RO            1    i.main              main.o
    0x080057c4   0x000000b8   Code   RO          296    i.positionInit      gimbalcontrol.o
    0x0800587c   0x000000a0   Code   RO         2396    i.sin               m_ws.l(sin.o)
    0x0800591c   0x000000a4   Code   RO         1098    i.uart_init         usart.o
    0x080059c0   0x00000002   Data   RO          723    .constdata          motor.o
    0x080059c2   0x00000006   PAD
    0x080059c8   0x00000098   Data   RO         2379    .constdata          m_ws.l(atan.o)
    0x08005a60   0x00000030   Data   RO         2706    .constdata          m_ws.l(cos_i.o)
    0x08005a90   0x00000008   Data   RO         2726    .constdata          m_ws.l(qnan.o)
    0x08005a98   0x000000c8   Data   RO         2729    .constdata          m_ws.l(rred.o)
    0x08005b60   0x00000028   Data   RO         2733    .constdata          m_ws.l(sin_i.o)
    0x08005b88   0x00000020   Data   RO         2782    Region$$Table       anon$$obj.o


    Execution Region RW_IRAM1 (Base: 0x20000000, Size: 0x00003b38, Max: 0x0000c000, ABSOLUTE, COMPRESSED[0x00000040])

    Base Addr    Size         Type   Attr      Idx    E Section Name        Object

    0x20000000   0x00000014   Data   RW          263    .data               system_stm32f10x.o
    0x20000014   0x0000009d   Data   RW          299    .data               gimbalcontrol.o
    0x200000b1   0x00000003   PAD
    0x200000b4   0x000000a8   Data   RW          416    .data               pid.o
    0x2000015c   0x00000064   Data   RW          472    .data               mpu6050.o
    0x200001c0   0x00000064   Data   RW          533    .data               boardmpu.o
    0x20000224   0x00000004   Data   RW          594    .data               boardmpui2c.o
    0x20000228   0x00000004   Data   RW          656    .data               mpui2c.o
    0x2000022c   0x0000002e   Data   RW          724    .data               motor.o
    0x2000025a   0x00000002   PAD
    0x2000025c   0x00000080   Data   RW          827    .data               as14ttl.o
    0x200002dc   0x00000015   Data   RW          870    .data               tim5message.o
    0x200002f1   0x00000003   PAD
    0x200002f4   0x00000069   Data   RW          903    .data               usart3.o
    0x2000035d   0x00000003   PAD
    0x20000360   0x00000025   Data   RW          926    .data               mag3110.o
    0x20000385   0x00000001   PAD
    0x20000386   0x00000004   Data   RW         1038    .data               delay.o
    0x2000038a   0x00000002   PAD
    0x2000038c   0x00000076   Data   RW         1101    .data               usart.o
    0x20000402   0x00000014   Data   RW         1481    .data               stm32f10x_rcc.o
    0x20000416   0x00000002   PAD
    0x20000418   0x00000004   Data   RW         2765    .data               mc_w.l(errno.o)
    0x2000041c   0x00000101   Zero   RW          415    .bss                pid.o
    0x2000051d   0x00000001   PAD
    0x2000051e   0x00001000   Zero   RW          722    .bss                motor.o
    0x2000151e   0x00000002   PAD
    0x20001520   0x0000110c   Zero   RW          901    .bss                usart3.o
    0x2000262c   0x0000110c   Zero   RW         1099    .bss                usart.o
    0x20003738   0x00000400   Zero   RW         1172    STACK               startup_stm32f10x_hd.o


==============================================================================

Image component sizes


      Code (inc. data)   RO Data    RW Data    ZI Data      Debug   Object Name

       928        156          0        128          0       3717   as14ttl.o
      1212        112          0        100          0       6240   boardmpu.o
       870         50          0          4          0       6120   boardmpui2c.o
       220         26          0          4          0       1691   delay.o
      1080        212          0        157          0       4664   gimbalcontrol.o
        56          6          0          0          0        483   led.o
       828         64          0         37          0       2074   mag3110.o
       702        116          0          0          0       4407   magi2c.o
        76          0          0          0          0     256157   main.o
       152         12          0          0          0       1522   misc.o
      1676        178          2         46       4096       6061   motor.o
      1228        114          0        100          0       6098   mpu6050.o
       934         50          0          4          0       5988   mpui2c.o
      1412        216          0        168        257       5178   pid.o
        36          8        304          0       1024        784   startup_stm32f10x_hd.o
       314          0          0          0          0       4200   stm32f10x_gpio.o
        26          0          0          0          0     206706   stm32f10x_it.o
       276         32          0         20          0       4406   stm32f10x_rcc.o
       958         92          0          0          0      10758   stm32f10x_tim.o
       442          6          0          0          0       6117   stm32f10x_usart.o
         0          0          0          0          0         32   sys.o
       328         28          0         20          0       2057   system_stm32f10x.o
       436         48          0         21          0       2335   tim5message.o
       618         40          0        118       4364       5840   usart.o
       328         40          0        105       4364       1960   usart3.o

    ----------------------------------------------------------------------
     15156       1606        344       1048      14108     555595   Object Totals
         0          0         32          0          0          0   (incl. Generated)
        20          0          6         16          3          0   (incl. Padding)

    ----------------------------------------------------------------------

      Code (inc. data)   RO Data    RW Data    ZI Data      Debug   Library Member Name

       544         70        152          0          0        124   atan.o
       384         38          0          0          0        144   atan2.o
       252         22         48          0          0        124   cos_i.o
        38          6          0          0          0        272   dunder.o
        40          0          0          0          0         68   fpclassify.o
       170          0          0          0          0         96   poly.o
         0          0          8          0          0          0   qnan.o
       904         76        200          0          0        140   rred.o
       160         10          0          0          0        108   sin.o
       236         12         40          0          0        128   sin_i.o
        86          0          0          0          0          0   __dczerorl2.o
         0          0          0          0          0          0   entry.o
         0          0          0          0          0          0   entry10a.o
         0          0          0          0          0          0   entry11a.o
         8          4          0          0          0          0   entry2.o
         4          0          0          0          0          0   entry5.o
         0          0          0          0          0          0   entry7b.o
         0          0          0          0          0          0   entry8b.o
         8          4          0          0          0          0   entry9a.o
        12          6          0          4          0         68   errno.o
        30          0          0          0          0          0   handlers.o
        36          8          0          0          0         68   init.o
         0          0          0          0          0          0   iusefp.o
        30          0          0          0          0         68   llshl.o
        36          0          0          0          0         68   llsshr.o
        32          0          0          0          0         68   llushr.o
      2258         90          0          0          0        452   printfa.o
        44          0          0          0          0         80   uidiv.o
        98          0          0          0          0         92   uldiv.o
        48          0          0          0          0         68   cdcmple.o
        48          0          0          0          0         68   cdrcmple.o
        20          0          0          0          0         68   cfcmple.o
        20          0          0          0          0         68   cfrcmple.o
        56          0          0          0          0         88   d2f.o
       334          0          0          0          0        148   dadd.o
       222          0          0          0          0        100   ddiv.o
       186          0          0          0          0        176   depilogue.o
        62          0          0          0          0         80   dfixi.o
        50          0          0          0          0         76   dfixui.o
        48          0          0          0          0         68   dfixul.o
        34          0          0          0          0         76   dflti.o
        26          0          0          0          0         76   dfltui.o
       228          0          0          0          0         96   dmul.o
        46          0          0          0          0         80   dscalb.o
        38          0          0          0          0         68   f2d.o
       176          0          0          0          0        140   fadd.o
       124          0          0          0          0         88   fdiv.o
       110          0          0          0          0        168   fepilogue.o
        50          0          0          0          0         68   ffixi.o
        40          0          0          0          0         68   ffixui.o
        18          0          0          0          0         68   fflti.o
        10          0          0          0          0         68   ffltui.o
       100          0          0          0          0         76   fmul.o

    ----------------------------------------------------------------------
      7516        346        448          4          0       4316   Library Totals
        12          0          0          0          0          0   (incl. Padding)

    ----------------------------------------------------------------------

      Code (inc. data)   RO Data    RW Data    ZI Data      Debug   Library Name

      2728        234        448          0          0       1204   m_ws.l
      2682        112          0          4          0        964   mc_w.l
      2094          0          0          0          0       2148   mf_w.l

    ----------------------------------------------------------------------
      7516        346        448          4          0       4316   Library Totals

    ----------------------------------------------------------------------

==============================================================================


      Code (inc. data)   RO Data    RW Data    ZI Data      Debug   

     22672       1952        792       1052      14108     551511   Grand Totals
     22672       1952        792         64      14108     551511   ELF Image Totals (compressed)
     22672       1952        792         64          0          0   ROM Totals

==============================================================================

    Total RO  Size (Code + RO Data)                23464 (  22.91kB)
    Total RW  Size (RW Data + ZI Data)             15160 (  14.80kB)
    Total ROM Size (Code + RO Data + RW Data)      23528 (  22.98kB)

==============================================================================

